:040000000DEF00F010
:04000800BBEF59F001
:06001800FF0065EF67F038
:1040000000000000000000000000000000000000B0
:1040100000000000000000000000000000000000A0
:104020000000000000000000000000000000000090
:104030000000000000000000000000010203040571
:1040400006070800FC1F000000F80F00FCE0FF1F3F
:1040500000E003FF03830002000050014E4F542094
:10406000535550504F525445442059455400434FE6
:104070004C4F52004552524F52005348494654004B
:10408000424F4F5354002530386C78005045414B17
:1040900000414E494D004543484F006C6C7300523F
:1040A000504D0041435100564552004143540025B4
:0D40B0006C75004F4B002564002573000067
:1040BE000501BA6F17EF28F0000E726F000E736FC6
:1040CE00C80E746F420E756FB2C5D9F4B3C5DAF46B
:1040DE00DF50B46FB451606F616B626B636B000E37
:1040EE0005EC58F060C56EF561C56FF562C570F5EB
:1040FE0063C571F573EC47F06EC597F56FC598F50E
:10410E0070C599F571C59AF5000E05019B6F000EED
:10411E009C6F7F0E9D6F430E9E6F96EC4BF097C576
:10412E00B0F598C5B1F599C5B2F59AC5B3F535EFA9
:10413E0028F0B2C5D9F4B3C5DAF4DF50B46FB45178
:10414E00606F616B626B636B000E05EC58F060C5BF
:10415E0087F561C588F562C589F563C58AF5000ED8
:10416E0005018B6F000E8C6F200E8D6FC20E8E6F41
:10417E001DEC3CF087C5B0F588C5B1F589C5B2F523
:10418E008AC5B3F535EF28F0000E726F000E736F0F
:10419E00480E746F3F0E756FB2C5D9F4B3C5DAF41D
:1041AE00DF50B46FB451606F616B626B636B000E66
:1041BE0005EC58F060C56EF561C56FF562C570F51A
:1041CE0063C571F573EC47F06EC587F56FC588F55D
:1041DE0070C589F571C58AF5000E05018B6F000E4D
:1041EE008C6FC80E8D6FC20E8E6F1DEC3CF087C5A6
:1041FE00B0F588C5B1F589C5B2F58AC5B3F535EF09
:10420E0028F0B2C5D9F4B3C5DAF4DF50B46FB451A7
:10421E00606F616B626B636B000E05EC58F060C5EE
:10422E006EF561C56FF562C570F563C571F5000E6B
:10423E000501726F000E736F400E746F400E756F36
:10424E0073EC47F06EC5B0F56FC5B1F570C5B2F53C
:10425E0071C5B3F535EF28F0B2C5D9F4B3C5DAF4AC
:10426E00DF50B46FB451606F616B626B636B000EA5
:10427E0005EC58F060C5B0F561C5B1F562C5B2F593
:10428E0063C5B3F535EF28F020EE01F0B251D92613
:10429E00B351DA22DF50B46FB451606F616B626B51
:1042AE00636B000E05EC58F060C58BF561C58CF59F
:1042BE0062C58DF563C58EF5000E0501726F000E99
:1042CE00736F800E746F430E756FB2C5D9F4B3C59C
:1042DE00DAF4DF50B56FB551606F616B626B636B73
:1042EE00000E05EC58F060C56EF561C56FF562C540
:1042FE0070F563C571F573EC47F06EC587F56FC544
:10430E0088F570C589F571C58AF51DEC3CF087C539
:10431E0097F588C598F589C599F58AC59AF5000E61
:10432E0005019B6F000E9C6F800E9D6F400E9E6F61
:10433E0096EC4BF097C5B0F598C5B1F599C5B2F5A9
:10434E009AC5B3F535EF28F0000E9B6F000E9C6FEB
:10435E00000E9D6F400E9E6FB2C5D9F4B3C5DAF450
:10436E00DF50B46FB451606F616B626B636B000EA4
:10437E0005EC58F060C597F561C598F562C599F5DD
:10438E0063C59AF596EC4BF097C587F598C588F5F9
:10439E0099C589F59AC58AF5000E05018B6F000E39
:1043AE008C6F800E8D6FC20E8E6F1DEC3CF087C52C
:1043BE00B0F588C5B1F589C5B2F58AC5B3F535EF47
:1043CE0028F0B2C5D9F4B3C5DAF4DF50B46FB451E6
:1043DE00606F616B626B636B000E05EC58F060C52D
:1043EE0097F561C598F562C599F563C59AF5000E06
:1043FE0005019B6F000E9C6F7F0E9D6F430E9E6F8F
:10440E0096EC4BF097C5B0F598C5B1F599C5B2F5D8
:10441E009AC5B3F535EF28F020EE01F0B251D9264A
:10442E00B351DA22DF50B46FB451606F616B626BBF
:10443E00636B000E05EC58F060C58BF561C58CF50D
:10444E0062C58DF563C58EF5000E0501726F000E07
:10445E00736F800E746F430E756FB2C5D9F4B3C50A
:10446E00DAF4DF50B56FB551606F616B626B636BE1
:10447E00000E05EC58F060C56EF561C56FF562C5AE
:10448E0070F563C571F573EC47F06EC587F56FC5B2
:10449E0088F570C589F571C58AF51DEC3CF087C5A8
:1044AE00BBF588C5BCF589C5BDF58AC5BEF5BBC5CE
:1044BE006EF5BCC56FF5BDC570F5BEC571F5C10E07
:1044CE000501726FCA0E736FA10E746F3D0E756F7C
:1044DE0073EC47F06EC5B0F56FC5B1F570C5B2F5AA
:1044EE0071C5B3F535EF28F020EE01F0B251D926A3
:1044FE00B351DA22DF50B46FB451606F616B626BEF
:10450E00636B000E05EC58F060C58BF561C58CF53C
:10451E0062C58DF563C58EF5000E0501726F000E36
:10452E00736F800E746F430E756FB2C5D9F4B3C539
:10453E00DAF4DF50B56FB551606F616B626B636B10
:10454E00000E05EC58F060C56EF561C56FF562C5DD
:10455E0070F563C571F573EC47F06EC587F56FC5E1
:10456E0088F570C589F571C58AF51DEC3CF087C5D7
:10457E00BBF588C5BCF589C5BDF58AC5BEF5000E6F
:10458E000501726F000E736F000E746F400E756F23
:10459E00BBC56EF5BCC56FF5BDC570F5BEC571F575
:1045AE0073EC47F06EC597F56FC598F570C599F524
:1045BE0071C59AF5000E05019B6F000E9C6F800E63
:1045CE009D6F470E9E6F96EC4BF097C5B0F598C554
:1045DE00B1F599C5B2F59AC5B3F535EF28F0000ED1
:1045EE00B06F000EB16F000EB26F000EB36F35EFED
:1045FE0028F0000EB06F000EB16F000EB26F000EFD
:10460E00B36F35EF28F0B0C5B4F5B1C5B5F5B551FA
:10461E00000AD8B415EF23F000EF23F0B451040ACA
:10462E00D8B463EF20F0010AD8B4A0EF20F0030A4B
:10463E00D8B4CBEF20F0010AD8B4CBEF20F00F0A9C
:10464E00D8B4CBEF20F0010AD8B4CBEF20F0030A98
:10465E00D8B408EF21F0010AD8B433EF21F0070ADD
:10466E00D8B44BEF21F0010AD8B433EF21F0030A8E
:10467E00D8B4ABEF21F0010AD8B4A0EF20F01F0A96
:10468E00D8B4A0EF20F0010AD8B463EF20F0040AEA
:10469E00D8B4E8EF21F0370AD8B413EF22F0110A9C
:1046AE00D8B433EF21F0070AD8B47BEF22F06E0AAC
:1046BE00D8B463EF20F0060AD8B4A0EF20F0330A86
:1046CE00D8B4F6EF22F000EF23F020EE01F0B25155
:1046DE00D926B351DA22DF50B46FB451606F616BDB
:1046EE00626B636B000E05EC58F060C58BF561C50F
:1046FE008CF562C58DF563C58EF5000E0501726FE2
:10470E00000E736F800E746F430E756FB2C5D9F4C1
:10471E00B3C5DAF4DF50606F000E60BFFF0E616F3D
:10472E00626F636F010E05EC58F060C56EF561C5E2
:10473E006FF562C570F563C571F573EC47F06EC524
:10474E0087F56FC588F570C589F571C58AF51DECBD
:10475E003CF087C5BBF588C5BCF589C5BDF58AC5D6
:10476E00BEF5BBC56EF5BCC56FF5BDC570F5BEC556
:10477E0071F56F0E0501726F120E736F030E746F6B
:10478E003B0E756F73EC47F06EC5B0F56FC5B1F5A6
:10479E0070C5B2F571C5B3F535EF28F020EE01F016
:1047AE00B251D926B351DA22DF50B46FB451606FD3
:1047BE00616B626B636B000E05EC58F060C58BF598
:1047CE0061C58CF562C58DF563C58EF5000E0501CC
:1047DE00726F000E736F800E746F430E756FB2C5DD
:1047EE00D9F4B3C5DAF4DF50606F000E60BFFF0E70
:1047FE00616F626F636F010E05EC58F060C56EF568
:10480E0061C56FF562C570F563C571F573EC47F060
:10481E006EC587F56FC588F570C589F571C58AF5C2
:10482E001DEC3CF087C597F588C598F589C599F5B7
:10483E008AC59AF5000E05019B6F000E9C6F800EC7
:10484E009D6F440E9E6F96EC4BF097C5B0F598C5D4
:10485E00B1F599C5B2F59AC5B3F535EF28F020EE4E
:10486E0001F0B251D926B351DA22DF50B46FB451F0
:10487E00606F616B626B636B000E05EC58F060C588
:10488E008BF561C58CF562C58DF563C58EF5000E91
:10489E000501726F000E736F800E746F430E756F8D
:1048AE00B2C5D9F4B3C5DAF4DF50B56FB551606F48
:1048BE00616B626B636B000E05EC58F060C56EF5B4
:1048CE0061C56FF562C570F563C571F573EC47F0A0
:1048DE006EC587F56FC588F570C589F571C58AF502
:1048EE001DEC3CF087C597F588C598F589C599F5F7
:1048FE008AC59AF50A0E05019B6FD70E9C6FA30E03
:10490E009D6F430E9E6F96EC4BF097C5B0F598C514
:10491E00B1F599C5B2F59AC5B3F535EF28F020EE8D
:10492E0001F0B251D926B351DA22DF50B46FB4512F
:10493E00606F616B626B636B000E05EC58F060C5C7
:10494E008BF561C58CF562C58DF563C58EF5000ED0
:10495E000501726F000E736F800E746F430E756FCC
:10496E00B2C5D9F4B3C5DAF4DF50606F000E60BF84
:10497E00FF0E616F626F636F010E05EC58F060C53C
:10498E006EF561C56FF562C570F563C571F573ECB3
:10499E0047F06EC587F56FC588F570C589F571C589
:1049AE008AF51DEC3CF087C597F588C598F589C545
:1049BE0099F58AC59AF5000E05019B6F000E9C6F46
:1049CE00000E9D6FC40E9E6F96EC4BF097C5B0F522
:1049DE0098C5B1F599C5B2F59AC5B3F535EF28F07E
:1049EE00B2C5D9F4B3C5DAF4DF50B46FB451606F09
:1049FE00616B626B636B000E05EC58F060C587F55A
:104A0E0061C588F562C589F563C58AF5000E050195
:104A1E008B6F000E8C6F200E8D6FC20E8E6F1DEC85
:104A2E003CF087C5B0F588C5B1F589C5B2F58AC524
:104A3E00B3F535EF28F020EE01F0B251D926B3517F
:104A4E00DA22DF50B46FB451606F616B626B636BCF
:104A5E00000E05EC58F060C58BF561C58CF562C58E
:104A6E008DF563C58EF5000E0501726F000E736F26
:104A7E00800E746F430E756FB2C5D9F4B3C5DAF4F8
:104A8E00DF50606F000E60BFFF0E616F626F636F6D
:104A9E00010E05EC58F060C56EF561C56FF562C587
:104AAE0070F563C571F573EC47F06EC587F56FC58C
:104ABE0088F570C589F571C58AF51DEC3CF087C582
:104ACE0097F588C598F589C599F58AC59AF5000EAA
:104ADE0005019B6F000E9C6F800E9D6F420E9E6FA8
:104AEE0096EC4BF097C5B0F598C5B1F599C5B2F5F2
:104AFE009AC5B3F535EF28F020EE01F0B251D92664
:104B0E00B351DA22DF50B46FB451606F616B626BD8
:104B1E00636B000E05EC58F060C58BF561C58CF526
:104B2E0062C58DF563C58EF5000E0501726F000E20
:104B3E00736F800E746F430E756FB2C5D9F4B3C523
:104B4E00DAF4DF50606F000E60BFFF0E616F626FB0
:104B5E00636F010E05EC58F060C56EF561C56FF51B
:104B6E0062C570F563C571F573EC47F06EC587F5D8
:104B7E006FC588F570C589F571C58AF51DEC3CF0D9
:104B8E0087C597F588C598F589C599F58AC59AF5AB
:104B9E00000E05019B6F000E9C6F800E9D6F460EE2
:104BAE009E6F96EC4BF097C5B0F598C5B1F599C5CB
:104BBE00B2F59AC5B3F535EF28F0000E9B6F000ED7
:104BCE009C6F000E9D6F400E9E6FB2C5D9F4B3C59B
:104BDE00DAF4DF50B46FB451606F616B626B636B6C
:104BEE00000E05EC58F060C597F561C598F562C5E5
:104BFE0099F563C59AF596EC4BF097C587F598C570
:104C0E0088F599C589F59AC58AF5000E05018B6F51
:104C1E00000E8C6F200E8D6FC20E8E6F1DEC3CF051
:104C2E0087C5B0F588C5B1F589C5B2F58AC5B3F5A6
:104C3E0035EF28F0000E726F000E736FC80E746F92
:104C4E00420E756FB2C5D9F4B3C5DAF4DF50B46F46
:104C5E00B451606F616B626B636B000E05EC58F0C4
:104C6E0060C56EF561C56FF562C570F563C571F50A
:104C7E0073EC47F06EC597F56FC598F570C599F54D
:104C8E0071C59AF5000E05019B6F000E9C6F7F0E8D
:104C9E009D6F430E9E6F96EC4BF097C5B0F598C581
:104CAE00B1F599C5B2F59AC5B3F535EF28F0B2C591
:104CBE00D9F4B3C5DAF4DF50B46FB451606F616BE1
:104CCE00626B636B000E05EC58F060C5B0F561C504
:104CDE00B1F562C5B2F563C5B3F535EF28F020EE38
:104CEE0001F0B251D926B351DA22DF50B46FB4516C
:104CFE00606F616B626B636B000E05EC58F060C504
:104D0E008BF561C58CF562C58DF563C58EF5000E0C
:104D1E000501726F000E736F800E746F430E756F08
:104D2E00B2C5D9F4B3C5DAF4DF50B56FB551606FC3
:104D3E00616B626B636B000E05EC58F060C56EF52F
:104D4E0061C56FF562C570F563C571F573EC47F01B
:104D5E006EC587F56FC588F570C589F571C58AF57D
:104D6E001DEC3CF087C5B6F588C5B7F589C5B8F515
:104D7E008AC5B9F5B6C587F5B7C588F5B8C589F53D
:104D8E00B9C58AF5AB0E05018B6FAA0E8C6FEA0EB4
:104D9E008D6F400E8E6F1DEC3CF087C5B0F588C54B
:104DAE00B1F589C5B2F58AC5B3F535EF28F0000E19
:104DBE00B06F000EB16F000EB26F000EB36F35EF15
:104DCE0028F0B0C5B4F5B1C5B5F5B551030AD8B4E0
:104DDE000BEF27F0070AD8B42AEF27F0010AD8B450
:104DEE0031EF27F02D0AD8B438EF27F0030AD8B4E4
:104DFE003FEF27F06B0AD8B44AEF27F0B40AD8B4C5
:104E0E0051EF27F0DEEF26F0B451010AD8B4D5EFFA
:104E1E0023F0060AD8B436EF24F0110AD8B436EFD0
:104E2E0024F0010AD8B436EF24F0DD0AD8B4F7EF37
:104E3E0024F0220AD8B483EF25F0040AD8B496EFF2
:104E4E0024F0DEEF26F0B451610AD8B422EF25F03B
:104E5E00DEEF26F0B4517D0AD8B4E4EF25F0DEEF94
:104E6E0026F0B451130AD8B476EF26F0DEEF26F012
:104E7E00B4510C0AD8B46CEF23F01D0AD8B46CEF01
:104E8E0023F0DEEF26F0B451280AD8B45EEF26F0F8
:104E9E00DEEF26F0B451040AD8B421EF26F00B0A47
:104EAE00D8B4F7EF24F0DEEF26F0000EB06F000E50
:104EBE00B16F000EB26F000EB36F35EF28F0000E1B
:104ECE00B06F000EB16F000EB26F000EB36F35EF04
:104EDE0028F0B0C5B4F5B1C5B5F5B551010AD8B4D1
:104EEE0093EF27F0020AD8B49AEF27F00B0AD8B442
:104EFE00B5EF27F0040AD8B4C0EF27F01E0AD8B4D5
:104F0E00C7EF27F0040AD8B4CEEF27F00E0AD8B4B4
:104F1E00D5EF27F066EF27F0B451C80AD8B45CEF8E
:104F2E0027F066EF27F0B451010AD8B45CEF27F0F2
:104F3E00030AD8B45CEF27F0010AD8B45CEF27F06F
:104F4E00070AD8B45CEF27F0010AD8B45CEF27F05B
:104F5E00030AD8B45CEF27F066EF27F0B451020ACB
:104F6E00D8B45CEF27F0010AD8B45CEF27F066EFF7
:104F7E0027F0B451820AD8B45CEF27F066EF27F021
:104F8E00B451600AD8B45CEF27F066EF27F0B45145
:104F9E00020AD8B45CEF27F066EF27F0B451020A8C
:104FAE00D8B45CEF27F066EF27F0000EB06F000E5E
:104FBE00B16F000EB26F000EB36F35EF28F0000E1A
:104FCE00B06F000EB16F000EB26F000EB36F35EF03
:104FDE0028F0B0C5B4F5B1C5B5F5B551000AD8B4D1
:104FEE00FFEF27F0030AD8B406EF28F0E6EF27F01C
:104FFE00B4516F0AD8B4DCEF27F0E6EF27F0B451C6
:10500E00020AD8B4DCEF27F0E6EF27F0000EB06FFF
:10501E00000EB16F000EB26F000EB36F35EF28F0B9
:10502E000501BA51B46FB56BB551000AD8B422EF71
:10503E0028F00DEF28F0B451010AD8B40AEF23F08E
:10504E00230AD8B4E8EF26F0E30AD8B4F0EF27F03D
:10505E001F0AD8B470EF27F00DEF28F012000601EA
:10506E0099519A119B119C11D8B440EF28F042EF40
:10507E0028F049EF28F09907000E9A5B9B5B9C5B2A
:10508E003AEF2FF03450351036103710D8B452EFA7
:10509E0028F054EF28F03AEF2FF0010E4E6E340642
:1050AE00000E355A365A375A3AEF2FF0000E6C6F03
:1050BE00000E6D6F000E59EC78F0010E4F6E70EF12
:1050CE002FF0CEAA6DEF28F070EF28F0010E71EFE1
:1050DE0028F0000EEC6FCEA677EF28F07AEF28F0CE
:1050EE00010E7BEF28F0000EEC15E8A081EF28F002
:1050FE0083EF28F085EF28F084EC66F026EC5CF068
:10510E00020E4F6E70EF2FF010EC7CF0020AD8A456
:10511E0093EF28F095EF28F099EF28F0FBEC7DF057
:10512E009BEF28F0FEEC7DF0E00E06018A6F070E75
:10513E008B6F000E8C6F000E8D6F8E9D8E9F8E93DB
:10514E008E918E51C30B20098E6FE50E8F6F070E59
:10515E00906FE40E6100A0F39EF9F00E6100A0F3D3
:10516E009FF9000E6100A0F3A0F9E80E6100A0F314
:10517E009AF9030E6100A0F39BF9000E6100A0F3F3
:10518E009CF9000E6100A0F39DF9E00E6100A0F302
:10519E00A1F9070E6100A0F3A2F9000E6100A0F3C1
:1051AE00A3F9000E6100A0F3A4F9010E6100A0F3B3
:1051BE00A5F97A0E0501786F080E796F8CEC71F0F7
:1051CE0010EC7CF00009D8A4EFEF28F0F1EF28F0F6
:1051DE0021EF29F039EF29F07A0E656F080E666F10
:1051EE00B90E676F060E686FD1EC67F07A0E050187
:1051FE00606F080E616FCC0E626F070E636FA1ECCD
:10520E005DF050EF29F07A0E656F080E666FB90EDD
:10521E00676F060E686FD1EC67F07A0E0501656F49
:10522E00080E666FCC0E676F070E686FD1EC67F0D5
:10523E0050EF29F07A0E0501606F080E616FB90EFE
:10524E00626F060E636FA1EC5DF07A0E0501606F62
:10525E00080E616FCC0E626F070E636FA1EC5DF0EE
:10526E0050EF29F0EFEC7DF00501EC6FED6BED5199
:10527E00000AD8B445EF29F021EF29F0EC51000ACD
:10528E00D8B4F3EF28F0010AD8B40AEF29F021EFD1
:10529E0029F0BE92BF9E030E4F6E70EF2FF0A1EC61
:1052AE007CF060C5ECF561C5EDF562C5EEF563C544
:1052BE00EFF5AAEC7CF005016051EC5D646F615175
:1052CE00ED59656F6251EE59666F6351EF59676F15
:1052DE00640E686F000E696F000E6A6F000E6B6FC2
:1052EE00C0EC70F0050E82EF29F00501D8906733FF
:1052FE00663365336433E82E7CEF29F064C570F5B0
:10530E0065C571F566C572F567C573F5640E746F84
:10531E00000E756F000E766F000E776F7BEC6CF0E3
:10532E0070C530F571C531F572C532F573C533F5FB
:10533E00CBEF29F0090E306E000E316E000E326E7C
:10534E00000E336E040E06014E6F000E4F6F000EF0
:10535E00506F000E516FCBEF29F0EFEC7DF0050191
:10536E00EC6FED6BED51000AD8B4C0EF29F0CBEF26
:10537E0029F0EC51000AD8B456EF29F0010AD8B43E
:10538E00A1EF29F0CBEF29F0040E4F6E70EF2FF046
:10539E0010EC7CF0E806D8B4D7EF29F0DAEF29F05C
:1053AE00010EDBEF29F0000E0501EC6F10EC7CF026
:1053BE000009D8B4E5EF29F0E8EF29F0010EE9EF86
:1053CE0029F0000E0501EC11E8A0F0EF29F0F2EF44
:1053DE0029F0ECEF2AF0A6EC68F00009D8B4FAEF49
:1053EE0029F0FCEF29F0A1EF2AF0830E0501766F6C
:1053FE00060E776F81EC61F0E806D8A409EF2AF06B
:10540E000BEF2AF0A1EF2AF0900E060183198411FA
:10541E0085118611D8A416EF2AF018EF2AF074EF32
:10542E002AF0000E0501F66F000EF76F000EF86FF2
:10543E00000EF96F060120EE04F08851D92689512D
:10544E00DA22DF500501EC6F0F0EEC17ECC5EDF50F
:10545E00EE6BEF6BF06BEFC5F0F5EEC5EFF5EDC54E
:10546E00EEF5ED6B060120EE05F08851D926895137
:10547E00DA22DF500501F16FF151ED11F66FEE51A9
:10548E00F76FEF51F86FF051F96FD890F635F66F60
:10549E00F735F76FF835F86FF935F96F10EC7CF0DA
:1054AE00E806D8A45DEF2AF05FEF2AF0A1EF2AF00C
:1054BE00F6C593F5F7C594F5F8C595F5F9C596F5C6
:1054CE00E80E0501976F030E986F000E996F000E90
:1054DE009A6FC8EC7AF0A1EF2AF0865185110BE194
:1054EE00E10E835D070E8459D8A080EF2AF082EF7B
:1054FE002AF0A1EF2AF010EC7CF00009D8A48AEF74
:10550E002AF08CEF2AF0A1EF2AF07A0E0501806FB7
:10551E00080E816F83C682F584C683F585C684F531
:10552E0086C685F588C686F589C687F564EC4DF086
:10553E00A1EF2AF010EC7CF00009D8A4A9EF2AF014
:10554E00ABEF2AF0C8EF2AF0C0C660F5C1C661F510
:10555E00C2C662F5C3C663F59BEC62F060C593F5F7
:10556E0061C594F562C595F563C596F5E80E05011E
:10557E00976F030E986F000E996F000E9A6FC8EC1E
:10558E007AF0EFEC7DF0E806D8A4D0EF2AF0D2EF57
:10559E002AF0E5EF2AF0D3C760F5D4C761F5D5C779
:1055AE0062F5D6C763F59BEC62F09B0E0501602594
:1055BE006A6FFF0E61216B6FFEEC7CF07A0E0501B7
:1055CE00D86F080ED96F54EC45F04E504D100009AF
:1055DE00D8B4F4EF2AF0F6EF2AF070EF2FF0EFECDC
:1055EE007DF00009D8A4FEEF2AF000EF2BF0A9EF12
:1055FE002DF0A1EC7CF005016051345C6151355801
:10560E006251365863513758D8A010EF2BF012EF75
:10561E002BF016EF2BF0F8EC7DF060EF2EF0F5ECA2
:10562E007DF084EF2DF0000EFD6F0F0EFD6522EF65
:10563E002BF024EF2BF026EF2BF060EF2EF0FD5128
:10564E00646F656B666B676B30C568F531C569F560
:10565E0032C56AF533C56BF5C0EC70F064C5ECF578
:10566E0065C5EDF566C5EEF567C5EFF5AAEC7CF000
:10567E0005016051EC25F06F6151ED21F16F625122
:10568E00EE21F26F6351EF21F36FF051345CF15163
:10569E003558F2513658F3513758D8A059EF2BF0F0
:1056AE005BEF2BF0C9EF2BF0FD51EC6FED6B010EA4
:1056BE00EC27000EED23ECC564F5EDC565F5000E87
:1056CE0065BFFF0E666F676F30C568F531C569F54A
:1056DE0032C56AF533C56BF5C0EC70F064C5EEF5F6
:1056EE0065C5EFF566C5F0F567C5F1F5AAEC7CF07A
:1056FE0005016051EE25F26F6151EF21F36F62519A
:10570E00F021F46F6351F121F56FF251345CF351D6
:10571E003558F4513658F5513758D8B099EF2BF01B
:10572E009BEF2BF0B5EF2BF0FD51EC6FED6B5C505A
:10573E00EC5DED51800AEE6F5D50800AEE59D8A0F7
:10574E00ABEF2BF0ADEF2BF0D2EF2BF0030E0601EB
:10575E00B86FFDC55CF55D6AD2EF2BF0FD5167ECBD
:10576E0073F00501686FFD5190EC73F00501696FE0
:10577E00FD51B9EC73F005016A6FFD511EEC75F029
:10578E00D2EF2BF0000E686F000E696F000E6A6F7D
:10579E00FD511EEC75F05DBEDAEF2BF0D7EF2BF05E
:1057AE00010EDBEF2BF0000E0501EC6FED6BECEC58
:1057BE007DF00501EE6FEE51EC17000EED17EC517A
:1057CE00ED11D8B4EDEF2BF0EFEF2BF0FEEF2BF049
:1057DE00D7EC7CF00501686FD7EC7CF00501696FA2
:1057EE00D7EC7CF005016A6F5C501EEC75F005017C
:1057FE00FD2B1CEF2BF0000EFC6F0F0EFC650AEF5D
:10580E002CF00CEF2CF00EEF2CF060EF2EF0FC5184
:10581E00646F656B666B676B30C568F531C569F58E
:10582E0032C56AF533C56BF5C0EC70F064C5ECF5A6
:10583E0065C5EDF566C5EEF567C5EFF5AAEC7CF02E
:10584E0005016051EC25F06F6151ED21F16F625150
:10585E00EE21F26F6351EF21F36FF051345CF15191
:10586E003558F2513658F3513758D8A041EF2CF035
:10587E0043EF2CF058EF2CF0FC5167EC73F0050160
:10588E00686FFC5190EC73F00501696FFC51B9EC37
:10589E0073F005016A6FFC510F081EEC75F062EF94
:1058AE002CF0000E686F000E696F000E6A6FFC51CF
:1058BE000F081EEC75F00501FC2B04EF2CF0000E0A
:1058CE00FE6F070EFE656EEF2CF070EF2CF072EF90
:1058DE002CF060EF2EF0D8903034646F3134656F59
:1058EE003234666F3334676FFE51686F696B6A6B63
:1058FE006B6BC0EC70F064C5ECF565C5EDF566C577
:10590E00EEF567C5EFF5AAEC7CF005016051EC25CC
:10591E00F06F6151ED21F16F6251EE21F26F635123
:10592E00EF21F36FF051345CF1513558F251365886
:10593E00F3513758D8A0A6EF2CF0A8EF2CF0DCEFDF
:10594E002CF0FE51020DF35067EC73F00501686FF9
:10595E00FE51020DF35090EC73F00501696FFE518C
:10596E00020DF350B9EC73F005016A6FFE510F088A
:10597E001EEC75F00501FE51020DF35067EC73F04D
:10598E000501686FFE51020DF35090EC73F00501A6
:10599E00696FFE51020DF350B9EC73F005016A6F99
:1059AE00FE511EEC75F0F0EF2CF0000E686F000E3D
:1059BE00696F000E6A6FFE510F081EEC75F0000E37
:1059CE000501686F000E696F000E6A6FFE511EECC6
:1059DE0075F00501FE2B68EF2CF0000EFF6F070E21
:1059EE00FF65FCEF2CF0FEEF2CF000EF2DF060EFDA
:1059FE002EF0D8903034646F3134656F3234666F68
:105A0E003334676FFF51686F696B6A6B6B6BC0ECF9
:105A1E0070F064C5ECF565C5EDF566C5EEF567C5C8
:105A2E00EFF5AAEC7CF005016051EC25F06F6151A9
:105A3E00ED21F16F6251EE21F26F6351EF21F36FA1
:105A4E00F051345CF1513558F2513658F351375804
:105A5E00D8A034EF2DF036EF2DF06BEF2DF0FF5177
:105A6E00020DF35067EC73F00501686FFF51020DE4
:105A7E00F35090EC73F00501696FFF51020DF35076
:105A8E00B9EC73F005016A6FFF5107081EEC75F053
:105A9E000501FF51020DF35067EC73F00501686FBD
:105AAE00FF51020DF35090EC73F00501696FFF5139
:105ABE00020DF350B9EC73F005016A6FFF51080F38
:105ACE001EEC75F080EF2DF0000E686F000E696F02
:105ADE00000E6A6FFF5107081EEC75F0000E0501EF
:105AEE00686F000E696F000E6A6FFF51080F1EEC93
:105AFE0075F00501FF2BF6EF2CF012EC7EF0050190
:105B0E00EC6FED6BED51000AD8B490EF2DF0A7EFCE
:105B1E002DF0EC51000AD8B41AEF2BF0010AD8B4CC
:105B2E0002EF2CF0030AD8B466EF2CF0010AD8B4B9
:105B3E00F4EF2CF0070AD8B4A7EF2DF0A7EF2DF055
:105B4E0060EF2EF0EFEC7DF0E806D8A4B1EF2DF06B
:105B5E00B3EF2DF060EF2EF0060173BFB9EF2DF00D
:105B6E00BBEF2DF00AEF2EF0000E0501FA6F0F0EAF
:105B7E00FA65C4EF2DF0C6EF2DF0C8EF2DF060EFF3
:105B8E002EF0FA51646F656B666B676B30C568F506
:105B9E0031C569F532C56AF533C56BF5C0EC70F0E9
:105BAE0072C6ECF573C6EDF5000E0501EDBFFF0EE6
:105BBE00EE6FEF6F6451EC5D6551ED596651EE5924
:105BCE006751EF59D8A0EEEF2DF0F0EF2DF0FDEF6D
:105BDE002DF0D7EC7CF00501686F000E696F000E9A
:105BEE006A6FFA511EEC75F006EF2EF0000E686F1C
:105BFE00000E696F000E6A6FFA511EEC75F005010A
:105C0E00FA2BBEEF2DF0000E0501FB6F0F0EFB659C
:105C1E0013EF2EF015EF2EF017EF2EF060EF2EF0A3
:105C2E0072C672F573C673F517EC76F0050172C580
:105C3E00ECF573C5EDF5000EEDBFFF0EEE6FEF6FD9
:105C4E00FB51646F656B666B676B4EC668F54FC62E
:105C5E0069F550C66AF551C66BF5C0EC70F00501DA
:105C6E006451EC5D6551ED596651EE596751EF592E
:105C7E00D8A044EF2EF046EF2EF053EF2EF0000E8C
:105C8E00686F000E696FD7EC7CF005016A6FFB51EF
:105C9E001EEC75F05CEF2EF0000E686F000E696F53
:105CAE00000E6A6FFB511EEC75F00501FB2B0DEF1C
:105CBE002EF0375036100CE15E0E345C010E355866
:105CCE00D8A06CEF2EF06FEF2EF0010E70EF2EF0CD
:105CDE00000E0501EC6FED6B4E50EC17000EED173C
:105CEE00EC51ED11D8B47EEF2EF080EF2EF082EF56
:105CFE002EF0000E4D6E000E4E6E70EF2FF0CEB8E1
:105D0E008BEF2EF08DEF2EF0AAEF2EF0B3EC7CF091
:105D1E000501605106014A5D0501615106014B59AD
:105D2E000501625106014C590501635106014D5999
:105D3E00D8B0A4EF2EF0A6EF2EF0BBEF2EF0060E8D
:105D4E004F6E70EF2FF006014A694B694C694D6931
:105D5E00EFEC7DF00009D8B4B7EF2EF0B9EF2EF0CE
:105D6E00BBEF2EF0000E4F6E06014A290AE14B29B9
:105D7E0008E14C2906E14D29D8A4C8EF2EF0CAEF50
:105D8E002EF070EF2FF05CEC36F00009D8A4D2EFB5
:105D9E002EF0D4EF2EF070EF2FF0000E4F6E43EC7E
:105DAE006FF070EF2FF01DEC54F00009D8A4E2EF65
:105DBE002EF0E4EF2EF070EF2FF0000E4F6EBEECD3
:105DCE0079F070EF2FF0000E6C6FD7EC7CF00501C0
:105DDE006D6F000E59EC78F0B3EC7CF0050160515C
:105DEE000601525D050161510601535905016251CB
:105DFE00060154590501635106015559D8B00AEFF1
:105E0E002FF00CEF2FF070EF2FF0040E4F6E43ECCF
:105E1E006FF0000E05016C6F000E6D6F000E59ECE9
:105E2E0078F070EF2FF05DBE1FEF2FF021EF2FF007
:105E3E0023EF2FF070EF2FF0375036100BE15E0E80
:105E4E00345C010E3558D8A02FEF2FF031EF2FF024
:105E5E0035EF2FF0000E4F6E70EF2FF0BE82BF8E1B
:105E6E00030031EF2FF04F500501EC6FED6BED514C
:105E7E00000AD8B445EF2FF070EF2FF0EC51000A66
:105E8E00D8B45DEF28F0010AD8B468EF28F0030A01
:105E9E00D8B48BEF28F0010AD8B4B4EF29F0070A72
:105EAE00D8B4CFEF29F0010AD8B486EF2EF0030A4A
:105EBE00D8B4DAEF2EF0010AD8B41AEF2FF00F0A89
:105ECE00D8B4EAEF2EF0010AD8B470EF2FF070EFCD
:105EDE002FF01200A0C5D9F4A1C5DAF4DEC4F6F491
:105EEE00DDC4F7F4000EF86E0800F550250AD8A4AC
:105EFE0083EF2FF085EF2FF0DCEF32F0A0C5D9F451
:105F0E00A1C5DAF4DE2A000EDD22000E396E000E77
:105F1E00386E38C53DF53A683B68000E0501B36F23
:105F2E00000EB26FC7EF2FF03D82A0C5D9F4A1C508
:105F3E00DAF4DE2A000EDD22C7EF2FF0000EB36F6B
:105F4E00010EB26FC7EF2FF0A0C5D9F4A1C5DAF4D8
:105F5E00DEC4F6F4DDC4F7F4000EF86E0800F5505A
:105F6E00A46FA56BA551000AD8B4C0EF2FF0A5EF12
:105F7E002FF0A451300AD8B49BEF2FF0A5EF2FF0DD
:105F8E00B251B311D8B4CEEF2FF0D0EF2FF0ABEF5C
:105F9E002FF0A0C5D9F4A1C5DAF4DEC4F6F4DDC441
:105FAE00F7F4000EF86E0800F5502A0AD8A4E2EFB6
:105FBE002FF0E4EF2FF00DEF30F0A0C5D9F4A1C50E
:105FCE00DAF4DE2A000EDD22A2C5D9F4A3C5DAF476
:105FDE00DFC4A4F5020EDE26DFC4A5F5000EDD2219
:105FEE00A4C5D9F4A5C5DAF4DEC438F5DDC439F597
:105FFE0039BE06EF30F004EF30F043EF30F03D8065
:10600E00386C391ED8B0392A43EF30F0A0C5D9F418
:10601E00A1C5DAF4DEC466F5DDC467F521EC57F0F0
:10602E0066C538F567C539F524EF30F0A0C5D9F44B
:10603E00A1C5DAF4DE2A000EDD22A0C5D9F4A1C571
:10604E00DAF4DEC4F6F4DDC4F7F4000EF86E0800E0
:10605E00F5C4A4F5D00E0501A425A56FA66BFF0E01
:10606E00A623A65109E10A0EA55DD8A041EF30F096
:10607E0043EF30F01DEF30F0A0C5D9F4A1C5DAF42E
:10608E00DEC4BDF5DDC4BEF5BDC5F6F4BEC5F7F480
:10609E00000EF86E0800F5C4BCF562EF30F0BD4B93
:1060AE00BE2B87EF30F0690EBC6F87EF30F0000E1D
:1060BE00BC6F87EF30F0BC51A46FA56BA551000AE1
:1060CE00D8B46CEF30F05EEF30F0A451640AD8B45F
:1060DE005AEF30F00D0AD8B45AEF30F0050AD8B4A2
:1060EE0056EF30F0020AD8B45AEF30F01B0AD8B48B
:1060FE005AEF30F00D0AD8B45AEF30F05EEF30F0B0
:10610E00BDC5F6F4BEC5F7F4000EF86E0800F550E6
:10611E00640AD8B495EF30F097EF30F003EF31F01A
:10612E00BDC5F6F4BEC5F7F4000EF86E0800F550C6
:10613E00690AD8A4A5EF30F0A7EF30F042EF31F0A6
:10614E0003EF31F0A2C5D9F4A3C5DAF4DFC4A4F588
:10615E00020EDE26DFC4A5F5000EDD22A4C5D9F49D
:10616E00A5C5DAF4DEC4B4F5DDC4B5F5000EB5BFD1
:10617E00FF0EB66FB76FB86FB96FBA6FBB6F18EF10
:10618E0031F0A2C5D9F4A3C5DAF4DFC4A4F5040E28
:10619E00DE26DFC4A5F5000EDD22A4C5D9F4A5C503
:1061AE00DAF4DEC4A6F5DEC4A7F5DEC4A8F5DEC4B7
:1061BE00A9F5A6C5AAF5A7C5ABF5A8C5ACF5A9C5A1
:1061CE00ADF5AE6BADBFAE69AEC5AFF5AEC5B0F554
:1061DE00AEC5B1F5AAC5B4F5ABC5B5F5ACC5B6F54A
:1061EE00ADC5B7F5AEC5B8F5AFC5B9F5B0C5BAF51D
:1061FE00B1C5BBF518EF31F0BC51A46FA56BA5511D
:10620E00000AD8B40DEF31F018EF31F0A451690A3D
:10621E00D8B4A9EF30F0050AD8B4C8EF30F018EFB3
:10622E0031F0010EBD25A46F000EBE21A56FA0C5D5
:10623E00D9F4A1C5DAF4A4C5DEF4A5C5DDF49EC576
:10624E007BF59FC57CF5B4C57DF5B5C57EF5B6C5A8
:10625E007FF5B7C580F5B8C581F5B9C582F5BAC564
:10626E0083F5BBC584F583EC50F07BC59EF57CC5EC
:10627E009FF5FAEF32F0BDC5F6F4BEC5F7F4000E89
:10628E00F86E0800F550780AD8B450EF31F052EF9E
:10629E0031F0AAEF31F0BDC5F6F4BEC5F7F4000E2D
:1062AE00F86E0800F550750AD8A460EF31F062EF71
:1062BE0031F023EF32F0AAEF31F0A2C5D9F4A3C525
:1062CE00DAF4DFC4A4F5020EDE26DFC4A5F5000E57
:1062DE00DD22A4C5D9F4A5C5DAF4DEC4A6F5DDC465
:1062EE00A7F5A6C5B4F5A7C5B5F5B66BB76BB86B74
:1062FE00B96BBA6BBB6BBFEF31F0A2C5D9F4A3C5B6
:10630E00DAF4DFC4A4F5040EDE26DFC4A5F5000E14
:10631E00DD22A4C5D9F4A5C5DAF4DEC4A6F5DEC423
:10632E00A7F5DEC4A8F5DEC4A9F5A651B46FA75132
:10633E00B56FA851B66FA951B76FB86BB96BBA6B81
:10634E00BB6BBFEF31F0BC51A46FA56BA551000A1A
:10635E00D8B4B4EF31F0BFEF31F0A451690AD8B41C
:10636E0064EF31F0050AD8B484EF31F0BFEF31F0AD
:10637E00010EBD25A46F000EBE21A56FA0C5D9F4D8
:10638E00A1C5DAF4A4C5DEF4A5C5DDF407EF32F03D
:10639E009EC57BF59FC57CF5B4C57DF5B5C57EF56F
:1063AE00B6C57FF5B7C580F5B8C581F5B9C582F517
:1063BE00BAC583F5BBC584F530EC55F07BC59EF5AB
:1063CE007CC59FF5FAEF32F09EC57BF59FC57CF537
:1063DE00B4C57DF5B5C57EF5B6C57FF5B7C580F5F7
:1063EE00B8C581F5B9C582F5BAC583F5BBC584F5C7
:1063FE0034EC56F07BC59EF57CC59FF5FAEF32F076
:10640E00BDC5F6F4BEC5F7F4000EF86E0800F550E3
:10641E00A46FA56BA551000AD8B418EF32F023EF84
:10642E0032F0A451750AD8B4CFEF31F00D0AD8B4BA
:10643E00EBEF31F023EF32F0BDC5F6F4BEC5F7F445
:10644E00000EF86E0800F5506E0AD8A431EF32F047
:10645E0033EF32F0A7EF32F07EEF32F0A2C5D9F46F
:10646E00A3C5DAF4DFC4A4F5020EDE26DFC4A5F55B
:10647E00000EDD22A4C5D9F4A5C5DAF4DEC4A6F556
:10648E00DDC4A7F5A6C5D9F4A7C5DAF46CC6DEF44B
:10649E006DC6DDF493EF32F06CC6A4F56DC6A5F5AE
:1064AE00000EA5BFFF0EA66FA76FA2C5D9F4A3C598
:1064BE00DAF4DFC4A8F5020EDE26DFC4A9F5000E5D
:1064CE00DD22A8C5D9F4A9C5DAF4DEC4AAF5DDC467
:1064DE00ABF5AAC5D9F4ABC5DAF4A4C5DEF4A5C5EF
:1064EE00DEF4A6C5DEF4A7C5DEF493EF32F0BC51A0
:1064FE00A46FA56BA551000AD8B488EF32F093EFC4
:10650E0032F0A451690AD8B435EF32F0050AD8B486
:10651E0053EF32F093EF32F0010EBD25A46F000E53
:10652E00BE21A56FA0C5D9F4A1C5DAF4A4C5DEF4C9
:10653E00A5C5DDF4000E9F6F000E9E6FFAEF32F0D0
:10654E00A0C5D9F4A1C5DAF4DEC4F6F4DDC4F7F4BF
:10655E00000EF86E0800F550250AD8A4B9EF32F0F7
:10656E00BBEF32F0D3EF32F0A0C5D9F4A1C5DAF407
:10657E00DE2A000EDD22000E616F250E606F9EC5B5
:10658E0062F59FC563F50EEC69F0000E05019F6F75
:10659E00010E9E6FFAEF32F0A0C5D9F4A1C5DAF460
:1065AE00DE2A000EDD22A1EF32F0A0C5D9F4A1C57E
:1065BE00DAF4DEC4F6F4DDC4F7F4000EF86E08006B
:1065CE00F5500501606F616B9EC562F59FC563F561
:1065DE000EEC69F0A0C5D9F4A1C5DAF4DE2A000EDE
:1065EE00DD22CCEF32F01200050120EE2CF17851B5
:1065FE00D9267951DA22DF50D8A408EF33F00AEF0A
:10660E0033F00DEF33F0030E5BEF36F020EE01F0BA
:10661E007851D9267951DA22000EDF6E78C56CF5E5
:10662E0079C56DF51FEC63F0000E0501886FA1EFC3
:10663E0033F0000E8B6F8B51230DF3C47AF5F4C437
:10664E007BF57A5178257C6F7B5179217D6F020E17
:10665E007C25D96E000E7D21DA6E8851020DF3C4B1
:10666E007FF5F4C480F57F517825816F80517921B3
:10667E00826F2D0E8125E16E010E8221E26E00EEFB
:10668E0002F0E650E926E550EA22DE50EE18D8A4D4
:10669E0053EF33F055EF33F057EF33F0A0EF33F005
:1066AE00070E8B19D8A45EEF33F060EF33F097EF3F
:1066BE0033F08851020DF3C47AF5F4C47BF57A51A8
:1066CE0078257C6F7B5179217D6F2D0E7C25D96EBF
:1066DE00010E7D21DA6E10EE02F0DE50E126DD5065
:1066EE00E22278C5D9F479C5DAF4DF507E6F7E5197
:1066FE00230DF3C47FF5F4C480F57F517825816FA7
:10670E0080517921826F020E8125D96E000E822171
:10671E00DA6EE7C4DFF478C5D9F479C5DAF4DF2A86
:10672E008B2B070E8B659EEF33F0A0EF33F022EF2D
:10673E0033F0882B20EE2CF17851D9267951DA22BC
:10674E00DE50885DD8A0AEEF33F0B0EF33F020EF1F
:10675E0033F0000E8F6F4DEF36F0010E896F000E85
:10676E008E6F000E8D6F000E8A6F20EF34F08A51FF
:10677E00020DF3C47AF5F4C47BF57A5178257C6F5B
:10678E007B5179217D6F2D0E7C25D96E010E7D21D9
:10679E00DA6E10EE02F0DE50E126DD50E2228F516D
:1067AE00230DF3C47FF5F4C480F57F517825816FF6
:1067BE0080517921826F020E8125D96E000E8221C1
:1067CE00DA6EE650DE18D8A4EFEF33F0F1EF33F0C7
:1067DE001FEF34F08A51020DF3C47AF5F4C47BF541
:1067EE007A5178257C6F7B5179217D6F2D0E7C251A
:1067FE00D96E010E7D21DA6E10EE03F0DE50E12629
:10680E00DD50E222E6C47EF5E5C47FF57FC57EF558
:10681E007F6B7E517F11D8A417EF34F01BEF34F04D
:10682E00806B802B1DEF34F00501806B802989274A
:10683E008A2B20EE2CF17851D9267951DA22DE50AE
:10684E008A5DD8A02DEF34F02FEF34F0BEEF33F089
:10685E00070E896135EF34F037EF34F07DEF34F009
:10686E008F51230DF3C47AF5F4C47BF57A51782554
:10687E007C6F7B5179217D6F8E517C27000E7D239D
:10688E00030E7C25D96E000E7D21DA6E89C5DFF4EC
:10689E008E2B8F51230DF3C47AF5F4C47BF57A5108
:1068AE0078257C6F7B5179217D6F020E7C25D96E08
:1068BE00000E7D21DA6E8F51230DF3C47EF5F4C4E4
:1068CE007FF57E517825806F7F517921816F8E51B2
:1068DE008027000E8123030E8025E16E000E81219C
:1068EE00E26EDFC4E7F48E2BDCEF34F08F51230D14
:1068FE00F3C47AF5F4C47BF57A5178257C6F7B511D
:10690E0079217D6F8E517C27000E7D23030E7C2511
:10691E00D96E000E7D21DA6E8D511009DF6E8E2B31
:10692E008F51230DF3C47AF5F4C47BF57A51782593
:10693E007C6F7B5179217D6F8E517C27000E7D23DC
:10694E00030E7C25D96E000E7D21DA6E89C5DFF42B
:10695E008E2B8F51230DF3C47AF5F4C47BF57A5147
:10696E0078257C6F7B5179217D6F020E7C25D96E47
:10697E00000E7D21DA6E8F51230DF3C47EF5F4C423
:10698E007FF57E517825806F7F517921816F8E51F1
:10699E008027000E8123030E8025E16E000E8121DB
:1069AE00E26EDFC4E7F47AEF34F0000E8C6F3DEF49
:1069BE0036F08C51020DF3C47AF5F4C47BF57A519E
:1069CE0078257C6F7B5179217D6F2D0E7C25D96EBC
:1069DE00010E7D21DA6E10EE02F0DE50E126DD5062
:1069EE00E2228F51230DF3C47FF5F4C480F57F515D
:1069FE007825816F80517921826F020E8125D96EA3
:106A0E00000E8221DA6EE650DE18D8A411EF35F0B2
:106A1E0013EF35F028EF36F08C51020DF3C47AF5F2
:106A2E00F4C47BF57A5178257C6F7B5179217D6F8B
:106A3E002D0E7C25D96E010E7D21DA6E10EE03F03F
:106A4E00DE50E126DD50E222E6C47EF5E5C47FF598
:106A5E007FC57EF57F6B7E517F11D8A439EF35F05F
:106A6E003BEF35F03DEF35F08AEF35F08D51080DE7
:106A7E00F3C47AF5F4C47BF58F51230DF3C47CF582
:106A8E00F4C47DF57C5178257E6F7D5179217F6F21
:106A9E007A517E25806F7B517F21816F8E518027A9
:106AAE00000E8123030E8025D96E000E8121DA6E31
:106ABE008C51020DF3C482F5F4C483F5825178250E
:106ACE00846F83517921856F2D0E8425E16E010E21
:106ADE008521E26E00EE03F0E650E926E550EA224B
:106AEE00EEC486F5EDC487F587C586F5876B8651AE
:106AFE00DF6E8D0E606F050E616F8E0E626F050E6E
:106B0E00636FBFEC72F005018C51020DF3C47AF580
:106B1E00F4C47BF57A5178257C6F7B5179217D6F9A
:106B2E002D0E7C25D96E010E7D21DA6E10EE03F04E
:106B3E00DE50E126DD50E222E6C47EF5E5C47FF5A7
:106B4E007E510009D8B4AEEF35F0B0EF35F0F6EF68
:106B5E0035F08C51020DF3C47AF5F4C47BF57A51FD
:106B6E0078257C6F7B5179217D6F2D0E7C25D96E1A
:106B7E00010E7D21DA6E10EE03F0DE50E126DD50BF
:106B8E00E2228D51080DF3C47EF5F4C47FF58F51CA
:106B9E00230DF3C480F5F4C481F580517825826FFE
:106BAE0081517921836F7E518225846F7F5183219C
:106BBE00856F8E518427000E8523030E8425D96E92
:106BCE00000E8521DA6EE7C4DFF48D0E606F050EC0
:106BDE00616F8E0E626F050E636FBFEC72F0050172
:106BEE008D51D8B4FDEF35F0FFEF35F028EF36F0CC
:106BFE008E05D8A405EF36F007EF36F028EF36F005
:106C0E008D51080DF3C47AF5F4C47BF58F51230D25
:106C1E00F3C47CF5F4C47DF57C5178257E6F7D51EF
:106C2E0079217F6F7A517E25806F7B517F21816F15
:106C3E00030E8025D96E000E8121DA6E8D5120094A
:106C4E00DF6E8F51230DF3C47AF5F4C47BF57A51C0
:106C5E0078257C6F7B5179217D6F230E7C25D96E33
:106C6E00000E7D21DA6E8D29DF6E8C2B20EE2CF13D
:106C7E007851D9267951DA22DE508C5DD8A04AEFB0
:106C8E0036F04CEF36F0E0EF34F08F2B78C5D9F4B8
:106C9E0079C5DAF4DE508F5DD8A058EF36F05AEF92
:106CAE0036F0B4EF33F0010E12004950D8B462EF53
:106CBE0036F064EF36F064EF39F0010E86EF39F0FE
:106CCE00010EBDEC77F0010E4A6E64EF36F0000E49
:106CDE00786F010E7825606F616B000E6123010ED7
:106CEE00636FF40E626F8DEC7AF0050160C573F57B
:106CFE0061C574F5000E74BFFF0E756F766FAAEC4A
:106D0E007CF005017351605D745161597551625982
:106D1E0076516359D8A096EF36F098EF36F0C5EF5E
:106D2E0036F078C560F5616B000E636F020E626F10
:106D3E00A2EC6AF0050160A1A7EF36F0A9EF36F0DC
:106D4E00B6EF36F0000E686F000E696FD7EC7CF070
:106D5E0005016A6F78511EEC75F008EF37F0000EE2
:106D6E00686FD7EC7CF00501696FD7EC7CF00501FC
:106D7E006A6F78511EEC75F008EF37F0010E78252A
:106D8E00606F616B000E6123010E636FF40E626F14
:106D9E008DEC7AF0050160C573F561C574F5000ED2
:106DAE0074BFFF0E756F766FA1EC7CF0050160511C
:106DBE0073190DE1615174190AE16251751907E1F8
:106DCE0063517619D8A4EEEF36F0F0EF36F0FFEF00
:106DDE0036F0D7EC7CF00501686FD7EC7CF005013E
:106DEE00696F000E6A6F78511EEC75F008EF37F080
:106DFE00000E686F000E696F000E6A6F78511EEC00
:106E0E0075F00501782B0F0E786510EF37F012EF45
:106E1E0037F070EF36F0020E4A6E64EF36F04650E1
:106E2E00D8B41CEF37F01EEF37F044EF37F0AAEC72
:106E3E007CF00501635162110BE1F50E605D010EF0
:106E4E006159D8A02DEF37F02FEF37F040EF37F024
:106E5E00AAEC7CF00C0E050160256F6FFE0E612111
:106E6E00706FFF0E6221716FFF0E6321726FF5EC72
:106E7E0075F0000E466E6AEF36F04550D8B44AEF04
:106E8E0037F04CEF37F072EF37F0AAEC7CF00501DB
:106E9E006351621109E1400E605D1F0E6159D8B059
:106EAE005BEF37F05DEF37F06EEF37F0AAEC7CF06A
:106EBE00F40E050160256F6F010E6121706F000EDB
:106ECE006221716F000E6321726FF5EC75F0000E8A
:106EDE00456E6AEF36F04750D8B478EF37F07AEF58
:106EEE0037F099EF37F0000E476EB5EC7AF086EF7B
:106EFE0039F04A50736F746B7451000AD8B48AEF2C
:106F0E0037F064EF36F07351000AD8B467EF36F0FD
:106F1E00010AD8B46EEF36F0030AD8B416EF37F084
:106F2E0064EF36F064EF36F0020EBDEC77F06AEFE8
:106F3E0036F0000E776F010E7725606F616B000ED5
:106F4E006123010E636FF40E626F8DEC7AF0050112
:106F5E0060C573F561C574F5000E74BFFF0E756FD5
:106F6E00766FA1EC7CF005017351605D745161592F
:106F7E007551625976516359D8A0C8EF37F0CAEFF0
:106F8E0037F0F7EF37F077C560F5616B000E636F82
:106F9E00020E626FA2EC6AF0050160A1D9EF37F024
:106FAE00DBEF37F0E8EF37F0D7EC7CF00501686FD8
:106FBE00000E696F000E6A6F77511EEC75F000EFD0
:106FCE0038F0D7EC7CF00501686FD7EC7CF005014A
:106FDE00696F000E6A6F77511EEC75F000EF38F096
:106FEE00000E686F000E696F000E6A6F77511EEC0F
:106FFE0075F00501772B0F0E776508EF38F00AEF65
:10700E0038F0A2EF37F012EF37F04650D8B412EF47
:10701E0038F014EF38F038EF38F0A1EC7CF00501C1
:10702E00635162110BE1F50E605D010E6159D8A03E
:10703E0023EF38F025EF38F040EF37F0A1EC7CF07D
:10704E000C0E050160256F6FFE0E6121706FFF0E35
:10705E006221716FFF0E6321726FE6EC76F040EFE6
:10706E0037F04550D8B43EEF38F040EF38F064EFCB
:10707E0038F0A1EC7CF005016351621109E1400E7C
:10708E00605D1F0E6159D8B04FEF38F051EF38F0F8
:10709E006EEF37F0A1EC7CF0F40E050160256F6FFA
:1070AE00010E6121706F000E6221716F000E63215F
:1070BE00726FE6EC76F06EEF37F04750D8B46AEFA9
:1070CE0038F06CEF38F099EF37F07AEF37F04A502E
:1070DE00736F746B7451000AD8B478EF38F064EFA4
:1070EE0036F07351000AD8B49BEF37F0010AD8B4CA
:1070FE00A0EF37F0030AD8B40CEF38F064EF36F097
:10710E00030EBDEC77F06AEF36F04650D8B492EF2E
:10711E0038F094EF38F0B0EF38F012EC7EF0000952
:10712E00D8B49CEF38F09EEF38F0A7EF38F012ECA1
:10713E007EF00501736F7305E6EC7BF0AAEF38F075
:10714E00030EE6EC7BF0000E466E000E4A6E64EF08
:10715E0036F04550D8B4B6EF38F0B8EF38F0D4EF7B
:10716E0038F012EC7EF00501736F030E7361C2EFFF
:10717E0038F0C4EF38F0CDEF38F012EC7EF00501A8
:10718E00736F7329E6EC7BF0D0EF38F0000EE6EC6F
:10719E007BF0000E456EACEF38F04750D8B4DAEF06
:1071AE0038F0DCEF38F099EF37F07AEF37F04A50DD
:1071BE00736F746B7451000AD8B4E8EF38F064EF53
:1071CE0036F07351000AD8B487EF38F0010AD8B4FC
:1071DE0012EF37F0030AD8B48CEF38F064EF36F0C4
:1071EE00040EBDEC77F06AEF36F04650D8B402EFDD
:1071FE0039F004EF39F01CEF39F010EC7EF0000995
:10720E00D8B40CEF39F00EEF39F017EF39F010EC6F
:10721E007EF00501736F7305D8EC7BF0AAEF38F0A2
:10722E00030ED8EC7BF0AAEF38F04550D8B422EF1D
:10723E0039F024EF39F03EEF39F010EC7EF0050115
:10724E00736F030E73612EEF39F030EF39F039EFB3
:10725E0039F010EC7EF00501736F7329D8EC7BF0DA
:10726E00D0EF38F0000ED8EC7BF0D0EF38F047506E
:10727E00D8B444EF39F046EF39F099EF37F07AEFA2
:10728E0037F04A50736F746B7451000AD8B452EFD2
:10729E0039F064EF36F07351000AD8B4F7EF38F0D6
:1072AE00010AD8B412EF37F0030AD8B4FCEF38F065
:1072BE0064EF36F0000E86EF39F04B500501736F18
:1072CE00746B7451000AD8B46FEF39F061EF39F076
:1072DE007351000AD8B480EF37F0010AD8B46EEFBC
:1072EE0038F0030AD8B4DEEF38F0010AD8B448EF0C
:1072FE0039F0070AD8B461EF39F061EF39F01200B6
:10730E00B90E05019A6F400E9B6F200E9C6F080EF2
:10731E009D6F79EC7AF04250D8B498EF39F09AEF2D
:10732E0039F09BEF3BF0100E0501C76F070EC86FCB
:10733E00000ECA6F320EC96FB30ECB6F400ECC6FFC
:10734E000FEC62F0C7C570F6C8C571F65CEF3AF087
:10735E00420E666F070E676F21EC57F0050166C58A
:10736E006FF567C570F5000E70BFFF0E716F726F0F
:10737E00E6EC76F0D5EF3BF0420E666F070E676FC8
:10738E0021EC57F0050166C56FF567C570F5000E67
:10739E0070BFFF0E716F726FF5EC75F0D5EF3BF0AD
:1073AE00420E666F070E676F21EC57F005016651AE
:1073BE00E6EC7BF0D5EF3BF0420E666F070E676F83
:1073CE0021EC57F005016651D8EC7BF0D5EF3BF080
:1073DE00420E666F070E676F21EC57F0050166517E
:1073EE00416E4150D8A4FEEF39F001EF3AF0010E94
:1073FE0002EF3AF0000E416ED5EF3BF0100EC76F64
:10740E00070EC86F000ECA6F320EC96F5C0ECB6FBF
:10741E00400ECC6F0FEC62F0C7C570F6C8C571F6A2
:10742E00D5EF3BF0420E8D6F070E8E6F000E8F6FF5
:10743E00000E906F000E926F000E916FA3EC77F01E
:10744E008DC593F58EC594F58FC595F590C596F5BA
:10745E00FF0E0501976FFF0E986FFF0E996FFF0ECF
:10746E009A6FC8EC7AF0D5EF3BF0420E666F070EBE
:10747E00676F21EC57F00501665165EC7AF0D5EF98
:10748E003BF0100EC76F070EC86F000ECA6F320E9C
:10749E00C96F740ECB6F400ECC6F0FEC62F0C7C588
:1074AE0070F6C8C571F6D5EF3BF0200E0501666F7C
:1074BE00080E676FF8EC6EF005016751000AD8B43C
:1074CE006BEF3AF048EF3AF06651010AD8B4AFEFDD
:1074DE0039F0030AD8B4C3EF39F0010AD8B4D7EFA4
:1074EE0039F0070AD8B4E3EF39F0010AD8B4EFEF58
:1074FE0039F0030AD8B405EF3AF0010AD8B4D5EF43
:10750E003BF00F0AD8B4D5EF3BF0010AD8B419EF0F
:10751E003AF0030AD8B43CEF3AF048EF3AF0100EC6
:10752E00C76F070EC86F000ECA6F320EC96FB60E48
:10753E00CB6F400ECC6FA1EC7CF060C5CDF561C574
:10754E00CEF50FEC62F0C7C570F6C8C571F6D5EF73
:10755E003BF0100EC76F070EC86F000ECA6F320ECB
:10756E00C96FB60ECB6F400ECC6FAAEC7CF060C527
:10757E00CDF561C5CEF50FEC62F0C7C570F6C8C586
:10758E0071F6D5EF3BF0100EC76F070EC86F000EE9
:10759E00CA6F320EC96FB60ECB6F400ECC6F12ECA7
:1075AE007EF00501E56FE551CD6FCE6B0FEC62F00D
:1075BE00C7C570F6C8C571F6D5EF3BF0100EC76F94
:1075CE00070EC86F000ECA6F320EC96FB60ECB6FA4
:1075DE00400ECC6F10EC7EF00501E56FE551CD6FDE
:1075EE00CE6B0FEC62F0C7C570F6C8C571F6D5EF5D
:1075FE003BF0100EC76F070EC86F000ECA6F320E2B
:10760E00C96FB60ECB6F400ECC6F41C5CDF5CE6BAC
:10761E000FEC62F0C7C570F6C8C571F6D5EF3BF03A
:10762E00100EC76F070EC86F000ECA6F320EC96FED
:10763E00860ECB6F400ECC6F790ECD6F8F0ECE6F48
:10764E00110ECF6F000ED06F0FEC62F0C7C570F643
:10765E00C8C571F6D5EF3BF0100EC76F070EC86F99
:10766E00000ECA6F320EC96FB60ECB6F400ECC6FC6
:10767E0010EC7CF00501E56FE551CD6FCE6B0FEC94
:10768E0062F0C7C570F6C8C571F6D5EF3BF0100EA7
:10769E00C76F070EC86F000ECA6F320EC96FAF0EDE
:1076AE00CB6F400ECC6F98EC7CF060C5CDF561C50C
:1076BE00CEF562C5CFF563C5D0F50FEC62F0C7C548
:1076CE0070F6C8C571F6D5EF3BF0100EC76F070EFA
:1076DE00C86F000ECA6F320EC96FB60ECB6F400E5A
:1076EE00CC6FECEC7DF00501E56FE551CD6FCE6B07
:1076FE000FEC62F0C7C570F6C8C571F6D5EF3BF05A
:10770E00100EC76F070EC86F000ECA6F320EC96F0C
:10771E00740ECB6F400ECC6F0FEC62F0C7C570F6D7
:10772E00C8C571F6D5EF3BF0200E0501666F080E49
:10773E00676FF8EC6EF005016751000AD8B4AAEF36
:10774E003BF087EF3BF06651010AD8B496EF3AF062
:10775E00030AD8B4B0EF3AF0010AD8B4CAEF3AF03F
:10776E00070AD8B4E5EF3AF0010AD8B400EF3BF0BF
:10777E00030AD8B417EF3BF0010AD8B4D5EF3BF0AB
:10778E000F0AD8B433EF3BF0010AD8B44EEF3BF0FA
:10779E00030AD8B46CEF3BF087EF3BF0100E0501F7
:1077AE00616F070E626F70C663F571C664F50DECFE
:1077BE0070F0200E0501606F080E616F000E636F92
:1077CE00000E626F000E656F320E646FE5EC5CF0BA
:1077DE00000E06017F6F420E0501606F070E616F8E
:1077EE00000E636F000E626F000E656F320E646FD7
:1077FE00E5EC5CF0000E06017E6F100E0501606F69
:10780E00070E616F000E636F000E626F000E656FE4
:10781E00320E646FE5EC5CF0000E0601716F000E27
:10782E00706F000E426EE9EC7DF0120005018A5178
:10783E00800B936F8A518A25956F89AF29EF3CF0A3
:10784E002BEF3CF02CEF3CF095819551D8B432EFF4
:10785E003CF034EF3CF049EF3CF09529D8A43AEFD8
:10786E003CF03CEF3CF044EF3CF0000E876F000E16
:10787E00886F000E896F000E8A6F898F000E8A6FD7
:10788E0051EF3CF0000E876F000E886F000E896F6F
:10789E00000E8A6F8E51800B946F93519419D8B449
:1078AE005BEF3CF05DEF3CF05EEF3CF0938D8E5164
:1078BE008E25946F8DAF66EF3CF068EF3CF069EF6C
:1078CE003CF094819451D8B46FEF3CF071EF3CF0E2
:1078DE0086EF3CF09429D8A477EF3CF079EF3CF09A
:1078EE0081EF3CF0000E8B6F000E8C6F000E8D6FD3
:1078FE00000E8E6F8D8F000E8E6F8EEF3CF0000E91
:10790E008B6F000E8C6F000E8D6F000E8E6F95516B
:10791E00945DD8B095EF3CF097EF3CF0BEEF3CF0A5
:10792E0093AD9CEF3CF09EEF3CF0A0EF3CF0800E50
:10793E00931B95C596F594C595F596C594F587C593
:10794E0096F58BC587F596C58BF588C596F58CC5CE
:10795E0088F596C58CF589C596F58DC589F596C5BC
:10796E008DF58AC596F58EC58AF596C58EF5000EEF
:10797E00966F955194C58FF5906B8F5F000E905B4F
:10798E0090BFD3EF3CF0905109E11A0E8F5DD8A055
:10799E00D3EF3CF0D5EF3CF00CEF3DF08751881162
:1079AE0089118A11D8A4DEEF3CF0E1EF3CF0010E14
:1079BE00E2EF3CF0000E966F000E876F000E886FA0
:1079CE00000E896F000E8A6F94C595F515EF3DF088
:1079DE0096A1F4EF3CF0F6EF3CF0FCEF3CF0D890C3
:1079EE0096310109966FFEEF3CF0D890963387A141
:1079FE0003EF3DF005EF3DF006EF3DF0968F8A3533
:107A0E008A33893388338733952B9451955DD8A06B
:107A1E0013EF3DF015EF3DF0EFEF3CF093BD1AEF95
:107A2E003DF01CEF3DF05CEF3DF09551D8A422EFF8
:107A3E003DF024EF3DF02EEF3DF0000E876F000E6F
:107A4E00886F000E896F000E8A6F7DEF3EF08B51AE
:107A5E0087278C5188238D5189238E518A238AA1A1
:107A6E003BEF3DF03DEF3DF0E9EF3DF096A142EFEB
:107A7E003DF044EF3DF04AEF3DF0D89096310109CC
:107A8E00966F4CEF3DF0D890963387A151EF3DF0B5
:107A9E0053EF3DF054EF3DF0968F8A358A3389339C
:107AAE0088338733952BE9EF3DF08B51875D8C51F1
:107ABE0088598D5189598A51800A8F6F8E51800A4B
:107ACE008F59D8B06DEF3DF06FEF3DF09AEF3DF06E
:107ADE0087518B5D8F6F88518C59906F89518D595D
:107AEE00916F8A518E59926FFF0E8F25876FFF0E01
:107AFE009021886FFF0E9121896FFF0E92218A6F60
:107B0E00800E931B966D9651D8A490EF3DF092EF98
:107B1E003DF0A2EF3DF0010E8727000E882389234A
:107B2E008A23A2EF3DF08B51875F8C51885B8D517C
:107B3E00895B8E518A5B8751881189118A11D8A46D
:107B4E00ABEF3DF0ADEF3DF0E2EF3DF09651D8A436
:107B5E00B3EF3DF0B5EF3DF0E2EF3DF0000E876F75
:107B6E00000E886F000E896F000E8A6F7DEF3EF05B
:107B7E00D8908737883789378A3796AFC9EF3DF067
:107B8E00CBEF3DF0CCEF3DF0878196A1D1EF3DF0EC
:107B9E00D3EF3DF0D7EF3DF0D8809637D9EF3DF0DB
:107BAE00D89096379551D8B4DFEF3DF0E1EF3DF028
:107BBE00E2EF3DF0950789AFE7EF3DF0E9EF3DF0DD
:107BCE00BFEF3DF0000E946F96AFF0EF3DF0F2EF89
:107BDE003DF00AEF3EF096C58FF57F0E8F17D8B4A5
:107BEE00FBEF3DF0FDEF3DF001EF3EF0010E946F27
:107BFE000AEF3EF087A106EF3EF008EF3EF00AEFE7
:107C0E003EF0FDEF3DF09451D8B410EF3EF012EF80
:107C1E003EF03DEF3EF0010E8727000E88238923AC
:107C2E008A238AA11DEF3EF01FEF3EF03DEF3EF09E
:107C3E0087C58FF588C590F589C591F58AC592F5EA
:107C4E0092359233913390338F338FC587F590C52C
:107C5E0088F591C589F592C58AF59529D8B43AEF7C
:107C6E003EF03CEF3EF03DEF3EF0952B9529D8B41B
:107C7E0043EF3EF045EF3EF04DEF3EF09551D8A468
:107C8E004BEF3EF04DEF3EF05FEF3EF0000E876F94
:107C9E00000E886F000E896F000E8A6F9551D8A462
:107CAE005BEF3EF05DEF3EF05FEF3EF0000E936F48
:107CBE0095A164EF3EF066EF3EF069EF3EF0898FDE
:107CCE006AEF3EF0899FD89095318A6F93AF72EF2D
:107CDE003EF074EF3EF075EF3EF08A8F87C587F564
:107CEE0088C588F589C589F58AC58AF51200B8EF69
:107CFE0040F0040E486086EF3EF088EF3EF0A9EFAC
:107D0E003EF048B08DEF3EF08FEF3EF099EF3EF033
:107D1E00000E056EEFEC7CF0066E000E93EC79F023
:107D2E00A0EF3EF0000E056E000E066E000E93ECF8
:107D3E0079F0482A000E026EC80E016EDBEC7DF063
:107D4E00D6EF40F0000E496E000E486E0AEC7EF043
:107D5E00D6EF40F0040E4860B7EF3EF0B9EF3EF0BC
:107D6E00A9EF3EF048B0BEEF3EF0C0EF3EF0CAEFD6
:107D7E003EF0000E056E000E066EEFEC7CF093ECFE
:107D8E0079F0A0EF3EF0000E056E000E066E000EAE
:107D9E0093EC79F0A0EF3EF0100E4860D9EF3EF074
:107DAE00DBEF3EF0EFEF3EF0000E016EEFEC7CF0FD
:107DBE00026E000E036E48500F0BD2EC75F0000EE3
:107DCE00026E140E016EDBEC7DF0482AD6EF40F009
:107DDE004850016E026A036A046A010EE1EC58F023
:107DEE0001C50FF502C510F503C511F504C512F551
:107DFE00000E136E000E146EE00E156E410E166E12
:107E0E0024EC64F0D8B00EEF3FF010EF3FF0A9EF86
:107E1E003EF0000E016E000E026E000E036E48C59F
:107E2E001BF50F0E1B161B500F08D2EC75F0E6EF6C
:107E3E003EF0100E486026EF3FF028EF3FF039EF8E
:107E4E003FF0000E016EEFEC7CF0026E000E036E42
:107E5E0048C51BF50F0E1B161B500F08D2EC75F004
:107E6E00E6EF3EF04850016E026A036A046A010EA4
:107E7E00E1EC58F001C50FF502C510F503C511F57B
:107E8E0004C512F5000E136E000E146EE00E156E84
:107E9E00410E166E24EC64F0D8B058EF3FF05AEF56
:107EAE003FF0A9EF3EF0000E016E000E026E000EC6
:107EBE00036E48500F0BD2EC75F0E6EF3EF0080E55
:107ECE0048606CEF3FF06EEF3FF090EF3FF0000E2A
:107EDE00016EEFEC7CF0026E000E036E48500F0B3D
:107EEE00D2EC75F0000E016EEFEC7CF0026E000E1F
:107EFE00036E48C51BF50F0E1B161B500F08D2EC58
:107F0E0075F0000E026E280E016EDBEC7DF0ECEFCC
:107F1E003EF04850016E026A036A046A010EE1ECFB
:107F2E0058F001C50FF502C510F503C511F504C5CE
:107F3E0012F59A0E136E990E146E590E156E410EA1
:107F4E00166E24EC64F0D8B0AFEF3FF0B1EF3FF017
:107F5E00A9EF3EF0000E016E000E026E000E036ED3
:107F6E004850D2EC75F0000E016E000E026E000E3F
:107F7E00036E48500F08D2EC75F088EF3FF0080EF4
:107F8E004860CCEF3FF0CEEF3FF0E6EF3FF0000E53
:107F9E00016EEFEC7CF0026E000E036E4850080F7F
:107FAE00D2EC75F0000E016EEFEC7CF0026E000E5E
:107FBE00036E48500708D2EC75F088EF3FF048503A
:107FCE00016E026A036A046A010EE1EC58F001C503
:107FDE000FF502C510F503C511F504C512F59A0E7D
:107FEE00136E990E146E590E156E410E166E24EC0C
:107FFE0064F0D8B005EF40F007EF40F0A9EF3EF087
:10800E00000E016E000E026E000E036E4850F80F49
:10801E00D2EC75F0000E016E000E026E000E036EB5
:10802E0048C51BF5070E1B161B500F08D2EC75F03A
:10803E0088EF3FF018EC7EF01B6E1C6A1C50000A95
:10804E00D8B42CEF40F0A9EF3EF01B50000AD8B484
:10805E00D3EF3EF0010AD8B420EF3FF0030AD8B4B4
:10806E0066EF3FF0010AD8B4C6EF3FF0070AD8B466
:10807E00A9EF3EF0A9EF3EF0100E486049EF40F038
:10808E004BEF40F0A9EF3EF016EC7EF01B6E030EA8
:10809E001B6054EF40F056EF40F06EEF40F048504A
:1080AE00ACEC74F0206E4850D2EC74F0216E485057
:1080BE00F8EC74F0226E20C501F521C502F522C53B
:1080CE0003F548500F0BD2EC75F088EF3FF0485097
:1080DE00A00DF3C401F5F4C402F5000E046E100EEB
:1080EE00036E05EC6BF00150A008276E2868EFECCC
:1080FE007CF0296E27C509F528C50AF529C50BF5AB
:10810E008EEC5AF009C524F50AC525F50BC526F5E2
:10811E00000E236E9DEF40F024C501F525C502F536
:10812E0026C503F52350D2EC75F0232A48501B6E5A
:10813E001C6A010E1B26000E1C2223501D6E1E6A89
:10814E001B501D5C1E50800A1F6E1C50800A1F584B
:10815E00D8A0B4EF40F0B6EF40F093EF40F088EFC8
:10816E003FF0060180511B6E1C6A1C50000AD8B4E9
:10817E00C3EF40F0D6EF40F01B50010AD8B480EFA9
:10818E003EF0030AD8B4B1EF3EF0010AD8B421EFA5
:10819E0040F0070AD8B443EF40F0D6EF40F012009B
:1081AE00000E05017F6F000E866F000E876F000EAA
:1081BE00886F000E896F70C58AF571C58BF575BF16
:1081CE00F4EF40F0755107E1250E745DD8B0F2EF73
:1081DE0040F0F4EF40F0FDEF40F074057511D8A4B7
:1081EE00FBEF40F0FDEF40F004EF41F0000E060112
:1081FE006F6F160E6E6F01EF43F08A518B11D8B46C
:10820E000BEF41F00DEF41F001EF43F08AC5D9F4C9
:10821E008BC5DAF4DF50D8A417EF41F019EF41F017
:10822E001BEF41F001EF43F08AC5D9F48BC5DAF4A8
:10823E00DF508C6F2BEF41F08A4B8B2B8AC5D9F414
:10824E008BC5DAF4DF508C6F200E8C19D8B432EF58
:10825E0041F034EF41F023EF41F0F70E8C25776FAC
:10826E00786BFF0E7823785109E1050E775DD8A063
:10827E0043EF41F045EF41F023EF41F0000E846FE4
:10828E00000E856F2D0E8C19D8A450EF41F052EFD1
:10829E0041F05EEF41F0010E846F8A4B8B2B8AC545
:1082AE00D9F48BC5DAF4DF508C6F69EF41F02B0EE9
:1082BE008C19D8A465EF41F067EF41F069EF41F0FA
:1082CE0054EF41F0300E8C19D8A470EF41F072EFDC
:1082DE0041F0F8EF41F08A4B8B2B8AC5D9F48BC550
:1082EE00DAF4DF508C6F74517511D8B481EF41F010
:1082FE0083EF41F08DEF41F0100E74197511D8A473
:10830E008BEF41F08DEF41F0E9EF41F0780E8C19D3
:10831E00D8B494EF41F096EF41F09FEF41F0580E34
:10832E008C19D8A49DEF41F09FEF41F0E9EF41F099
:10833E00000E756F100E746F8A4B8B2B8AC5D9F495
:10834E008BC5DAF4DF508C6F8C51776F786B200E03
:10835E007713000E78139F0E7725796FFF0E782115
:10836E007A6F7A5107E11A0E795DD8B0C1EF41F0FC
:10837E00C3EF41F0D3EF41F08CC564F5656B38EC7B
:10838E0076F0C90E05016427100E6461D1EF41F03D
:10839E00D3EF41F0E2EF41F08CC566F5676B2BEC45
:1083AE0071F0050166516711D8A4E0EF41F0E2EFDC
:1083BE0041F0F8EF41F0010E7F6F8A07D8A08B07CE
:1083CE0001EF43F0010E7F6F74517511D8A4F2EFD7
:1083DE0041F0F4EF41F0F8EF41F0000E756F080E2A
:1083EE00746F74517511D8A4FFEF41F001EF42F094
:1083FE0005EF42F0000E756F0A0E746F7651D8B409
:10840E000BEF42F00DEF42F029EF42F08451D8A469
:10841E0013EF42F015EF42F01FEF42F0FF0E806FA8
:10842E00FF0E816FFF0E826F7F0E836F2DEF42F076
:10843E00000E806F000E816F000E826F800E836FB4
:10844E002DEF42F0806981698269836986C57BF56B
:10845E0087C57CF588C57DF589C57EF58C51776F0E
:10846E00786B200E7713000E78139F0E7725796F99
:10847E00FF0E78217A6F7A5107E11A0E795DD8B026
:10848E004BEF42F04DEF42F058EF42F08CC564F5E1
:10849E00656B38EC76F005016451C90F8C6F6BEF8C
:1084AE0042F0D00E8C25776F786BFF0E78237851C3
:1084BE0007E10A0E775DD8B067EF42F069EF42F040
:1084CE00E9EF42F0300E8C5F8C51776F786B745100
:1084DE00775D7851800A796F7551800A7959D8A0E5
:1084EE007BEF42F07DEF42F07FEF42F0E9EF42F09A
:1084FE008551D8A485EF42F087EF42F0DDEF42F0D0
:10850E0074C564F575C565F5000E65BFFF0E666F23
:10851E00676F86C568F587C569F588C56AF589C52B
:10852E006BF5C0EC70F005018C516425866F000E62
:10853E006521876F000E6621886F000E6721896F97
:10854E007B51865D7C5187597D5188597E51895961
:10855E00D8A0B4EF42F0B6EF42F0CDEF42F0765134
:10856E00D8B4BCEF42F0BEEF42F0DDEF42F08651E0
:10857E00805D875181598851825989518359D8B06C
:10858E00CBEF42F0CDEF42F0DDEF42F080C586F545
:10859E0081C587F582C588F583C589F5000E06016C
:1085AE006F6F220E6E6F010E0501856F8A4B8B2B3E
:1085BE008AC5D9F48BC5DAF4DF508C6F010E7F6F4C
:1085CE002DEF42F08551D8A4EFEF42F0F1EF42F0DB
:1085DE0001EF43F08451D8B4F7EF42F0F9EF42F0D7
:1085EE0001EF43F0891F881F871F866D000E8723BA
:1085FE0088238923050172517311D8B409EF43F012
:10860E000BEF43F01FEF43F07F51D8A411EF43F06F
:10861E0013EF43F017EF43F070C58AF571C58BF574
:10862E0072C5D9F473C5DAF48AC5DEF48BC5DDF4F0
:10863E0086C570F587C571F588C572F589C573F560
:10864E0012007FC5D9F480C5DAF4DEC4F6F4DDC4B9
:10865E00F7F4000EF86E0800F550250AD8A43AEF8C
:10866E0043F03CEF43F04CEF44F07FC5D9F480C5A6
:10867E00DAF4DE2A000EDD22000E0601696F000E0E
:10868E00686F68C66AF669C66BF67FC5D9F480C591
:10869E00DAF4DEC4F6F4DDC4F7F4000EF86E08006A
:1086AE00F550730AD8B45EEF43F060EF43F07DEF00
:1086BE0043F07FC5D9F480C5DAF4DEC460F5DDC4BD
:1086CE0061F59B0E0501626F400E636F000E656FC4
:1086DE00030E646FA6EC64F0050160516111D8A41D
:1086EE007BEF43F07DEF43F0E8EF43F07FC5D9F425
:1086FE0080C5DAF4DEC4F6F4DDC4F7F4000EF86ECD
:10870E000800F550730AD8B48FEF43F091EF43F0A1
:10871E0098EF43F0000E05018B6F030E8A6F9DEFED
:10872E0043F0000E05018B6F010E8A6F7FC5D9F4E1
:10873E0080C5DAF48A51DE268B51DD2206016A519C
:10874E006B11D8A4ADEF43F0AFEF43F0D3EF43F08E
:10875E0081C5D9F482C5DAF4DFC483F5020EDE26B4
:10876E00DFC484F5000EDD2283C5D9F484C5DAF4A6
:10877E00DEC486F5DDC487F57DC571F57EC572F55F
:10878E0086C573F587C574F509EC5FF071C588F57C
:10879E0072C589F5E2EF43F07DC571F57EC572F5C0
:1087AE00000E0501736F000E746F09EC5FF071C55A
:1087BE0088F572C589F588C57DF589C57EF553EFB7
:1087CE0045F07FC5D9F480C5DAF4DEC4F6F4DDC415
:1087DE00F7F4000EF86E0800F550250AD8A4FAEF4B
:1087EE0043F0FCEF43F043EF44F07DC56BF57EC5DF
:1087FE006CF5CEEC6FF07DC562F57EC563F5F2ECDF
:10880E0060F062C58CF563C58DF5250E05018C19DA
:10881E008D11D8A415EF44F017EF44F028EF44F073
:10882E007FC5D9F480C5DAF4DE2A000EDD220601FA
:10883E00644B652B000E05017E6F000E7D6F53EFAE
:10884E0045F08C2908E18D29D8B430EF44F032EF91
:10885E0044F03CEF44F08CC560F58DC561F57DC5E7
:10886E0062F57EC563F5C6EC6BF0FF0E05017E6FFB
:10887E00FE0E7D6F53EF45F07FC5D9F480C5DAF457
:10888E00DE2A000EDD2221EF44F07DC562F57EC5A5
:10889E0063F5F2EC60F062C58CF563C58DF5200EC4
:1088AE0005018C198D11D8B45FEF44F061EF44F0DF
:1088BE0072EF44F0F70E8C25836FFF0E8D21846FBF
:1088CE00845107E1050E835DD8B070EF44F072EF6E
:1088DE0044F01DEF45F07FC5D9F480C5DAF4DEC44F
:1088EE00F6F4DDC4F7F4000EF86E0800F550200A19
:1088FE00D8B484EF44F086EF44F0A4EF44F07FC583
:10890E00D9F480C5DAF4DEC4F6F4DDC4F7F4000E53
:10891E00F86E0800F5C483F5F70E8325846F856B1A
:10892E00FF0E8523855107E1050E845DD8B0A2EFB9
:10893E0044F0A4EF44F01DEF45F07FC5D9F480C597
:10894E00DAF4DE2A000EDD227FC5D9F480C5DAF412
:10895E00DEC4F6F4DDC4F7F4000EF86E0800F55030
:10896E00200AD8B4BDEF44F0BFEF44F0A4EF44F0BA
:10897E007FC5D9F480C5DAF4DEC4F6F4DDC4F7F4AD
:10898E00000EF86E0800F5C483F5F70E0501832579
:10899E00846F856BFF0E8523855109E1050E845D7D
:1089AE00D8A0DCEF44F0DEEF44F0A4EF44F0060173
:1089BE00644B652B7DC562F57EC563F5F2EC60F008
:1089CE0062C58CF563C58DF5200E05018C198D11D0
:1089DE00D8B4F4EF44F0F6EF44F0DEEF44F0F70EC7
:1089EE008C25836FFF0E8D21846F845109E1050E56
:1089FE00835DD8A005EF45F007EF45F0DEEF44F0BC
:108A0E008C2908E18D29D8B40FEF45F011EF45F010
:108A1E0021EF44F08CC560F58DC561F57DC562F51D
:108A2E007EC563F5C6EC6BF021EF44F07FC5D9F43B
:108A3E0080C5DAF4DEC4F6F4DDC4F7F4000EF86E89
:108A4E000800F550836F846B8C51831907E18D51AB
:108A5E008419D8A435EF45F037EF45F039EF45F0DE
:108A6E0017EF44F08C2906E18D29D8A441EF45F08B
:108A7E0043EF45F047EF45F07D697E6953EF45F0D2
:108A8E008CC560F58DC561F57DC562F57EC563F556
:108A9E00C6EC6BF03CEF44F01200050120EE2CF119
:108AAE00D851D926D951DA22DF50D8B461EF45F02A
:108ABE0063EF45F072EF47F020EE1EF1D851D92644
:108ACE00D951DA22DEC4DAF5DDC4DBF5DAA772EFAE
:108ADE0045F074EF45F076EF45F072EF47F020EE7B
:108AEE001EF1D851D926D951DA22DEC4DAF5DDC409
:108AFE00DBF5DAA185EF45F087EF45F05BEF47F048
:108B0E0020EE1EF1D851D926D951DA22DEC4DAF57B
:108B1E00DDC4DBF5DAA396EF45F098EF45F0F4EF00
:108B2E0045F020EE20F1D851D926D951DA22DEC4F3
:108B3E00DAF5DEC4DBF5DEC4DCF5DEC4DDF520EEF1
:108B4E001AF1D851D926D951DA22DEC4DEF5DEC4A7
:108B5E00DFF5DEC4E0F5DEC4E1F5DA51DE25E26FC5
:108B6E00DB51DF21E36FDC51E021E46FDD51E121C8
:108B7E00E56FE25106013E5D0501E35106013F59E5
:108B8E000501E451060140590501E551060141591F
:108B9E00D8A0D4EF45F0D6EF45F072EF47F00501BF
:108BAE0020EE1EF1D851D926D951DA22FD0EDE164D
:108BBE00FF0EDD1620EE82F1D851D926D951DA22D8
:108BCE00DE2A000EDE22DE22DE22D8C560F5D9C5F1
:108BDE0061F57BEC7BF072EF47F020EE01F0D8519F
:108BEE00D926D951DA22DF50DA6FDA51230DF3C4C8
:108BFE00DBF5F4C4DCF5DB51D825DD6FDC51D92172
:108C0E00DE6F240EDD25D96E000EDE21DA6EDF500A
:108C1E00DF6FDF51080DF3C4E0F5F4C4E1F520EE8B
:108C2E0001F0D851D926D951DA22DF50E26FE25144
:108C3E00230DF3C4E3F5F4C4E4F5E351D825E56F51
:108C4E00E451D921E66FE051E525E76FE151E621C8
:108C5E00E86F030EE7257C6F000EE8217D6F080E8E
:108C6E007E6F20EE24F1D851D926D951DA2202D8BE
:108C7E004BEF46F00500FA6EDE50FD6EDE50FE6ED6
:108C8E00DE50FF6EFA5012000009D8A451EF46F0E4
:108C9E0053EF46F05FEF46F0050120EE8EF1D8510E
:108CAE00D926D951DA22DE2A000EDE22DE22DE227B
:108CBE00050120EE1EF1D851D926D951DA22000E27
:108CCE00DB8220EE01F0D851D926D951DA22DF50BD
:108CDE00DA6FDA51230DF3C4DBF5F4C4DCF5DB51A6
:108CEE00D825DD6FDC51D921DE6F240EDD25D96E3E
:108CFE00000EDE21DA6E10EE01F0D851E126D951C8
:108D0E00E222E750DF6FDF51230DF3C4E0F5F4C428
:108D1E00E1F5E051D825E26FE151D921E36F240E40
:108D2E00E225E16E000EE321E26EE750E46F010EE4
:108D3E00E425606F616B000E612310EE01F0D851D7
:108D4E00E126D951E222E750E56FE551230DF3C438
:108D5E00E6F5F4C4E7F5E651D825E86FE751D921D9
:108D6E00E96F230EE825E16E000EE921E26EE75071
:108D7E00EA6FEA51626F636B22EC6CF00501605191
:108D8E00DF6ED8C560F5D9C561F57BEC7BF00501CA
:108D9E0020EE1EF1D851D926D951DA22DEC4DAF5E9
:108DAE00DDC4DBF5DAA5DEEF46F0E0EF46F072EF5C
:108DBE0047F020EE1EF1D851D926D951DA22FB0EFA
:108DCE00DE16FF0EDD16D8C5BFF5D9C5C0F589EC88
:108DDE0049F00501EB6F20EE01F0D851D926D9519B
:108DEE00DA22DF50DA6FDA51230DF3C4DBF5F4C467
:108DFE00DCF5DB51D825DD6FDC51D921DE6F240E79
:108E0E00DD25D96E000EDE21DA6EDF50D8A412EF0A
:108E1E0047F014EF47F036EF47F020EE01F0D8514F
:108E2E00D926D951DA2210EE01F0D851E126D951C6
:108E3E00E222E750DA6F010EDA25606F616B000EE9
:108E4E006123D8C5E1F4D9C5E2F4E750DB6FDB51FD
:108E5E00626F636B22EC6CF005016051DF6E020EE7
:108E6E00EB19D8A43DEF47F03FEF47F041EF47F045
:108E7E0072EF47F0EB05D8B447EF47F049EF47F0F4
:108E8E0051EF47F0EB51D8A44FEF47F051EF47F0B9
:108E9E0072EF47F020EE92F1D851D926D951DA224D
:108EAE00EBC5DFF472EF47F0D8C578F5D9C579F583
:108EBE00FBEC32F0E806D8A467EF47F069EF47F015
:108ECE0072EF47F0050120EE1EF1D851D926D95187
:108EDE00DA22000EDB80120005017151800B7A6FD1
:108EEE0071517125806F70AF7FEF47F081EF47F0C2
:108EFE0082EF47F080818051D8B488EF47F08AEF37
:108F0E0047F09DEF47F08029D8A490EF47F092EFFD
:108F1E0047F09AEF47F0000E6E6F000E6F6F000E67
:108F2E00706F000E716F708FA5EF47F0000E6E6FB1
:108F3E00000E6F6F000E706F000E716F7551800B0B
:108F4E007A1B755175257F6F74AFB0EF47F0B2EF96
:108F5E0047F0B3EF47F07F817F51D8B4B9EF47F0B8
:108F6E00BBEF47F0CEEF47F07F29D8A4C1EF47F013
:108F7E00C3EF47F0CBEF47F0000E726F000E736F2A
:108F8E00000E746F000E756F748FD6EF47F0000EE3
:108F9E00726F000E736F000E746F000E756F7F513F
:108FAE00D8B4DCEF47F0DEEF47F0E6EF47F0805144
:108FBE00D8A4E4EF47F0E6EF47F0F0EF47F0000EED
:108FCE006E6F000E6F6F000E706F000E716F88EF78
:108FDE0049F074516E03F3C485F5F4C486F58551DA
:108FEE007B6F7C6B7D6B7E6B8651816F826B836B2F
:108FFE00846B73516F03F3C485F5F4C486F5855104
:10900E007B27000E7C237D237E2386518127000E35
:10901E0082238323842372517003F3C485F5F4C431
:10902E0086F585517B27000E7C237D237E2386517A
:10903E008127000E8223832384237DC57EF57CC584
:10904E007DF57BC57CF57B6B72516F03F3C485F5A3
:10905E00F4C486F585517B2786517C23000E7D2333
:10906E00000E7E2373516E03F3C485F5F4C486F5AA
:10907E0085517B2786517C23000E7D23000E7E2397
:10908E007DC57EF57CC57DF57BC57CF57B6B725110
:10909E006E03F3C485F5F4C486F585517B2786519E
:1090AE007C23000E7D23000E7E2374516F03F3C4C8
:1090BE0085F5F4C486F58551812786518223000EED
:1090CE008323000E842373517003F3C485F5F4C417
:1090DE0086F58551812786518223000E8323000E4B
:1090EE00842374517003F3C485F5F4C486F5855159
:1090FE00766F8651776F786B796B78C579F577C512
:10910E0078F576C577F5766B765181277751822380
:10911E0078518323795184237BC576F57CC577F509
:10912E007DC578F57EC579F5190EA3EF48F0D89078
:10913E007933783377337633E82E9EEF48F07651D5
:10914E0081277751822378518323795184237DC5DA
:10915E007EF57CC57DF57BC57CF57B6B7F5180C52F
:10916E0076F5776B7627000E7723820E7625856F40
:10917E00FF0E7721866FD9EF48F0D890813782376E
:10918E00833784377EAFCEEF48F0D0EF48F0D1EF83
:10919E0048F08181D8907B377C377D377E378507C5
:1091AE00D8A0860783AFDEEF48F0E0EF48F0C4EFBB
:1091BE0048F0000E7F6F7EAFE7EF48F0E9EF48F022
:1091CE000DEF49F0FF0E7B15766FFF0E7C15776F56
:1091DE00FF0E7D15786F7F0E7E15796F76517711A4
:1091EE0078117911D8B4FEEF48F000EF49F004EF92
:1091FE0049F0010E7F6F0DEF49F081A109EF49F0A3
:10920E000BEF49F00DEF49F000EF49F07F51D8B464
:10921E0013EF49F015EF49F039EF49F0010E8127B0
:10922E00000E82238323842384A120EF49F022EFB2
:10923E0049F039EF49F081C576F582C577F583C5DA
:10924E0078F584C579F57935793378337733763394
:10925E0076C581F577C582F578C583F579C584F530
:10926E00854B862B86BF44EF49F0865108E1852950
:10927E00D8A044EF49F046EF49F050EF49F0000E08
:10928E00816F000E826F800E836F7F0E846F7EEF74
:10929E0049F086BF5DEF49F0865106E18505D8B0ED
:1092AE005BEF49F05DEF49F069EF49F0000E816F19
:1092BE00000E826F000E836F000E846F000E7A6FA9
:1092CE007EEF49F085C580F5FF0E8117FF0E8217E0
:1092DE007F0E8317000E841780A178EF49F07AEF86
:1092EE0049F07BEF49F0838FD8908031846F7A51AB
:1092FE00841381C56EF582C56FF583C570F584C57F
:10930E0071F51200000E0501D66FBFC560F5C0C520
:10931E0061F57BEC7BF0050120EE5FF1BF51D926A4
:10932E00C051DA22DF50C00FCD6FD62B000ED76F93
:10933E007FEF4BF0D751020DF3C4C1F5F4C4C2F563
:10934E00C151BF25C36FC251C021C46F2D0EC3259D
:10935E00D96E010EC421DA6E10EE02F0DE50E12657
:10936E00DD50E222CD51E618D8A4C0EF49F0C2EF8D
:10937E0049F07EEF4BF0D751020DF3C4C1F5F4C4A2
:10938E00C2F5C151BF25C36FC251C021C46F2D0E8E
:10939E00C325D96E010EC421DA6E10EE03F0DE5035
:1093AE00E126DD50E222E6C460F5E5C461F5D75151
:1093BE00020DF3C4C5F5F4C4C6F5C551BF25C76F7C
:1093CE00C651C021C86F2D0EC725D96E010EC821FA
:1093DE00DA6E10EE02F0DE50E126DD50E222E750AA
:1093EE00F5EC4EF00009D8B4FFEF49F001EF4AF06A
:1093FE007BEF4BF0000E0501D56F000ED46FD751E9
:10940E00020DF3C4C1F5F4C4C2F5C151BF25C36F3B
:10941E00C251C021C46F2D0EC325D96E010EC421B9
:10942E00DA6E10EE03F0DE50E126DD50E222E6C4E5
:10943E0060F5E5C461F56BEC7BF00501D26FD205EA
:10944E00D8A42CEF4AF02EEF4AF042EF4AF0D65154
:10945E00BF25C16F000EC021C26F5F0EC125D96E30
:10946E00010EC221DA6EDF50C36FC351D46FD56BBC
:10947E00D62B72EF4AF0020ED219D8A449EF4AF059
:10948E004BEF4AF072EF4AF0D651BF25C16F000E76
:10949E00C021C26F5F0EC125D96E010EC221DA6ED8
:1094AE00DF50C36FC351D46FD56BD62BD651BF25AA
:1094BE00C16F000EC021C26F5F0EC125D96E010EA5
:1094CE00C221DA6EDF50C36FD451C46FC351D46F53
:1094DE00C4C5D5F5D62BD751020DF3C4C1F5F4C4CE
:1094EE00C2F5C151BF25C36FC251C021C46F2D0E2D
:1094FE00C325D96E010EC421DA6E10EE03F0DE50D4
:10950E00E126DD50E222D451E61807E1D551E618E6
:10951E00D8A494EF4AF096EF4AF078EF4BF0000E95
:10952E00CE6F000ECF6F000ED06F000ED16F000EFB
:10953E00D36FB8EF4AF0D651BF25C16F000EC021D0
:10954E00C26F5F0EC125D96E010EC221DA6ECE0E2C
:10955E00D325E16EE26A050EE222DFC4E7F4D62BD4
:10956E00D32BD751020DF3C4C1F5F4C4C2F5C151CA
:10957E00BF25C36FC251C021C46F2D0EC325D96E36
:10958E00010EC421DA6E10EE03F0DE50E126DD503E
:10959E00E222E6C460F5E5C461F5D751020DF3C4CD
:1095AE00C5F5F4C4C6F5C551BF25C76FC651C02158
:1095BE00C86F2D0EC725D96E010EC821DA6E10EEBA
:1095CE0002F0DE50E126DD50E222E750F5EC4EF0DF
:1095DE000501C96FC951D35DD8A0F8EF4AF0FAEF73
:1095EE004AF0A2EF4AF0D751020DF3C4C1F5F4C40C
:1095FE00C2F5C151BF25C36FC251C021C46F2D0E1C
:10960E00C325D96E010EC421DA6E10EE03F0DE50C2
:10961E00E126DD50E222E6C4B0F5E5C4B1F5CE0E8A
:10962E00B26F050EB36FD751020DF3C4C5F5F4C476
:10963E00C6F5C551BF25C76FC651C021C86F2D0EC7
:10964E00C725D96E010EC821DA6E10EE02F0DE507B
:10965E00E126DD50E222E7505FEC20F00501D75104
:10966E00020DF3C4C9F5F4C4CAF5C951BF25CB6FB9
:10967E00CA51C021CC6F2D0ECB25D96E010ECC2137
:10968E00DA6E10EE07F0DE50E126DD50E222B0C5B4
:10969E00E6F4B1C5E6F4B2C5E6F4B3C5E6F4D751C7
:1096AE00020DF3C4C1F5F4C4C2F5C151BF25C36F99
:1096BE00C251C021C46F2D0EC325D96E010EC42117
:1096CE00DA6E10EE0BF0DE50E126DD50E2223EC6E1
:1096DE00E6F43FC6E6F440C6E6F441C6E6F47EEF95
:1096EE004BF0010E95EF4BF0000E95EF4BF0D72B94
:1096FE0020EE2CF1BF51D926C051DA22DE50D75DB3
:10970E00D8A08CEF4BF08EEF4BF0A1EF49F0BFC518
:10971E0060F5C0C561F57BEC7BF0020E1200050111
:10972E009A51800BA76F9A519A25AE6F99AFA2EFFF
:10973E004BF0A4EF4BF0A5EF4BF0AE81AE51D8B489
:10974E00ABEF4BF0ADEF4BF0C2EF4BF0AE29D8A420
:10975E00B3EF4BF0B5EF4BF0BDEF4BF0000E976F44
:10976E00000E986F000E996F000E9A6F998F000E73
:10977E009A6FCAEF4BF0000E976F000E986F000EA7
:10978E00996F000E9A6F9E51800BA71B9E519E25BE
:10979E00AF6F9DAFD5EF4BF0D7EF4BF0D8EF4BF04F
:1097AE00AF81AF51D8B4DEEF4BF0E0EF4BF0F5EFF9
:1097BE004BF0AF29D8A4E6EF4BF0E8EF4BF0F0EF0B
:1097CE004BF0000E9B6F000E9C6F000E9D6F000EF7
:1097DE009E6F9D8F000E9E6FFDEF4BF0000E9B6FE8
:1097EE00000E9C6F000E9D6F000E9E6F9B519C1184
:1097FE009D119E11D8A406EF4CF008EF4CF020EF0F
:10980E004CF0000E976F000E986F000E996F000EC1
:10981E009A6F800E99137F0E9A13A7519A1397C5BC
:10982E0097F598C598F599C599F59AC59AF563EF88
:10983E004DF0AE51D8A426EF4CF028EF4CF032EF9D
:10984E004CF0000E976F000E986F000E996F000E81
:10985E009A6F63EF4DF0AF51AEC59FF5A06B9F5F52
:10986E00000EA05B7F0E9F25A86F000EA021A96F92
:10987E0097C5A3F598C5A4F599C5A5F59AC5A6F5FE
:10988E00000E976F000E986F000E996F000E9A6F74
:10989E00000EAA6F000EAB6F000EAC6F000EAD6F18
:1098AE00000EAF6F93EF4CF0AF51D8B461EF4CF0A8
:1098BE0063EF4CF07AEF4CF0D890A337A437A5376E
:1098CE00A637D8909737983799379A37ADAF72EF4A
:1098DE004CF074EF4CF075EF4CF09781D890AA379E
:1098EE00AB37AC37AD379B51A35D9C51A4599D51FD
:1098FE00A5599E51A659D8A087EF4CF089EF4CF090
:10990E0092EF4CF0AD8D9B51A35F9C51A45B9D518A
:10991E00A55B9E51A65BAF2B190EAF6599EF4CF070
:10992E009BEF4CF05BEF4CF0A351A411A511A611C7
:10993E00D8B4A4EF4CF0A6EF4CF0BEEF4CF0AA81D9
:10994E00BEEF4CF0D8909737983799379A37ADAF1E
:10995E00B3EF4CF0B5EF4CF0B6EF4CF09781D890DA
:10996E00AA37AB37AC37AD37A807D8A0A90799AF40
:10997E00C3EF4CF0C5EF4CF0A9EF4CF0000EAF6FFB
:10998E00ADAFCCEF4CF0CEEF4CF0F2EF4CF0FF0E53
:10999E00AA159F6FFF0EAB15A06FFF0EAC15A16F32
:1099AE007F0EAD15A26F9F51A011A111A211D8B4B7
:1099BE00E3EF4CF0E5EF4CF0E9EF4CF0010EAF6F3A
:1099CE00F2EF4CF097A1EEEF4CF0F0EF4CF0F2EF1F
:1099DE004CF0E5EF4CF0AF51D8B4F8EF4CF0FAEF95
:1099EE004CF01EEF4DF0010E9727000E9823992391
:1099FE009A239AA105EF4DF007EF4DF01EEF4DF0B3
:109A0E0097C59FF598C5A0F599C5A1F59AC5A2F57C
:109A1E00A235A233A133A0339F339FC597F5A0C5BE
:109A2E0098F5A1C599F5A2C59AF5A84BA92BA9BF82
:109A3E0029EF4DF0A95108E1A829D8A029EF4DF042
:109A4E002BEF4DF036EF4DF0000EA96FA869000E0A
:109A5E00976F000E986F000E996F000E9A6FA9BF48
:109A6E0043EF4DF0A95106E1A805D8B041EF4DF0F6
:109A7E0043EF4DF051EF4DF0000EA96F000EA86FA1
:109A8E00000E976F000E986F000E996F000E9A6F72
:109A9E00000EA76FA8C5AEF5AEA158EF4DF05AEF68
:109AAE004DF05DEF4DF0998F5EEF4DF0999FD89090
:109ABE00AE319A6F14EF4CF0120086C5D9F487C5FB
