:040000000DEF00F010
:040008007BEFC4F0D6
:10001800FF00C3EFDDF00450031009E1F40E015CAA
:10002800010E0258D8B01BEF00F01DEF00F020EFD2
:1000380000F0000E31EF00F0045003100BE1810EC8
:10004800015C3E0E0258D8A02CEF00F02EEF00F015
:1000580030EF00F01DEF00F0010E1200050173BF34
:1000680040EF00F0735106E17205D8B03EEF00F0A2
:1000780040EF00F04EEF00F072C574F573C575F5EA
:10008800741F751F744B752B74C572F575C573F5A0
:1000980052EF00F072C572F573C573F5120097C57B
:1000A80064F598C565F599C566F59AC567F577EC61
:1000B8000BF097C568F598C569F599C56AF59AC5AD
:1000C8006BF57EECCAF09BC5A2F79CC5A3F79DC54E
:1000D800A4F79EC5A5F7010E06017D6F120011C594
:1000E80001F512C502F513C503F514C504F59BEC1B
:1000F8000BF011C509F512C50AF513C50BF514C5A2
:100108000CF520ECD1F015C5A2F716C5A3F717C555
:10011800A4F718C5A5F7010E06017D6F1200000EA1
:100128000501616F080E606FECEC08F00501646F63
:100138006451676F686B000E616F090E606FECECBD
:1001480008F00501646F6751656F6451676F65C595
:1001580068F567C562F568C563F51200000E05010C
:10016800616F0D0E606FECEC08F00501646F64516F
:10017800676F686B000E616F0E0E606FECEC08F035
:100188000501646F6751656F6451676F65C568F5F0
:1001980067C562F568C563F512000501646F64C53B
:1001A800ECF30301F38FF39DF381F3B1DEEF00F07D
:1001B800E0EF00F0D9EF00F0EB510501636F626BDF
:1001C8000301EA5105016225606F0301000E050174
:1001D8006321616F12009F0E05016425666FFF0E93
:1001E8006521676F675107E11A0E665DD8B0FFEFAA
:1001F80000F001EF01F007EF01F05F0E6415646F86
:10020800656B0BEF01F064C564F565C565F5120013
:10021800200E05016011626F000E6111636F9F0E61
:100228006225646FFF0E6321656F65510AE11A0E3E
:10023800645DD8A022EF01F025EF01F0010E26EF52
:1002480001F0000E606F616B1200050160516111D1
:1002580062116311D8B433EF01F035EF01F03DEFCF
:1002680001F0000E601B000E611B000E621B800E69
:10027800631B60C560F561C561F562C562F563C55C
:1002880063F51200B3986DC601F56EC602F5C9ECA8
:1002980004F006016B4B6C2B6C5109E1050E6B5D8C
:1002A800D8A059EF01F05BEF01F062EF01F0A5EC87
:1002B80003F0000E06016C6F000E6B6F1200B19810
:1002C80071C601F572C602F5DEEC04F006016F4B4B
:1002D800702B705109E1080E6F5DD8A076EF01F020
:1002E80078EF01F07FEF01F0BEEC03F0000E06019D
:1002F800706F000E6F6F120086C574F587C575F5AF
:100308000501000E75BFFF0E766F776F010E5BEC6F
:10031800C6F074C582F575C583F576C584F577C5CD
:1003280085F589EC0BF0010E06017D6F12000701BF
:10033800E751E811E911D8B4A4EF01F0A6EF01F0F4
:10034800B3EF01F002D8B3EF01F00500FA6EE75100
:10035800FD6EE851FE6EE951FF6EFA50120004017D
:10036800179F12000701EA51EB11EC11D8B4BFEF47
:1003780001F0C1EF01F0CEEF01F002D8CEEF01F0AD
:100388000500FA6EEA51FD6EEB51FE6EEC51FF6E00
:10039800FA5012000401179712000701ED51EE11EF
:1003A800EF11D8B4DAEF01F0DCEF01F0E9EF01F07A
:1003B80002D8E9EF01F00500FA6EED51FD6EEE513D
:1003C800FE6EEF51FF6EFA50120004010F951200F5
:1003D8000701F051F111F211D8B4F5EF01F0F7EF80
:1003E80001F004EF02F002D804EF02F00500FA6E03
:1003F800F051FD6EF151FE6EF251FF6EFA5012008F
:100408000401079B12000701F351F411F511D8B448
:1004180010EF02F012EF02F01FEF02F002D81FEF08
:1004280002F00500FA6EF351FD6EF451FE6EF551BF
:10043800FF6EFA5012000401079912000701F651E5
:10044800F711F811D8B42BEF02F02DEF02F03AEFC4
:1004580002F002D83AEF02F00500FA6EF651FD6E8E
:10046800F751FE6EF851FF6EFA501200040107971B
:10047800120091C574F592C575F593C576F594C5C6
:1004880077F595C578F596C579F5000E05017A6F6B
:10049800E8ECAEF074C591F575C592F576C593F59F
:1004A80077C594F512005FC660F560C661F5A1ECEA
:1004B80008F00009D8A463EF02F065EF02F06CEFD2
:1004C80002F0000E0501636F000E626F70EF02F01C
:1004D8005FC662F560C663F512000501706F000E15
:1004E8004A6E70C57BF6000E05016C6F000E6D6FCD
:1004F800000E41EC03F0010E4B6E000E0501616F1A
:10050800050E606FBBEC0CF0E4EC0CF0120005017A
:1005180020EE84F16C51D9266D51DA22000EDF6E7F
:10052800620E6C25606F010E6D21616F000E636FA6
:10053800000E626F000E656F200E646FD7ECCCF072
:100548001200010E03013E6F000E3D6F000E3F6F5B
:100558009F0E3B6F000E3A6FBD96AD86380E0501B3
:10056800606F1A0E616F000E626F17EC0CF0FC0ED4
:1005780003013C6F1200010E0301326F000E316F50
:10058800000E336F310E2F6F000E2E6FB996A986AD
:100598003C0E0501606F1A0E616F000E626F25EC4C
:1005A8000CF0640E0301306F1200000E0001D56FCD
:1005B800010ED76F1F0ED86F410ED96F400EDA6F3C
:1005C8001F0EDB6F050EDC6F100EDD6F080EDE6F81
:1005D800200EDF6F000ED46F800ED66F1200BD960E
:1005E8000601405141114211D8B4FDEF02F0FFEF6E
:1005F80002F00CEF03F002D80CEF03F00500FA6EDE
:100608004051FD6E4151FE6E4251FF6EFA5012008C
:100618001200B19E06013D513E113F11D8B417EFAB
:1006280003F019EF03F026EF03F002D826EF03F0EA
:100638000500FA6E3D51FD6E3E51FE6E3F51FF6E54
:10064800FA5012001200B0900701E151E211E311D3
:10065800D8B431EF03F033EF03F040EF03F002D8E2
:1006680040EF03F00500FA6EE151FD6EE251FE6EB7
:10067800E351FF6EFA501200120005016E6F000E72
:1006880005016F6F6EC568F56CC569F56DC56AF5CE
:100698006F51D5ECF5F005016F2B0F0E6F6557EF15
:1006A80003F059EF03F046EF03F012000501636F02
:1006B800000E0501626F63511AECF7F00009D8B417
:1006C80068EF03F06AEF03F070EF03F00501635180
:1006D800FAEC08F00501626F05016251120006018B
:1006E800435144114511D8B47CEF03F07EEF03F079
:1006F8008BEF03F002D88BEF03F00500FA6E43513D
:10070800FD6E4451FE6E4551FF6EFA501200120004
:100718000601465147114811D8B495EF03F097EFF9
:1007280003F0A4EF03F002D8A4EF03F00500FA6E7B
:100738004651FD6E4751FE6E4851FF6EFA50120049
:100748001200060149514A114B11D8B4AEEF03F01B
:10075800B0EF03F0BDEF03F002D8BDEF03F00500E2
:10076800FA6E4951FD6E4A51FE6E4B51FF6EFA50BA
:100778001200120006014C514D114E11D8B4C7EFAA
:1007880003F0C9EF03F0D6EF03F002D8D6EF03F079
:100798000500FA6E4C51FD6E4D51FE6E4E51FF6EC6
:1007A800FA50120012009F0E05016025626FFF0EBD
:1007B8006121636F63510AE11A0E625DD8A0E7EF09
:1007C80003F0EAEF03F0010EEBEF03F0000E606FA9
:1007D800616B1200D00E05016025626FFF0E61216A
:1007E800636F63510AE10A0E625DD8A0FEEF03F061
:1007F80001EF04F0010E02EF04F0000E606F616B70
:100808001200000E0501606F6051020DF70EF3240F
:10081800D96E060EF420DA6E000EDF6E602B010E24
:10082800606519EF04F01BEF04F008EF04F0120004
:10083800B9960601694B6A2BFA51695DFB516A59F1
:10084800D8A029EF04F02BEF04F032EF04F08CEC81
:1008580003F0000E06016A6F000E696F12004A0E5F
:1008680003011B6F8D0E196F000E186FB19EA18EBC
:10087800420E0501606F1A0E616F000E626F3AEC4E
:100888000CF08A0E03011A6F1200040E0201946F15
:10089800800E956F180E966F030E9E6F000E9A6F5E
:1008A800000E9B6F000E976F000E8C6F000E8D6F01
:1008B800000E9D6F1200076E000E086E07C501F549
:1008C80005C502F506C503F508503DECF7F0082A02
:1008D8000F0E086472EF04F074EF04F062EF04F096
:1008E8001200000E0501626F622B180E62657FEF21
:1008F80004F081EF04F078EF04F020EE2FF160515E
:10090800D9266151DA22000EDF6E1200480E5524F6
:10091800D96EDA6A080EDA22B4C2DFF4552A170E45
:10092800556499EF04F09BEF04F09DEF04F0000E7E
:10093800556E532A1200180E5224D96EDA6A080E20
:10094800DA22A1C2DFF4522A170E5264AEEF04F085
:10095800B0EF04F0B2EF04F0000E526E502A12000D
:10096800030136A5BAEF04F0BCEF04F0C4EF04F0BD
:1009780036910250356F01C534F33681C8EF04F063
:100988000250356F01C534F3120003012AA5CFEFD9
:1009980004F0D1EF04F0D9EF04F02A910250296F46
:1009A80001C528F32A81DDEF04F00250296F01C543
:1009B80028F3120003011EA5E4EF04F0E6EF04F0AB
:1009C800EEEF04F01E9102501D6F01C51CF31E814D
:1009D800F2EF04F002501D6F01C51CF312009C0ECB
:1009E80005019E6F050E9F6F000E8E6F000E8F6FB4
:1009F8009AC590F59BC591F59E0E926F050E936F63
:100A080035ECDEF012000501635162110BE18D0E29
:100A1800605D3C0E6159D8A014EF05F016EF05F0A3
:100A280019EF05F0000E1AEF05F0010E120005018E
:100A380060516203F3C464F5F4C465F5605163035F
:100A4800F350652761516203F350652764C560F56B
:100A580065C561F51200600E0001606F000E616FE0
:100A6800030E626F470E636F7F0E646FF60E656F3D
:100A7800E40E666FFE0E676FFE0E686F1200E807E1
:100A88000000E007000090000000D0070000641993
:100A98000000FFFFFFFF204E00000100020064007D
:100AA800000001004D2A000E4C6E040E4D18D8A40B
:100AB80060EF05F062EF05F067EF05F0000E4D6E90
:100AC800000E68EF05F0010E1200000E0501616FBF
:100AD800000E606F65C562F5EDECF1F0000E0501E2
:100AE800616F010E606F64C562F5EDECF1F0120004
:100AF800000E0501616F020E606F65C562F5EDECD1
:100B0800F1F0000E0501616F030E606F64C562F5B8
:100B1800EDECF1F01200200E0001AD6F000EAF6F8A
:100B2800010EB36F080EB16F000EB06FB2A19FEF48
:100B380005F0A1EF05F09AEF05F01200015003024D
:100B4800F3C405F5F4C406F501500402F350062673
:100B580002500302F350062605C501F506C502F545
:100B68001200045003100BE18D0E015C3C0E02587C
:100B7800D8A0C1EF05F0C3EF05F0C6EF05F0000EF1
:100B8800C7EF05F0010E1200000E0101506F040EB0
:100B9800516F600E526F050E536F800E746F040E06
:100BA800756F620E766F050E776F1200000E0101E9
:100BB8005C6F040E5D6F600E5E6F050E5F6F000E5A
:100BC800686F040E696F600E6A6F050E6B6F120016
:100BD800830E03010C6F420E0D6F000E0E6F000E98
:100BE8000F6F000E116F000E106F0B690A6909690B
:100BF8009F8C12000BEC0DF00009D8A406EF06F04C
:100C080008EF06F00CEF06F091EC07F00EEF06F097
:100C180081EC07F012000501616F050161510C0DAF
:100C2800530EF324D96E010EF420DA6EDF50606F94
:100C38001F0E60176029120013EC0DF00009D8A4EC
:100C480028EF06F02AEF06F02EEF06F091EC08F0F8
:100C580030EF06F081EC08F01200585007EC0DF068
:100C68000009D8A43AEF06F03CEF06F03FEF06F093
:100C7800200E40EF06F0585012003E5061EC06F08E
:100C88000009D8A44AEF06F04CEF06F04FEF06F043
:100C9800000E50EF06F03E5012003D5071EC06F089
:100CA8000009D8A45AEF06F05CEF06F05FEF06F0F3
:100CB800000E60EF06F03D5012000501606F010E56
:100CC800050160656AEF06F06CEF06F06FEF06F05D
:100CD800000E70EF06F0010E12000501606F020EA3
:100CE800050160657AEF06F07CEF06F07FEF06F00D
:100CF800000E80EF06F0010E1200445091EC06F051
:100D08000009D8A48AEF06F08CEF06F08FEF06F002
:100D1800000E90EF06F0445012000501606F030EBC
:100D2800050160659AEF06F09CEF06F09FEF06F06C
:100D3800000EA0EF06F0010E12004550B1EC06F0CF
:100D48000009D8A4AAEF06F0ACEF06F0AFEF06F062
:100D5800000EB0EF06F0455012000501606F030E5B
:100D680005016065BAEF06F0BCEF06F0BFEF06F0CC
:100D7800000EC0EF06F0010E12005C50D1EC06F038
:100D88000009D8A4CAEF06F0CCEF06F0CFEF06F0C2
:100D9800070ED0EF06F05C5012000501606F070ED9
:100DA80005016065DAEF06F0DCEF06F0DFEF06F02C
:100DB800000EE0EF06F0010E12005A50F1EC06F0BA
:100DC8000009D8A4EAEF06F0ECEF06F0EFEF06F022
:100DD800010EF0EF06F05A5012000501606F010E87
:100DE80005016065FAEF06F0FCEF06F0FFEF06F08C
:100DF800000E00EF07F0010E1200425011EC07F050
:100E08000009D8A40AEF07F00CEF07F00FEF07F07E
:100E1800000E10EF07F0425012000501606F010E3E
:100E2800050160651AEF07F01CEF07F01FEF07F0E8
:100E3800000E20EF07F0010E12005B5031EC07F0B6
:100E48000009D8A42AEF07F02CEF07F02FEF07F0DE
:100E5800010E30EF07F05B5012000501606F010EC4
:100E6800050160653AEF07F03CEF07F03FEF07F048
:100E7800000E40EF07F0010E1200405051EC07F051
:100E88000009D8A44AEF07F04CEF07F04FEF07F03E
:100E9800000E50EF07F0405012000501606F010E80
:100EA800050160655AEF07F05CEF07F05FEF07F0A8
:100EB800000E60EF07F0010E1200595071EC07F0B8
:100EC8000009D8A46AEF07F06CEF07F06FEF07F09E
:100ED800010E70EF07F0595012000501606F030E04
:100EE800050160657AEF07F07CEF07F07FEF07F008
:100EF800000E80EF07F0010E12005D5009EC0DF0B6
:100F08000009D8A48AEF07F08CEF07F08FEF07F0FD
:100F1800960E90EF07F05D5012005E500DEC0DF04C
:100F28000009D8A49AEF07F09CEF07F09FEF07F0AD
:100F3800960EA0EF07F05E5012004150B1EC07F09A
:100F48000009D8A4AAEF07F0ACEF07F0AFEF07F05D
:100F5800000EB0EF07F0415012000501606F010E5E
:100F680005016065BAEF07F0BCEF07F0BFEF07F0C7
:100F7800000EC0EF07F0010E12004350D1EC07F04D
:100F88000009D8A4CAEF07F0CCEF07F0CFEF07F0BD
:100F9800000ED0EF07F0435012000501606F020EFB
:100FA80005016065DAEF07F0DCEF07F0DFEF07F027
:100FB800000EE0EF07F0010E120005016151000A72
:100FC800D8A4E9EF07F0EDEF07F0626B622BEFEFC3
:100FD80007F00501626B62291200050120EE1AF183
:100FE8006051D9266151DA222AC6DEF42BC6DEF416
:100FF8002CC6DEF42DC6DEF412003F5011EC08F0CA
:101008000009D8A40AEF08F00CEF08F00FEF08F079
:10101800000E10EF08F03F5012000501606F010E3E
:10102800050160651AEF08F01CEF08F01FEF08F0E3
:10103800000E20EF08F0010E1200455016EC09F0E2
:101048000009D8A42AEF08F02CEF08F02FEF08F0D9
:10105800000E30EF08F045501200445024EC09F01F
:101068000009D8A43AEF08F03CEF08F03FEF08F089
:10107800000E40EF08F0445012005C5032EC09F0CA
:101088000009D8A44AEF08F04CEF08F04FEF08F039
:10109800070E50EF08F05C5012005B5040EC09F06E
:1010A8000009D8A45AEF08F05CEF08F05FEF08F0E9
:1010B800010E60EF08F05B501200E7ECEAF000095F
:1010C800D8A469EF08F06BEF08F06EEF08F0010E96
:1010D80049ECCBF0050E4F6E12003D504EEC09F076
:1010E8000009D8A47AEF08F07CEF08F07FEF08F049
:1010F800000E80EF08F03D5012005D5011EC0DF02D
:101108000009D8A48AEF08F08CEF08F08FEF08F0F8
:10111800960E90EF08F05D5012005E5015EC0DF041
:101128000009D8A49AEF08F09CEF08F09FEF08F0A8
:10113800960EA0EF08F05E50120005016051611193
:10114800D8B4A9EF08F0ABEF08F0AEEF08F0000E46
:10115800AFEF08F0010E1200200E0501635DD8A064
:10116800B8EF08F0BAEF08F0BDEF08F0000EBEEFD8
:1011780008F0010E1200200E0501635DD8A0C7EF2C
:1011880008F0C9EF08F0CCEF08F0000ECDEF08F03A
:10119800010E1200200E0501635DD8A0D6EF08F0FD
:1011A800D8EF08F0DBEF08F0000EDCEF08F0010ED6
:1011B8001200010E0301266F600E256F000E276FC7
:1011C800090E236F000E226FB196800E246F120055
:1011D800380E0001456F050161510001446F60C57B
:1011E80043F0F80E41174081465112000501606F27
:1011F800050160510C0D540EF324D96E010EF42034
:10120800DA6EDF50010B12000501606F05016051B5
:101218000C0D540EF324D96E010EF420DA6EDF5053
:10122800090B1200016E030E01641DEF09F01FEF98
:1012380009F022EF09F0000E23EF09F0010E120069
:10124800016E030E01642BEF09F02DEF09F030EF6A
:1012580009F0000E31EF09F0010E1200016E070EC1
:10126800016439EF09F03BEF09F03EEF09F0000E99
:101278003FEF09F0010E1200016E010E016447EF05
:1012880009F049EF09F04CEF09F0000E4DEF09F0B5
:10129800010E1200016E020E016455EF09F057EFBE
:1012A80009F05AEF09F0000E5BEF09F0010E120089
:1012B800830E0001846F000E856F020E866F060E86
:1012C8008C6F000E896FC79A12000501606FB2A279
:1012D80070EF09F072EF09F06BEF09F060C5A3F247
:1012E80012000501646F000E0501616F210E606F29
:1012F80064C562F5EDECF1F012000501646F000EB3
:101308000501616F220E606F64C562F5EDECF1F0C6
:1013180012000501646F000E0501616F070E606F12
:1013280064C562F5EDECF1F012000501646F000E82
:101338000501616F060E606F64C562F5EDECF1F0B2
:1013480012000501646F000E0501616F230E606FC6
:1013580064C562F5EDECF1F012000501646F000E52
:101368000501616F050E606F64C562F5EDECF1F083
:1013780012000501646F000E0501616F040E606FB5
:1013880064C562F5EDECF1F012000501646F000E22
:101398000501616F0F0E606F64C562F5EDECF1F049
:1013A80012000501646F000E0501616F110E606F78
:1013B80064C562F5EDECF1F012000501646F000EF2
:1013C8000501616F0B0E606F64C562F5EDECF1F01D
:1013D80012000501646F000E0501616F100E606F49
:1013E80064C562F5EDECF1F012000501646F000EC2
:1013F8000501616F0C0E606F64C562F5EDECF1F0EC
:1014080012000501646F000E0501616F140E606F14
:1014180064C562F5EDECF1F012000501646F000E91
:101428000501616F130E606F64C562F5EDECF1F0B4
:1014380012000501646F000E0501616F120E606FE6
:1014480064C562F5EDECF1F012000501646F000E61
:101458000501616F0A0E606F64C562F5EDECF1F08D
:1014680012008C0E0301426F000E416F130E406F85
:101478004C51FC0B01094C6F1200380E0001456FEE
:101488000250446F01C543F0F80E411740814651A0
:1014980012005050D8A453EF0AF056EF0AF0010E8C
:1014A80057EF0AF0000E1200000E0501616F210EC1
:1014B800606FECEC08F00501626F62511200000EDB
:1014C8000501616F220E606FECEC08F00501626F98
:1014D80062511200000E0501616F070E606FECEC9F
:1014E80008F00501626F62511200000E0501616F7C
:1014F800060E606FECEC08F00501626F6251120095
:10150800000E0501616F230E606FECEC08F0050119
:10151800626F62511200000E0501616F050E606F67
:10152800ECEC08F00501626F62511200000E050133
:10153800616F040E606FECEC08F00501626F625198
:101548001200000E0501616F0F0E606FECEC08F0E1
:101558000501626F62511200000E0501616F110EE4
:10156800606FECEC08F00501626F62511200000E2A
:101578000501616F0B0E606FECEC08F00501626FFE
:1015880062511200000E0501616F100E606FECECE5
:1015980008F00501626F62511200000E0501616FCB
:1015A8000C0E606FECEC08F00501626F62511200DE
:1015B800000E0501616F140E606FECEC08F0050178
:1015C800626F62511200000E0501616F130E606FA9
:1015D800ECEC08F00501626F62511200000E050183
:1015E800616F120E606FECEC08F00501626F6251DA
:1015F8001200000E0501616F0A0E606FECEC08F036
:101608000501626F625112004B50D8A40EEF0BF027
:1016180010EF0BF012EF0BF0010E486E12004B505A
:10162800D8A419EF0BF01BEF0BF01DEF0BF0010E18
:10163800496E12004B50D8A424EF0BF026EF0BF0A4
:1016480028EF0BF0010E476E120082C508F783C51C
:1016580009F784C50AF785C50BF7010E120082C584
:1016680014F783C515F784C516F785C517F7010E56
:101678001200190E0101046F190E056F640E066F32
:10168800000E076F1200B69867C601F568C602F526
:10169800B4EC04F073EC03F01200056E000E026E59
:1016A800070E016E05C503F55BECF4F01200056E3C
:1016B800000E026E060E016E05C503F55BECF4F034
:1016C80012000CC760F50DC761F50EC762F50FC7AC
:1016D80063F5120010C760F511C761F512C762F50E
:1016E80013C763F5120064C50CF765C50DF766C529
:1016F8000EF767C50FF712001CC760F51DC761F527
:101708001EC762F51FC763F5120082C510F783C5AF
:1017180011F784C512F785C513F712000CC701F538
:101728000DC702F50EC703F50FC704F5120001C572
:101738000CF702C50DF703C50EF704C50FF7120025
:1017480003010351016E0451026E0551036E046AD0
:1017580012001CC701F51DC702F51EC703F51FC7F8
:1017680004F51200000E026E070E016E41EC0AF03D
:10177800036E03501200000E026E060E016E41EC5D
:101788000AF0036E03501200010E07011C27000E19
:101798001D231E231F231200010E06012A27000EF7
:1017A8002B232C232D231200050161510301DC6F2B
:1017B80060C5DBF3120060C54EF761C54FF762C51F
:1017C80050F7120060C545F761C546F762C547F78F
:1017D800120060C548F761C549F762C54AF71200AB
:1017E80060C542F761C543F762C544F7120060C59A
:1017F8004BF761C54CF762C54DF7120060C53CF761
:1018080061C53DF762C53EF7120060C53FF761C587
:1018180040F762C541F7120060C539F761C53AF76C
:1018280062C53BF7120060C540F661C541F662C566
:1018380042F6120060C543F661C544F662C545F636
:10184800120060C546F661C547F662C548F6120043
:1018580060C549F661C54AF662C54BF6120060C517
:101868004CF661C54DF662C54EF6120060C53DF6F0
:1018780061C53EF662C53FF61200550E0001B46F11
:10188800AA0EB46FB481120060C5E7F761C5E8F726
:1018980062C5E9F7120060C5EAF761C5EBF762C5F2
:1018A800ECF7120060C5EDF761C5EEF762C5EFF71A
:1018B800120060C5F0F761C5F1F762C5F2F71200D2
:1018C80060C5F3F761C5F4F762C5F5F7120060C5A6
:1018D800F6F761C5F7F762C5F8F7120060C5DEF7DD
:1018E80061C5DFF762C5E0F7120060C5E1F761C5C1
:1018F800E2F762C5E3F7120060C5DBF761C5DCF704
:1019080062C5DDF7120060C5E4F761C5E5F762C599
:10191800E6F7120060C530F761C531F762C532F7E6
:10192800120060C53AF661C53BF662C53CF6120086
:1019380060C533F761C534F762C535F7120060C575
:1019480036F761C537F762C538F712000501606FD1
:1019580060C576F6010E12000501606F60C53CF5A2
:10196800010E1200FFFF200101010796960460C5D1
:10197800FAF661C5FBF6120001010239E832070BDD
:1019880012000501606F60C5FBF31200000E000134
:10199800E86FFC8D1200C8EC0BF0D0EC0BF01200D5
:1019A80001C5FAF602C5FBF6120005016069616916
:1019B8001200010E06017C6F12000601765112001A
:1019C8000301308F120003012A91120003012A81BA
:1019D800120003010D8F120003010D9F1200030175
:1019E800F39B12008AEC04F012009FEC04F0120042
:1019F800CAEC0CF012000301309F120003012A9177
:101A080012004B501200010E1200010E12003C5041
:101A18001200010E1200D69A1200010E12003C505C
:101A28001200010E12001200120012001200120021
:101A3800120012001200120012001200120012000E
:0C1A480012001200120012001200120026
:10FE9400000000000000000000000000000000005E
:10FEA400000000000000000000000000000000004E
:10FEB400000000000000000000000000000000003E
:10FEC400000000000000000000000001020304051F
:10FED40006070800FC1F000000F80F00FCE0FF1FED
:10FEE40000E003FF03830002000050015B457272CF
:10FEF4006F725D20257320697320696E76616C6969
:10FF04006400257320697320526561642D4F6E6C03
:10FF140079005348494654434F4C4F5200494C4C86
:10FF2400554D4E4947485400494C4C554D4D4F444E
:10FF340045004C4F4144414E494D00494C4C554DB0
:10FF44005F494E00535441525442495400494C4C69
:10FF5400554D4441590043414E42415544004445A6
:10FF64004641554C54004241545445525900434172
:10FF74004E4944450043525549534500434F4E466C
:10FF8400494700302E302E3200534E494646004633
:10FF94004C41534800454556455200504F57455231
:10FFA400004552524F52005245534554005348495C
:10FFB400465400424F4F5354005258494400545839
:10FFC4004944005045414B004543484F00564F4C6F
:10FFD4005400696E66006E616E006C6C7300525062
:10FFE4004D004143510041435400256C75004F4B73
:0BFFF400002564002566002573000056
:020000040001F9
:10000000FB0E05019A6FFF0E9B6F200E9C6F090E71
:100010009D6FF3EC04F006017951D8B412EF80F033
:1000200014EF80F0E5EF89F0530EBF6F070EC06F3D
:10003000000EC26F320EC16FF20EC36FFF0EC46F9F
:1000400024ECD6F0BFC663F6C0C664F66AEF85F04E
:10005000B00E746F080E756FB3ECC9F074C583F5FC
:1000600075C584F576C585F577C586F5010E05015C
:10007000876FB2ECE6F00009D8A441EF80F043EFBF
:1000800080F073EF8AF0530E0601BF6F070EC06F4A
:10009000000EC26F320EC16FF00EC36FFE0EC46F42
:1000A000B00EC56F080EC66F24ECD6F0BFC663F65F
:1000B000C0C664F673EF8AF0B00E746F080E756FE9
:1000C000B3ECC9F074C583F575C584F576C585F5BF
:1000D00077C586F5010E0501876F01ECE7F0000991
:1000E000D8A475EF80F077EF80F073EF8AF0530EAD
:1000F0000601BF6F070EC06F000EC26F320EC16FD8
:10010000F00EC36FFE0EC46FB00EC56F080EC66F43
:1001100024ECD6F0BFC663F6C0C664F673EF8AF06F
:10012000010E6F6FB00E666F080E676F74ECD2F041
:1001300005016651E3ECEDF00009D8A4A2EF80F0D0
:10014000A4EF80F073EF8AF0530E0601BF6F070E25
:10015000C06F000EC26F320EC16FF00EC36FFE0E85
:10016000C46FB00EC56F080EC66F24ECD6F0BFC6C4
:1001700063F6C0C664F673EF8AF0010E6F6FB00EBF
:10018000666F080E676F74ECD2F005016651AFEC34
:10019000EDF00009D8A4CFEF80F0D1EF80F073EF3D
:1001A0008AF0530E0601BF6F070EC06F000EC26FBC
:1001B000320EC16FF00EC36FFE0EC46FB00EC56F6E
:1001C000080EC66F24ECD6F0BFC663F6C0C664F650
:1001D00073EF8AF0010E836FB00E746F080E756FA7
:1001E000B3ECC9F00501745147ECEDF00009D8A457
:1001F000FCEF80F0FEEF80F073EF8AF0530E060103
:10020000BF6F070EC06F000EC26F320EC16FF00ECF
:10021000C36FFE0EC46FB00EC56F080EC66F24EC20
:10022000D6F0BFC663F6C0C664F673EF8AF0010E5F
:10023000836FB00E746F080E756FB3ECC9F00501D3
:10024000745113ECEDF00009D8A429EF81F02BEFE5
:1002500081F073EF8AF0530E0601BF6F070EC06F77
:10026000000EC26F320EC16FF00EC36FFE0EC46F70
:10027000B00EC56F080EC66F24ECD6F0BFC663F68D
:10028000C0C664F673EF8AF0B00E666F080E676F33
:1002900074ECD2F0050166C574F567C575F5000EFE
:1002A00075BFFF0E766F776F010E5BECC6F074C5FD
:1002B00082F575C583F576C584F577C585F533EC8C
:1002C0000BF00009D8A467EF81F069EF81F073EFBC
:1002D0008AF0530E0601BF6F070EC06F000EC26F8B
:1002E000320EC16FF00EC36FFE0EC46FB00EC56F3D
:1002F000080EC66F24ECD6F0BFC663F6C0C664F61F
:1003000073EF8AF0B00E666F080E676F74ECD2F070
:1003100005016651B0EC0CF00009D8A492EF81F011
:1003200094EF81F073EF8AF0530E0601BF6F070E52
:10033000C06F000EC26F320EC16FF00EC36FFE0EA3
:10034000C46FB00EC56F080EC66F24ECD6F0BFC6E2
:1003500063F6C0C664F673EF8AF0B00E746F080ED1
:10036000756FB3ECC9F005017451AAEC0CF00009EB
:10037000D8A4BDEF81F0BFEF81F073EF8AF0530E88
:100380000601BF6F070EC06F000EC26F320EC16F45
:10039000F00EC36FFE0EC46FB00EC56F080EC66FB1
:1003A00024ECD6F0BFC663F6C0C664F673EF8AF0DD
:1003B000530E0601BF6F070EC06F000EC26F320EE4
:1003C000C16F060EC36FFF0EC46F200EC56F090EFE
:1003D000C66F24ECD6F0BFC663F6C0C664F673EFF2
:1003E0008AF0010E6F6FB00E666F080E676F74ECC7
:1003F000D2F005016651B7ECEFF00009D8A403EF85
:1004000082F005EF82F073EF8AF0530E0601BF6FA2
:10041000070EC06F000EC26F320EC16FF00EC36FB9
:10042000FE0EC46FB00EC56F080EC66F24ECD6F07A
:10043000BFC663F6C0C664F673EF8AF0B00E916F64
:10044000080E926F000E936F000E946F000E966F61
:10045000000E956F3DEC02F091C597F592C598F5A9
:1004600093C599F594C59AF5FF0E05019B6FFF0E94
:100470009C6FFF0E9D6FFF0E9E6F53EC00F073EFAD
:100480008AF0010E6F6FB00E666F080E676F74EC26
:10049000D2F0050166517FECEEF00009D8A453EFCD
:1004A00082F055EF82F073EF8AF0530E0601BF6FB2
:1004B000070EC06F000EC26F320EC16FF00EC36F19
:1004C000FE0EC46FB00EC56F080EC66F24ECD6F0DA
:1004D000BFC663F6C0C664F673EF8AF0010E6F6F95
:1004E000B00E666F080E676F74ECD2F005016651AE
:1004F000E7ECEEF00009D8A480EF82F082EF82F002
:1005000073EF8AF0530E0601BF6F070EC06F000E27
:10051000C26F320EC16FF00EC36FFE0EC46FB00E0D
:10052000C56F080EC66F24ECD6F0BFC663F6C0C612
:1005300064F673EF8AF0530E0601BF6F070EC06FAB
:10054000000EC26F320EC16F060EC36FFF0EC46F76
:10055000200EC56F090EC66F24ECD6F0BFC663F639
:10056000C0C664F673EF8AF0010E6F6FB00E666F4F
:10057000080E676F74ECD2F00501665117ECEEF0CF
:100580000009D8A4C6EF82F0C8EF82F073EF8AF0BA
:10059000530E0601BF6F070EC06F000EC26F320E02
:1005A000C16FF00EC36FFE0EC46FB00EC56F080EA4
:1005B000C66F24ECD6F0BFC663F6C0C664F673EF10
:1005C0008AF0010E6F6FB00E666F080E676F74ECE5
:1005D000D2F005016651B3ECEEF00009D8A4F3EFB8
:1005E00082F0F5EF82F073EF8AF0530E0601BF6FD1
:1005F000070EC06F000EC26F320EC16FF00EC36FD8
:10060000FE0EC46FB00EC56F080EC66F24ECD6F098
:10061000BFC663F6C0C664F673EF8AF0010E6F6F53
:10062000B00E666F080E676F74ECD2F0050166516C
:100630004BECEEF00009D8A420EF83F022EF83F01A
:1006400073EF8AF0530E0601BF6F070EC06F000EE6
:10065000C26F320EC16FF00EC36FFE0EC46FB00ECC
:10066000C56F080EC66F24ECD6F0BFC663F6C0C6D1
:1006700064F673EF8AF0010E6F6FB00E666F080EAE
:10068000676F74ECD2F00501665183ECEFF000095E
:10069000D8A44DEF83F04FEF83F073EF8AF0530E41
:1006A0000601BF6F070EC06F000EC26F320EC16F22
:1006B000F00EC36FFE0EC46FB00EC56F080EC66F8E
:1006C00024ECD6F0BFC663F6C0C664F673EF8AF0BA
:1006D000B00E666F080E676F74ECD2F0050166C548
:1006E00074F567C575F5000E75BFFF0E766F776FF1
:1006F000010E5BECC6F074C582F575C583F576C551
:1007000084F577C585F529EC0BF00009D8A48BEFAB
:1007100083F08DEF83F073EF8AF0530E0601BF6F05
:10072000070EC06F000EC26F320EC16FF00EC36FA6
:10073000FE0EC46FB00EC56F080EC66F24ECD6F067
:10074000BFC663F6C0C664F673EF8AF0010E6F6F22
:10075000B00E666F080E676F74ECD2F0050166513B
:100760004FECEFF00009D8A4B8EF83F0BAEF83F0B4
:1007700073EF8AF0530E0601BF6F070EC06F000EB5
:10078000C26F320EC16FF00EC36FFE0EC46FB00E9B
:10079000C56F080EC66F24ECD6F0BFC663F6C0C6A0
:1007A00064F673EF8AF0010E6F6FB00E666F080E7D
:1007B000676F74ECD2F0050166511BECEFF0000995
:1007C000D8A4E5EF83F0E7EF83F073EF8AF0530EE0
:1007D0000601BF6F070EC06F000EC26F320EC16FF1
:1007E000F00EC36FFE0EC46FB00EC56F080EC66F5D
:1007F00024ECD6F0BFC663F6C0C664F673EF8AF089
:10080000B00E746F080E756FB3ECC9F074C583F544
:1008100075C584F576C585F577C586F5010E0501A4
:10082000876F14ECE6F00009D8A419EF84F01BEFF1
:1008300084F073EF8AF0530E0601BF6F070EC06F8E
:10084000000EC26F320EC16FF00EC36FFE0EC46F8A
:10085000B00EC56F080EC66F24ECD6F0BFC663F6A7
:10086000C0C664F673EF8AF0B00E746F080E756F31
:10087000B3ECC9F074C583F575C584F576C585F507
:1008800077C586F5010E0501876FC5ECE5F0000917
:10089000D8A44DEF84F04FEF84F073EF8AF0530E3D
:1008A0000601BF6F070EC06F000EC26F320EC16F20
:1008B000F00EC36FFE0EC46FB00EC56F080EC66F8C
:1008C00024ECD6F0BFC663F6C0C664F673EF8AF0B8
:1008D000B00E746F080E756FB3ECC9F074C583F574
:1008E00075C584F576C585F577C586F5010E0501D4
:1008F000876F63ECE6F00009D8A481EF84F083EF02
:1009000084F073EF8AF0530E0601BF6F070EC06FBD
:10091000000EC26F320EC16FF00EC36FFE0EC46FB9
:10092000B00EC56F080EC66F24ECD6F0BFC663F6D6
:10093000C0C664F673EF8AF0010E836FB00E746F59
:10094000080E756FB3ECC9F005017451ABECECF017
:100950000009D8A4AEEF84F0B0EF84F073EF8AF012
:10096000530E0601BF6F070EC06F000EC26F320E2E
:10097000C16FF00EC36FFE0EC46FB00EC56F080ED0
:10098000C66F24ECD6F0BFC663F6C0C664F673EF3C
:100990008AF0010E6F6FB00E666F080E676F74EC11
:1009A000D2F005016651DFECECF00009D8A4DBEFD2
:1009B00084F0DDEF84F073EF8AF0530E0601BF6F11
:1009C000070EC06F000EC26F320EC16FF00EC36F04
:1009D000FE0EC46FB00EC56F080EC66F24ECD6F0C5
:1009E000BFC663F6C0C664F673EF8AF0010E6F6F80
:1009F000B00E666F080E676F74ECD2F00501665199
:100A00007BECEDF00009D8A408EF85F00AEF85F043
:100A100073EF8AF0530E0601BF6F070EC06F000E12
:100A2000C26F320EC16FF00EC36FFE0EC46FB00EF8
:100A3000C56F080EC66F24ECD6F0BFC663F6C0C6FD
:100A400064F673EF8AF0530E0601BF6F070EC06F96
:100A5000000EC26F320EC16F060EC36FFF0EC46F61
:100A6000200EC56F090EC66F24ECD6F0BFC663F624
:100A7000C0C664F673EF8AF0530E0601BF6F070E0F
:100A8000C06F000EC26F320EC16F060EC36FFF0E35
:100A9000C46F200EC56F090EC66F24ECD6F0BFC61A
:100AA00063F6C0C664F673EF8AF0530E0601BF6F9B
:100AB000070EC06F000EC26F320EC16FA50EC36F5E
:100AC000FF0EC46F24ECD6F0BFC663F6C0C664F652
:100AD00073EF8AF0200E0501666F090E676FD3EC85
:100AE000E8F005016751000AD8B479EF85F055EFB9
:100AF00085F06651010AD8B428EF80F0030AD8B413
:100B00005CEF80F0010AD8B490EF80F0070AD8B407
:100B1000BDEF80F0010AD8B4EAEF80F0030AD8B440
:100B200017EF81F0010AD8B444EF81F00F0AD8B46E
:100B300082EF81F0010AD8B4ADEF81F0030AD8B496
:100B4000D8EF81F0010AD8B473EF8AF0070AD8B45D
:100B5000F1EF81F0010AD8B41EEF82F0030AD8B495
:100B600041EF82F0010AD8B46EEF82F01F0AD8B4C8
:100B70009BEF82F0010AD8B4B4EF82F0030AD8B434
:100B8000E1EF82F0010AD8B40EEF83F0070AD8B47F
:100B90003BEF83F0010AD8B468EF83F0030AD8B4BE
:100BA000A6EF83F0010AD8B4D3EF83F00F0AD8B4CC
:100BB00000EF84F0010AD8B434EF84F0030AD8B40B
:100BC00068EF84F0010AD8B49CEF84F0070AD8B427
:100BD000C9EF84F0010AD8B4F6EF84F0030AD8B460
:100BE00023EF85F0010AD8B43CEF85F055EF85F08E
:100BF000530E0601BF6F070EC06F000EC26F320E9C
:100C0000C16FEE0EC36FFF0EC46FA8ECF4F064C5A5
:100C1000C5F665C5C6F666C5C7F667C5C8F624EC51
:100C2000D6F0BFC663F6C0C664F673EF8AF0530E03
:100C30000601BF6F070EC06F000EC26F320EC16F8C
:100C4000EE0EC36FFF0EC46F82ECF4F064C5C5F600
:100C500065C5C6F666C5C7F667C5C8F624ECD6F006
:100C6000BFC663F6C0C664F673EF8AF0530E060182
:100C7000BF6F070EC06F000EC26F320EC16FF50E50
:100C8000C36FFF0EC46FA1EC06F00501FA6FFA51B5
:100C90000601C56FC66B24ECD6F0BFC663F6C0C6AE
:100CA00064F673EF8AF0530E0601BF6F070EC06F34
:100CB000000EC26F320EC16FF50EC36FFF0EC46F10
:100CC00081EC06F00501FA6FFA510601C56FC66B9B
:100CD00024ECD6F0BFC663F6C0C664F673EF8AF0A4
:100CE000530E0601BF6F070EC06F000EC26F320EAB
:100CF000C16FF50EC36FFF0EC46F91EC07F00501D5
:100D0000FA6FFA510601C56FC66B24ECD6F0BFC668
:100D100063F6C0C664F673EF8AF0530E0601BF6F28
:100D2000070EC06F000EC26F320EC16FF50EC36F9B
:100D3000FF0EC46F81EC07F00501FA6FFA5106014E
:100D4000C56FC66B24ECD6F0BFC663F6C0C664F6AA
:100D500073EF8AF0F3EC0CF0010EC5EC0CF0FF0E13
:100D60000501866F090E876FA00E886F3A0E896F96
:100D7000130ED1EC00F0050160C574F561C575F581
:100D8000766B776B000E5BECC6F074C582F575C5AB
:100D900083F576C584F577C585F5A5ECB7F082C5F2
:100DA0009BF583C59CF584C59DF585C59EF5CD0E47
:100DB00005019F6FCC0EA06FCC0EA16FBD0EA26F70
:100DC00087ECACF09BC520F79CC521F79DC522F7A9
:100DD0009EC523F7530E0601BF6F070EC06F000EAE
:100DE000C26F320EC16FF80EC36FFF0EC46F20C703
:100DF000C5F621C7C6F622C7C7F623C7C8F624EC36
:100E0000D6F0BFC663F6C0C664F673EF8AF0530E21
:100E10000601BF6F070EC06F000EC26F320EC16FAA
:100E2000F50EC36FFF0EC46F0BEC0DF00501FA6FEA
:100E3000FA510601C56FC66B24ECD6F0BFC663F647
:100E4000C0C664F673EF8AF0530E0601BF6F070E3B
:100E5000C06F000EC26F320EC16FF50EC36FFF0E72
:100E6000C46FE1EC0CF00501FA6FFA510601C56F91
:100E7000C66B24ECD6F0BFC663F6C0C664F673EF4B
:100E80008AF0530E0601BF6F070EC06F000EC26FCF
:100E9000320EC16FFB0EC36FFF0EC46F870EC56F9E
:100EA000FF0EC66F24ECD6F0BFC663F6C0C664F66C
:100EB00073EF8AF0530E0601BF6F070EC06F000E6E
:100EC000C26F320EC16FF80EC36FFF0EC46F6EECAF
:100ED0000BF060C5C5F661C5C6F662C5C7F663C549
:100EE000C8F624ECD6F0BFC663F6C0C664F673EF4E
:100EF0008AF0530E0601BF6F070EC06F000EC26F5F
:100F0000320EC16FF50EC36FFF0EC46FC1EC07F058
:100F10000501FA6FFA510601C56FC66B24ECD6F0D5
:100F2000BFC663F6C0C664F673EF8AF0530E0601BF
:100F3000BF6F070EC06F000EC26F320EC16FEE0E94
:100F4000C36FFF0EC46F65EC0BF060C5C5F661C5DD
:100F5000C6F662C5C7F663C5C8F624ECD6F0BFC6B0
:100F600063F6C0C664F673EF8AF0530E0601BF6FD6
:100F7000070EC06F000EC26F320EC16FF50EC36F49
:100F8000FF0EC46F01EC07F00501FA6FFA5106017C
:100F9000C56FC66B24ECD6F0BFC663F6C0C664F658
:100FA00073EF8AF0530E0601BF6F070EC06F000E7D
:100FB000C26F320EC16FF50EC36FFF0EC46FA1EC8E
:100FC00007F00501FA6FFA510601C56FC66B24ECF4
:100FD000D6F0BFC663F6C0C664F673EF8AF0530E50
:100FE0000601BF6F070EC06F000EC26F320EC16FD9
:100FF000F50EC36FFF0EC46F57EC02F062C5C5F665
:1010000063C5C6F624ECD6F0BFC663F6C0C664F668
:1010100073EF8AF0530E0601BF6F070EC06F000E0C
:10102000C26F320EC16FF50EC36FFF0EC46FC1ECFD
:1010300006F00501FA6FFA510601C56FC66B24EC84
:10104000D6F0BFC663F6C0C664F673EF8AF0530EDF
:101050000601BF6F070EC06F000EC26F320EC16F68
:10106000F50EC36FFF0EC46F21EC07F00501FA6F98
:10107000FA510601C56FC66B24ECD6F0BFC663F605
:10108000C0C664F673EF8AF0530E0601BF6F070EF9
:10109000C06F000EC26F320EC16FF50EC36FFF0E30
:1010A000C46FE1EC06F00501FA6FFA510601C56F55
:1010B000C66B24ECD6F0BFC663F6C0C664F673EF09
:1010C0008AF0530E0601BF6F070EC06F000EC26F8D
:1010D000320EC16FF50EC36FFF0EC46F61EC07F0E7
:1010E0000501FA6FFA510601C56FC66B24ECD6F004
:1010F000BFC663F6C0C664F673EF8AF0F3EC0CF07B
:10110000000EC5EC0CF0FF0E0501866F090E876F0F
:10111000A00E886F3A0E896F000ED1EC00F0050129
:1011200060C574F561C575F5766B776B000E5BEC89
:10113000C6F074C582F575C583F576C584F577C5A7
:1011400085F5A5ECB7F082C59BF583C59CF584C5F4
:101150009DF585C59EF5CD0E05019F6FCC0EA06F48
:10116000CC0EA16FBD0EA26F87ECACF09BC520F733
:101170009CC521F79DC522F79EC523F7530E060196
:10118000BF6F070EC06F000EC26F320EC16FF80E38
:10119000C36FFF0EC46F20C7C5F621C7C6F622C7AE
:1011A000C7F623C7C8F624ECD6F0BFC663F6C0C6A0
:1011B00064F673EF8AF0530E0601BF6F070EC06F1F
:1011C000000EC26F320EC16FF50EC36FFF0EC46FFB
:1011D00041EC07F00501FA6FFA510601C56FC66BC5
:1011E00024ECD6F0BFC663F6C0C664F673EF8AF08F
:1011F000530E0601BF6F070EC06F000EC26F320E96
:10120000C16FF50EC36FFF0EC46F01EC08F005014E
:10121000FA6FFA510601C56FC66B24ECD6F0BFC653
:1012200063F6C0C664F673EF8AF0530E0601BF6F13
:10123000070EC06F000EC26F320EC16FEE0EC36F8D
:10124000FF0EC46FF4ECF4F064C5C5F665C5C6F6D0
:1012500066C5C7F667C5C8F624ECD6F0BFC663F608
:10126000C0C664F673EF8AF0530E0601BF6F070E17
:10127000C06F000EC26F320EC16FEE0EC36FFF0E55
:10128000C46FCEECF4F064C5C5F665C5C6F666C598
:10129000C7F667C5C8F624ECD6F0BFC663F6C0C66D
:1012A00064F673EF8AF0530E0601BF6F070EC06F2E
:1012B000000EC26F320EC16FEE0EC36FFF0EC46F11
:1012C0001AECF5F064C5C5F665C5C6F666C5C7F681
:1012D00067C5C8F624ECD6F0BFC663F6C0C664F690
:1012E00073EF8AF0530E0601BF6F070EC06F000E3A
:1012F000C26F320EC16FF50EC36FFF0EC46F31ECBB
:1013000006F00501FA6FFA510601C56FC66B24ECB1
:10131000D6F0BFC663F6C0C664F673EF8AF0530E0C
:101320000601BF6F070EC06F000EC26F320EC16F95
:10133000F50EC36FFF0EC46F41EC06F00501FA6FA6
:10134000FA510601C56FC66B24ECD6F0BFC663F632
:10135000C0C664F673EF8AF0530E0601BF6F070E26
:10136000C06F000EC26F320EC16FF50EC36FFF0E5D
:10137000C46F51EC06F00501FA6FFA510601C56F12
:10138000C66B24ECD6F0BFC663F6C0C664F673EF36
:101390008AF0FF0073EF8AF093ECCDF073EF8AF0E0
:1013A000530E0601BF6F070EC06F000EC26F320EE4
:1013B000C16FA50EC36FFF0EC46F24ECD6F0BFC67D
:1013C00063F6C0C664F673EF8AF0200E0501666FFF
:1013D000090E676FD3ECE8F005016751000AD8B435
:1013E000F4EF89F0D0EF89F06651010AD8B4F8EF34
:1013F00085F0030AD8B417EF86F0010AD8B436EFA7
:1014000086F0070AD8B453EF86F0010AD8B470EF1B
:1014100086F0030AD8B48DEF86F0010AD8B4AAEF9B
:1014200086F00F0AD8B407EF87F0010AD8B424EF8A
:1014300087F0030AD8B441EF87F0010AD8B45AEF15
:1014400087F0070AD8B479EF87F0010AD8B496EF8D
:1014500087F0030AD8B4B5EF87F0010AD8B4D2EF09
:1014600087F01F0AD8B4EFEF87F0010AD8B40AEF6B
:1014700088F0030AD8B427EF88F0010AD8B444EF03
:1014800088F0070AD8B461EF88F0010AD8B47EEF7B
:1014900088F0030AD8B4DBEF88F0010AD8B4F8EF7B
:1014A00088F00F0AD8B415EF89F0010AD8B434EFE8
:1014B00089F0030AD8B453EF89F0010AD8B472EF67
:1014C00089F0070AD8B48FEF89F0010AD8B4ACEFDD
:1014D00089F0030AD8B4C9EF89F0010AD8B4CCEF77
:1014E00089F0D0EF89F0530E0501616F070E626F2E
:1014F00063C663F564C664F52DECEAF0200E0501C1
:10150000606F090E616F000E636F000E626F000E58
:10151000656F320E646FD7ECCCF0000E0601786F69
:10152000B00E0501606F080E616F000E636F000E54
:10153000626F000E656F320E646FD7ECCCF0000E58
:101540000601776F530E0501606F070E616F000E85
:10155000636F000E626F000E656F320E646FD7EC22
:10156000CCF0000E0601646F000E636F000E796F01
:10157000DDEC0CF012000501CE6F73EF92F0000E5F
:10158000866F000E876FC80E886F420E896FC6C5C2
:10159000D9F4C7C5DAF4DF50C86FC851746F756BE2
:1015A000766B776B000E5BECC6F074C582F575C583
:1015B00083F576C584F577C585F5A5ECB7F082C5CA
:1015C000ABF583C5ACF584C5ADF585C5AEF5000EAC
:1015D0000501AF6F000EB06F7F0EB16F430EB26F9B
:1015E000BBECB9F0ABC5C4F5ACC5C5F5ADC5C6F52A
:1015F000AEC5C7F591EF92F0C6C5D9F4C7C5DAF408
:10160000DF50C86FC851746F756B766B776B000EC7
:101610005BECC6F074C59BF575C59CF576C59DF56C
:1016200077C59EF5000E05019F6F000EA06F200E7E
:10163000A16FC20EA26F87ECACF09BC5C4F59CC530
:10164000C5F59DC5C6F59EC5C7F591EF92F0000E94
:10165000866F000E876F480E886F3F0E896FC6C574
:10166000D9F4C7C5DAF4DF50C86FC851746F756B11
:10167000766B776B000E5BECC6F074C582F575C5B2
:1016800083F576C584F577C585F5A5ECB7F082C5F9
:101690009BF583C59CF584C59DF585C59EF5000E1B
:1016A00005019F6F000EA06FC80EA16FC20EA26F42
:1016B00087ECACF09BC5C4F59CC5C5F59DC5C6F5CA
:1016C0009EC5C7F591EF92F0C6C5D9F4C7C5DAF447
:1016D000DF50C86FC851746F756B766B776B000EF7
:1016E0005BECC6F074C582F575C583F576C584F5E7
:1016F00077C585F5000E0501866F000E876F400ED9
:10170000886F400E896FA5ECB7F082C5C4F583C51C
:10171000C5F584C5C6F585C5C7F591EF92F0C6C578
:10172000D9F4C7C5DAF4DF50C86FC851746F756B50
:10173000766B776B000E5BECC6F074C5C4F575C5AF
:10174000C5F576C5C6F577C5C7F591EF92F020EEE1
:1017500001F0C651D926C751DA22DF50C86FC851EF
:10176000746F756B766B776B000E5BECC6F074C5AF
:101770009FF575C5A0F576C5A1F577C5A2F5000E54
:101780000501866F000E876F800E886F430E896F8C
:10179000C6C5D9F4C7C5DAF4DF50C96FC951746F33
:1017A000756B766B776B000E5BECC6F074C582F5DB
:1017B00075C583F576C584F577C585F5A5ECB7F0D5
:1017C00082C59BF583C59CF584C59DF585C59EF5B1
:1017D00087ECACF09BC5ABF59CC5ACF59DC5ADF5F4
:1017E0009EC5AEF5000E0501AF6F000EB06F800E06
:1017F000B16F400EB26FBBECB9F0ABC5C4F5ACC570
:10180000C5F5ADC5C6F5AEC5C7F591EF92F0000EB2
:10181000AF6F000EB06F000EB16F400EB26FC6C555
:10182000D9F4C7C5DAF4DF50C86FC851746F756B4F
:10183000766B776B000E5BECC6F074C5ABF575C5C7
:10184000ACF576C5ADF577C5AEF5BBECB9F0ABC57B
:101850009BF5ACC59CF5ADC59DF5AEC59EF5000EDE
:1018600005019F6F000EA06F800EA16FC20EA26FC8
:1018700087ECACF09BC5C4F59CC5C5F59DC5C6F508
:101880009EC5C7F591EF92F0C6C5D9F4C7C5DAF485
:10189000DF50C86FC851746F756B766B776B000E35
:1018A0005BECC6F074C5ABF575C5ACF576C5ADF5AA
:1018B00077C5AEF5000E0501AF6F000EB06F7F0E5D
:1018C000B16F430EB26FBBECB9F0ABC5C4F5ACC59C
:1018D000C5F5ADC5C6F5AEC5C7F591EF92F020EEE2
:1018E00001F0C651D926C751DA22DF50C86FC8515E
:1018F000746F756B766B776B000E5BECC6F074C51E
:101900009FF575C5A0F576C5A1F577C5A2F5000EC2
:101910000501866F000E876F800E886F430E896FFA
:10192000C6C5D9F4C7C5DAF4DF50C96FC951746FA1
:10193000756B766B776B000E5BECC6F074C582F549
:1019400075C583F576C584F577C585F5A5ECB7F043
:1019500082C59BF583C59CF584C59DF585C59EF51F
:1019600087ECACF09BC5CFF59CC5D0F59DC5D1F5F6
:101970009EC5D2F5CFC582F5D0C583F5D1C584F516
:10198000D2C585F5C10E0501866FCA0E876FA10EFF
:10199000886F3D0E896FA5ECB7F082C5C4F583C58D
:1019A000C5F584C5C6F585C5C7F591EF92F020EE63
:1019B00001F0C651D926C751DA22DF50C86FC8518D
:1019C000746F756B766B776B000E5BECC6F074C54D
:1019D0009FF575C5A0F576C5A1F577C5A2F5000EF2
:1019E0000501866F000E876F800E886F430E896F2A
:1019F000C6C5D9F4C7C5DAF4DF50C96FC951746FD1
:101A0000756B766B776B000E5BECC6F074C582F578
:101A100075C583F576C584F577C585F5A5ECB7F072
:101A200082C59BF583C59CF584C59DF585C59EF54E
:101A300087ECACF09BC5CFF59CC5D0F59DC5D1F525
:101A40009EC5D2F5000E0501866F000E876F000E51
:101A5000886F400E896FCFC582F5D0C583F5D1C59B
:101A600084F5D2C585F5A5ECB7F082C5ABF583C585
:101A7000ACF584C5ADF585C5AEF5000E0501AF6FBB
:101A8000000EB06F800EB16F470EB26FBBECB9F0B5
:101A9000ABC5C4F5ACC5C5F5ADC5C6F5AEC5C7F596
:101AA00091EF92F0000EC46F000EC56F000EC66F6E
:101AB000000EC76F91EF92F0000EC46F000EC56F5D
:101AC000000EC66F000EC76F91EF92F0C4C5C8F547
:101AD000C5C5C9F5C951000AD8B471EF8DF05CEFE6
:101AE0008DF0C851040AD8B4BFEF8AF0010AD8B407
:101AF000FCEF8AF0030AD8B427EF8BF0010AD8B4C0
:101B000027EF8BF00F0AD8B427EF8BF0010AD8B477
:101B100027EF8BF0030AD8B464EF8BF0010AD8B436
:101B20008FEF8BF0070AD8B4A7EF8BF0010AD8B477
:101B30008FEF8BF0030AD8B407EF8CF0010AD8B40A
:101B4000FCEF8AF01F0AD8B4FCEF8AF0010AD8B47F
:101B5000BFEF8AF0040AD8B444EF8CF0370AD8B447
:101B60006FEF8CF0110AD8B48FEF8BF0070AD8B45E
:101B7000D7EF8CF06E0AD8B4BFEF8AF0060AD8B45B
:101B8000FCEF8AF0330AD8B452EF8DF05CEF8DF0A1
:101B900020EE01F0C651D926C751DA22DF50C86FB6
:101BA000C851746F756B766B776B000E5BECC6F08B
:101BB00074C59FF575C5A0F576C5A1F577C5A2F5E5
:101BC000000E0501866F000E876F800E886F430E32
:101BD000896FC6C5D9F4C7C5DAF4DF50746F000E3B
:101BE00074BFFF0E756F766F776F010E5BECC6F0FA
:101BF00074C582F575C583F576C584F577C585F519
:101C0000A5ECB7F082C59BF583C59CF584C59DF511
:101C100085C59EF587ECACF09BC5CFF59CC5D0F58E
:101C20009DC5D1F59EC5D2F5CFC582F5D0C583F54A
:101C3000D1C584F5D2C585F56F0E0501866F120EEC
:101C4000876F030E886F3B0E896FA5ECB7F082C5D6
:101C5000C4F583C5C5F584C5C6F585C5C7F591EF3F
:101C600092F020EE01F0C651D926C751DA22DF509A
:101C7000C86FC851746F756B766B776B000E5BEC39
:101C8000C6F074C59FF575C5A0F576C5A1F577C5F5
:101C9000A2F5000E0501866F000E876F800E886F1B
:101CA000430E896FC6C5D9F4C7C5DAF4DF50746F27
:101CB000000E74BFFF0E756F766F776F010E5BECD1
:101CC000C6F074C582F575C583F576C584F577C50C
:101CD00085F5A5ECB7F082C59BF583C59CF584C559
:101CE0009DF585C59EF587ECACF09BC5ABF59CC515
:101CF000ACF59DC5ADF59EC5AEF5000E0501AF6F07
:101D0000000EB06F800EB16F440EB26FBBECB9F035
:101D1000ABC5C4F5ACC5C5F5ADC5C6F5AEC5C7F513
:101D200091EF92F020EE01F0C651D926C751DA2288
:101D3000DF50C86FC851746F756B766B776B000E90
:101D40005BECC6F074C59FF575C5A0F576C5A1F529
:101D500077C5A2F5000E0501866F000E876F800E15
:101D6000886F430E896FC6C5D9F4C7C5DAF4DF5052
:101D7000C96FC951746F756B766B776B000E5BEC36
:101D8000C6F074C582F575C583F576C584F577C54B
:101D900085F5A5ECB7F082C59BF583C59CF584C598
:101DA0009DF585C59EF587ECACF09BC5ABF59CC554
:101DB000ACF59DC5ADF59EC5AEF50A0E0501AF6F3C
:101DC000D70EB06FA30EB16F430EB26FBBECB9F07C
:101DD000ABC5C4F5ACC5C5F5ADC5C6F5AEC5C7F553
:101DE00091EF92F020EE01F0C651D926C751DA22C8
:101DF000DF50C86FC851746F756B766B776B000ED0
:101E00005BECC6F074C59FF575C5A0F576C5A1F568
:101E100077C5A2F5000E0501866F000E876F800E54
:101E2000886F430E896FC6C5D9F4C7C5DAF4DF5091
:101E3000746F000E74BFFF0E756F766F776F010EB3
:101E40005BECC6F074C582F575C583F576C584F57F
:101E500077C585F5A5ECB7F082C59BF583C59CF5E4
:101E600084C59DF585C59EF587ECACF09BC5ABF5AB
:101E70009CC5ACF59DC5ADF59EC5AEF5000E050142
:101E8000AF6F000EB06F000EB16FC40EB26FBBEC3F
:101E9000B9F0ABC5C4F5ACC5C5F5ADC5C6F5AEC5A5
:101EA000C7F591EF92F0C6C5D9F4C7C5DAF4DF5093
:101EB000C86FC851746F756B766B776B000E5BECF7
:101EC000C6F074C59BF575C59CF576C59DF577C5BF
:101ED0009EF5000E05019F6F000EA06F200EA16FF2
:101EE000C20EA26F87ECACF09BC5C4F59CC5C5F5CE
:101EF0009DC5C6F59EC5C7F591EF92F020EE01F0A5
:101F0000C651D926C751DA22DF50C86FC851746F45
:101F1000756B766B776B000E5BECC6F074C59FF546
:101F200075C5A0F576C5A1F577C5A2F5000E05012A
:101F3000866F000E876F800E886F430E896FC6C54F
:101F4000D9F4C7C5DAF4DF50746F000E74BFFF0E0A
:101F5000756F766F776F010E5BECC6F074C582F516
:101F600075C583F576C584F577C585F5A5ECB7F01D
:101F700082C59BF583C59CF584C59DF585C59EF5F9
:101F800087ECACF09BC5ABF59CC5ACF59DC5ADF53C
:101F90009EC5AEF5000E0501AF6F000EB06F800E4E
:101FA000B16F420EB26FBBECB9F0ABC5C4F5ACC5B6
:101FB000C5F5ADC5C6F5AEC5C7F591EF92F020EEFB
:101FC00001F0C651D926C751DA22DF50C86FC85177
:101FD000746F756B766B776B000E5BECC6F074C537
:101FE0009FF575C5A0F576C5A1F577C5A2F5000EDC
:101FF0000501866F000E876F800E886F430E896F14
:10200000C6C5D9F4C7C5DAF4DF50746F000E74BFCB
:10201000FF0E756F766F776F010E5BECC6F074C5BF
:1020200082F575C583F576C584F577C585F5A5EC8C
:10203000B7F082C59BF583C59CF584C59DF585C524
:102040009EF587ECACF09BC5ABF59CC5ACF59DC58A
:10205000ADF59EC5AEF5000E0501AF6F000EB06F79
:10206000800EB16F460EB26FBBECB9F0ABC5C4F5D4
:10207000ACC5C5F5ADC5C6F5AEC5C7F591EF92F0D7
:10208000000EAF6F000EB06F000EB16F400EB26F5A
:10209000C6C5D9F4C7C5DAF4DF50C86FC851746F2C
:1020A000756B766B776B000E5BECC6F074C5ABF5A9
:1020B00075C5ACF576C5ADF577C5AEF5BBECB9F039
:1020C000ABC59BF5ACC59CF5ADC59DF5AEC59EF504
:1020D000000E05019F6F000EA06F200EA16FC20EB3
:1020E000A26F87ECACF09BC5C4F59CC5C5F59DC53A
:1020F000C6F59EC5C7F591EF92F0000E866F000EF3
:10210000876FC80E886F420E896FC6C5D9F4C7C5E0
:10211000DAF4DF50C86FC851746F756B766B776BEC
:10212000000E5BECC6F074C582F575C583F576C507
:1021300084F577C585F5A5ECB7F082C5ABF583C509
:10214000ACF584C5ADF585C5AEF5000E0501AF6FE4
:10215000000EB06F7F0EB16F430EB26FBBECB9F0E3
:10216000ABC5C4F5ACC5C5F5ADC5C6F5AEC5C7F5BF
:1021700091EF92F0C6C5D9F4C7C5DAF4DF50C86F45
:10218000C851746F756B766B776B000E5BECC6F0A5
:1021900074C5C4F575C5C5F576C5C6F577C5C7F56B
:1021A00091EF92F020EE01F0C651D926C751DA2204
:1021B000DF50C86FC851746F756B766B776B000E0C
:1021C0005BECC6F074C59FF575C5A0F576C5A1F5A5
:1021D00077C5A2F5000E0501866F000E876F800E91
:1021E000886F430E896FC6C5D9F4C7C5DAF4DF50CE
:1021F000C96FC951746F756B766B776B000E5BECB2
:10220000C6F074C582F575C583F576C584F577C5C6
:1022100085F5A5ECB7F082C59BF583C59CF584C513
:102220009DF585C59EF587ECACF09BC5CAF59CC5B0
:10223000CBF59DC5CCF59EC5CDF5CAC59BF5CBC5E7
:102240009CF5CCC59DF5CDC59EF5AB0E05019F6FE8
:10225000AA0EA06FEA0EA16F400EA26F87ECACF041
:102260009BC5C4F59CC5C5F59DC5C6F59EC5C7F5FE
:1022700091EF92F0000EC46F000EC56F000EC66F96
:10228000000EC76F91EF92F0C4C5C8F5C5C5C9F57A
:10229000C951030AD8B467EF91F0070AD8B486EFA2
:1022A00091F0010AD8B48DEF91F02D0AD8B494EFD3
:1022B00091F0030AD8B49BEF91F06B0AD8B4A6EF63
:1022C00091F0B40AD8B4ADEF91F03AEF91F0C85163
:1022D000010AD8B431EF8EF0060AD8B492EF8EF02E
:1022E000110AD8B492EF8EF0010AD8B492EF8EF0B2
:1022F000DD0AD8B453EF8FF0220AD8B4DFEF8FF0A5
:10230000040AD8B4F2EF8EF03AEF91F0C851610AA6
:10231000D8B47EEF8FF03AEF91F0C8517D0AD8B46F
:1023200040EF90F03AEF91F0C851130AD8B4D2EFD1
:1023300090F03AEF91F0C8510C0AD8B4C8EF8DF084
:102340001D0AD8B4C8EF8DF03AEF91F0C851280AB1
:10235000D8B4BAEF90F03AEF91F0C851040AD8B46B
:102360007DEF90F00B0AD8B453EF8FF03AEF91F075
:10237000000EC46F000EC56F000EC66F000EC76F53
:1023800091EF92F0000EC46F000EC56F000EC66F85
:10239000000EC76F91EF92F0C4C5C8F5C5C5C9F569
:1023A000C951010AD8B4EFEF91F0020AD8B4F6EFA0
:1023B00091F00B0AD8B411EF92F0040AD8B41CEFD4
:1023C00092F01E0AD8B423EF92F0040AD8B42AEF90
:1023D00092F00E0AD8B431EF92F0C2EF91F0C851EA
:1023E000C80AD8B4B8EF91F0C2EF91F0C851010A11
:1023F000D8B4B8EF91F0030AD8B4B8EF91F0010A5D
:10240000D8B4B8EF91F0070AD8B4B8EF91F0010A48
:10241000D8B4B8EF91F0030AD8B4B8EF91F0C2EF96
:1024200091F0C851020AD8B4B8EF91F0010AD8B4BB
:10243000B8EF91F0C2EF91F0C851820AD8B4B8EF6A
:1024400091F0C2EF91F0C851600AD8B4B8EF91F0A2
:10245000C2EF91F0C851020AD8B4B8EF91F0C2EFC0
:1024600091F0C851020AD8B4B8EF91F0C2EF91F0E0
:10247000000EC46F000EC56F000EC66F000EC76F52
:1024800091EF92F0000EC46F000EC56F000EC66F84
:10249000000EC76F91EF92F0C4C5C8F5C5C5C9F568
:1024A000C951000AD8B45BEF92F0030AD8B462EFC6
:1024B00092F042EF92F0C8516F0AD8B438EF92F020
:1024C00042EF92F0C851020AD8B438EF92F042EFCE
:1024D00092F0000EC46F000EC56F000EC66F000EA6
:1024E000C76F91EF92F00501CE51C86FC96BC9510A
:1024F000000AD8B47EEF92F069EF92F0C851010A59
:10250000D8B466EF8DF0230AD8B444EF91F0E30A13
:10251000D8B44CEF92F01F0AD8B4CCEF91F069EF29
:1025200092F012000701A251A311A411A511D8B471
:102530009CEF92F09EEF92F0A5EF92F0A207000EB2
:10254000A35BA45BA55BC7EF92F065EC0BF0050104
:102550006051611162116311D8B4B1EF92F0B3EF21
:1025600092F0C7EF92F0010E06017D6F65EC0BF063
:10257000FF0E05016025646FFF0E6121656FFF0E80
:102580006221666FFF0E6321676F77EC0BF0F3EC4F
:102590000CF0010EC5EC0CF0130ED1EC00F0F40EB3
:1025A0000501605D010E6159D8B0D9EF92F0DBEF03
:1025B00092F0E0EF92F0010EB0EC0CF0F2EF92F03E
:1025C000130ED1EC00F0590E0501605D020E615949
:1025D000D8A0EDEF92F0EFEF92F0F2EF92F0000E54
:1025E000B0EC0CF0060165516611D8B4FAEF92F028
:1025F000FCEF92F0B4EF99F01EECE9F0B4EF99F033
:10260000000E05016C6F000E6D6F000E41EC03F0C3
:10261000010E4F6EEAEF99F0CEAA11EF93F014EF8E
:1026200093F0010E15EF93F0000E806FCEA61BEF16
:1026300093F01EEF93F0010E1FEF93F0000E801544
:10264000E8A025EF93F027EF93F029EF93F093ECB8
:10265000CDF0A5ECDEF0E1EC06F0E806D8A433EF0F
:1026600093F035EF93F086EF93F0000EC5EC0CF08D
:102670005EEF93F0080E0501616F620E606FD8EC9B
:102680000BF07DEF93F0080E0501616FC00E606FD7
:10269000D8EC0BF07DEF93F0090E0501616F0C0E85
:1026A000606FD8EC0BF07DEF93F0090E0501616FC0
:1026B0006A0E606FD8EC0BF07DEF93F061EC07F0E1
:1026C0000601806F816B8151000AD8B46AEF93F0E4
:1026D00043EF93F08051000AD8B43AEF93F0010A27
:1026E000D8B443EF93F0030AD8B44CEF93F0010A47
:1026F000D8B455EF93F043EF93F0520E0501606F9D
:102700001A0E616F000E626F79EC0CF0BE92BF9EE4
:1027100041EC06F0E806D8A490EF93F092EF93F026
:102720009FEF93F0040E71EC02F005EC0DF0000940
:10273000D8A49DEF93F09FEF93F095EF93F0000EE8
:1027400005016C6F000E6D6F000E41EC03F0020E80
:102750004F6EEAEF99F0C1EC07F0020AD8A4B3EF8C
:1027600093F0B5EF93F0B9EF93F0EDEC0CF0BBEF15
:1027700093F0F0EC0CF0C1EC07F0E806D8B4C3EF2E
:1027800093F0C6EF93F0010EC7EF93F0000E060131
:10279000806FC1EC07F00009D8B4D1EF93F0D4EF0B
:1027A00093F0010ED5EF93F0000E06018011E8A022
:1027B000DCEF93F0DEEF93F0E0EF93F0EBECF2F070
:1027C000CEECF4F064C594F765C595F766C596F749
:1027D00067C597F70701989D989F989301EC08F0BB
:1027E0000009D8A4F6EF93F0FBEF93F00601806B9D
:1027F000802BFDEF93F00601806B070198510601D5
:102800008019FE0B80190701986F9851C30B20099E
:10281000986FD30E996F070E9A6FEE0E6100A0F3BA
:1028200022FBED0E6100A0F323FB010E6100A0F37B
:1028300024FBC60E6100A0F325FBC60E6100A0F3C9
:1028400026FB010E6100A0F327FBE80E6100A0F358
:102850001EFB030E6100A0F31FFB000E6100A0F33E
:1028600020FB000E6100A0F321FBCEECF4F005018B
:10287000610090F528FB610094F529FB610098F553
:102880002AFB61009CF52BFB01EC08F00009D8B491
:102890004CEF94F04EEF94F055EF94F0000E0601DB
:1028A000896F020E886F5AEF94F0000E0601896F4F
:1028B000010E886F22EE2CF388C6DFF4FE0E0501B0
:1028C000786F090E796FC0ECF1F0C1EC07F00009E8
:1028D000D8A46DEF94F06FEF94F0A1EF94F0B9EFFE
:1028E00094F0FE0E0501656F090E666FBA0E676FF4
:1028F000070E686F14ECDFF0FE0E0501606F090E25
:10290000616FA90E626F070E636F07ECCFF0D0EF17
:1029100094F0FE0E0501656F090E666FBA0E676FC3
:10292000070E686F14ECDFF0FE0E0501656F090EEF
:10293000666FA90E676F070E686F14ECDFF0D0EFBB
:1029400094F0FE0E0501606F090E616FBA0E626FA2
:10295000070E636F07ECCFF0FE0E0501606F090EE6
:10296000616FA90E626F070E636F07ECCFF0D0EFB7
:1029700094F0A1EC07F00601806F816B8151000A91
:10298000D8B4C5EF94F0A1EF94F08051000AD8B408
:1029900071EF94F0010AD8B489EF94F0A1EF94F0AC
:1029A000030E4F6EEAEF99F0A8ECF4F064C580F6E0
:1029B00065C581F666C582F667C583F682ECF4F0DC
:1029C000050164510601805D0501686F65510601CE
:1029D00081590501696F66510601825905016A6FC7
:1029E00067510601835905016B6F640E6C6F000E11
:1029F0006D6F000E6E6F000E6F6F0CECECF0050E3D
:102A000008EF95F00501D8906B336A33693368336A
:102A1000E82E02EF95F068C574F569C575F56AC5CD
:102A200076F56BC577F5640E786F000E796F000E42
:102A30007A6F000E7B6F20ECE5F074C536F675C535
:102A400037F676C538F677C539F651EF95F0090EA9
:102A5000366F000E376F000E386F000E396F040EA0
:102A60000701286F000E296F000E2A6F000E2B6FD2
:102A700051EF95F0A1EC07F00601806F816B815159
:102A8000000AD8B446EF95F051EF95F08051000A56
:102A9000D8B4D4EF94F0010AD8B427EF95F051EFF1
:102AA00095F0040E4F6EEAEF99F0C1EC07F0E806DE
:102AB000D8B45DEF95F060EF95F0010E61EF95F001
:102AC000000E0601806FC1EC07F00009D8B46BEF6F
:102AD00095F06EEF95F0010E6FEF95F0000E060188
:102AE0008011E8A076EF95F078EF95F04BEF96F037
:102AF000E9ECDFF00009D8B480EF95F082EF95F0B3
:102B000044EF96F08D0E0501766F070E776F44EC5B
:102B1000D7F0E806D8A48FEF95F091EF95F044EF49
:102B200096F0F4ECF4F007018D510501641913E1FE
:102B300007018E51050165190EE107018F5105014D
:102B4000661909E10701905105016719D8A4ABEF97
:102B500095F0ADEF95F009EF96F0000E06018B6F42
:102B6000000E8C6F000E8D6F000E8E6F070120EE31
:102B700004F09251D9269351DA22DF500601806F7A
:102B80000F0E801780C681F6826B836B846B83C6C1
:102B900084F682C683F681C682F6816B070120EE39
:102BA00005F09251D9269351DA22DF500601856F44
:102BB000855181118B6F82518C6F83518D6F845140
:102BC0008E6FD8908B358B6F8C358C6F8D358D6F6C
:102BD0008E358E6FC1EC07F0E806D8A4F2EF95F0C1
:102BE000F4EF95F044EF96F08BC697F58CC698F508
:102BF0008DC699F58EC69AF5E80E05019B6F030EFA
:102C00009C6F000E9D6F000E9E6F53EC00F044EF22
:102C100096F01AECF5F007018D510501641913E1E6
:102C200007018E51050165190EE107018F5105015C
:102C3000661909E10701905105016719D8A423EF2E
:102C400096F025EF96F044EF96F0C1EC07F00009FE
:102C5000D8A42DEF96F02FEF96F044EF96F0FE0EED
:102C60000501806F090E816F8DC782F58EC783F5D0
:102C70008FC784F590C785F592C786F593C787F50A
:102C800089ECBBF044EF96F0FE0E0501EC6F090EE7
:102C9000ED6F86ECB5F006017D517C110009D8B4CA
:102CA00054EF96F056EF96F0EAEF99F0A1EC07F0AA
:102CB0000009D8A45EEF96F060EF96F0E5EF97F08C
:102CC00065EC0BF060C580F661C581F662C582F6E1
:102CD00063C583F6A8ECF4F0050164510601805D3C
:102CE00005016551060181590501665106018259A8
:102CF0000501675106018359D8A081EF96F083EF53
:102D000096F087EF96F0EAEC0CF0C9EF98F0E7EC5C
:102D10000CF0000E06018A6F000E926F0F0E926586
:102D200094EF96F096EF96F098EF96F0E5EF96F028
:102D300092510501686F696B6A6B6B6B36C66CF5F7
:102D400037C66DF538C66EF539C66FF50CECECF08C
:102D500068C580F669C581F66AC582F66BC583F6DB
:102D600082ECF4F00501645106018025846F0501B1
:102D7000655106018121856F050166510601822199
:102D8000866F0501675106018321876F65EC0BF0A3
:102D9000060184510501605D0601855105016159F7
:102DA00006018651050162590601875105016359E3
:102DB000D8A0DDEF96F0DFEF96F0E1EF96F092C647
:102DC0008AF60601922B8EEF96F08AC67BF50501F6
:102DD0007C6B93ECF1F07BC58FF67CC590F67DC5DE
:102DE00091F6000E0601956F0F0E9565FAEF96F0BD
:102DF000FCEF96F0FEEF96F0C9EF98F095510501C3
:102E0000686F696B6A6B6B6B36C66CF537C66DF5B0
:102E100038C66EF539C66FF50CECECF068C580F677
:102E200069C581F66AC582F66BC583F682ECF4F05B
:102E30000501645106018025846F05016551060175
:102E40008121856F0501665106018221866F05018A
:102E5000675106018321876F65EC0BF006018451F1
:102E60000501605D06018551050161590601865124
:102E7000050162590601875105016359D8A043EF46
:102E800097F045EF97F0A0EF97F006019551806F0E
:102E9000816B5650805D8151800A826F5750800A45
:102EA0008259D8B056EF97F059EF97F0010E5AEFCC
:102EB00097F0000E836F846B01EC07F00601856FBD
:102EC00085518317000E841783518411D8B46BEF9A
:102ED00097F06DEF97F072EF97F0040E5F6E95C666
:102EE00056F5576A81EC06F0030AD8B47AEF97F0EA
:102EF0007CEF97F094EF97F0060195510CECF1F010
:102F000005016C6F0601955139ECF1F005016D6F0B
:102F10000601955166ECF1F005016E6F06019551C1
:102F20006FECD0F0E1EF97F08FC66CF590C66DF5C1
:102F300091C66EF5060195516FECD0F0E1EF97F078
:102F400006019551806F816B565080190AE15750E8
:102F50008119D8B4AEEF97F0B1EF97F0010EB2EF50
:102F600097F0000E826F836B01EC07F00601846F0F
:102F700084518217000E831782518311D8B4C3EF96
:102F800097F0C5EF97F0D6EF97F068ECE9F0050100
:102F90006C6F68ECE9F005016D6F68ECE9F0050114
:102FA0006E6F56506FECD0F0E1EF97F0000E050118
:102FB0006C6F000E6D6F000E6E6F060195516FEC19
:102FC000D0F00601952BF4EF96F0A1EC07F0E8069F
:102FD000D8A4EDEF97F0EFEF97F0C9EF98F06EEC13
:102FE0000BF0050163BFF7EF97F0F9EF97F05AEF99
:102FF00098F0000E0601936F0F0E936502EF98F0A4
:1030000004EF98F006EF98F0C9EF98F06EEC0BF033
:1030100060C59BF561C59CF562C59DF563C59EF5D0
:10302000060193510501686F696B6A6B6B6B36C65D
:103030006CF537C66DF538C66EF539C66FF50CEC14
:10304000ECF068C574F569C575F56AC576F56BC5AC
:1030500077F5000E5BECC6F074C59FF575C5A0F55D
:1030600076C5A1F577C5A2F5E0ECD8F00501D8A0AA
:103070003CEF98F03EEF98F04CEF98F068ECE9F0F8
:1030800005016C6F000E6D6F000E6E6F060193519F
:103090006FECD0F056EF98F0000E6C6F000E6D6F75
:1030A000000E6E6F060193516FECD0F00601932B6A
:1030B000FCEF97F0000E0601946F0F0E946563EF1E
:1030C00098F065EF98F067EF98F0C9EF98F06EEC24
:1030D0000BF060C564F561C565F562C566F563C54D
:1030E00067F55CECD8F064C572F565C573F532EC34
:1030F00000F0050172C580F673C581F6000E060169
:1031000081BFFF0E826F836F94510501686F696BF9
:103110006A6B6B6B28C76CF529C76DF52AC76EF50E
:103120002BC76FF50CECECF0050168510601805DD2
:10313000050169510601815905016A51060182594B
:1031400005016B5106018359D8A0A9EF98F0ABEFA8
:1031500098F0BAEF98F0000E05016C6F000E6D6FDD
:1031600068ECE9F005016E6F060194516FECD0F048
:10317000C5EF98F0000E05016C6F000E6D6F000E2C
:103180006E6F060194516FECD0F00601942B5DEF49
:1031900098F065EC0BF005016351621161110AE1D1
:1031A000650E605DD8A0D7EF98F0DAEF98F0010EC9
:1031B000DBEF98F0000E0601806F816B7D51801768
:1031C000000E811780518111D8B4E9EF98F0EBEF30
:1031D00098F0EDEF98F0070E4F6E000E7C6F000E2A
:1031E0007D6FEAEF99F0CEB8F8EF98F0FAEF98F02B
:1031F00017EF99F080EC0BF0050160510601325D8C
:103200000501615106013359050162510601345926
:103210000501635106013559D8B011EF99F013EF4C
:1032200099F027EF99F0060E4F6EEAEF99F03269A8
:10323000336934693569A1EC07F00009D8B423EF8C
:1032400099F025EF99F027EF99F0000E4F6E0601E7
:1032500032290AE1332908E1342906E13529D8A4C5
:1032600034EF99F036EF99F0EAEF99F0DBECA6F045
:103270000009D8A43EEF99F040EF99F0EAEF99F0F9
:10328000000E4F6E4DECCEF0EAEF99F0F0ECBFF08F
:103290000009D8A44EEF99F050EF99F0EAEF99F0B9
:1032A00040EF99F0000E05016C6F68ECE9F0050144
:1032B0006D6F000E41EC03F080EC0BF005016051E6
:1032C00007012C5D0501615107012D59050162516E
:1032D00007012E590501635107012F59D8B073EF2B
:1032E00099F075EF99F0EAEF99F0040E4F6E4DECFE
:1032F000CEF0000E05016C6F000E6D6F000E41ECFC
:1033000003F0EAEF99F057BE88EF99F08AEF99F051
:103310008CEF99F0EAEF99F065EC0BF00501635141
:103320006211611109E1650E605DD8A09AEF99F014
:103330009CEF99F0A0EF99F0000E4F6EEAEF99F034
:10334000BE82BF8E65EC0BF0050163516211611105
:1033500009E1650E605DD8A0B0EF99F0B2EF99F089
:10336000EAEF99F09CEF99F04F500601806F816B66
:103370008151000AD8B4BFEF99F0EAEF99F080517B
:10338000000AD8B400EF93F0010AD8B40CEF93F020
:10339000030AD8B4ABEF93F0010AD8B43AEF95F032
:1033A000070AD8B455EF95F0010AD8B4F3EF98F0B6
:1033B000030AD8B446EF99F0010AD8B483EF99F024
:1033C0000F0AD8B452EF99F0010AD8B4EAEF99F095
:1033D000EAEF99F01200000E0601A16FDAC5A4F61B
:1033E000DBC5A5F6DCC5A6F6DDC5A7F6A7BFFDEFD4
:1033F00099F0FBEF99F011EF9AF0010EA16FA4C6BE
:1034000060F5A5C661F5A6C662F5A7C663F529EC09
:1034100001F060C5A4F661C5A5F662C5A6F663C550
:10342000A7F6000E0601A36F000EA26F59C691F613
:103430005AC692F6A151D8B420EF9AF022EF9AF032
:1034400036EF9AF0A151D8A428EF9AF02AEF9AF01B
:1034500030EF9AF0000E876F2B0E866F34EF9AF0E4
:10346000000E876F2D0E866F86C6A1F6A4C660F586
:10347000A5C661F5A6C662F5A7C663F568ECDAF0E5
:10348000050160056111D8A448EF9AF04AEF9AF05F
:1034900085EF9AF00601A151D8B451EF9AF053EF9D
:1034A0009AF05CEF9AF0A1C660F89107D8A0920755
:1034B000000EA36F010EA26F600EA2250501606FC2
:1034C000080E0601A3210501616FD60E626FFF0E83
:1034D000636FD4ECF6F00601FD0E9127FF0E9223E8
:1034E000D8C570F5D9C571F5600E0501726F080E6B
:1034F000736F91C674F592C675F53BECE8F070C534
:10350000D8F571C5D9F531EF9FF0A4C660F5A5C611
:1035100061F5A6C662F5A7C663F568ECDAF00501A9
:1035200060516111D8A497EF9AF099EF9AF0BCEF2F
:103530009AF00601A151D8B4A0EF9AF0A2EF9AF048
:10354000ABEF9AF0A1C660F89107D8A09207000EE1
:10355000A36F010EA26F600EA2250501606F080E19
:103560000601A3210501616FDA0E626FFF0E636F22
:10357000D4ECF6F06BEF9AF0000E0601A86F000E87
:10358000A96F800EAA6F3F0EAB6F000E906F000EFA
:103590008F6FA4C660F5A5C661F5A6C662F5A7C67D
:1035A00063F5000E0501646F000E656F000E666F17
:1035B000000E676F75ECE4F00501D8B0E2EF9AF009
:1035C000E4EF9AF0DEEF9BF0F1EF9AF093C6A8F6E5
:1035D00094C6A9F695C6AAF696C6ABF606018F4B19
:1035E000902BA8C682F5A9C683F5AAC684F5ABC6FA
:1035F00085F5000E0501866F000E876F200E886F1F
:10360000410E896FA5ECB7F082C593F683C594F699
:1036100084C595F685C596F606019351A45D05010E
:10362000606F06019451A5590501616F060195511E
:10363000A6590501626F06019651A7590501636FEE
:1036400077ECECF0050163BF31EF9BF06351621141
:10365000611109E1020E605DD8A031EF9BF033EFFC
:103660009BF0E6EF9AF093C69BF594C69CF595C641
:103670009DF596C69EF5A4C69FF5A5C6A0F5A6C65F
:10368000A1F5A7C6A2F5E0ECD8F00501D8A04BEF54
:103690009BF04DEF9BF0E6EF9AF00601A851A45D78
:1036A0000501606F0601A951A5590501616F060169
:1036B000AA51A6590501626F0601AB51A759050130
:1036C000636F77ECECF0050163BF74EF9BF063511F
:1036D0006211611107E1020E605DD8B072EF9BF0DC
:1036E00074EF9BF0C4EF9BF0A8C6A4F6A9C6A5F69C
:1036F000AAC6A6F6ABC6A7F6DEEF9BF0A8C6ABF54A
:10370000A9C6ACF5AAC6ADF5ABC6AEF5000EAF6F57
:10371000000EB06F200EB16F410EB26FBBECB9F06E
:10372000ABC5A8F6ACC5A9F6ADC5AAF6AEC5ABF655
:1037300006018F07D8A09007A851A45D0501606F0E
:103740000601A951A5590501616F0601AA51A659A3
:103750000501626F0601AB51A7590501636F77EC54
:10376000ECF0050163BFC2EF9BF063516211611180
:1037700007E1020E605DD8B0C0EF9BF0C2EF9BF096
:10378000C4EF9BF074EF9BF0A4C69BF5A5C69CF517
:10379000A6C69DF5A7C69EF5A8C69FF5A9C6A0F525
:1037A000AAC6A1F5ABC6A2F5E0ECD8F00501D8A0F9
:1037B000DCEF9BF0DEEF9BF07EEF9BF0DEC589F641
:1037C00089C68AF606015CBFE8EF9BF0EAEF9BF042
:1037D000F0EF9BF05BC682F65CC683F6F4EF9BF0DD
:1037E000000E836F060E826F82C68DF683C68EF63C
:1037F0008D4B8E2B660E8A19D8A401EF9CF003EF37
:103800009CF023EF9CF090BF0AEF9CF008EF9CF037
:1038100016EF9CF0000EA86F000EA96F800EAA6F25
:103820003F0EAB6F000E906F000E8F6F670E891901
:10383000D8B41DEF9CF01FEF9CF023EF9CF08F514C
:103840008D2790518E23000E986F000E976FA4C69F
:1038500099F6A5C69AF6A6C69BF6A7C69CF6A8C674
:1038600093F6A9C694F6AAC695F6ABC696F6B5EF3A
:103870009CF099C6ABF59AC6ACF59BC6ADF59CC657
:10388000AEF5A8C6AFF5A9C6B0F5AAC6B1F5ABC6E8
:10389000B2F5BBECB9F0ABC5C4F5ACC5C5F5ADC56B
:1038A000C6F5AEC5C7F570ECC3F0C4C59DF6C5C579
:1038B0009EF6C6C59FF6C7C5A0F69DC664F59EC612
:1038C00065F59FC666F5A0C667F55CECD8F064C5E3
:1038D0008BF665C58CF699C6ABF59AC6ACF59BC65A
:1038E000ADF59CC6AEF59DC686F59EC687F59FC60E
:1038F00088F5A0C689F5A8C682F5A9C683F5AAC62B
:1039000084F5ABC685F5A5ECB7F082C5AFF583C5E8
:10391000B0F584C5B1F585C5B2F544ECF6F0ABC59C
:1039200099F6ACC59AF6ADC59BF6AEC59CF6A8C691
:10393000ABF5A9C6ACF5AAC6ADF5ABC6AEF5000EA3
:103940000501AF6F000EB06F200EB16F410EB26F68
:10395000BBECB9F0ABC5A8F6ACC5A9F6ADC5AAF6E7
:10396000AEC5ABF60601974B982B8D51975D9851DC
:10397000800A0501DF6F06018E51800A0501DF59BB
:10398000D8A0C5EF9CF0C7EF9CF039EF9CF0A8C61B
:1039900082F5A9C683F5AAC684F5ABC685F5000EE7
:1039A000866F000E876FA00E886F400E896FA5ECA2
:1039B000B7F082C59DF683C59EF684C59FF685C582
:1039C000A0F699C69BF59AC69CF59BC69DF59CC62C
:1039D0009EF59DC69FF59EC6A0F59FC6A1F5A0C603
:1039E000A2F5E0ECD8F00501D8B0F9EF9CF0FBEFC0
:1039F0009CF006EF9DF0000E06019D6F000E9E6F7D
:103A0000000E9F6F000EA06F30EF9DF099C660F51D
:103A10009AC661F59BC662F59CC663F59DC664F5C2
:103A20009EC665F59FC666F5A0C667F575ECE4F021
:103A30000501D8A01EEF9DF020EF9DF030EF9DF026
:103A400006018BB126EF9DF028EF9DF030EF9DF041
:103A5000000E9D6F000E9E6F000E9F6F000EA06FF8
:103A6000A4C69BF5A5C69CF5A6C69DF5A7C69EF562
:103A70009DC69FF59EC6A0F59FC6A1F5A0C6A2F55E
:103A800087ECACF09BC599F69CC59AF69DC59BF654
:103A90009EC59CF699C69BF59AC69CF59BC69DF55E
:103AA0009CC69EF5000E0501866F000E876F200EE6
:103AB000886F410E896F93C682F594C683F595C6CB
:103AC00084F596C685F5A5ECB7F082C59FF583C54C
:103AD000A0F584C5A1F585C5A2F5E0ECD8F00501F7
:103AE000D8A075EF9DF077EF9DF0A1EF9DF0060156
:103AF0008F4B902B93C682F594C683F595C684F5BB
:103B000096C685F5000E0501866F000E876F200EA4
:103B1000886F410E896FA5ECB7F082C593F683C517
:103B200094F684C595F685C596F6660E06018A1943
:103B3000D8A49DEF9DF09FEF9DF0A1EF9DF08D4BE0
:103B40008E2B93C6A8F694C6A9F695C6AAF696C675
:103B5000ABF68FC680F690C681F6000E0601886F20
:103B6000000E856F000E846F000E986F000E976F29
:103B7000A1EF9EF099C6ABF59AC6ACF59BC6ADF524
:103B80009CC6AEF5A8C6AFF5A9C6B0F5AAC6B1F5F4
:103B9000ABC6B2F5BBECB9F0ABC5C4F5ACC5C5F569
:103BA000ADC5C6F5AEC5C7F570ECC3F0C4C59DF68E
:103BB000C5C59EF6C6C59FF6C7C5A0F69DC664F5E9
:103BC0009EC665F59FC666F5A0C667F55CECD8F0A5
:103BD000050165BFF7EF9DF0655107E10A0E645DD1
:103BE000D8B0F5EF9DF0F7EF9DF007EF9EF09DC682
:103BF00064F59EC665F59FC666F5A0C667F55CECE4
:103C0000D8F064C58BF665C58CF60CEF9EF0000EFF
:103C100006018C6F090E8B6F06018851D8A413EF33
:103C20009EF015EF9EF03DEF9EF081BF1CEF9EF0E1
:103C30001AEF9EF03DEF9EF0600EA225D96E080EA1
:103C4000A321DA6E2E0EDF6EA24BA32B9107D8A014
:103C50009207010E886F3DEF9EF0600EA225D96E8F
:103C6000080EA321DA6E300EDF6EA24BA32B910754
:103C7000D8A092078407D8A0850784518511D8A4BD
:103C800044EF9EF046EF9EF02DEF9EF0600EA225D1
:103C9000D96E080EA321DA6E8B51300FDF6EA24B66
:103CA000A32B9107D8A0920799C6ABF59AC6ACF59D
:103CB0009BC6ADF59CC6AEF59DC686F59EC687F53E
:103CC0009FC688F5A0C689F5A8C682F5A9C683F562
:103CD000AAC684F5ABC685F5A5ECB7F082C5AFF5ED
:103CE00083C5B0F584C5B1F585C5B2F544ECF6F0F1
:103CF000ABC599F6ACC59AF6ADC59BF6AEC59CF6BC
:103D0000A8C6ABF5A9C6ACF5AAC6ADF5ABC6AEF56F
:103D1000000E0501AF6F000EB06F200EB16F410EA7
:103D2000B26FBBECB9F0ABC5A8F6ACC5A9F6ADC592
:103D3000AAF6AEC5ABF606018007D8A08107974B5F
:103D4000982B8D51975D9851800A0501DF6F060110
:103D50008E51800A0501DF59D8B0B1EF9EF0B3EF64
:103D60009EF0C2EF9EF00601A3BFC0EF9EF0A351EC
:103D700009E14B0EA25DD8A0C0EF9EF0C2EF9EF00D
:103D8000BAEF9DF0000E0601986F4F0E976F600E10
:103D90009725D96E080E9821DA6E000EDF6E600E40
:103DA0000501DF6F080EE06F0601A2510501DF5F1C
:103DB0000601A3510501E05B060197510501DF25CE
:103DC000606F060198510501E021616F600E626F1E
:103DD000080E636FA2C664F5A3C665F515ECF3F093
:103DE0000601A251975DA26FA3519859A36FA151EB
:103DF000D8A4FDEF9EF000EF9FF0010E01EF9FF0C1
:103E0000000E976F986BA151D8B409EF9FF00BEF9C
:103E10009FF016EF9FF0A207D8A0A307600EA2257F
:103E2000D96E080EA321DA6EA1C6DFF49751915F17
:103E30009851925BD8C570F5D9C571F5600EA22571
:103E40000501726F080E0601A3210501736F91C66B
:103E500074F592C675F53BECE8F070C5D8F571C500
:103E6000D9F51200E3C5D9F4E4C5DAF4DEC4F6F4FA
:103E7000DDC4F7F4000EF86E0800F550250AD8A44A
:103E800044EF9FF046EF9FF05BEFA3F0E3C5D9F45A
:103E9000E4C5DAF4DE2A000EDD22000E06015A6FB8
:103EA000000E596F59C673F65B695C69E3C5D9F4B6
:103EB000E4C5DAF4DEC4B7F6DDC4B8F6B7C6F6F486
:103EC000B8C6F7F4000EF86E0800F5C4B6F678EF41
:103ED0009FF00601B74BB82B9AEF9FF0690E0601D1
:103EE000B66F9AEF9FF0000E0601B66F9AEF9FF043
:103EF000B6510501E76FE86BE851000AD8B483EFCB
:103F00009FF073EF9FF0E751640AD8B46EEF9FF013
:103F10000D0AD8B46EEF9FF0050AD8B469EF9FF090
