:040000000DEF00F010
:0400080057EF59F065
:06001800FF00CDEF63F0D4
:1040000000000000000000000000000000000000B0
:1040100000000000000000000000000000000000A0
:104020000000000000000000000000000000000090
:104030000000000000000000000000010203040571
:1040400006070800FC1F000000F80F00FCE0FF1F3F
:1040500000E003FF038300020000500199400100CB
:10406000C2400200A5400300BE4004009F4005007E
:10407000BA400600B64007004E4F542053555050EA
:104080004F52544544205945540A004552524F520C
:104090000A002530386C580A0053484946540042FB
:1040A0004F4F5354004543484F006C6C73004F4BC7
:1040B0000A0025640A0052504D0041435100564504
:1040C000520041435400257300000501BA6F1DEFF3
:1040D00028F0000E726F000E736FC80E746F420EE0
:1040E000756FB2C5D9F4B3C5DAF4DF50B46FB4510B
:1040F000606F616B626B636B000E38EC53F060C5F0
:104100006EF561C56FF562C570F563C571F5ECECD0
:1041100041F06EC597F56FC598F570C599F571C5F5
:104120009AF5000E05019B6F000E9C6F7F0E9D6F30
:10413000430E9E6F0FEC46F097C5B0F598C5B1F5EC
:1041400099C5B2F59AC5B3F53BEF28F0B2C5D9F4DD
:10415000B3C5DAF4DF50B46FB451606F616B626B5A
:10416000636B000E38EC53F060C587F561C588F5C8
:1041700062C589F563C58AF5000E05018B6F000ED7
:104180008C6F200E8D6FC20E8E6FECEC38F087C5F1
:10419000B0F588C5B1F589C5B2F58AC5B3F53BEF71
:1041A00028F0000E726F000E736F480E746F3F0E92
:1041B000756FB2C5D9F4B3C5DAF4DF50B46FB4513A
:1041C000606F616B626B636B000E38EC53F060C51F
:1041D0006EF561C56FF562C570F563C571F5ECEC00
:1041E00041F06EC587F56FC588F570C589F571C555
:1041F0008AF5000E05018B6F000E8C6FC80E8D6F57
:10420000C20E8E6FECEC38F087C5B0F588C5B1F5FD
:1042100089C5B2F58AC5B3F53BEF28F0B2C5D9F42C
:10422000B3C5DAF4DF50B46FB451606F616B626B89
:10423000636B000E38EC53F060C56EF561C56FF529
:1042400062C570F563C571F5000E0501726F000E51
:10425000736F400E746F400E756FECEC41F06EC5DD
:10426000B0F56FC5B1F570C5B2F571C5B3F53BEFEB
:1042700028F0B2C5D9F4B3C5DAF4DF50B46FB45145
:10428000606F616B626B636B000E38EC53F060C55E
:10429000B0F561C5B1F562C5B2F563C5B3F53BEFE5
:1042A00028F020EE01F0B251D926B351DA22DF50C6
:1042B000B46FB451606F616B626B636B000E38EC6E
:1042C00053F060C58BF561C58CF562C58DF563C58E
:1042D0008EF5000E0501726F000E736F800E746F05
:1042E000430E756FB2C5D9F4B3C5DAF4DF50B56FBC
:1042F000B551606F616B626B636B000E38EC53F00D
:1043000060C56EF561C56FF562C570F563C571F581
:10431000ECEC41F06EC587F56FC588F570C589F581
:1043200071C58AF5ECEC38F087C597F588C598F526
:1043300089C599F58AC59AF5000E05019B6F000E97
:104340009C6F800E9D6F400E9E6F0FEC46F097C5E0
:10435000B0F598C5B1F599C5B2F59AC5B3F53BEF7F
:1043600028F0000E9B6F000E9C6F000E9D6F400E9C
:104370009E6FB2C5D9F4B3C5DAF4DF50B46FB4514F
:10438000606F616B626B636B000E38EC53F060C55D
:1043900097F561C598F562C599F563C59AF50FEC77
:1043A00046F097C587F598C588F599C589F59AC5EA
:1043B0008AF5000E05018B6F000E8C6F800E8D6FDD
:1043C000C20E8E6FECEC38F087C5B0F588C5B1F53C
:1043D00089C5B2F58AC5B3F53BEF28F0B2C5D9F46B
:1043E000B3C5DAF4DF50B46FB451606F616B626BC8
:1043F000636B000E38EC53F060C597F561C598F516
:1044000062C599F563C59AF5000E05019B6F000E14
:104410009C6F7F0E9D6F430E9E6F0FEC46F097C50D
:10442000B0F598C5B1F599C5B2F59AC5B3F53BEFAE
:1044300028F020EE01F0B251D926B351DA22DF5034
:10444000B46FB451606F616B626B636B000E38ECDC
:1044500053F060C58BF561C58CF562C58DF563C5FC
:104460008EF5000E0501726F000E736F800E746F73
:10447000430E756FB2C5D9F4B3C5DAF4DF50B56F2A
:10448000B551606F616B626B636B000E38EC53F07B
:1044900060C56EF561C56FF562C570F563C571F5F0
:1044A000ECEC41F06EC587F56FC588F570C589F5F0
:1044B00071C58AF5ECEC38F087C5BBF588C5BCF54D
:1044C00089C5BDF58AC5BEF5BBC56EF5BCC56FF522
:1044D000BDC570F5BEC571F5C10E0501726FCA0E7E
:1044E000736FA10E746F3D0E756FECEC41F06EC5ED
:1044F000B0F56FC5B1F570C5B2F571C5B3F53BEF59
:1045000028F020EE01F0B251D926B351DA22DF5063
:10451000B46FB451606F616B626B636B000E38EC0B
:1045200053F060C58BF561C58CF562C58DF563C52B
:104530008EF5000E0501726F000E736F800E746FA2
:10454000430E756FB2C5D9F4B3C5DAF4DF50B56F59
:10455000B551606F616B626B636B000E38EC53F0AA
:1045600060C56EF561C56FF562C570F563C571F51F
:10457000ECEC41F06EC587F56FC588F570C589F51F
:1045800071C58AF5ECEC38F087C5BBF588C5BCF57C
:1045900089C5BDF58AC5BEF5000E0501726F000E16
:1045A000736F000E746F400E756FBBC56EF5BCC5A2
:1045B0006FF5BDC570F5BEC571F5ECEC41F06EC58B
:1045C00097F56FC598F570C599F571C59AF5000E08
:1045D00005019B6F000E9C6F800E9D6F470E9E6FB6
:1045E0000FEC46F097C5B0F598C5B1F599C5B2F591
:1045F0009AC5B3F53BEF28F0000EB06F000EB16F17
:10460000000EB26F000EB36F3BEF28F0000EB06FDC
:10461000000EB16F000EB26F000EB36F3BEF28F0CB
:10462000B0C5B4F5B1C5B5F5B551000AD8B41BEFA6
:1046300023F006EF23F0B451040AD8B469EF20F058
:10464000010AD8B4A6EF20F0030AD8B4D1EF20F0C5
:10465000010AD8B4D1EF20F00F0AD8B4D1EF20F07E
:10466000010AD8B4D1EF20F0030AD8B40EEF21F03C
:10467000010AD8B439EF21F0070AD8B451EF21F07C
:10468000010AD8B439EF21F0030AD8B4B1EF21F010
:10469000010AD8B4A6EF20F01F0AD8B4A6EF20F084
:1046A000010AD8B469EF20F0040AD8B4EEEF21F083
:1046B000370AD8B419EF22F0110AD8B439EF21F033
:1046C000070AD8B481EF22F06E0AD8B469EF20F05F
:1046D000060AD8B4A6EF20F0330AD8B4FCEF22F0D3
:1046E00006EF23F020EE01F0B251D926B351DA22C1
:1046F000DF50B46FB451606F616B626B636B000E1F
:1047000038EC53F060C58BF561C58CF562C58DF54D
:1047100063C58EF5000E0501726F000E736F800E7B
:10472000746F430E756FB2C5D9F4B3C5DAF4DF50B8
:10473000606F000E60BFFF0E616F626F636F010EEE
:1047400038EC53F060C56EF561C56FF562C570F564
:1047500063C571F5ECEC41F06EC587F56FC588F562
:1047600070C589F571C58AF5ECEC38F087C5BBF5E5
:1047700088C5BCF589C5BDF58AC5BEF5BBC56EF556
:10478000BCC56FF5BDC570F5BEC571F56F0E0501F1
:10479000726F120E736F030E746F3B0E756FECEC3D
:1047A00041F06EC5B0F56FC5B1F570C5B2F571C514
:1047B000B3F53BEF28F020EE01F0B251D926B3510A
:1047C000DA22DF50B46FB451606F616B626B636B60
:1047D000000E38EC53F060C58BF561C58CF562C5F1
:1047E0008DF563C58EF5000E0501726F000E736FB7
:1047F000800E746F430E756FB2C5D9F4B3C5DAF489
:10480000DF50606F000E60BFFF0E616F626F636FFD
:10481000010E38EC53F060C56EF561C56FF562C5E9
:1048200070F563C571F5ECEC41F06EC587F56FC5A9
:1048300088F570C589F571C58AF5ECEC38F087C547
:1048400097F588C598F589C599F58AC59AF5000E3A
:1048500005019B6F000E9C6F800E9D6F440E9E6F36
:104860000FEC46F097C5B0F598C5B1F599C5B2F50E
:104870009AC5B3F53BEF28F020EE01F0B251D926EE
:10488000B351DA22DF50B46FB451606F616B626B69
:10489000636B000E38EC53F060C58BF561C58CF589
:1048A00062C58DF563C58EF5000E0501726F000EB1
:1048B000736F800E746F430E756FB2C5D9F4B3C5B4
:1048C000DAF4DF50B56FB551606F616B626B636B8B
:1048D000000E38EC53F060C56EF561C56FF562C52A
:1048E00070F563C571F5ECEC41F06EC587F56FC5E9
:1048F00088F570C589F571C58AF5ECEC38F087C587
:1049000097F588C598F589C599F58AC59AF50A0E6F
:1049100005019B6FD70E9C6FA30E9D6F430E9E6F7C
:104920000FEC46F097C5B0F598C5B1F599C5B2F54D
:104930009AC5B3F53BEF28F020EE01F0B251D9262D
:10494000B351DA22DF50B46FB451606F616B626BA8
:10495000636B000E38EC53F060C58BF561C58CF5C8
:1049600062C58DF563C58EF5000E0501726F000EF0
:10497000736F800E746F430E756FB2C5D9F4B3C5F3
:10498000DAF4DF50606F000E60BFFF0E616F626F80
:10499000636F010E38EC53F060C56EF561C56FF5BD
:1049A00062C570F563C571F5ECEC41F06EC587F535
:1049B0006FC588F570C589F571C58AF5ECEC38F0DE
:1049C00087C597F588C598F589C599F58AC59AF57B
:1049D000000E05019B6F000E9C6F000E9D6FC40EB4
:1049E0009E6F0FEC46F097C5B0F598C5B1F599C527
:1049F000B2F59AC5B3F53BEF28F0B2C5D9F4B3C50B
:104A0000DAF4DF50B46FB451606F616B626B636B4B
:104A1000000E38EC53F060C587F561C588F562C5B6
:104A200089F563C58AF5000E05018B6F000E8C6F4A
:104A3000200E8D6FC20E8E6FECEC38F087C5B0F58E
:104A400088C5B1F589C5B2F58AC5B3F53BEF28F045
:104A500020EE01F0B251D926B351DA22DF50B46F03
:104A6000B451606F616B626B636B000E38EC53F096
:104A700060C58BF561C58CF562C58DF563C58EF596
:104A8000000E0501726F000E736F800E746F430E7F
:104A9000756FB2C5D9F4B3C5DAF4DF50606F000E9C
:104AA00060BFFF0E616F626F636F010E38EC53F0F1
:104AB00060C56EF561C56FF562C570F563C571F5CA
:104AC000ECEC41F06EC587F56FC588F570C589F5CA
:104AD00071C58AF5ECEC38F087C597F588C598F56F
:104AE00089C599F58AC59AF5000E05019B6F000EE0
:104AF0009C6F800E9D6F420E9E6F0FEC46F097C527
:104B0000B0F598C5B1F599C5B2F59AC5B3F53BEFC7
:104B100028F020EE01F0B251D926B351DA22DF504D
:104B2000B46FB451606F616B626B636B000E38ECF5
:104B300053F060C58BF561C58CF562C58DF563C515
:104B40008EF5000E0501726F000E736F800E746F8C
:104B5000430E756FB2C5D9F4B3C5DAF4DF50606F98
:104B6000000E60BFFF0E616F626F636F010E38EC65
:104B700053F060C56EF561C56FF562C570F563C52C
:104B800071F5ECEC41F06EC587F56FC588F570C521
:104B900089F571C58AF5ECEC38F087C597F588C5BD
:104BA00098F589C599F58AC59AF5000E05019B6FA0
:104BB000000E9C6F800E9D6F460E9E6F0FEC46F0B0
:104BC00097C5B0F598C5B1F599C5B2F59AC5B3F5D5
:104BD0003BEF28F0000E9B6F000E9C6F000E9D6F48
:104BE000400E9E6FB2C5D9F4B3C5DAF4DF50B46F8E
:104BF000B451606F616B626B636B000E38EC53F005
:104C000060C597F561C598F562C599F563C59AF5D4
:104C10000FEC46F097C587F598C588F599C589F5D5
:104C20009AC58AF5000E05018B6F000E8C6F200E61
:104C30008D6FC20E8E6FECEC38F087C5B0F588C56D
:104C4000B1F589C5B2F58AC5B3F53BEF28F0000E82
:104C5000726F000E736FC80E746F420E756FB2C51F
:104C6000D9F4B3C5DAF4DF50B46FB451606F616B3F
:104C7000626B636B000E38EC53F060C56EF561C576
:104C80006FF562C570F563C571F5ECEC41F06EC56A
:104C900097F56FC598F570C599F571C59AF5000E31
:104CA00005019B6F000E9C6F7F0E9D6F430E9E6FE4
:104CB0000FEC46F097C5B0F598C5B1F599C5B2F5BA
:104CC0009AC5B3F53BEF28F0B2C5D9F4B3C5DAF411
:104CD000DF50B46FB451606F616B626B636B000E39
:104CE00038EC53F060C5B0F561C5B1F562C5B2F5F9
:104CF00063C5B3F53BEF28F020EE01F0B251D926A1
:104D0000B351DA22DF50B46FB451606F616B626BE4
:104D1000636B000E38EC53F060C58BF561C58CF504
:104D200062C58DF563C58EF5000E0501726F000E2C
:104D3000736F800E746F430E756FB2C5D9F4B3C52F
:104D4000DAF4DF50B56FB551606F616B626B636B06
:104D5000000E38EC53F060C56EF561C56FF562C5A5
:104D600070F563C571F5ECEC41F06EC587F56FC564
:104D700088F570C589F571C58AF5ECEC38F087C502
:104D8000B6F588C5B7F589C5B8F58AC5B9F5B6C50C
:104D900087F5B7C588F5B8C589F5B9C58AF5AB0EED
:104DA00005018B6FAA0E8C6FEA0E8D6F400E8E6F11
:104DB000ECEC38F087C5B0F588C5B1F589C5B2F51A
:104DC0008AC5B3F53BEF28F0000EB06F000EB16F4F
:104DD000000EB26F000EB36F3BEF28F0B0C5B4F514
:104DE000B1C5B5F5B551030AD8B411EF27F0070ADC
:104DF000D8B430EF27F0010AD8B437EF27F02D0AE6
:104E0000D8B43EEF27F0030AD8B445EF27F06B0A79
:104E1000D8B450EF27F0B40AD8B457EF27F0E4EF36
:104E200026F0B451010AD8B4DBEF23F0060AD8B457
:104E30003CEF24F0110AD8B43CEF24F0010AD8B4B6
:104E40003CEF24F0DD0AD8B4FDEF24F0220AD8B4F8
:104E500089EF25F0040AD8B49CEF24F0E4EF26F0A3
:104E6000B451610AD8B428EF25F0E4EF26F0B4512C
:104E70007D0AD8B4EAEF25F0E4EF26F0B451130A26
:104E8000D8B47CEF26F0E4EF26F0B4510C0AD8B485
:104E900072EF23F01D0AD8B472EF23F0E4EF26F08E
:104EA000B451280AD8B464EF26F0E4EF26F0B451E8
:104EB000040AD8B427EF26F00B0AD8B4FDEF24F08B
:104EC000E4EF26F0000EB06F000EB16F000EB26F6F
:104ED000000EB36F3BEF28F0000EB06F000EB16F05
:104EE000000EB26F000EB36F3BEF28F0B0C5B4F503
:104EF000B1C5B5F5B551010AD8B499EF27F0020A4A
:104F0000D8B4A0EF27F00B0AD8B4BBEF27F0040AFF
:104F1000D8B4C6EF27F01E0AD8B4CDEF27F0040AA4
:104F2000D8B4D4EF27F00E0AD8B4DBEF27F06CEF3B
:104F300027F0B451C80AD8B462EF27F06CEF27F01D
:104F4000B451010AD8B462EF27F0030AD8B462EF73
:104F500027F0010AD8B462EF27F0070AD8B462EF4D
:104F600027F0010AD8B462EF27F0030AD8B462EF41
:104F700027F06CEF27F0B451020AD8B462EF27F0A3
:104F8000010AD8B462EF27F06CEF27F0B451820A1F
:104F9000D8B462EF27F06CEF27F0B451600AD8B4B0
:104FA00062EF27F06CEF27F0B451020AD8B462EF39
:104FB00027F06CEF27F0B451020AD8B462EF27F063
:104FC0006CEF27F0000EB06F000EB16F000EB26FE5
:104FD000000EB36F3BEF28F0000EB06F000EB16F04
:104FE000000EB26F000EB36F3BEF28F0B0C5B4F502
:104FF000B1C5B5F5B551000AD8B405EF28F0030ADC
:10500000D8B40CEF28F0ECEF27F0B4516F0AD8B405
:10501000E2EF27F0ECEF27F0B451020AD8B4E2EF48
:1050200027F0ECEF27F0000EB06F000EB16F000E0E
:10503000B26F000EB36F3BEF28F00501BA51B46FA9
:10504000B56BB551000AD8B428EF28F013EF28F05B
:10505000B451010AD8B410EF23F0230AD8B4EEEF0C
:1050600026F0E30AD8B4F6EF27F01F0AD8B476EF9B
:1050700027F013EF28F012000601815182118311ED
:105080008411D8B446EF28F048EF28F04FEF28F00D
:105090008107000E825B835B845BE1EF2EF034506E
:1050A000351036103710D8B458EF28F05AEF28F0E2
:1050B000E1EF2EF0010E4F6E3406000E355A365ACF
:1050C000375AE1EF2EF0000E6C6F000E6D6F000E80
:1050D000E5EC6FF0010E506E13EF2FF041EC5EF037
:1050E000020E506E13EF2FF097EC74F0020AD8A462
:1050F0007CEF28F07EEF28F082EF28F088EC74F047
:1051000084EF28F08BEC74F0E00E0601766F070E4A
:10511000776F000E786F000E796F7A9D7A9F7A9381
:105120007A917A51C30B20097A6FF60E7B6F070EC6
:105130007C6FFC0E6100A0F3A8F9DF0E6100A0F304
:10514000A9F9000E6100A0F3AAF9E80E6100A0F32E
:10515000A4F9030E6100A0F3A5F9000E6100A0F30D
:10516000A6F9000E6100A0F3A7F9E00E6100A0F31C
:10517000ABF9070E6100A0F3ACF9000E6100A0F3DB
:10518000ADF9000E6100A0F3AEF9010E6100A0F3CD
:10519000AFF9840E0501786F080E796F9EEC69F007
:1051A00097EC74F00009D8A4D8EF28F0DAEF28F0D3
:1051B0000AEF29F022EF29F0840E656F080E666F62
:1051C000AE0E676F060E686F0BEC61F0840E050182
:1051D000606F080E616F9D0E626F060E636F42EC8A
:1051E00057F039EF29F0840E656F080E666FAE0E2A
:1051F000676F060E686F0BEC61F0840E0501656F3A
:10520000080E666F9D0E676F060E686F0BEC61F0FF
:1052100039EF29F0840E0501606F080E616FAE0E44
:10522000626F060E636F42EC57F0840E0501606FEB
:10523000080E616F9D0E626F060E636F42EC57F0B1
:1052400039EF29F07CEC74F00501EC6FED6BED515A
:10525000000AD8B42EEF29F00AEF29F0EC51000A29
:10526000D8B4DCEF28F0010AD8B4F3EF28F00AEF45
:1052700029F0BE92BF9E030E506E13EF2FF055EC37
:1052800073F060C5ECF561C5EDF562C5EEF563C57B
:10529000EFF55EEC73F005016051EC5D646F6151F8
:1052A000ED59656F6251EE59666F6351EF59676F43
:1052B000640E686F000E696F000E6A6F000E6B6FF0
:1052C000D0EC68F0050E6BEF29F00501D89067333C
:1052D000663365336433E82E65EF29F064C570F5F5
:1052E00065C571F566C572F567C573F5640E746FB3
:1052F000000E756F000E766F000E776F33EC65F061
:1053000070C530F571C531F572C532F573C533F529
:10531000B4EF29F0090E306E000E316E000E326EC1
:10532000000E336E040E06013A6F000E3B6F000E46
:105330003C6F000E3D6FB4EF29F07CEC74F005017A
:10534000EC6FED6BED51000AD8B4A9EF29F0B4EF82
:1053500029F0EC51000AD8B43FEF29F0010AD8B483
:105360008AEF29F0B4EF29F0040E506E13EF2FF0FE
:1053700097EC74F0E806D8B4C0EF29F0C3EF29F039
:10538000010EC4EF29F0000E0501EC6F97EC74F0EC
:105390000009D8B4CEEF29F0D1EF29F0010ED2EFF9
:1053A00029F0000E0501EC11E8A0D9EF29F0DBEFA0
:1053B00029F0C5EF2AF077EC61F00009D8B4E3EFEB
:1053C00029F0E5EF29F07DEF2AF06F0E0501766FE9
:1053D000060E776F12EC5BF0E806D8A4F2EF29F026
:1053E000F4EF29F07DEF2AF0900E06016F1970118D
:1053F00071117211D8A4FFEF29F001EF2AF054EFD8
:105400002AF0000E0501F66F000EF76F000EF86F20
:10541000000EF96F060120EE04F07451D926755183
:10542000DA22DF500501EC6F0F0EEC17ECC5EDF53D
:10543000EE6BEF6BF06BEFC5F0F5EEC5EFF5EDC57C
:10544000EEF5ED6B060120EE05F07451D92675518D
:10545000DA22DF500501F16FF151ED11F66FEE51D7
:10546000F76FEF51F86FF051F96FD890F635F66F8E
:10547000F735F76FF835F86FF935F96F97EC74F089
:10548000E806D8A446EF2AF048EF2AF07DEF2AF08C
:10549000F6C56AF5F7C56BF5F8C56CF5F9C56DF598
:1054A000AFEC71F07DEF2AF0725171110BE1E10E5A
:1054B0006F5D070E7059D8A060EF2AF062EF2AF0F6
:1054C0007DEF2AF097EC74F00009D8A46AEF2AF077
:1054D0006CEF2AF07DEF2AF0840E0501806F080E34
:1054E000816F6FC682F570C683F574C684F575C684
:1054F00085F59BEC49F07DEF2AF097EC74F00009FC
:10550000D8A485EF2AF087EF2AF09BEF2AF0B5C6E2
:1055100060F5B6C661F5B7C662F5B8C663F5B8EC16
:105520005CF060C56AF561C56BF562C56CF563C575
:105530006DF5AFEC71F07CEC74F0E806D8A4A3EF45
:105540002AF0A5EF2AF0BEEF2AF0A4C660F5A5C6A2
:1055500061F5A6C662F5A7C663F5B8EC5CF09B0ED4
:10556000050160256A6FFF0E61216B6FFF0E6221DE
:105570006C6FFF0E63216D6F0BEC73F0840E0501F1
:10558000D86F080ED96FCDEC3FF04F50D8B4CBEFA9
:105590002AF0CDEF2AF013EF2FF07CEC74F0000925
:1055A000D8A4D5EF2AF0D7EF2AF065EF2DF055EC0F
:1055B00073F005016051345C6151355862513658C1
:1055C00063513758D8A0E7EF2AF0E9EF2AF0EDEF62
:1055D0002AF085EC74F061EF2DF082EC74F03EEF70
:1055E0002DF0000EFD6F0F0EFD65F9EF2AF0FBEFB9
:1055F0002AF0FDEF2AF061EF2DF0FD51646F656B2D
:10560000666B676B30C568F531C569F532C56AF5FB
:1056100033C56BF5D0EC68F064C5ECF565C5EDF508
:1056200066C5EEF567C5EFF55EEC73F005016051F8
:10563000EC25F06F6151ED21F16F6251EE21F26FB7
:105640006351EF21F36FF051345CF1513558F25151
:105650003658F3513758D8A030EF2BF032EF2BF0FB
:1056600099EF2BF0FD51EC6FED6B010EEC27000E66
:10567000ED23ECC564F5EDC565F5000E65BFFF0EC5
:10568000666F676F30C568F531C569F532C56AF573
:1056900033C56BF5D0EC68F064C5EEF565C5EFF584
:1056A00066C5F0F567C5F1F55EEC73F00501605174
:1056B000EE25F26F6151EF21F36F6251F021F46F2B
:1056C0006351F121F56FF251345CF3513558F451C7
:1056D0003658F5513758D8B070EF2BF072EF2BF0E9
:1056E00085EF2BF0FD515EBE7FEF2BF0FF0A5E24AD
:1056F000D8B07DEF2BF07FEF2BF0A2EF2BF0030E55
:105700005D6EFDC55EF5A2EF2BF0FD511BEC6CF05C
:105710000501686FFD5141EC6CF00501696FFD51A9
:1057200067EC6CF005016A6FFD51B3EC6CF0A2EF11
:105730002BF0000E686F000E696F000E6A6FFD514E
:10574000B3EC6CF05EBEA7EF2BF0A9EF2BF0B8EF37
:105750002BF09DEC74F00501686F9DEC74F0050171
:10576000696F9DEC74F005016A6F5E50B3EC6CF0EC
:105770000501FD2BF3EF2AF0000EFC6F0F0EFC6508
:10578000C4EF2BF0C6EF2BF0C8EF2BF061EF2DF03C
:10579000FC51646F656B666B676B30C568F531C52E
:1057A00069F532C56AF533C56BF5D0EC68F064C5B0
:1057B000ECF565C5EDF566C5EEF567C5EFF55EEC94
:1057C00073F005016051EC25F06F6151ED21F16F2F
:1057D0006251EE21F26F6351EF21F36FF051345CAF
:1057E000F1513558F2513658F3513758D8A0FBEFE4
:1057F0002BF0FDEF2BF012EF2CF0FC511BEC6CF0BA
:105800000501686FFC5141EC6CF00501696FFC51BA
:1058100067EC6CF005016A6FFC510F08B3EC6CF09B
:105820001CEF2CF0000E686F000E696F000E6A6F9F
:10583000FC510F08B3EC6CF00501FC2BBEEF2BF014
:10584000000EFE6F070EFE6528EF2CF02AEF2CF0FD
:105850002CEF2CF061EF2DF0D8903034646F3134A0
:10586000656F3234666F3334676FFE51686F696BF2
:105870006A6B6B6BD0EC68F064C5ECF565C5EDF553
:1058800066C5EEF567C5EFF55EEC73F00501605196
:10589000EC25F06F6151ED21F16F6251EE21F26F55
:1058A0006351EF21F36FF051345CF1513558F251EF
:1058B0003658F3513758D8A060EF2CF062EF2CF037
:1058C00096EF2CF0FE51020DF3501BEC6CF005012D
:1058D000686FFE51020DF35041EC6CF00501696FE9
:1058E000FE51020DF35067EC6CF005016A6FFE513A
:1058F0000F08B3EC6CF00501FE51020DF3501BECE8
:105900006CF00501686FFE51020DF35041EC6CF034
:105910000501696FFE51020DF35067EC6CF0050153
:105920006A6FFE51B3EC6CF0AAEF2CF0000E686FBA
:10593000000E696F000E6A6FFE510F08B3EC6CF039
:10594000000E0501686F000E696F000E6A6FFE5150
:10595000B3EC6CF00501FE2B22EF2CF0000EFF6F74
:10596000070EFF65B6EF2CF0B8EF2CF0BAEF2CF075
:1059700061EF2DF0D8903034646F3134656F32347C
:10598000666F3334676FFF51686F696B6A6B6B6B5F
:10599000D0EC68F064C5ECF565C5EDF566C5EEF5CF
:1059A00067C5EFF55EEC73F005016051EC25F06F13
:1059B0006151ED21F16F6251EE21F26F6351EF21E0
:1059C000F36FF051345CF1513558F2513658F351C0
:1059D0003758D8A0EEEF2CF0F0EF2CF025EF2DF09B
:1059E000FF51020DF3501BEC6CF00501686FFF5185
:1059F000020DF35041EC6CF00501696FFF51020D8F
:105A0000F35067EC6CF005016A6FFF510708B3ECC7
:105A10006CF00501FF51020DF3501BEC6CF0050119
:105A2000686FFF51020DF35041EC6CF00501696F96
:105A3000FF51020DF35067EC6CF005016A6FFF51E6
:105A4000080FB3EC6CF03AEF2DF0000E686F000E0B
:105A5000696F000E6A6FFF510708B3EC6CF0000E1F
:105A60000501686F000E696F000E6A6FFF51080F25
:105A7000B3EC6CF00501FF2BB0EF2CF09BEC74F055
:105A80000501EC6FED6BED51000AD8B44AEF2DF033
:105A900061EF2DF0EC51000AD8B4F1EF2AF0010AC1
:105AA000D8B4BCEF2BF0030AD8B420EF2CF0010AD5
:105AB000D8B4AEEF2CF0070AD8B461EF2DF061EF47
:105AC0002DF0000E4F6E1BEF2EF07CEC74F0E8060C
:105AD000D8A46DEF2DF06FEF2DF01BEF2EF0060127
:105AE00045BF75EF2DF077EF2DF0C5EF2DF0000ECF
:105AF0000501FA6F0F0EFA6580EF2DF082EF2DF0A1
:105B000084EF2DF01BEF2EF0FA51646F656B666B1E
:105B1000676B30C568F531C569F532C56AF533C5BF
:105B20006BF5D0EC68F0050164510601425D05019A
:105B300065510601435905016651060144590501A5
:105B4000675106014559D8A0A8EF2DF0AAEF2DF016
:105B5000B7EF2DF09DEC74F00501686F000E696FD2
:105B6000000E6A6FFA51B3EC6CF0C1EF2DF0000E2D
:105B70000501686F000E696F000E6A6FFA51B3EC91
:105B80006CF00501FA2B7AEF2DF0000E0501FB6F8A
:105B90000F0EFB65CEEF2DF0D0EF2DF0D2EF2DF0F4
:105BA0001BEF2EF042C672F543C673F514EC6EF08F
:105BB000050172C5ECF573C5EDF5000EEDBFFF0EE6
:105BC000EE6FEF6FFB51646F656B666B676B3AC688
:105BD00068F53BC669F53CC66AF53DC66BF5D0EC89
:105BE00068F005016451EC5D6551ED596651EE595F
:105BF0006751EF59D8A0FFEF2DF001EF2EF00EEF17
:105C00002EF0000E686F000E696F9DEC74F00501B8
:105C10006A6FFB51B3EC6CF017EF2EF0000E686F5B
:105C2000000E696F000E6A6FFB51B3EC6CF005015A
:105C3000FB2BC8EF2DF03750361009E15E0E345CB7
:105C4000010E3558D8B027EF2EF029EF2EF013EFC4
:105C50002FF0070E506E13EF2FF0CEB832EF2EF06C
:105C600034EF2EF051EF2EF067EC73F00501605128
:105C70000601365D05016151060137590501625182
:105C8000060138590501635106013959D8B04BEF67
:105C90002EF04DEF2EF062EF2EF0060E506E13EF49
:105CA0002FF0060136693769386939697CEC74F080
:105CB0000009D8B45EEF2EF060EF2EF062EF2EF008
:105CC000000E506E060136290AE1372908E138290D
:105CD00006E13929D8A46FEF2EF071EF2EF013EF03
:105CE0002FF0C8EC35F00009D8A479EF2EF07BEF47
:105CF0002EF013EF2FF0000E506EA0EC67F013EFB4
:105D00002FF054EC50F00009D8A489EF2EF08BEF5F
:105D10002EF013EF2FF0000E506E1EEC71F013EF0B
:105D20002FF0000E6C6F9DEC74F005016D6F000E8E
:105D3000E5EC6FF067EC73F00501605106013E5D24
:105D40000501615106013F590501625106014059A3
:105D50000501635106014159D8B0B1EF2EF0B3EF00
:105D60002EF013EF2FF0040E506EA0EC67F0000E33
:105D700005016C6F000E6D6F000EE5EC6FF013EF18
:105D80002FF05EBEC6EF2EF0C8EF2EF0CAEF2EF059
:105D900013EF2FF0375036100BE15E0E345C010E1E
:105DA0003558D8A0D6EF2EF0D8EF2EF0DCEF2EF03D
:105DB000000E506E13EF2FF0BE82BF8E0300D8EF9F
:105DC0002EF050500501EC6FED6BED51000AD8B488
:105DD000ECEF2EF013EF2FF0EC51000AD8B463EF84
:105DE00028F0010AD8B46EEF28F0030AD8B474EF93
:105DF00028F0010AD8B49DEF29F0070AD8B4B8EF0B
:105E000029F0010AD8B42DEF2EF0030AD8B481EF9F
:105E10002EF0010AD8B4C1EF2EF00F0AD8B491EFDA
:105E20002EF013EF2FF01200050120EE2CF1785127
:105E3000D9267951DA22DF50D8A421EF2FF023EFB1
:105E40002FF026EF2FF0030E71EF32F020EE01F06D
:105E50007851D9267951DA22000EDF6E78C56CF5BB
:105E600079C56DF53CEC5DF0000E0501886FBAEF69
:105E70002FF0000E8B6F8B51230DF3C47AF5F4C411
:105E80007BF57A5178257C6F7B5179217D6F020EED
:105E90007C25D96E000E7D21DA6E8851020DF3C487
:105EA0007FF5F4C480F57F517825816F8051792189
:105EB000826F2D0E8125E16E010E8221E26E00EED1
:105EC00002F0E650E926E550EA22DE50EE18D8A4AA
:105ED0006CEF2FF06EEF2FF070EF2FF0B9EF2FF087
:105EE000070E8B19D8A477EF2FF079EF2FF0B0EFD2
:105EF0002FF08851020DF3C47AF5F4C47BF57A5182
:105F000078257C6F7B5179217D6F2D0E7C25D96E94
:105F1000010E7D21DA6E10EE02F0DE50E126DD503A
:105F2000E22278C5D9F479C5DAF4DF507E6F7E516C
:105F3000230DF3C47FF5F4C480F57F517825816F7C
:105F400080517921826F020E8125D96E000E822147
:105F5000DA6EE7C4DFF478C5D9F479C5DAF4DF2A5C
:105F60008B2B070E8B65B7EF2FF0B9EF2FF03BEFC0
:105F70002FF0882B20EE2CF17851D9267951DA2296
:105F8000DE50885DD8A0C7EF2FF0C9EF2FF039EFB2
:105F90002FF0000E8F6F63EF32F0010E896F000E4D
:105FA0008E6F000E8D6F000E8A6F36EF30F08A51C3
:105FB000020DF3C47AF5F4C47BF57A5178257C6F31
:105FC0007B5179217D6F2D0E7C25D96E010E7D21AF
:105FD000DA6E10EE02F0DE50E126DD50E2228F5143
:105FE000230DF3C47FF5F4C480F57F517825816FCC
:105FF00080517921826F020E8125D96E000E822197
:10600000DA6EE650DE18D8A408EF30F00AEF30F070
:1060100035EF30F08A51020DF3C47AF5F4C47BF504
:106020007A5178257C6F7B5179217D6F2D0E7C25EF
:10603000D96E010E7D21DA6E10EE03F0DE50E126FE
:10604000DD50E222E6C47EF5E5C47FF57FC57EF52E
:106050007F6B7E517F11D8B430EF30F033EF30F0EA
:10606000010E34EF30F0000E89278A2B20EE2CF140
:106070007851D9267951DA22DE508A5DD8A043EFD3
:1060800030F045EF30F0D7EF2FF0070E89614BEF7E
:1060900030F04DEF30F093EF30F08F51230DF3C41B
:1060A0007AF5F4C47BF57A5178257C6F7B517921A0
:1060B0007D6F8E517C27000E7D23030E7C25D96ECB
:1060C000000E7D21DA6E89C5DFF48E2B8F51230DF2
:1060D000F3C47AF5F4C47BF57A5178257C6F7B5153
:1060E00079217D6F020E7C25D96E000E7D21DA6E3E
:1060F0008F51230DF3C47EF5F4C47FF57E517825CE
:10610000806F7F517921816F8E518027000E81230E
:10611000030E8025E16E000E8121E26EDFC4E7F4FC
:106120008E2BF2EF30F08F51230DF3C47AF5F4C4C7
:106130007BF57A5178257C6F7B5179217D6F8E516B
:106140007C27000E7D23030E7C25D96E000E7D2159
:10615000DA6E8D511009DF6E8E2B8F51230DF3C433
:106160007AF5F4C47BF57A5178257C6F7B517921DF
:106170007D6F8E517C27000E7D23030E7C25D96E0A
:10618000000E7D21DA6E89C5DFF48E2B8F51230D31
:10619000F3C47AF5F4C47BF57A5178257C6F7B5192
:1061A00079217D6F020E7C25D96E000E7D21DA6E7D
:1061B0008F51230DF3C47EF5F4C47FF57E5178250D
:1061C000806F7F517921816F8E518027000E81234E
:1061D000030E8025E16E000E8121E26EDFC4E7F43C
:1061E00090EF30F0000E8C6F53EF32F08C51020DB7
:1061F000F3C47AF5F4C47BF57A5178257C6F7B5132
:1062000079217D6F2D0E7C25D96E010E7D21DA6EF0
:1062100010EE02F0DE50E126DD50E2228F51230D18
:10622000F3C47FF5F4C480F57F517825816F8051E8
:106230007921826F020E8125D96E000E8221DA6EDD
:10624000E650DE18D8A427EF31F029EF31F03EEF09
:1062500032F08C51020DF3C47AF5F4C47BF57A5117
:1062600078257C6F7B5179217D6F2D0E7C25D96E31
:10627000010E7D21DA6E10EE03F0DE50E126DD50D6
:10628000E222E6C47EF5E5C47FF57FC57EF57F6B2F
:106290007E517F11D8A44FEF31F051EF31F053EF21
:1062A00031F0A0EF31F08D51080DF3C47AF5F4C44C
:1062B0007BF58F51230DF3C47CF5F4C47DF57C513F
:1062C00078257E6F7D5179217F6F7A517E25806F91
:1062D0007B517F21816F8E518027000E8123030E19
:1062E0008025D96E000E8121DA6E8C51020DF3C427
:1062F00082F5F4C483F582517825846F8351792126
:10630000856F2D0E8425E16E010E8521E26E00EE73
:1063100003F0E650E926E550EA22EEC486F5EDC426
:1063200087F587C586F5876B8651DF6E8D0E606FAA
:10633000050E616F8E0E626F050E636FA7EC6AF03B
:1063400005018C51020DF3C47AF5F4C47BF57A5142
:1063500078257C6F7B5179217D6F2D0E7C25D96E40
:10636000010E7D21DA6E10EE03F0DE50E126DD50E5
:10637000E222E6C47EF5E5C47FF57E510009D8B47B
:10638000C4EF31F0C6EF31F00CEF32F08C51020D5A
:10639000F3C47AF5F4C47BF57A5178257C6F7B5190
:1063A00079217D6F2D0E7C25D96E010E7D21DA6E4F
:1063B00010EE03F0DE50E126DD50E2228D51080D93
:1063C000F3C47EF5F4C47FF58F51230DF3C480F53B
:1063D000F4C481F580517825826F81517921836FD2
:1063E0007E518225846F7F518321856F8E51842752
:1063F000000E8523030E8425D96E000E8521DA6EEA
:10640000E7C4DFF48D0E606F050E616F8E0E626F54
:10641000050E636FA7EC6AF005018D51D8B413EF38
:1064200032F015EF32F03EEF32F08E05D8A41BEFBC
:1064300032F01DEF32F03EEF32F08D51080DF3C413
:106440007AF5F4C47BF58F51230DF3C47CF5F4C4C5
:106450007DF57C5178257E6F7D5179217F6F7A5152
:106460007E25806F7B517F21816F030E8025D96E41
:10647000000E8121DA6E8D512009DF6E8F51230DC0
:10648000F3C47AF5F4C47BF57A5178257C6F7B519F
:1064900079217D6F230E7C25D96E000E7D21DA6E69
:1064A0008D29DF6E8C2B20EE2CF17851D926795175
:1064B000DA22DE508C5DD8A060EF32F062EF32F06D
:1064C000F6EF30F08F2B78C5D9F479C5DAF4DE50C9
:1064D0008F5DD8A06EEF32F070EF32F0CDEF2FF07D
:1064E000010E1200A0C5D9F4A1C5DAF4DEC4F6F499
:1064F000DDC4F7F4000EF86E0800F550250AD8A4A4
:1065000084EF32F086EF32F0A9EF35F0A0C5D9F470
:10651000A1C5DAF4DE2A000EDD22000E396E000E6F
:10652000386E38C53FF53A683B68000E0501B36F19
:10653000000EB26FC8EF32F03F82A0C5D9F4A1C5FA
:10654000DAF4DE2A000EDD22C8EF32F0000EB36F5F
:10655000010EB26FC8EF32F0A0C5D9F4A1C5DAF4CC
:10656000DEC4F6F4DDC4F7F4000EF86E0800F55052
:10657000A46FA56BA551000AD8B4C1EF32F0A6EF05
:1065800032F0A451300AD8B49CEF32F0A6EF32F0CA
:10659000B251B311D8B4CFEF32F0D1EF32F0ACEF4B
:1065A00032F0A0C5D9F4A1C5DAF4DEC4F6F4DDC436
:1065B000F7F4000EF86E0800F5502A0AD8A4E3EFAD
:1065C00032F0E5EF32F00EEF33F0A0C5D9F4A1C5FB
:1065D000DAF4DE2A000EDD22A2C5D9F4A3C5DAF46E
:1065E000DFC4A4F5020EDE26DFC4A5F5000EDD2211
:1065F000A4C5D9F4A5C5DAF4DEC438F5DDC439F58F
:1066000039BE07EF33F005EF33F044EF33F03F804E
:10661000386C391ED8B0392A44EF33F0A0C5D9F40C
:10662000A1C5DAF4DEC466F5DDC467F554EC52F0BA
:1066300066C538F567C539F525EF33F0A0C5D9F43F
:10664000A1C5DAF4DE2A000EDD22A0C5D9F4A1C569
:10665000DAF4DEC4F6F4DDC4F7F4000EF86E0800D8
:10666000F5C4A4F5D00E0501A425A56FA66BFF0EF9
:10667000A623A65109E10A0EA55DD8A042EF33F08A
:1066800044EF33F01EEF33F0A0C5D9F4A1C5DAF41E
:10669000DEC4BDF5DDC4BEF5BDC5F6F4BEC5F7F478
:1066A000000EF86E0800F5C4BCF563EF33F0BD4B87
:1066B000BE2B84EF33F0690EBC6F84EF33F0000E15
:1066C000BC6F84EF33F0BC51A46FA56BA551000AD9
:1066D000D8B46DEF33F05FEF33F0A451580AD8B45B
:1066E0005BEF33F03C0AD8B45BEF33F00D0AD8B45B
:1066F0005BEF33F0050AD8B457EF33F0020AD8B491
:106700005BEF33F05FEF33F0BDC5F6F4BEC5F7F4D1
:10671000000EF86E0800F550640AD8B492EF33F01A
:1067200094EF33F000EF34F0BDC5F6F4BEC5F7F4D6
:10673000000EF86E0800F550690AD8A4A2EF33F0F5
:10674000A4EF33F03FEF34F000EF34F0A2C5D9F4FA
:10675000A3C5DAF4DFC4A4F5020EDE26DFC4A5F576
:10676000000EDD22A4C5D9F4A5C5DAF4DEC4B4F563
:10677000DDC4B5F5000EB5BFFF0EB66FB76FB86FCD
:10678000B96FBA6FBB6F15EF34F0A2C5D9F4A3C5CA
:10679000DAF4DFC4A4F5040EDE26DFC4A5F5000E8E
:1067A000DD22A4C5D9F4A5C5DAF4DEC4A6F5DEC49D
:1067B000A7F5DEC4A8F5DEC4A9F5A6C5AAF5A7C548
:1067C000ABF5A8C5ACF5A9C5ADF5AE6BADBFAE696F
:1067D000AEC5AFF5AEC5B0F5AEC5B1F5AAC5B4F559
:1067E000ABC5B5F5ACC5B6F5ADC5B7F5AEC5B8F535
:1067F000AFC5B9F5B0C5BAF5B1C5BBF515EF34F005
:10680000BC51A46FA56BA551000AD8B40AEF34F0AF
:1068100015EF34F0A451690AD8B4A6EF33F0050A95
:10682000D8B4C5EF33F015EF34F0010EBD25A46FD9
:10683000000EBE21A56FA0C5D9F4A1C5DAF4A4C588
:10684000DEF4A5C5DDF49EC57BF59FC57CF5B4C51A
:106850007DF5B5C57EF5B6C57FF5B7C580F5B8C57C
:1068600081F5B9C582F5BAC583F5BBC584F5BAEC27
:106870004CF07BC59EF57CC59FF5C7EF35F0BDC5D7
:10688000F6F4BEC5F7F4000EF86E0800F550580A8D
:10689000D8A44DEF34F04FEF34F0F0EF34F097EF31
:1068A00034F0A2C5D9F4A3C5DAF4DFC4A4F5020E0E
:1068B000DE26DFC4A5F5000EDD22A4C5D9F4A5C5EA
:1068C000DAF4DEC4A6F5DDC4A7F5A6C5B4F5A7C500
:1068D000B5F5B66BB76BB86BB96BBA6BBB6BACEF9E
:1068E00034F0A2C5D9F4A3C5DAF4DFC4A4F5040ECC
:1068F000DE26DFC4A5F5000EDD22A4C5D9F4A5C5AA
:10690000DAF4DEC4A6F5DEC4A7F5DEC4A8F5DEC45D
:10691000A9F5A651B46FA751B56FA851B66FA9518B
:10692000B76FB86BB96BBA6BBB6BACEF34F0BC51E3
:10693000A46FA56BA551000AD8B4A1EF34F0ACEF59
:1069400034F0A451690AD8B451EF34F0050AD8B430
:1069500071EF34F0ACEF34F0010EBD25A46F000EE2
:10696000BE21A56FA0C5D9F4A1C5DAF4A4C5DEF493
:10697000A5C5DDF4D8EF34F09EC57BF59FC57CF549
:10698000B4C57DF5B5C57EF5B6C57FF5B7C580F54F
:10699000B8C581F5B9C582F5BAC583F5BBC584F51F
:1069A00067EC51F07BC59EF57CC59FF5C7EF35F0D0
:1069B000BDC5F6F4BEC5F7F4000EF86E0800F5503C
:1069C000A46FA56BA551000AD8B4E9EF34F0F0EF3D
:1069D00034F0A451580AD8B4BCEF34F0F0EF34F0DE
:1069E000BDC5F6F4BEC5F7F4000EF86E0800F5500C
:1069F0006E0AD8A4FEEF34F000EF35F074EF35F0F6
:106A00004BEF35F0A2C5D9F4A3C5DAF4DFC4A4F581
:106A1000020EDE26DFC4A5F5000EDD22A4C5D9F4E2
:106A2000A5C5DAF4DEC4A6F5DDC4A7F5A6C5D9F47C
:106A3000A7C5DAF45CC6DEF45DC6DDF460EF35F0C0
:106A40005CC6A4F55DC6A5F5000EA5BFFF0EA66F3A
:106A5000A76FA2C5D9F4A3C5DAF4DFC4A8F5020E66
:106A6000DE26DFC4A9F5000EDD22A8C5D9F4A9C52C
:106A7000DAF4DEC4AAF5DDC4ABF5AAC5D9F4ABC51A
:106A8000DAF4A4C5DEF4A5C5DEF4A6C5DEF4A7C518
:106A9000DEF460EF35F0BC51A46FA56BA551000A80
:106AA000D8B455EF35F060EF35F0A451690AD8B489
:106AB00002EF35F0050AD8B420EF35F060EF35F07D
:106AC000010EBD25A46F000EBE21A56FA0C5D9F48F
:106AD000A1C5DAF4A4C5DEF4A5C5DDF4000E9F6FF0
:106AE000000E9E6FC7EF35F0A0C5D9F4A1C5DAF44A
:106AF000DEC4F6F4DDC4F7F4000EF86E0800F550BD
:106B0000250AD8A486EF35F088EF35F0A0EF35F0F0
:106B1000A0C5D9F4A1C5DAF4DE2A000EDD22000EEC
:106B2000616F250E606F9EC562F59FC563F5DFEC52
:106B300061F0000E05019F6F010E9E6FC7EF35F0EB
:106B4000A0C5D9F4A1C5DAF4DE2A000EDD226EEF6D
:106B500035F0A0C5D9F4A1C5DAF4DEC4F6F4DDC47D
:106B6000F7F4000EF86E0800F5500501606F616BD8
:106B70009EC562F59FC563F5DFEC61F0A0C5D9F451
:106B8000A1C5DAF4DE2A000EDD2299EF35F01200FD
:106B90004A50D8B4CEEF35F0D0EF35F0CDEF38F025
:106BA000010EEBEF38F0010E49EC6FF0010E4B6E69
:106BB000D0EF35F0000E786F010E7825606F616BB5
:106BC000000E6123010E636FF40E626F9BEC71F097
:106BD000050160C573F561C574F5000E74BFFF0E45
:106BE000756F766F5EEC73F005017351605D7451E3
:106BF00061597551625976516359D8A002EF36F048
:106C000004EF36F031EF36F078C560F5616B000EB9
:106C1000636F020E626FA9EC62F0050160A113EFD1
:106C200036F015EF36F022EF36F0000E686F000EEA
:106C3000696F9DEC74F005016A6F7851B3EC6CF0EC
:106C400074EF36F0000E686F9DEC74F00501696F0B
:106C50009DEC74F005016A6F7851B3EC6CF074EF41
:106C600036F0010E7825606F616B000E6123010E16
:106C7000636FF40E626F9BEC71F0050160C573F5F4
:106C800061C574F5000E74BFFF0E756F766F55EC1D
:106C900073F00501605173190DE1615174190AE136
:106CA0006251751907E163517619D8A45AEF36F08D
:106CB0005CEF36F06BEF36F09DEC74F00501686F19
:106CC0009DEC74F00501696F000E6A6F7851B3ECAA
:106CD0006CF074EF36F0000E686F000E696F000EF6
:106CE0006A6F7851B3EC6CF00501782B0F0E786564
:106CF0007CEF36F07EEF36F0DCEF35F0020E4B6EB7
:106D0000D0EF35F04750D8B488EF36F08AEF36F040
:106D1000B0EF36F05EEC73F00501635162110BE1E8
:106D2000F50E605D010E6159D8A099EF36F09BEF2A
:106D300036F0ACEF36F05EEC73F00C0E050160251A
:106D40006F6FFE0E6121706FFF0E6221716FFF0E7B
:106D50006321726FA7EC6EF0000E476ED6EF35F030
:106D60004650D8B4B6EF36F0B8EF36F0DEEF36F076
:106D70005EEC73F005016351621109E1400E605D44
:106D80001F0E6159D8B0C7EF36F0C9EF36F0DAEF11
:106D900036F05EEC73F0F40E050160256F6F010EA6
:106DA0006121706F000E6221716F000E6321726F9E
:106DB000A7EC6EF0000E466ED6EF35F04850D8B412
:106DC000E4EF36F0E6EF36F005EF37F0000E486EF0
:106DD000EBEC71F0EBEF38F04B50736F746B745158
:106DE000000AD8B4F6EF36F0D0EF35F07351000A50
:106DF000D8B4D3EF35F0010AD8B4DAEF35F0030A8E
:106E0000D8B482EF36F0D0EF35F0D0EF35F0020E87
:106E100049EC6FF0D6EF35F0000E776F010E772555
:106E2000606F616B000E6123010E636FF40E626F81
:106E30009BEC71F0050160C573F561C574F5000E3A
:106E400074BFFF0E756F766F55EC73F005017351CB
:106E5000605D745161597551625976516359D8A07A
:106E600034EF37F036EF37F063EF37F077C560F582
:106E7000616B000E636F020E626FA9EC62F0050198
:106E800060A145EF37F047EF37F054EF37F09DEC56
:106E900074F00501686F000E696F000E6A6F77511C
:106EA000B3EC6CF06CEF37F09DEC74F00501686F9B
:106EB0009DEC74F00501696F000E6A6F7751B3ECB9
:106EC0006CF06CEF37F0000E686F000E696F000E0B
:106ED0006A6F7751B3EC6CF00501772B0F0E776575
:106EE00074EF37F076EF37F00EEF37F07EEF36F0D5
:106EF0004750D8B47EEF37F080EF37F0A4EF37F08B
:106F000055EC73F00501635162110BE1F50E605D04
:106F1000010E6159D8A08FEF37F091EF37F0ACEF49
:106F200036F055EC73F00C0E050160256F6FFE0E08
:106F30006121706FFF0E6221716FFF0E6321726F0E
:106F40008CEC6EF0ACEF36F04650D8B4AAEF37F0C8
:106F5000ACEF37F0D0EF37F055EC73F0050163512B
:106F6000621109E1400E605D1F0E6159D8B0BBEFA0
:106F700037F0BDEF37F0DAEF36F055EC73F0F40E82
:106F8000050160256F6F010E6121706F000E622197
:106F9000716F000E6321726F8CEC6EF0DAEF36F0D9
:106FA0004850D8B4D6EF37F0D8EF37F005EF37F0C8
:106FB000E6EF36F04B50736F746B7451000AD8B41F
:106FC000E4EF37F0D0EF35F07351000AD8B407EF93
:106FD00037F0010AD8B40CEF37F0030AD8B478EFD1
:106FE00037F0D0EF35F0030E49EC6FF0D6EF35F007
:106FF0004750D8B4FEEF37F000EF38F01CEF38F010
:107000009BEC74F00009D8B408EF38F00AEF38F0C0
:1070100013EF38F09BEC74F00501736F7305A3EC6C
:1070200072F016EF38F0030EA3EC72F0000E476E0C
:10703000000E4B6ED0EF35F04650D8B422EF38F04A
:1070400024EF38F040EF38F09BEC74F00501736FDB
:10705000030E73612EEF38F030EF38F039EF38F06F
:107060009BEC74F00501736F7329A3EC72F03CEF95
:1070700038F0000EA3EC72F0000E466E18EF38F0F8
:107080004850D8B446EF38F048EF38F005EF37F005
:10709000E6EF36F04B50736F746B7451000AD8B43E
:1070A00054EF38F0D0EF35F07351000AD8B4F3EF55
:1070B00037F0010AD8B47EEF36F0030AD8B4F8EFFF
:1070C00037F0D0EF35F0040E49EC6FF0D6EF35F025
:1070D0004750D8B46EEF38F070EF38F088EF38F0E2
:1070E00099EC74F00009D8B478EF38F07AEF38F002
:1070F00083EF38F099EC74F00501736F730595EC2C
:1071000072F016EF38F0030E95EC72F016EF38F0CF
:107110004650D8B48EEF38F090EF38F0AAEF38F040
:1071200099EC74F00501736F030E73619AEF38F0F8
:107130009CEF38F0A5EF38F099EC74F00501736F0F
:10714000732995EC72F03CEF38F0000E95EC72F07C
:107150003CEF38F04850D8B4B0EF38F0B2EF38F028
:1071600005EF37F0E6EF36F04B50736F746B7451E8
:10717000000AD8B4BEEF38F0D0EF35F07351000AF2
:10718000D8B463EF38F0010AD8B47EEF36F0030AC2
:10719000D8B468EF38F0D0EF35F04C500501736F7C
:1071A000746B7451000AD8B4D8EF38F0D0EF35F0D2
:1071B0007351000AD8B4ECEF36F0010AD8B4DAEF14
:1071C00037F0030AD8B44AEF38F0010AD8B4B4EF64
:1071D00038F0D0EF35F0120005018A51800B936F23
:1071E0008A518A25956F89AFF8EF38F0FAEF38F0B9
:1071F000FBEF38F095819551D8B401EF39F003EFEA
:1072000039F018EF39F09529D8A409EF39F00BEFD0
:1072100039F013EF39F0000E876F000E886F000E03
:10722000896F000E8A6F898F000E8A6F20EF39F008
:10723000000E876F000E886F000E896F000E8A6F38
:107240008E51800B946F93519419D8B42AEF39F072
:107250002CEF39F02DEF39F0938D8E518E25946FF0
:107260008DAF35EF39F037EF39F038EF39F09481E1
:107270009451D8B43EEF39F040EF39F055EF39F082
:107280009429D8A446EF39F048EF39F050EF39F09F
:10729000000E8B6F000E8C6F000E8D6F000E8E6FC8
:1072A0008D8F000E8E6F5DEF39F0000E8B6F000E2C
:1072B0008C6F000E8D6F000E8E6F9551945DD8B05F
:1072C00064EF39F066EF39F08DEF39F093AD6BEF85
:1072D00039F06DEF39F06FEF39F0800E931B95C5E3
:1072E00096F594C595F596C594F587C596F58BC525
:1072F00087F596C58BF588C596F58CC588F596C536
:107300008CF589C596F58DC589F596C58DF58AC527
:1073100096F58EC58AF596C58EF5000E966F955139
:1073200094C58FF5906B8F5F000E905B90BFA2EFBE
:1073300039F0905109E11A0E8F5DD8A0A2EF39F013
:10734000A4EF39F0DBEF39F08751881189118A11E8
:10735000D8A4ADEF39F0B0EF39F0010EB1EF39F04C
:10736000000E966F000E876F000E886F000E896FFB
:10737000000E8A6F94C595F5E4EF39F096A1C3EF3E
:1073800039F0C5EF39F0CBEF39F0D89096310109DB
:10739000966FCDEF39F0D890963387A1D2EF39F0C0
:1073A000D4EF39F0D5EF39F0968F8A358A338933A7
:1073B00088338733952B9451955DD8A0E2EF39F04F
:1073C000E4EF39F0BEEF39F093BDE9EF39F0EBEFC0
:1073D00039F02BEF3AF09551D8A4F1EF39F0F3EFF3
:1073E00039F0FDEF39F0000E876F000E886F000E48
:1073F000896F000E8A6F4CEF3BF08B5187278C51C1
:1074000088238D5189238E518A238AA10AEF3AF06D
:107410000CEF3AF0B8EF3AF096A111EF3AF013EF13
:107420003AF019EF3AF0D89096310109966F1BEFB8
:107430003AF0D890963387A120EF3AF022EF3AF055
:1074400023EF3AF0968F8A358A338933883387332E
:10745000952BB8EF3AF08B51875D8C5188598D513F
:1074600089598A51800A8F6F8E51800A8F59D8B0FE
:107470003CEF3AF03EEF3AF069EF3AF087518B5D1E
:107480008F6F88518C59906F89518D59916F8A51A6
:107490008E59926FFF0E8F25876FFF0E9021886F98
:1074A000FF0E9121896FFF0E92218A6F800E931B30
:1074B000966D9651D8A45FEF3AF061EF3AF071EF14
:1074C0003AF0010E8727000E882389238A2371EF63
:1074D0003AF08B51875F8C51885B8D51895B8E515F
:1074E0008A5B8751881189118A11D8A47AEF3AF002
:1074F0007CEF3AF0B1EF3AF09651D8A482EF3AF02F
:1075000084EF3AF0B1EF3AF0000E876F000E886F0B
:10751000000E896F000E8A6F4CEF3BF0D8908737D2
:10752000883789378A3796AF98EF3AF09AEF3AF072
:107530009BEF3AF0878196A1A0EF3AF0A2EF3AF0E4
:10754000A6EF3AF0D8809637A8EF3AF0D890963761
:107550009551D8B4AEEF3AF0B0EF3AF0B1EF3AF05F
:10756000950789AFB6EF3AF0B8EF3AF08EEF3AF000
:10757000000E946F96AFBFEF3AF0C1EF3AF0D9EF3B
:107580003AF096C58FF57F0E8F17D8B4CAEF3AF050
:10759000CCEF3AF0D0EF3AF0010E946FD9EF3AF019
:1075A00087A1D5EF3AF0D7EF3AF0D9EF3AF0CCEF28
:1075B0003AF09451D8B4DFEF3AF0E1EF3AF00CEF43
:1075C0003BF0010E8727000E882389238A238AA196
:1075D000ECEF3AF0EEEF3AF00CEF3BF087C58FF5A9
:1075E00088C590F589C591F58AC592F59235923393
:1075F000913390338F338FC587F590C588F591C54A
:1076000089F592C58AF59529D8B409EF3BF00BEFBF
:107610003BF00CEF3BF0952B9529D8B412EF3BF0E3
:1076200014EF3BF01CEF3BF09551D8A41AEF3BF060
:107630001CEF3BF02EEF3BF0000E876F000E886FC3
:10764000000E896F000E8A6F9551D8A42AEF3BF087
:107650002CEF3BF02EEF3BF0000E936F95A133EF34
:107660003BF035EF3BF038EF3BF0898F39EF3BF0E3
:10767000899FD89095318A6F93AF41EF3BF043EFEC
:107680003BF044EF3BF08A8F87C587F588C588F5C6
:1076900089C589F58AC58AF5120083EF3DF0040E8D
:1076A000496055EF3BF057EF3BF078EF3BF049B0C6
:1076B0005CEF3BF05EEF3BF068EF3BF0000E056ED9
:1076C000A5EC74F0066E000E08EC71F06FEF3BF065
:1076D000000E056E000E066E000E08EC71F0492AD1
:1076E000000E026EC80E016E6FEC74F0A0EF3DF05C
:1076F000000E4A6E000E496E91EC74F0A0EF3DF062
:10770000040E496086EF3BF088EF3BF078EF3BF0EA
:1077100049B08DEF3BF08FEF3BF099EF3BF0000E5F
:10772000056E000E066EA5EC74F008EC71F06FEFBC
:107730003BF0000E056E000E066E000E08EC71F0B8
:107740006FEF3BF0100E4960A8EF3BF0AAEF3BF063
:10775000BEEF3BF0000E016EA5EC74F0026E000E61
:10776000036E49500F0BD0EC6DF0000E026E140E3C
:10777000016E6FEC74F0492AA0EF3DF04950016EA4
:10778000026A036A046A010E14EC54F001C50FF595
:1077900002C510F503C511F504C512F5000E136EF0
:1077A000000E146EE00E156E410E166EBFEC5DF00D
:1077B000D8B0DDEF3BF0DFEF3BF078EF3BF0000EB1
:1077C000016E000E026E000E036E49C51BF50F0E12
:1077D0001B161B500F08D0EC6DF0B5EF3BF0100EF0
:1077E0004960F5EF3BF0F7EF3BF008EF3CF0000E9F
:1077F000016EA5EC74F0026E000E036E49C51BF518
:107800000F0E1B161B500F08D0EC6DF0B5EF3BF0C0
:107810004950016E026A036A046A010E14EC54F0C6
:1078200001C50FF502C510F503C511F504C512F524
:10783000000E136E000E146EE00E156E410E166EE5
:10784000BFEC5DF0D8B027EF3CF029EF3CF078EFCB
:107850003BF0000E016E000E026E000E036E4950EA
:107860000F0BD0EC6DF0B5EF3BF0080E49603BEF2D
:107870003CF03DEF3CF05FEF3CF0000E016EA5ECFC
:1078800074F0026E000E036E49500F0BD0EC6DF0D9
:10789000000E016EA5EC74F0026E000E036E49C579
:1078A0001BF50F0E1B161B500F08D0EC6DF0000ED1
:1078B000026E280E016E6FEC74F0BBEF3BF0495086
:1078C000016E026A036A046A010E14EC54F001C5E9
:1078D0000FF502C510F503C511F504C512F59A0E92
:1078E000136E990E146E590E156E410E166EBFEC86
:1078F0005DF0D8B07EEF3CF080EF3CF078EF3BF0ED
:10790000000E016E000E026E000E036E4950D0ECA8
:107910006DF0000E016E000E026E000E036E4950F7
:107920000F08D0EC6DF057EF3CF0080E49609BEF6C
:107930003CF09DEF3CF0B5EF3CF0000E016EA5EC85
:1079400074F0026E000E036E4950080FD0EC6DF01B
:10795000000E016EA5EC74F0026E000E036E49502D
:107960000708D0EC6DF057EF3CF04950016E026A09
:10797000036A046A010E14EC54F001C50FF502C548
:1079800010F503C511F504C512F59A0E136E990E84
:10799000146E590E156E410E166EBFEC5DF0D8B028
:1079A000D4EF3CF0D6EF3CF078EF3BF0000E016EE8
:1079B000000E026E000E036E4950F80FD0EC6DF011
:1079C000000E016E000E026E000E036E49C51BF51F
:1079D000070E1B161B500F08D0EC6DF057EF3CF054
:1079E000A3EC74F01B6E1C6A1C50000AD8B4FBEFA9
:1079F0003CF0A0EF3DF01B50000AD8B4A2EF3BF0E2
:107A0000010AD8B4EFEF3BF0030AD8B435EF3CF0ED
:107A1000010AD8B495EF3CF0A0EF3DF0100E49609C
:107A200014EF3DF016EF3DF078EF3BF0A1EC74F071
:107A30001B6E030E1B601FEF3DF021EF3DF039EF91
:107A40003DF0495067EC6DF0206E49508AEC6DF0C6
:107A5000216E4950ADEC6DF0226E20C501F521C5B7
:107A600002F522C503F549500F0BD0EC6DF057EF2E
:107A70003CF04950A00DF3C401F5F4C402F5000E2A
:107A8000046E100E036E0CEC63F00150A008276E1C
:107A90002868A5EC74F0296E27C509F528C50AF5F4
:107AA00029C50BF5EEEC54F009C524F50AC525F5FA
:107AB0000BC526F5000E236E68EF3DF024C501F5D9
:107AC00025C502F526C503F52350D0EC6DF0232A19
:107AD00049501B6E1C6A010E1B26000E1C222350EF
:107AE0001D6E1E6A1B501D5C1E50800A1F6E1C50AE
:107AF000800A1F58D8A07FEF3DF081EF3DF05EEF88
:107B00003DF057EF3CF04D501B6E1C6A1C50000AB4
:107B1000D8B48DEF3DF0A0EF3DF01B50010AD8B472
:107B20004FEF3BF0030AD8B480EF3BF0010AD8B422
:107B3000F0EF3CF0070AD8B40EEF3DF0A0EF3DF0B7
:107B400012007FC5D9F480C5DAF4DEC4F6F4DDC4D2
:107B5000F7F4000EF86E0800F550250AD8A4B3EF2C
:107B60003DF0B5EF3DF0C5EF3EF07FC5D9F480C5DF
:107B7000DAF4DE2A000EDD22000E0601596F000E37
:107B8000586F58C65AF659C65BF67FC5D9F480C5FA
:107B9000DAF4DEC4F6F4DDC4F7F4000EF86E080083
:107BA000F550730AD8B4D7EF3DF0D9EF3DF0F6EFBA
:107BB0003DF07FC5D9F480C5DAF4DEC460F5DDC4DC
:107BC00061F5AA0E0501626F400E636F000E656FCE
:107BD000030E646FC0EC5EF0050160516111D8A422
:107BE000F4EF3DF0F6EF3DF061EF3EF07FC5D9F4E4
:107BF00080C5DAF4DEC4F6F4DDC4F7F4000EF86EE6
:107C00000800F550730AD8B408EF3EF00AEF3EF0D2
:107C100011EF3EF0000E05018B6F030E8A6F16EF19
:107C20003EF0000E05018B6F010E8A6F7FC5D9F4FF
:107C300080C5DAF48A51DE268B51DD2206015A51C5
:107C40005B11D8A426EF3EF028EF3EF04CEF3EF05B
:107C500081C5D9F482C5DAF4DFC483F5020EDE26CD
:107C6000DFC484F5000EDD2283C5D9F484C5DAF4BF
:107C7000DEC486F5DDC487F57DC571F57EC572F578
:107C800086C573F587C574F5AAEC58F071C588F5FB
:107C900072C589F55BEF3EF07DC571F57EC572F565
:107CA000000E0501736F000E746FAAEC58F071C5D9
:107CB00088F572C589F588C57DF589C57EF5CCEF57
:107CC0003FF07FC5D9F480C5DAF4DEC4F6F4DDC434
:107CD000F7F4000EF86E0800F550250AD8A473EFEB
:107CE0003EF075EF3EF0BCEF3EF07DC56BF57EC516
:107CF0006CF5E0EC67F07DC562F57EC563F583EC5D
:107D00005AF062C58CF563C58DF5250E05018C19F9
:107D10008D11D8A48EEF3EF090EF3EF0A1EF3EF033
:107D20007FC5D9F480C5DAF4DE2A000EDD22060113
:107D3000544B552B000E05017E6F000E7D6FCCEF6E
:107D40003FF08C2908E18D29D8B4A9EF3EF0ABEFC4
:107D50003EF0B5EF3EF08CC560F58DC561F57DC593
:107D600062F57EC563F529EC64F0FF0E05017E6FB8
:107D7000FE0E7D6FCCEF3FF07FC5D9F480C5DAF4FD
:107D8000DE2A000EDD229AEF3EF07DC562F57EC54B
:107D900063F583EC5AF062C58CF563C58DF5200E52
:107DA00005018C198D11D8B4D8EF3EF0DAEF3EF012
:107DB000EBEF3EF0F70E8C25836FFF0E8D21846F65
:107DC000845107E1050E835DD8B0E9EF3EF0EBEF9B
:107DD0003EF096EF3FF07FC5D9F480C5DAF4DEC4FB
:107DE000F6F4DDC4F7F4000EF86E0800F550200A32
:107DF000D8B4FDEF3EF0FFEF3EF01DEF3FF07FC542
:107E0000D9F480C5DAF4DEC4F6F4DDC4F7F4000E6C
:107E1000F86E0800F5C483F5F70E8325846F856B33
:107E2000FF0E8523855107E1050E845DD8B01BEF59
:107E30003FF01DEF3FF096EF3FF07FC5D9F480C5CE
:107E4000DAF4DE2A000EDD227FC5D9F480C5DAF42B
:107E5000DEC4F6F4DDC4F7F4000EF86E0800F55049
:107E6000200AD8B436EF3FF038EF3FF01DEF3FF077
:107E70007FC5D9F480C5DAF4DEC4F6F4DDC4F7F4C6
:107E8000000EF86E0800F5C483F5F70E0501832592
:107E9000846F856BFF0E8523855109E1050E845D96
:107EA000D8A055EF3FF057EF3FF01DEF3FF0060130
:107EB000544B552B7DC562F57EC563F583EC5AF0B6
:107EC00062C58CF563C58DF5200E05018C198D11E9
:107ED000D8B46DEF3FF06FEF3FF057EF3FF0F70E84
:107EE0008C25836FFF0E8D21846F845109E1050E6F
:107EF000835DD8A07EEF3FF080EF3FF057EF3FF07B
:107F00008C2908E18D29D8B488EF3FF08AEF3FF043
:107F10009AEF3EF08CC560F58DC561F57DC562F5C3
:107F20007EC563F529EC64F09AEF3EF07FC5D9F485
:107F300080C5DAF4DEC4F6F4DDC4F7F4000EF86EA2
:107F40000800F550836F846B8C51831907E18D51C4
:107F50008419D8A4AEEF3FF0B0EF3FF0B2EF3FF09E
:107F600090EF3EF08C2906E18D29D8A4BAEF3FF0BE
:107F7000BCEF3FF0C0EF3FF07D697E69CCEF3FF092
:107F80008CC560F58DC561F57DC562F57EC563F56F
:107F900029EC64F0B5EF3EF01200050120EE2CF163
:107FA000D851D926D951DA22DF50D8B4DAEF3FF0D0
:107FB000DCEF3FF0EBEF41F020EE1EF1D851D92677
:107FC000D951DA22DEC4DAF5DDC4DBF5DAA7EBEF4E
:107FD0003FF0EDEF3FF0EFEF3FF0EBEF41F020EE41
:107FE0001EF1D851D926D951DA22DEC4DAF5DDC422
:107FF000DBF5DAA1FEEF3FF000EF40F0D4EF41F007
:1080000020EE1EF1D851D926D951DA22DEC4DAF594
:10801000DDC4DBF5DAA30FEF40F011EF40F06DEFB8
:1080200040F020EE20F1D851D926D951DA22DEC411
:10803000DAF5DEC4DBF5DEC4DCF5DEC4DDF520EE0A
:108040001AF1D851D926D951DA22DEC4DEF5DEC4C0
:10805000DFF5DEC4E0F5DEC4E1F5DA51DE25E26FDE
:10806000DB51DF21E36FDC51E021E46FDD51E121E1
:10807000E56FE25106012E5D0501E35106012F591E
:108080000501E451060130590501E5510601315958
:10809000D8A04DEF40F04FEF40F0EBEF41F005017D
:1080A00020EE1EF1D851D926D951DA22FD0EDE1666
:1080B000FF0EDD1620EE82F1D851D926D951DA22F1
:1080C000DE2A000EDE22DE22DE22D8C560F5D9C50A
:1080D00061F558EC72F0EBEF41F020EE01F0D85171
:1080E000D926D951DA22DF50DA6FDA51230DF3C4E1
:1080F000DBF5F4C4DCF5DB51D825DD6FDC51D9218B
:10810000DE6F240EDD25D96E000EDE21DA6EDF5023
:10811000DF6FDF51080DF3C4E0F5F4C4E1F520EEA4
:1081200001F0D851D926D951DA22DF50E26FE2515D
:10813000230DF3C4E3F5F4C4E4F5E351D825E56F6A
:10814000E451D921E66FE051E525E76FE151E621E1
:10815000E86F030EE7257C6F000EE8217D6F080EA7
:108160007E6F20EE24F1D851D926D951DA2202D8D7
:10817000C4EF40F00500FA6EDE50FD6EDE50FE6E7C
:10818000DE50FF6EFA5012000009D8A4CAEF40F08A
:10819000CCEF40F0D8EF40F0050120EE8EF1D85141
:1081A000D926D951DA22DE2A000EDE22DE22DE2294
:1081B000050120EE1EF1D851D926D951DA22000E40
:1081C000DB8220EE01F0D851D926D951DA22DF50D6
:1081D000DA6FDA51230DF3C4DBF5F4C4DCF5DB51BF
:1081E000D825DD6FDC51D921DE6F240EDD25D96E57
:1081F000000EDE21DA6E10EE01F0D851E126D951E1
:10820000E222E750DF6FDF51230DF3C4E0F5F4C441
:10821000E1F5E051D825E26FE151D921E36F240E59
:10822000E225E16E000EE321E26EE750E46F010EFD
:10823000E425606F616B000E612310EE01F0D851F0
:10824000E126D951E222E750E56FE551230DF3C451
:10825000E6F5F4C4E7F5E651D825E86FE751D921F2
:10826000E96F230EE825E16E000EE921E26EE7508A
:10827000EA6FEA51626F636B85EC64F0050160514F
:10828000DF6ED8C560F5D9C561F558EC72F005010F
:1082900020EE1EF1D851D926D951DA22DEC4DAF502
:1082A000DDC4DBF5DAA557EF41F059EF41F0EBEF14
:1082B00041F020EE1EF1D851D926D951DA22FB0E19
:1082C000DE16FF0EDD16D8C5BFF5D9C5C0F502EC28
:1082D00044F00501EB6F20EE01F0D851D926D951B9
:1082E000DA22DF50DA6FDA51230DF3C4DBF5F4C480
:1082F000DCF5DB51D825DD6FDC51D921DE6F240E92
:10830000DD25D96E000EDE21DA6EDF50D8A48BEFAA
:1083100041F08DEF41F0AFEF41F020EE01F0D85188
:10832000D926D951DA2210EE01F0D851E126D951DF
:10833000E222E750DA6F010EDA25606F616B000E02
:108340006123D8C5E1F4D9C5E2F4E750DB6FDB5116
:10835000626F636B85EC64F005016051DF6E020EA5
:10836000EB19D8A4B6EF41F0B8EF41F0BAEF41F005
:10837000EBEF41F0EB05D8B4C0EF41F0C2EF41F0B4
:10838000CAEF41F0EB51D8A4C8EF41F0CAEF41F079
:10839000EBEF41F020EE92F1D851D926D951DA22F3
:1083A000EBC5DFF4EBEF41F0D8C578F5D9C579F529
:1083B00014EC2FF0E806D8A4E0EF41F0E2EF41F032
:1083C000EBEF41F0050120EE1EF1D851D926D9512D
:1083D000DA22000EDB80120005017151800B7A6FEA
:1083E00071517125806F70AFF8EF41F0FAEF41F0F5
:1083F000FBEF41F080818051D8B401EF42F003EFF0
:1084000042F016EF42F08029D8A409EF42F00BEFBA
:1084100042F013EF42F0000E6E6F000E6F6F000E11
:10842000706F000E716F708F1EEF42F0000E6E6F56
:10843000000E6F6F000E706F000E716F7551800B24
:108440007A1B755175257F6F74AF29EF42F02BEFC2
:1084500042F02CEF42F07F817F51D8B432EF42F0EE
:1084600034EF42F047EF42F07F29D8A43AEF42F0D0
:108470003CEF42F044EF42F0000E726F000E736F5B
:10848000000E746F000E756F748F4FEF42F0000E88
:10849000726F000E736F000E746F000E756F7F5158
:1084A000D8B455EF42F057EF42F05FEF42F0805101
:1084B000D8A45DEF42F05FEF42F069EF42F0000EAA
:1084C0006E6F000E6F6F000E706F000E716F01EF18
:1084D00044F074516E03F3C485F5F4C486F58551F8
:1084E0007B6F7C6B7D6B7E6B8651816F826B836B48
:1084F000846B73516F03F3C485F5F4C486F585511D
:108500007B27000E7C237D237E2386518127000E4E
:1085100082238323842372517003F3C485F5F4C44A
:1085200086F585517B27000E7C237D237E23865193
:108530008127000E8223832384237DC57EF57CC59D
:108540007DF57BC57CF57B6B72516F03F3C485F5BC
:10855000F4C486F585517B2786517C23000E7D234C
:10856000000E7E2373516E03F3C485F5F4C486F5C3
:1085700085517B2786517C23000E7D23000E7E23B0
:108580007DC57EF57CC57DF57BC57CF57B6B725129
:108590006E03F3C485F5F4C486F585517B278651B7
:1085A0007C23000E7D23000E7E2374516F03F3C4E1
:1085B00085F5F4C486F58551812786518223000E06
:1085C0008323000E842373517003F3C485F5F4C430
:1085D00086F58551812786518223000E8323000E64
:1085E000842374517003F3C485F5F4C486F5855172
:1085F000766F8651776F786B796B78C579F577C52B
:1086000078F576C577F5766B765181277751822399
:1086100078518323795184237BC576F57CC577F522
:108620007DC578F57EC579F5190E1CEF43F0D8901D
:108630007933783377337633E82E17EF43F076517A
:1086400081277751822378518323795184237DC5F3
:108650007EF57CC57DF57BC57CF57B6B7F5180C548
:1086600076F5776B7627000E7723820E7625856F59
:10867000FF0E7721866F52EF43F0D8908137823713
:10868000833784377EAF47EF43F049EF43F04AEF3B
:1086900043F08181D8907B377C377D377E378507E3
:1086A000D8A0860783AF57EF43F059EF43F03DEF73
:1086B00043F0000E7F6F7EAF60EF43F062EF43F058
:1086C00086EF43F0FF0E7B15766FFF0E7C15776FFC
:1086D000FF0E7D15786F7F0E7E15796F76517711BD
:1086E00078117911D8B477EF43F079EF43F07DEF4B
:1086F00043F0010E7F6F86EF43F081A182EF43F0DC
:1087000084EF43F086EF43F079EF43F07F51D8B424
:108710008CEF43F08EEF43F0B2EF43F0010E812770
:10872000000E82238323842384A199EF43F09BEFDF
:1087300043F0B2EF43F081C576F582C577F583C586
:1087400078F584C579F579357933783377337633AD
:1087500076C581F577C582F578C583F579C584F549
:10876000854B862B86BFBDEF43F0865108E18529F6
:10877000D8A0BDEF43F0BFEF43F0C9EF43F0000EC8
:10878000816F000E826F800E836F7F0E846FF7EF14
:1087900043F086BFD6EF43F0865106E18505D8B099
:1087A000D4EF43F0D6EF43F0E2EF43F0000E816FD9
:1087B000000E826F000E836F000E846F000E7A6FC2
:1087C000F7EF43F085C580F5FF0E8117FF0E821786
:1087D0007F0E8317000E841780A1F1EF43F0F3EFB3
:1087E00043F0F4EF43F0838FD8908031846F7A5157
:1087F000841381C56EF582C56FF583C570F584C598
:1088000071F51200000E0501D66FBFC560F5C0C539
:1088100061F558EC72F0050120EE5FF1BF51D926E9
:10882000C051DA22DF50C00FCD6FD62B000ED76FAC
:10883000F8EF45F0D751020DF3C4C1F5F4C4C2F509
:10884000C151BF25C36FC251C021C46F2D0EC325B6
:10885000D96E010EC421DA6E10EE02F0DE50E12670
:10886000DD50E222CD51E618D8A439EF44F03BEFB9
:1088700044F0F7EF45F0D751020DF3C4C1F5F4C44D
:10888000C2F5C151BF25C36FC251C021C46F2D0EA7
:10889000C325D96E010EC421DA6E10EE03F0DE504E
:1088A000E126DD50E222E6C460F5E5C461F5D7516A
:1088B000020DF3C4C5F5F4C4C6F5C551BF25C76F95
:1088C000C651C021C86F2D0EC725D96E010EC82113
:1088D000DA6E10EE02F0DE50E126DD50E222E750C3
:1088E0002CEC4BF00009D8B478EF44F07AEF44F068
:1088F000F4EF45F0000E0501D56F000ED46FD7518F
:10890000020DF3C4C1F5F4C4C2F5C151BF25C36F54
:10891000C251C021C46F2D0EC325D96E010EC421D2
:10892000DA6E10EE03F0DE50E126DD50E222E6C4FE
:1089300060F5E5C461F5CDEC72F00501D26FD205AA
:10894000D8A4A5EF44F0A7EF44F0BBEF44F0D65114
:10895000BF25C16F000EC021C26F5F0EC125D96E49
:10896000010EC221DA6EDF50C36FC351D46FD56BD5
:10897000D62BEBEF44F0020ED219D8A4C2EF44F08C
:10898000C4EF44F0EBEF44F0D651BF25C16F000EA9
:10899000C021C26F5F0EC125D96E010EC221DA6EF1
:1089A000DF50C36FC351D46FD56BD62BD651BF25C3
:1089B000C16F000EC021C26F5F0EC125D96E010EBE
:1089C000C221DA6EDF50C36FD451C46FC351D46F6C
:1089D000C4C5D5F5D62BD751020DF3C4C1F5F4C4E7
:1089E000C2F5C151BF25C36FC251C021C46F2D0E46
:1089F000C325D96E010EC421DA6E10EE03F0DE50ED
:108A0000E126DD50E222D451E61807E1D551E618FF
:108A1000D8A40DEF45F00FEF45F0F1EF45F0000E53
:108A2000CE6F000ECF6F000ED06F000ED16F000E14
:108A3000D36F31EF45F0D651BF25C16F000EC02175
:108A4000C26F5F0EC125D96E010EC221DA6ECE0E45
:108A5000D325E16EE26A050EE222DFC4E7F4D62BED
:108A6000D32BD751020DF3C4C1F5F4C4C2F5C151E3
:108A7000BF25C36FC251C021C46F2D0EC325D96E4F
:108A8000010EC421DA6E10EE03F0DE50E126DD5057
:108A9000E222E6C460F5E5C461F5D751020DF3C4E6
:108AA000C5F5F4C4C6F5C551BF25C76FC651C02171
:108AB000C86F2D0EC725D96E010EC821DA6E10EED3
:108AC00002F0DE50E126DD50E222E7502CEC4BF0C4
:108AD0000501C96FC951D35DD8A071EF45F073EF9F
:108AE00045F01BEF45F0D751020DF3C4C1F5F4C4B6
:108AF000C2F5C151BF25C36FC251C021C46F2D0E35
:108B0000C325D96E010EC421DA6E10EE03F0DE50DB
:108B1000E126DD50E222E6C4B0F5E5C4B1F5CE0EA3
:108B2000B26F050EB36FD751020DF3C4C5F5F4C48F
:108B3000C6F5C551BF25C76FC651C021C86F2D0EE0
:108B4000C725D96E010EC821DA6E10EE02F0DE5094
:108B5000E126DD50E222E75065EC20F00501D75117
:108B6000020DF3C4C9F5F4C4CAF5C951BF25CB6FD2
:108B7000CA51C021CC6F2D0ECB25D96E010ECC2150
:108B8000DA6E10EE07F0DE50E126DD50E222B0C5CD
:108B9000E6F4B1C5E6F4B2C5E6F4B3C5E6F4D751E0
:108BA000020DF3C4C1F5F4C4C2F5C151BF25C36FB2
:108BB000C251C021C46F2D0EC325D96E010EC42130
:108BC000DA6E10EE0BF0DE50E126DD50E2222EC60A
:108BD000E6F42FC6E6F430C6E6F431C6E6F4F7EF65
:108BE00045F0010E0EEF46F0000E0EEF46F0D72BCB
:108BF00020EE2CF1BF51D926C051DA22DE50D75DCC
:108C0000D8A005EF46F007EF46F01AEF44F0BFC5D5
:108C100060F5C0C561F558EC72F0020E1200050156
:108C20009A51800BA76F9A519A25AE6F99AF1BEF9F
:108C300046F01DEF46F01EEF46F0AE81AE51D8B4BF
:108C400024EF46F026EF46F03BEF46F0AE29D8A4DD
:108C50002CEF46F02EEF46F036EF46F0000E976F01
:108C6000000E986F000E996F000E9A6F998F000E8C
:108C70009A6F43EF46F0000E976F000E986F000E4C
:108C8000996F000E9A6F9E51800BA71B9E519E25D7
:108C9000AF6F9DAF4EEF46F050EF46F051EF46F00C
:108CA000AF81AF51D8B457EF46F059EF46F06EEFB1
:108CB00046F0AF29D8A45FEF46F061EF46F069EFC8
:108CC00046F0000E9B6F000E9C6F000E9D6F000E15
:108CD0009E6F9D8F000E9E6F76EF46F0000E9B6F8D
:108CE000000E9C6F000E9D6F000E9E6F9B519C119D
:108CF0009D119E11D8A47FEF46F081EF46F099EFC9
:108D000046F0000E976F000E986F000E996F000EE0
:108D10009A6F800E99137F0E9A13A7519A1397C5D5
:108D200097F598C598F599C599F59AC59AF5DCEF28
:108D300047F0AE51D8A49FEF46F0A1EF46F0ABEF5D
:108D400046F0000E976F000E986F000E996F000EA0
:108D50009A6FDCEF47F0AF51AEC59FF5A06B9F5FF8
:108D6000000EA05B7F0E9F25A86F000EA021A96FAB
:108D700097C5A3F598C5A4F599C5A5F59AC5A6F517
:108D8000000E976F000E986F000E996F000E9A6F8D
:108D9000000EAA6F000EAB6F000EAC6F000EAD6F31
:108DA000000EAF6F0CEF47F0AF51D8B4DAEF46F0DA
:108DB000DCEF46F0F3EF46F0D890A337A437A537A1
:108DC000A637D8909737983799379A37ADAFEBEFEA
:108DD00046F0EDEF46F0EEEF46F09781D890AA37D7
:108DE000AB37AC37AD379B51A35D9C51A4599D5116
:108DF000A5599E51A659D8A000EF47F002EF47F0C1
:108E00000BEF47F0AD8D9B51A35F9C51A45B9D512F
:108E1000A55B9E51A65BAF2B190EAF6512EF47F015
:108E200014EF47F0D4EF46F0A351A411A511A611F9
:108E3000D8B41DEF47F01FEF47F037EF47F0AA8196
:108E400037EF47F0D8909737983799379A37ADAFC3
:108E50002CEF47F02EEF47F02FEF47F09781D89097
:108E6000AA37AB37AC37AD37A807D8A0A90799AF59
:108E70003CEF47F03EEF47F022EF47F0000EAF6FB8
:108E8000ADAF45EF47F047EF47F06BEF47F0FF0E10
:108E9000AA159F6FFF0EAB15A06FFF0EAC15A16F4B
:108EA0007F0EAD15A26F9F51A011A111A211D8B4D0
:108EB0005CEF47F05EEF47F062EF47F0010EAF6FF7
:108EC0006BEF47F097A167EF47F069EF47F06BEF63
:108ED00047F05EEF47F0AF51D8B471EF47F073EF52
:108EE00047F097EF47F0010E9727000E982399233C
:108EF0009A239AA17EEF47F080EF47F097EF47F073
:108F000097C59FF598C5A0F599C5A1F59AC5A2F595
:108F1000A235A233A133A0339F339FC597F5A0C5D7
:108F200098F5A1C599F5A2C59AF5A84BA92BA9BF9B
:108F3000A2EF47F0A95108E1A829D8A0A2EF47F075
:108F4000A4EF47F0AFEF47F0000EA96FA869000E3D
:108F5000976F000E986F000E996F000E9A6FA9BF61
:108F6000BCEF47F0A95106E1A805D8B0BAEF47F029
:108F7000BCEF47F0CAEF47F0000EA96F000EA86FD4
:108F8000000E976F000E986F000E996F000E9A6F8B
:108F9000000EA76FA8C5AEF5AEA1D1EF47F0D3EF95
:108FA00047F0D6EF47F0998FD7EF47F0999FD890C9
:108FB000AE319A6F8DEF46F01200C60E05019A6F22
:108FC000400E9B6F640E9C6F070E9D6F87EC71F0D7
:108FD0004350D8B4EEEF47F0F0EF47F02BEF49F0F5
:108FE000000E0501C76F070EC86F000ECA6F320E64
:108FF000C96FAE0ECB6F400ECC6FA0EC5BF0C7C557
:1090000060F6C8C561F66BEF48F0320E666F070E6A
:10901000676F54EC52F0050166C56FF567C570F5D2
:10902000000E70BFFF0E716F726F8CEC6EF055EF1B
:1090300049F0320E666F070E676F54EC52F005016F
:1090400066C56FF567C570F5000E70BFFF0E716FD6
:10905000726FA7EC6EF055EF49F0320E666F070E97
:10906000676F54EC52F005016651426E4250D8A42D
:109070003CEF48F03FEF48F0010E40EF48F0000EA3
:10908000426E55EF49F0000EC76F070EC86F000E15
:10909000CA6F320EC96F780ECB6F400ECC6FA0EC4A
:1090A0005BF0C7C560F6C8C561F655EF49F0000E24
:1090B000C76F070EC86F000ECA6F320EC96F8B0ED6
:1090C000CB6F400ECC6FA0EC5BF0C7C560F6C8C597
:1090D00061F655EF49F0640E0501666F070E676F84
:1090E000DEEC64F005016751000AD8B47AEF48F06D
:1090F00057EF48F06651010AD8B405EF48F0030A6B
:10910000D8B419EF48F0010AD8B42DEF48F0070A97
:10911000D8B443EF48F0010AD8B455EF49F0020A39
:10912000D8B455EF49F057EF48F0000EC76F070E5F
:10913000C86F000ECA6F320EC96FB20ECB6F400EF1
:10914000CC6F55EC73F060C5CDF561C5CEF5A0ECE4
:109150005BF0C7C560F6C8C561F655EF49F0000E73
:10916000C76F070EC86F000ECA6F320EC96FB20EFE
:10917000CB6F400ECC6F5EEC73F060C5CDF561C572
:10918000CEF5A0EC5BF0C7C560F6C8C561F655EF3B
:1091900049F0000EC76F070EC86F000ECA6F320E7F
:1091A000C96FB20ECB6F400ECC6F97EC74F0050117
:1091B000E56FE551CD6FCE6BA0EC5BF0C7C560F6F7
:1091C000C8C561F655EF49F0000EC76F070EC86FAE
:1091D000000ECA6F320EC96FB20ECB6F400ECC6F4D
:1091E00042C5CDF5CE6BA0EC5BF0C7C560F6C8C537
:1091F00061F655EF49F0000EC76F070EC86F000EFD
:10920000CA6F320EC96F920ECB6F400ECC6F140E28
:10921000CD6F390ECE6FE00ECF6F0C0ED06FA0EC7D
:109220005BF0C7C560F6C8C561F655EF49F0000EA2
:10923000C76F070EC86F000ECA6F320EC96F8B0E54
:10924000CB6F400ECC6FA0EC5BF0C7C560F6C8C515
:1092500061F655EF49F0640E0501666F070E676F02
:10926000DEEC64F005016751000AD8B43AEF49F02A
:1092700017EF49F06651010AD8B495EF48F0030A98
:10928000D8B4AFEF48F0010AD8B4E4EF48F0070AC9
:10929000D8B4FBEF48F0020AD8B4C9EF48F0010A8D
:1092A000D8B455EF49F017EF49F0000E0501616F92
:1092B000070E626F60C663F561C664F56EEC69F017
:1092C000640E0501606F070E616F000E636F000E84
:1092D000626F000E656F320E646F86EC56F0000E02
:1092E00006016E6F320E0501606F070E616F000E92
:1092F000636F000E626F000E656F320E646F86EC56
:1093000056F0000E06016D6F000E0501606F070E2E
:10931000616F000E636F000E626F000E656F320E9C
:10932000646F86EC56F0000E0601616F000E606FF0
:10933000000E436E120084C5D9F485C5DAF4DF50FF
:109340000501866FF00E8617D8A4A9EF49F0ABEFA0
:1093500049F0F4EF49F080C56CF581C56DF563EC1B
:109360006FF084C5D9F485C5DAF4DF500F0B050121
:10937000866F876B20EE7FF18051D9268151DA22EA
:1093800086C5DEF487C5DDF420EE7FF18051D92655
:109390008151DA22DE06000EDD5A020E8A6F20EEBF
:1093A00001F08451D9268551DA2210EE81F18051E5
:1093B000E1268151E222E750866F86518025876F32
:1093C000000E8121886F5F0E8725E16E010E8821D6
:1093D000E26EDFC4E7F420EE81F18051D92681519D
:1093E000DA22DF2A7EEF4AF084C5D9F485C5DAF4A3
:1093F000DF50F00B100AD8A400EF4AF002EF4AF059
:109400005AEF4AF080C56CF581C56DF563EC6FF0DD
:1094100084C5D9F485C5DAF4DF500501866F0F0ED7
:1094200086178651886F876B20EE01F08451D9260C
:109430008551DA22DF50896F89518713000E881316
:1094400020EE7FF18051D9268151DA2287C5DEF4E2
:1094500088C5DDF420EE7FF18051D9268151DA22D2
:10946000DE06000EDD5A030E8A6F20EE02F08451F4
:10947000D9268551DA2210EE81F18051E126815101
:10948000E222E750866F86518025876F000E81218A
:10949000886F5F0E8725E16E010E8821E26EDFC4C2
:1094A000E7F420EE81F18051D9268151DA22DF2ABA
:1094B0007EEF4AF084C5D9F485C5DAF4DF50F00BAD
:1094C000200AD8A466EF4AF068EF4AF06CEF4AF041
:1094D000010E8A6F7EEF4AF084C5D9F485C5DAF4AF
:1094E000DF50F00B300AD8A478EF4AF07AEF4AF058
:1094F0002BEF4BF068EF4AF02BEF4BF08AC58BF562
:10950000070E8B6586EF4AF088EF4AF08AEF4AF043
:10951000CEEF4AF020EE7FF18051D9268151DA2238
:10952000010EDBBE9DEF4AF0010EDB5008E1DE04C8
:10953000D8A09DEF4AF09FEF4AF0CBEF4AF08B5155
:109540008425D96E000E8521DA6E10EE81F18051EE
:10955000E1268151E222E750866F86518025876F90
:10956000000E8121886F5F0E8725E16E010E882134
:10957000E26EDFC4E7F420EE81F18051D9268151FB
:10958000DA22DF2A20EE7FF18051D9268151DA22BA
:10959000DE06000EDD5A8B2B80EF4AF020EE7FF1C5
:1095A0008051D9268151DA22010EDBBEE1EF4AF06B
:1095B000010EDB5008E1DE04D8A0E1EF4AF0E3EF52
:1095C0004AF004EF4BF0EE0E7C6F070E7D6F080E35
:1095D0007E6F20EE24F18051D9268151DA2202D803
:1095E000FCEF4AF00500FA6EDE50FD6EDE50FE6EB6
:1095F000DE50FF6EFA50120080C560F581C561F53E
:1096000058EC72F02BEF4BF020EE7FF18051D92611
:109610008151DA22010EDBBE19EF4BF0010EDB5057
:1096200006E1DE04D8B017EF4BF019EF4BF07CEFFA
:109630004AF020EE1EF18051D9268151DA22FD0E2A
:10964000DE16FF0EDD1620EE1EF18051D926815167
:10965000DA22000EDB8412000501646F9BEF4CF0F0
:10966000010EB9EF4CF0020EB9EF4CF0040EB9EF59
:109670004CF0000EB9EF4CF060C562F561C563F5C2
:109680006351000AD8B447EF4BF039EF4BF0625109
:10969000040AD8B430EF4BF0010AD8B430EF4BF0E5
:1096A000030AD8B430EF4BF0010AD8B430EF4BF0D6
:1096B0000F0AD8B430EF4BF0010AD8B430EF4BF0BA
:1096C000030AD8B430EF4BF0010AD8B430EF4BF0B6
:1096D000070AD8B433EF4BF0010AD8B430EF4BF09F
:1096E000030AD8B430EF4BF0010AD8B430EF4BF096
:1096F0001F0AD8B430EF4BF0010AD8B430EF4BF06A
:10970000040AD8B433EF4BF0370AD8B433EF4BF038
:10971000110AD8B430EF4BF0070AD8B436EF4BF04B
:109720006E0AD8B430EF4BF0060AD8B430EF4BF0E5
:10973000330AD8B430EF4BF039EF4BF060C562F527
:1097400061C563F56351030AD8B4C1EF4BF0070A52
:10975000D8B4E0EF4BF0010AD8B4E7EF4BF02D0A94
:10976000D8B4EEEF4BF0030AD8B4F5EF4BF06B0A28
:10977000D8B400EF4CF0B40AD8B407EF4CF039EF8E
:109780004BF06251010AD8B433EF4BF0060AD8B45B
:1097900033EF4BF0110AD8B433EF4BF0010AD8B4D1
:1097A00033EF4BF0DD0AD8B430EF4BF0220AD8B4D7
:1097B00033EF4BF0040AD8B433EF4BF039EF4BF0F2
:1097C0006251610AD8B433EF4BF039EF4BF062517C
:1097D0007D0AD8B430EF4BF039EF4BF06251130AE9
:1097E000D8B433EF4BF039EF4BF062510C0AD8B4D8
:1097F00033EF4BF01D0AD8B433EF4BF039EF4BF099
:109800006251280AD8B430EF4BF039EF4BF0625177
:10981000040AD8B430EF4BF00B0AD8B430EF4BF059
:1098200039EF4BF060C562F561C563F56351010A1C
:10983000D8B435EF4CF0020AD8B43CEF4CF00B0A28
:10984000D8B457EF4CF0040AD8B462EF4CF01E0ABB
:10985000D8B469EF4CF0040AD8B470EF4CF00E0A9B
:10986000D8B477EF4CF039EF4BF06251C80AD8B456
:1098700039EF4BF039EF4BF06251010AD8B439EFB0
:109880004BF0030AD8B439EF4BF0010AD8B439EFE2
:109890004BF0070AD8B439EF4BF0010AD8B439EFCE
:1098A0004BF0030AD8B439EF4BF039EF4BF062516B
:1098B000020AD8B439EF4BF0010AD8B439EF4BF0B3
:1098C00039EF4BF06251820AD8B439EF4BF039EFDF
:1098D0004BF06251600AD8B439EF4BF039EF4BF0DE
:1098E0006251020AD8B439EF4BF039EF4BF06251B4
:1098F000020AD8B439EF4BF039EF4BF060C562F58E
:1099000061C563F56351000AD8B48DEF4CF0030ACA
:10991000D8B494EF4CF039EF4BF062516F0AD8B4E1
:1099200039EF4BF039EF4BF06251020AD8B439EFFE
:109930004BF039EF4BF005016451626F636B63517B
:10994000000AD8B4A6EF4CF039EF4BF06251010A8F
:10995000D8B43CEF4BF0230AD8B49EEF4BF0E30AA7
:10996000D8B47EEF4CF01F0AD8B412EF4CF039EFA8
:109970004BF012007DC593F57EC594F57FC595F536
:1099800080C596F581C597F582C598F583C599F58B
:1099900084C59AF505019ABFD0EF4CF0D3EF4CF097
:1099A000010ED4EF4CF0000E9B6F9B51D8B4DBEF4F
:1099B0004CF0DDEF4CF0EDEF4CF09A1F991F981F23
:1099C000971F961F951F941F936D000E9423952348
:1099D00096239723982399239A233BBEF2EF4CF0CA
:1099E000F4EF4CF0F5EF4CF03F923BBE02EF4DF040
:1099F0003B5006E13A04D8B000EF4DF002EF4DF0D5
:109A000008EF4DF0000E906F010E8F6F0CEF4DF0D0
:109A10003AC58FF53BC590F538C591F539C592F536
:109A20009B51D8B416EF4DF018EF4DF02FEF4DF0DD
:109A30009107D8A092079B51D8A421EF4DF023EFB6
:109A40004DF029EF4DF0000E8E6F2B0E8D6F2DEF28
:109A50004DF0000E8E6F2D0E8D6F8DC59BF5000E97
:109A60009D6F1F0E9C6F000E0701E56FB5EF4DF067
:109A70009C07D8A09D07C60E9C25D96E070E9D2178
:109A8000DA6E93C560F594C561F595C562F596C526
:109A900063F597C564F598C565F599C566F59AC5EA
:109AA00067F50A0E686F000E696F000E6A6F000E90
:109AB0006B6F000E6C6F000E6D6F000E6E6F000E00
:109AC0006F6FF7EC57F060C585F561C586F562C527
