:040000000DEF00F010
:0400080063EFC2F0F0
:10001800FF004DEFD7F07DC508F77EC509F77FC50E
:100028000AF780C50BF7010E1200190E0101046FC3
:10003800190E056F640E066F000E076F1200B69852
:10004800FAC601F5FBC602F5DCECF1F05AECF0F06B
:100058001200056E000E026E070E016E05C503F54F
:10006800E7ECEAF01200056E000E026E060E016E55
:1000780005C503F5E7ECEAF012002EC660F52FC6B9
:1000880061F530C662F531C663F512002AC660F51F
:100098002BC661F52CC662F52DC663F5120036C66F
:1000A80060F537C661F538C662F539C663F51200E2
:1000B80064C52AF665C52BF666C52CF667C52DF608
:1000C80012002AC601F52BC602F52CC603F52DC66B
:1000D80004F5120003010351016E0451026E05512B
:1000E800036E046A120036C601F537C602F538C633
:1000F80003F539C604F51200000E026E070E016EF4
:1001080014ECF7F0036E03501200000E026E060E98
:10011800016E14ECF7F0036E0350120001C52AF6C5
:1001280002C52BF603C52CF604C52DF612006AC5C8
:1001380075F66BC576F6010E06017F6F1200010E8B
:1001480006013627000E3723382339231200010E03
:1001580006013227000E332334233523120005010C
:1001680061510301DC6F60C5DBF3120060C5AFF7B6
:1001780061C5B0F762C5B1F7120060C59DF761C5EA
:100188009EF762C59FF7120060C5A0F761C5A1F789
:1001980062C5A2F7120060C59AF761C59BF762C5F0
:1001A8009CF7120060C5ACF761C5ADF762C5AEF744
:1001B800120060C594F761C595F762C596F71200FD
:1001C80060C597F761C598F762C599F7120060C5D1
:1001D80091F761C592F762C593F7120060C582F77F
:1001E80061C583F762C584F7120060C585F761C5EC
:1001F80086F762C587F7120060C588F761C589F779
:1002080062C58AF7120060C58BF761C58CF762C5B5
:100218008DF7120060C58EF761C58FF762C590F73C
:10022800120060C57FF761C580F762C581F71200CB
:10023800550E0001B46FAA0EB46FB481120060C5E8
:10024800B2F761C5B3F762C5B4F7120060C5B5F778
:1002580061C5B6F762C5B7F7120060C5B8F761C5E2
:10026800B9F762C5BAF7120060C5BBF761C5BCF73C
:1002780062C5BDF7120060C5BEF761C5BFF762C5AC
:10028800C0F7120060C5F7F661C5F8F662C5F9F661
:10029800120060C5A6F761C5A7F762C5A8F71200E6
:1002A80060C5A3F761C5A4F762C5A5F7120060C5CC
:1002B800A9F761C5AAF762C5ABF7120060C510F7C8
:1002C80061C511F762C512F7120060C558F661C51D
:1002D80059F662C55AF6120060C552F661C553F662
:1002E80062C554F6120060C555F661C556F662C57A
:1002F80057F612000501606F60C531F5010E120056
:1003080060C5F1F661C5F2F612000501606F60C5BF
:10031800FBF3120001010239E832070B1200000E4C
:100328000001E86FFC8D1200A3EC00F0ABEC00F0CC
:10033800120001C5F1F602C5F2F612000501606966
:1003480061691200010E06017E6F1200016E01C57F
:1003580031F512000301F39B12000301308F1200E4
:1003680003012A91120003012A81120003010D8F53
:10037800120003010D9F1200B2ECF1F01200C7EC5D
:10038800F1F0120093EC01F012000301309F12000B
:1003980003012A911200010E1200010E12003150C1
:1003A8001200010E1200D69A1200010E12003150EE
:1003B8001200010E120012001200120012001200A8
:1003C8001200120012001200120012001200120095
:0A03D80012001200120012001200C1
:10FECA000000000000000000000000000000000028
:10FEDA000000000000000000000000000000000018
:10FEEA000000000000000000000000000000000008
:10FEFA0000000000000000000000000102030405E9
:10FF0A0006070800FC1F000000F80F00FCE0FF1FB6
:10FF1A0000E003FF03830002000050015B45727298
:10FF2A006F725D20257320697320696E76616C6932
:10FF3A006400257320697320526561642D4F6E6CCD
:10FF4A0079005348494654434F4C4F5200494C4C50
:10FF5A00554D4E4947485400494C4C554D4D4F4418
:10FF6A004500494C4C554D4441590043414E42418C
:10FF7A005544004241545445525900434F4E464954
:10FF8A00470043414E494400534E49464600464CB9
:10FF9A0041534800454556455200504F5745520077
:10FFAA004552524F5200534849465400424F4F530C
:10FFBA0054002530386C78005045414B00414E4979
:10FFCA004D004543484F00564F4C5400696E660039
:10FFDA006E616E006C6C730052504D0041435100CB
:10FFEA0041435400256C75004F4B0025640025667B
:05FFFA0000257300006A
:020000040001F9
:10000000FB0E05019A6FFF0E9B6F5C0E9C6F090E35
:100010009D6F1BECF2F03C50D8B411EF80F013EF61
:1000200080F06DEF87F0130E0601C36F070EC46FEB
:10003000000EC66F320EC56FF20EC76FFF0EC86F8F
:1000400038ECD2F0C3C671F6C4C672F60BEF84F07A
:10005000450E666F070E676F4BECC4F0050166C571
:100060006FF567C570F5000E70BFFF0E716F726F90
:10007000010E736FF0ECDEF00009D8A442EF80F0BF
:1000800044EF80F0DBEF87F0130E0601C36F070E1D
:10009000C46F000EC66F320EC56F260EC76FFF0EFF
:1000A000C86F450EC96F070ECA6F38ECD2F0C3C6D1
:1000B00071F6C4C672F6DBEF87F0450E666F070E69
:1000C000676F4BECC4F0050166C56FF567C570F549
:1000D000000E70BFFF0E716F726F010E736F3FECF9
:1000E000DFF00009D8A477EF80F079EF80F0DBEF44
:1000F00087F0130E0601C36F070EC46F000EC66FA4
:10010000320EC56F260EC76FFF0EC86F450EC96F42
:10011000070ECA6F38ECD2F0C3C671F6C4C672F6C9
:10012000DBEF87F0010E6F6F450E666F070E676F8E
:100130004BECC4F00501665139ECE4F00009D8A499
:10014000A4EF80F0A6EF80F0DBEF87F0130E06013E
:10015000C36F070EC46F000EC66F320EC56F260E3A
:10016000C76FFF0EC86F450EC96F070ECA6F38EC18
:10017000D2F0C3C671F6C4C672F6DBEF87F0010E8B
:100180006F6F450E666F070E676F4BECC4F005018D
:10019000665105ECE4F00009D8A4D1EF80F0D3EF6C
:1001A00080F0DBEF87F0130E0601C36F070EC46FFC
:1001B000000EC66F320EC56F260EC76FFF0EC86FDA
:1001C000450EC96F070ECA6F38ECD2F0C3C671F680
:1001D000C4C672F6DBEF87F0010E6F6F450E666FD7
:1001E000070E676F4BECC4F0050166519DECE3F020
:1001F0000009D8A4FEEF80F000EF81F0DBEF87F07C
:10020000130E0601C36F070EC46F000EC66F320EC9
:10021000C56F260EC76FFF0EC86F450EC96F070E5C
:10022000CA6F38ECD2F0C3C671F6C4C672F6DBEF03
:1002300087F0010E6F6F450E666F070E676F4BEC10
:10024000C4F00501665169ECE3F00009D8A42BEF76
:1002500081F02DEF81F0DBEF87F0130E0601C36F05
:10026000070EC46F000EC66F320EC56F260EC76F25
:10027000FF0EC86F450EC96F070ECA6F38ECD2F07B
:10028000C3C671F6C4C672F6DBEF87F0450E666F23
:10029000070E676F4BECC4F0050166517EEC01F070
:1002A0000009D8A456EF81F058EF81F0DBEF87F01A
:1002B000130E0601C36F070EC46F000EC66F320E19
:1002C000C56F260EC76FFF0EC86F450EC96F070EAC
:1002D000CA6F38ECD2F0C3C671F6C4C672F6DBEF53
:1002E00087F0010E6F6F450E666F070E676F4BEC60
:1002F000C4F005016651D1ECE3F00009D8A483EF06
:1003000081F085EF81F0DBEF87F0130E0601C36FFC
:10031000070EC46F000EC66F320EC56F260EC76F74
:10032000FF0EC86F450EC96F070ECA6F38ECD2F0CA
:10033000C3C671F6C4C672F6DBEF87F0130E060172
:10034000C36F070EC46F000EC66F320EC56F3C0E32
:10035000C76FFF0EC86F5C0EC96F090ECA6F38EC0D
:10036000D2F0C3C671F6C4C672F6DBEF87F0010E99
:100370006F6F450E666F070E676F4BECC4F005019B
:1003800066510DECE6F00009D8A4C9EF81F0CBEF7F
:1003900081F0DBEF87F0130E0601C36F070EC46F09
:1003A000000EC66F320EC56F260EC76FFF0EC86FE8
:1003B000450EC96F070ECA6F38ECD2F0C3C671F68E
:1003C000C4C672F6DBEF87F0450E916F070E926F91
:1003D000000E936F000E946F000E966F000E956FD7
:1003E000F1ECEEF091C597F592C598F593C599F5A6
:1003F00094C59AF5FF0E05019B6FFF0E9C6FFF0ED3
:100400009D6FFF0E9E6F1AECF1F0DBEF87F0010E8F
:100410006F6F450E666F070E676F4BECC4F00501FA
:100420006651D5ECE4F00009D8A419EF82F01BEF77
:1004300082F0DBEF87F0130E0601C36F070EC46F67
:10044000000EC66F320EC56F260EC76FFF0EC86F47
:10045000450EC96F070ECA6F38ECD2F0C3C671F6ED
:10046000C4C672F6DBEF87F0010E6F6F450E666F44
:10047000070E676F4BECC4F0050166513DECE5F0EB
:100480000009D8A446EF82F048EF82F0DBEF87F056
:10049000130E0601C36F070EC46F000EC66F320E37
:1004A000C56F260EC76FFF0EC86F450EC96F070ECA
:1004B000CA6F38ECD2F0C3C671F6C4C672F6DBEF71
:1004C00087F0130E0601C36F070EC46F000EC66FD0
:1004D000320EC56F3C0EC76FFF0EC86F5C0EC96F42
:1004E000090ECA6F38ECD2F0C3C671F6C4C672F6F4
:1004F000DBEF87F0010E6F6F450E666F070E676FBB
:100500004BECC4F0050166516DECE4F00009D8A491
:100510008CEF82F08EEF82F0DBEF87F0130E060196
:10052000C36F070EC46F000EC66F320EC56F260E66
:10053000C76FFF0EC86F450EC96F070ECA6F38EC44
:10054000D2F0C3C671F6C4C672F6DBEF87F0010EB7
:100550006F6F450E666F070E676F4BECC4F00501B9
:10056000665109ECE5F00009D8A4B9EF82F0BBEFC1
:1005700082F0DBEF87F0130E0601C36F070EC46F26
:10058000000EC66F320EC56F260EC76FFF0EC86F06
:10059000450EC96F070ECA6F38ECD2F0C3C671F6AC
:1005A000C4C672F6DBEF87F0010E6F6F450E666F03
:1005B000070E676F4BECC4F005016651A1ECE4F047
:1005C0000009D8A4E6EF82F0E8EF82F0DBEF87F0D5
:1005D000130E0601C36F070EC46F000EC66F320EF6
:1005E000C56F260EC76FFF0EC86F450EC96F070E89
:1005F000CA6F38ECD2F0C3C671F6C4C672F6DBEF30
:1006000087F0010E6F6F450E666F070E676F4BEC3C
:10061000C4F005016651D9ECE5F00009D8A413EF48
:1006200083F015EF83F0DBEF87F0130E0601C36F45
:10063000070EC46F000EC66F320EC56F260EC76F51
:10064000FF0EC86F450EC96F070ECA6F38ECD2F0A7
:10065000C3C671F6C4C672F6DBEF87F0450E666F4F
:10066000070E676F4BECC4F0050166C56FF567C5F3
:1006700070F5000E70BFFF0E716F726F010E2FECE0
:10068000C5F06FC57DF570C57EF571C57FF572C586
:1006900080F50FEC00F00009D8A451EF83F053EF80
:1006A00083F0DBEF87F0130E0601C36F070EC46FF4
:1006B000000EC66F320EC56F260EC76FFF0EC86FD5
:1006C000450EC96F070ECA6F38ECD2F0C3C671F67B
:1006D000C4C672F6DBEF87F0010E6F6F450E666FD2
:1006E000070E676F4BECC4F005016651A5ECE5F011
:1006F0000009D8A47EEF83F080EF83F0DBEF87F072
:10070000130E0601C36F070EC46F000EC66F320EC4
:10071000C56F260EC76FFF0EC86F450EC96F070E57
:10072000CA6F38ECD2F0C3C671F6C4C672F6DBEFFE
:1007300087F0010E6F6F450E666F070E676F4BEC0B
:10074000C4F00501665171ECE5F00009D8A4ABEFE7
:1007500083F0ADEF83F0DBEF87F0130E0601C36F7C
:10076000070EC46F000EC66F320EC56F260EC76F20
:10077000FF0EC86F450EC96F070ECA6F38ECD2F076
:10078000C3C671F6C4C672F6DBEF87F0450E666F1E
:10079000070E676F4BECC4F066C56FF567C570F563
:1007A000010E0501716F19ECE2F00009D8A4DBEF2E
:1007B00083F0DDEF83F0DBEF87F0130E0601C36FEC
:1007C000070EC46F000EC66F320EC56F260EC76FC0
:1007D000FF0EC86F450EC96F070ECA6F38ECD2F016
:1007E000C3C671F6C4C672F6DBEF87F0130E0601BE
:1007F000C36F070EC46F000EC66F320EC56FAA0E10
:10080000C76FFF0EC86F38ECD2F0C3C671F6C4C60E
:1008100072F6DBEF87F05C0E0501666F090E676FFD
:10082000C4ECE0F005016751000AD8B41AEF84F077
:10083000F6EF83F06651010AD8B428EF80F0030A7E
:10084000D8B45DEF80F0010AD8B492EF80F0070AC7
:10085000D8B4BFEF80F0010AD8B4ECEF80F0030AFF
:10086000D8B419EF81F0010AD8B446EF81F00F0A2D
:10087000D8B471EF81F0010AD8B49EEF81F0030A79
:10088000D8B4DBEF87F0010AD8B4B7EF81F0070ADC
:10089000D8B4E4EF81F0010AD8B407EF82F0030A7C
:1008A000D8B434EF82F0010AD8B461EF82F01F0AA5
:1008B000D8B47AEF82F0010AD8B4A7EF82F0030A25
:1008C000D8B4D4EF82F0010AD8B401EF83F0070A5C
:1008D000D8B42EEF83F0010AD8B46CEF83F0030A8A
:1008E000D8B499EF83F0010AD8B4C6EF83F0F6EFDD
:1008F00083F0130E0601C36F070EC46F000EC66FA0
:10090000320EC56FEE0EC76FFF0EC86F0EECEBF028
:1009100064C5C9F665C5CAF666C5CBF667C5CCF62B
:1009200038ECD2F0C3C671F6C4C672F6DBEF87F0BE
:10093000130E0601C36F070EC46F000EC66F320E92
:10094000C56FEE0EC76FFF0EC86F34ECEBF064C5D9
:10095000C9F665C5CAF666C5CBF667C5CCF638ECF0
:10096000D2F0C3C671F6C4C672F6DBEF87F0130E81
:100970000601C36F070EC46F000EC66F320EC56F3F
:10098000F50EC76FFF0EC86FBBECF3F00501FF6FEC
:10099000FF510601C96FCA6B38ECD2F0C3C671F6BD
:1009A000C4C672F6DBEF87F0130E0601C36F070EA5
:1009B000C46F000EC66F320EC56FF50EC76FFF0E07
:1009C000C86F9BECF3F00501FF6FFF510601C96F83
:1009D000CA6B38ECD2F0C3C671F6C4C672F6DBEF50
:1009E00087F0130E0601C36F070EC46F000EC66FAB
:1009F000320EC56FF50EC76FFF0EC86F0BECF5F02A
:100A00000501FF6FFF510601C96FCA6B38ECD2F0C8
:100A1000C3C671F6C4C672F6DBEF87F0130E06018B
:100A2000C36F070EC46F000EC66F320EC56FF50E92
:100A3000C76FFF0EC86FFBECF4F00501FF6FFF51AD
:100A40000601C96FCA6B38ECD2F0C3C671F6C4C6D2
:100A500072F6DBEF87F0130E0601C36F070EC46F4B
:100A6000000EC66F320EC56FF50EC76FFF0EC86F52
:100A7000D3EC01F00501FF6FFF510601C96FCA6B8E
:100A800038ECD2F0C3C671F6C4C672F6DBEF87F05D
:100A9000130E0601C36F070EC46F000EC66F320E31
:100AA000C56FF50EC76FFF0EC86F7BECF3F0050145
:100AB000FF6FFF510601C96FCA6B38ECD2F0C3C695
:100AC00071F6C4C672F6DBEF87F0130E0601C36F32
:100AD000070EC46F000EC66F320EC56FBC0EC76F17
:100AE000FF0EC86FD20EC96F550ECA6F480ECB6F7E
:100AF000080ECC6F38ECD2F0C3C671F6C4C672F6DD
:100B0000DBEF87F0130E0601C36F070EC46F000EF4
:100B1000C66F320EC56FF80EC76FFF0EC86F41EC7F
:100B200000F060C5C9F661C5CAF662C5CBF663C5FB
:100B3000CCF638ECD2F0C3C671F6C4C672F6DBEF61
:100B400087F0130E0601C36F070EC46F000EC66F49
:100B5000320EC56FF50EC76FFF0EC86FDBECF4F0F9
:100B60000501FF6FFF510601C96FCA6B38ECD2F067
:100B7000C3C671F6C4C672F6DBEF87F0130E06012A
:100B8000C36F070EC46F000EC66F320EC56FEE0E38
:100B9000C76FFF0EC86F4AEC00F060C5C9F661C5AB
:100BA000CAF662C5CBF663C5CCF638ECD2F0C3C644
:100BB00071F6C4C672F6DBEF87F0130E0601C36F41
:100BC000070EC46F000EC66F320EC56FF50EC76FED
:100BD000FF0EC86F1BECF4F00501FF6FFF5106011B
:100BE000C96FCA6B38ECD2F0C3C671F6C4C672F6D0
:100BF000DBEF87F0130E0601C36F070EC46F000E04
:100C0000C66F320EC56FF50EC76FFF0EC86F5BEC77
:100C1000F4F00501FF6FFF510601C96FCA6B38EC94
:100C2000D2F0C3C671F6C4C672F6DBEF87F0130EBE
:100C30000601C36F070EC46F000EC66F320EC56F7C
:100C4000F50EC76FFF0EC86F25ECEFF062C5C9F651
:100C500063C5CAF638ECD2F0C3C671F6C4C672F6E4
:100C6000DBEF87F0130E0601C36F070EC46F000E93
:100C7000C66F320EC56FF50EC76FFF0EC86FDBEC87
:100C8000F3F00501FF6FFF510601C96FCA6B38EC25
:100C9000D2F0C3C671F6C4C672F6DBEF87F0130E4E
:100CA0000601C36F070EC46F000EC66F320EC56F0C
:100CB000F50EC76FFF0EC86F3BECF4F00501FF6F38
:100CC000FF510601C96FCA6B38ECD2F0C3C671F68A
:100CD000C4C672F6DBEF87F0130E0601C36F070E72
:100CE000C46F000EC66F320EC56FF50EC76FFF0ED4
:100CF000C86FFBECF3F00501FF6FFF510601C96FF0
:100D0000CA6B38ECD2F0C3C671F6C4C672F6DBEF1C
:100D100087F0130E0601C36F070EC46F000EC66F77
:100D2000320EC56FF50EC76FFF0EC86FBBECF4F047
:100D30000501FF6FFF510601C96FCA6B38ECD2F095
:100D4000C3C671F6C4C672F6DBEF87F0AEEC01F0F5
:100D5000000E89EC01F0FF0E0501816F090E826F14
:100D6000A00E836F3A0E846F000E83ECEDF0050148
:100D700060C56FF561C570F5716B726B000E2FEC7D
:100D8000C5F06FC57DF570C57EF571C57FF572C57F
:100D900080F559ECB2F07DC596F57EC597F57FC517
:100DA00098F580C599F5CD0E05019A6FCC0E9B6F15
:100DB000CC0E9C6FBD0E9D6F04ECA7F096C53AF665
:100DC00097C53BF698C53CF699C53DF6130E06014E
:100DD000C36F070EC46F000EC66F320EC56FF80EDC
:100DE000C76FFF0EC86F3AC6C9F63BC6CAF63CC607
:100DF000CBF63DC6CCF638ECD2F0C3C671F6C4C60D
:100E000072F6DBEF87F0130E0601C36F070EC46F97
:100E1000000EC66F320EC56FF50EC76FFF0EC86F9E
:100E20009BECF4F00501FF6FFF510601C96FCA6B1F
:100E300038ECD2F0C3C671F6C4C672F6DBEF87F0A9
:100E4000130E0601C36F070EC46F000EC66F320E7D
:100E5000C56FF50EC76FFF0EC86F7BECF4F0050190
:100E6000FF6FFF510601C96FCA6B38ECD2F0C3C6E1
:100E700071F6C4C672F6DBEF87F0130E0601C36F7E
:100E8000070EC46F000EC66F320EC56FF50EC76F2A
:100E9000FF0EC86F0BECEFF062C5C9F663C5CAF66A
:100EA00038ECD2F0C3C671F6C4C672F6DBEF87F039
:100EB000130E0601C36F070EC46F000EC66F320E0D
:100EC000C56FAA0EC76FFF0EC86F38ECD2F0C3C64D
:100ED00071F6C4C672F6DBEF87F05C0E0501666F33
:100EE000090E676FC4ECE0F005016751000AD8B441
:100EF0007CEF87F058EF87F06651010AD8B479EF9C
:100F000084F0030AD8B498EF84F0010AD8B4B7EF9C
:100F100084F0070AD8B4D4EF84F0010AD8B4F1EF12
:100F200084F0030AD8B40EEF85F0010AD8B42BEF91
:100F300085F00F0AD8B448EF85F0010AD8B465EF00
:100F400085F0030AD8B482EF85F0010AD8B4A1EF86
:100F500085F0070AD8B4BEEF85F0010AD8B4DDEFFA
:100F600085F0030AD8B4FAEF85F0010AD8B417EF78
:100F700086F01F0AD8B432EF86F0010AD8B44FEFDA
:100F800086F0030AD8B46CEF86F0010AD8B489EF72
:100F900086F0070AD8B4A6EF86F0010AD8B403EFAA
:100FA00087F0030AD8B420EF87F0010AD8B43DEFE8
:100FB00087F058EF87F0130E0501616F070E626F1F
:100FC00071C663F572C664F5DAECE1F05C0E0501FA
:100FD000606F090E616F000E636F000E626F000E8E
:100FE000656F320E646F11ECCAF0000E3B6E450E59
:100FF0000501606F070E616F000E636F000E626F78
:10100000000E656F320E646F11ECCAF0000E3A6E7E
:10101000130E0501606F070E616F000E636F000E07
:10102000626F000E656F320E646F11ECCAF0000E35
:101030000601726F000E716F000E3C6EA6EC01F09F
:1010400012000501C96FD9EF8FF0000E816F000EFD
:10105000826FC80E836F420E846FC1C5D9F4C2C5BA
:10106000DAF4DF50C36FC3516F6F706B716B726BCB
:10107000000E2FECC5F06FC57DF570C57EF571C50E
:101080007FF572C580F559ECB2F07DC5A6F57EC539
:10109000A7F57FC5A8F580C5A9F5000E0501AA6FC3
:1010A000000EAB6F7F0EAC6F430EAD6F7CECB6F0F5
:1010B000A6C5BFF5A7C5C0F5A8C5C1F5A9C5C2F5A8
:1010C000F7EF8FF0C1C5D9F4C2C5DAF4DF50C36FB2
:1010D000C3516F6F706B716B726B000E2FECC5F0AC
:1010E0006FC596F570C597F571C598F572C599F5F8
:1010F000000E05019A6F000E9B6F200E9C6FC20EB2
:101100009D6F04ECA7F096C5BFF597C5C0F598C5CF
:10111000C1F599C5C2F5F7EF8FF0000E816F000E93
:10112000826F480E836F3F0E846FC1C5D9F4C2C56C
:10113000DAF4DF50C36FC3516F6F706B716B726BFA
:10114000000E2FECC5F06FC57DF570C57EF571C53D
:101150007FF572C580F559ECB2F07DC596F57EC578
:1011600097F57FC598F580C599F5000E05019A6F32
:10117000000E9B6FC80E9C6FC20E9D6F04ECA7F013
:1011800096C5BFF597C5C0F598C5C1F599C5C2F517
:10119000F7EF8FF0C1C5D9F4C2C5DAF4DF50C36FE1
:1011A000C3516F6F706B716B726B000E2FECC5F0DB
:1011B0006FC57DF570C57EF571C57FF572C580F58B
:1011C000000E0501816F000E826F400E836F400E8E
:1011D000846F59ECB2F07DC5BFF57EC5C0F57FC503
:1011E000C1F580C5C2F5F7EF8FF0C1C5D9F4C2C50E
:1011F000DAF4DF50C36FC3516F6F706B716B726B3A
:10120000000E2FECC5F06FC5BFF570C5C0F571C5F8
:10121000C1F572C5C2F5F7EF8FF020EE01F0C151B4
:10122000D926C251DA22DF50C36FC3516F6F706B82
:10123000716B726B000E2FECC5F06FC59AF570C51F
:101240009BF571C59CF572C59DF5000E0501816F7A
:10125000000E826F800E836F430E846FC1C5D9F478
:10126000C2C5DAF4DF50C46FC4516F6F706B716B1D
:10127000726B000E2FECC5F06FC57DF570C57EF565
:1012800071C57FF572C580F559ECB2F07DC596F554
:101290007EC597F57FC598F580C599F504ECA7F054
:1012A00096C5A6F597C5A7F598C5A8F599C5A9F55A
:1012B000000E0501AA6F000EAB6F800EAC6F400EE2
:1012C000AD6F7CECB6F0A6C5BFF5A7C5C0F5A8C547
:1012D000C1F5A9C5C2F5F7EF8FF0000EAA6F000E99
:1012E000AB6F000EAC6F400EAD6FC1C5D9F4C2C577
:1012F000DAF4DF50C36FC3516F6F706B716B726B39
:10130000000E2FECC5F06FC5A6F570C5A7F571C529
:10131000A8F572C5A9F57CECB6F0A6C596F5A7C5EB
:1013200097F5A8C598F5A9C599F5000E05019A6F1E
:10133000000E9B6F800E9C6FC20E9D6F04ECA7F099
:1013400096C5BFF597C5C0F598C5C1F599C5C2F555
:10135000F7EF8FF0C1C5D9F4C2C5DAF4DF50C36F1F
:10136000C3516F6F706B716B726B000E2FECC5F019
:101370006FC5A6F570C5A7F571C5A8F572C5A9F525
:10138000000E0501AA6F000EAB6F7F0EAC6F430E0F
:10139000AD6F7CECB6F0A6C5BFF5A7C5C0F5A8C576
:1013A000C1F5A9C5C2F5F7EF8FF020EE01F0C151EC
:1013B000D926C251DA22DF50C36FC3516F6F706BF1
:1013C000716B726B000E2FECC5F06FC59AF570C58E
:1013D0009BF571C59CF572C59DF5000E0501816FE9
:1013E000000E826F800E836F430E846FC1C5D9F4E7
:1013F000C2C5DAF4DF50C46FC4516F6F706B716B8C
:10140000726B000E2FECC5F06FC57DF570C57EF5D3
:1014100071C57FF572C580F559ECB2F07DC596F5C2
:101420007EC597F57FC598F580C599F504ECA7F0C2
:1014300096C5CAF597C5CBF598C5CCF599C5CDF538
:10144000CAC57DF5CBC57EF5CCC57FF5CDC580F58C
:10145000C10E0501816FCA0E826FA10E836F3D0E12
:10146000846F59ECB2F07DC5BFF57EC5C0F57FC570
:10147000C1F580C5C2F5F7EF8FF020EE01F0C15144
:10148000D926C251DA22DF50C36FC3516F6F706B20
:10149000716B726B000E2FECC5F06FC59AF570C5BD
:1014A0009BF571C59CF572C59DF5000E0501816F18
:1014B000000E826F800E836F430E846FC1C5D9F416
:1014C000C2C5DAF4DF50C46FC4516F6F706B716BBB
:1014D000726B000E2FECC5F06FC57DF570C57EF503
:1014E00071C57FF572C580F559ECB2F07DC596F5F2
:1014F0007EC597F57FC598F580C599F504ECA7F0F2
:1015000096C5CAF597C5CBF598C5CCF599C5CDF567
:10151000000E0501816F000E826F000E836F400E7A
:10152000846FCAC57DF5CBC57EF5CCC57FF5CDC52D
:1015300080F559ECB2F07DC5A6F57EC5A7F57FC54F
:10154000A8F580C5A9F5000E0501AA6F000EAB6FC6
:10155000800EAC6F470EAD6F7CECB6F0A6C5BFF544
:10156000A7C5C0F5A8C5C1F5A9C5C2F5F7EF8FF0AD
:10157000000EBF6F000EC06F000EC16F000EC26F75
:10158000F7EF8FF0000EBF6F000EC06F000EC16F3F
:10159000000EC26FF7EF8FF0BFC5C3F5C0C5C4F52D
:1015A000C451000AD8B4D7EF8AF0C2EF8AF0C35111
:1015B000040AD8B425EF88F0010AD8B462EF88F0A5
:1015C000030AD8B48DEF88F0010AD8B48DEF88F003
:1015D0000F0AD8B48DEF88F0010AD8B48DEF88F0E7
:1015E000030AD8B4CAEF88F0010AD8B4F5EF88F03E
:1015F000070AD8B40DEF89F0010AD8B4F5EF88F0E6
:10160000030AD8B46DEF89F0010AD8B462EF88F00C
:101610001F0AD8B462EF88F0010AD8B425EF88F029
:10162000040AD8B4AAEF89F0370AD8B4D5EF89F004
:10163000110AD8B4F5EF88F0070AD8B43DEF8AF064
:101640006E0AD8B425EF88F0060AD8B462EF88F0A5
:10165000330AD8B4B8EF8AF0C2EF8AF020EE01F076
:10166000C151D926C251DA22DF50C36FC3516F6F07
:10167000706B716B726B000E2FECC5F06FC59AF535
:1016800070C59BF571C59CF572C59DF5000E0501F1
:10169000816F000E826F800E836F430E846FC1C511
:1016A000D9F4C2C5DAF4DF506F6F000E6FBFFF0EC2
:1016B000706F716F726F010E2FECC5F06FC57DF505
:1016C00070C57EF571C57FF572C580F559ECB2F035
:1016D0007DC596F57EC597F57FC598F580C599F5CA
:1016E00004ECA7F096C5CAF597C5CBF598C5CCF51F
:1016F00099C5CDF5CAC57DF5CBC57EF5CCC57FF5C1
:10170000CDC580F56F0E0501816F120E826F030E3D
:10171000836F3B0E846F59ECB2F07DC5BFF57EC57B
:10172000C0F57FC5C1F580C5C2F5F7EF8FF020EE9B
:1017300001F0C151D926C251DA22DF50C36FC35123
:101740006F6F706B716B726B000E2FECC5F06FC515
:101750009AF570C59BF571C59CF572C59DF5000E97
:101760000501816F000E826F800E836F430E846FC0
:10177000C1C5D9F4C2C5DAF4DF506F6F000E6FBF78
:10178000FF0E706F716F726F010E2FECC5F06FC599
:101790007DF570C57EF571C57FF572C580F559EC94
:1017A000B2F07DC596F57EC597F57FC598F580C5E5
:1017B00099F504ECA7F096C5A6F597C5A7F598C5C9
:1017C000A8F599C5A9F5000E0501AA6F000EAB6F2B
:1017D000800EAC6F440EAD6F7CECB6F0A6C5BFF5C5
:1017E000A7C5C0F5A8C5C1F5A9C5C2F5F7EF8FF02B
:1017F00020EE01F0C151D926C251DA22DF50C36F69
:10180000C3516F6F706B716B726B000E2FECC5F074
:101810006FC59AF570C59BF571C59CF572C59DF5B0
:10182000000E0501816F000E826F800E836F430EE4
:10183000846FC1C5D9F4C2C5DAF4DF50C46FC45196
:101840006F6F706B716B726B000E2FECC5F06FC514
:101850007DF570C57EF571C57FF572C580F559ECD3
:10186000B2F07DC596F57EC597F57FC598F580C524
:1018700099F504ECA7F096C5A6F597C5A7F598C508
:10188000A8F599C5A9F50A0E0501AA6FD70EAB6F89
:10189000A30EAC6F430EAD6F7CECB6F0A6C5BFF5E2
:1018A000A7C5C0F5A8C5C1F5A9C5C2F5F7EF8FF06A
:1018B00020EE01F0C151D926C251DA22DF50C36FA8
:1018C000C3516F6F706B716B726B000E2FECC5F0B4
:1018D0006FC59AF570C59BF571C59CF572C59DF5F0
:1018E000000E0501816F000E826F800E836F430E24
:1018F000846FC1C5D9F4C2C5DAF4DF506F6F000E32
:101900006FBFFF0E706F716F726F010E2FECC5F01D
:101910006FC57DF570C57EF571C57FF572C580F523
:1019200059ECB2F07DC596F57EC597F57FC598F563
:1019300080C599F504ECA7F096C5A6F597C5A7F55F
:1019400098C5A8F599C5A9F5000E0501AA6F000E66
:10195000AB6F000EAC6FC40EAD6F7CECB6F0A6C5DD
:10196000BFF5A7C5C0F5A8C5C1F5A9C5C2F5F7EF74
:101970008FF0C1C5D9F4C2C5DAF4DF50C36FC351CB
:101980006F6F706B716B726B000E2FECC5F06FC5D3
:1019900096F570C597F571C598F572C599F5000E65
:1019A00005019A6F000E9B6F200E9C6FC20E9D6FFB
:1019B00004ECA7F096C5BFF597C5C0F598C5C1F56D
:1019C00099C5C2F5F7EF8FF020EE01F0C151D9268D
:1019D000C251DA22DF50C36FC3516F6F706B716BEE
:1019E000726B000E2FECC5F06FC59AF570C59BF5B4
:1019F00071C59CF572C59DF5000E0501816F000E45
:101A0000826F800E836F430E846FC1C5D9F4C2C547
:101A1000DAF4DF506F6F000E6FBFFF0E706F716FE3
:101A2000726F010E2FECC5F06FC57DF570C57EF5A8
:101A300071C57FF572C580F559ECB2F07DC596F59C
:101A40007EC597F57FC598F580C599F504ECA7F09C
:101A500096C5A6F597C5A7F598C5A8F599C5A9F5A2
:101A6000000E0501AA6F000EAB6F800EAC6F420E28
:101A7000AD6F7CECB6F0A6C5BFF5A7C5C0F5A8C58F
:101A8000C1F5A9C5C2F5F7EF8FF020EE01F0C15105
:101A9000D926C251DA22DF50C36FC3516F6F706B0A
:101AA000716B726B000E2FECC5F06FC59AF570C5A7
:101AB0009BF571C59CF572C59DF5000E0501816F02
:101AC000000E826F800E836F430E846FC1C5D9F400
:101AD000C2C5DAF4DF506F6F000E6FBFFF0E706F7C
:101AE000716F726F010E2FECC5F06FC57DF570C57B
:101AF0007EF571C57FF572C580F559ECB2F07DC5F4
:101B000096F57EC597F57FC598F580C599F504ECE7
:101B1000A7F096C5A6F597C5A7F598C5A8F599C5E8
:101B2000A9F5000E0501AA6F000EAB6F800EAC6F19
:101B3000460EAD6F7CECB6F0A6C5BFF5A7C5C0F5E7
:101B4000A8C5C1F5A9C5C2F5F7EF8FF0000EAA6FC1
:101B5000000EAB6F000EAC6F400EAD6FC1C5D9F477
:101B6000C2C5DAF4DF50C36FC3516F6F706B716B16
:101B7000726B000E2FECC5F06FC5A6F570C5A7F50A
:101B800071C5A8F572C5A9F57CECB6F0A6C596F5A9
:101B9000A7C597F5A8C598F5A9C599F5000E050143
:101BA0009A6F000E9B6F200E9C6FC20E9D6F04EC0F
:101BB000A7F096C5BFF597C5C0F598C5C1F599C5FD
:101BC000C2F5F7EF8FF0000E816F000E826FC80E26
:101BD000836F420E846FC1C5D9F4C2C5DAF4DF50F9
:101BE000C36FC3516F6F706B716B726B000E2FEC14
:101BF000C5F06FC57DF570C57EF571C57FF572C501
:101C000080F559ECB2F07DC5A6F57EC5A7F57FC578
:101C1000A8F580C5A9F5000E0501AA6F000EAB6FEF
:101C20007F0EAC6F430EAD6F7CECB6F0A6C5BFF572
:101C3000A7C5C0F5A8C5C1F5A9C5C2F5F7EF8FF0D6
:101C4000C1C5D9F4C2C5DAF4DF50C36FC3516F6F99
:101C5000706B716B726B000E2FECC5F06FC5BFF52A
:101C600070C5C0F571C5C1F572C5C2F5F7EF8FF04B
:101C700020EE01F0C151D926C251DA22DF50C36FE4
:101C8000C3516F6F706B716B726B000E2FECC5F0F0
:101C90006FC59AF570C59BF571C59CF572C59DF52C
:101CA000000E0501816F000E826F800E836F430E60
:101CB000846FC1C5D9F4C2C5DAF4DF50C46FC45112
:101CC0006F6F706B716B726B000E2FECC5F06FC590
:101CD0007DF570C57EF571C57FF572C580F559EC4F
:101CE000B2F07DC596F57EC597F57FC598F580C5A0
:101CF00099F504ECA7F096C5C5F597C5C6F598C546
:101D0000C7F599C5C8F5C5C596F5C6C597F5C7C544
:101D100098F5C8C599F5AB0E05019A6FAA0E9B6F91
:101D2000EA0E9C6F400E9D6F04ECA7F096C5BFF5C0
:101D300097C5C0F598C5C1F599C5C2F5F7EF8FF005
:101D4000000EBF6F000EC06F000EC16F000EC26F9D
:101D5000F7EF8FF0BFC5C3F5C0C5C4F5C451030A82
:101D6000D8B4CDEF8EF0070AD8B4ECEF8EF0010AAC
:101D7000D8B4F3EF8EF02D0AD8B4FAEF8EF0030A40
:101D8000D8B401EF8FF06B0AD8B40CEF8FF0B40A1F
:101D9000D8B413EF8FF0A0EF8EF0C351010AD8B47E
:101DA00097EF8BF0060AD8B4F8EF8BF0110AD8B48D
:101DB000F8EF8BF0010AD8B4F8EF8BF0DD0AD8B455
:101DC000B9EF8CF0220AD8B445EF8DF0040AD8B4EC
:101DD00058EF8CF0A0EF8EF0C351610AD8B4E4EF55
:101DE0008CF0A0EF8EF0C3517D0AD8B4A6EF8DF031
:101DF000A0EF8EF0C351130AD8B438EF8EF0A0EFE5
:101E00008EF0C3510C0AD8B42EEF8BF01D0AD8B453
:101E10002EEF8BF0A0EF8EF0C351280AD8B420EF3C
:101E20008EF0A0EF8EF0C351040AD8B4E3EF8DF02A
:101E30000B0AD8B4B9EF8CF0A0EF8EF0000EBF6F94
:101E4000000EC06F000EC16F000EC26FF7EF8FF073
:101E5000000EBF6F000EC06F000EC16F000EC26F8C
:101E6000F7EF8FF0BFC5C3F5C0C5C4F5C451010A73
:101E7000D8B455EF8FF0020AD8B45CEF8FF00B0A9C
:101E8000D8B477EF8FF0040AD8B482EF8FF01E0A2F
:101E9000D8B489EF8FF0040AD8B490EF8FF00E0A0F
:101EA000D8B497EF8FF028EF8FF0C351C80AD8B499
:101EB0001EEF8FF028EF8FF0C351010AD8B41EEF48
:101EC0008FF0030AD8B41EEF8FF0010AD8B41EEFCA
:101ED0008FF0070AD8B41EEF8FF0010AD8B41EEFB6
:101EE0008FF0030AD8B41EEF8FF028EF8FF0C351A4
:101EF000020AD8B41EEF8FF0010AD8B41EEF8FF09B
:101F000028EF8FF0C351820AD8B41EEF8FF028EF6C
:101F10008FF0C351600AD8B41EEF8FF028EF8FF016
:101F2000C351020AD8B41EEF8FF028EF8FF0C351CF
:101F3000020AD8B41EEF8FF028EF8FF0000EBF6FAB
:101F4000000EC06F000EC16F000EC26FF7EF8FF072
:101F5000000EBF6F000EC06F000EC16F000EC26F8B
:101F6000F7EF8FF0BFC5C3F5C0C5C4F5C451000A73
:101F7000D8B4C1EF8FF0030AD8B4C8EF8FF0A8EF40
:101F80008FF0C3516F0AD8B49EEF8FF0A8EF8FF097
:101F9000C351020AD8B49EEF8FF0A8EF8FF0000E65
:101FA000BF6F000EC06F000EC16F000EC26FF7EF63
:101FB0008FF00501C951C36FC46BC451000AD8B476
:101FC000E4EF8FF0CFEF8FF0C351010AD8B4CCEF1C
:101FD0008AF0230AD8B4AAEF8EF0E30AD8B4B2EF9D
:101FE0008FF01F0AD8B432EF8FF0CFEF8FF01200CE
:101FF0000601E951EA11EB11EC11D8B402EF90F0AF
:1020000004EF90F00BEF90F0E907000EEA5BEB5B5A
:10201000EC5B2DEF90F04AEC00F00501605161118E
:1020200062116311D8B417EF90F019EF90F02DEF13
:1020300090F0010E06017F6F4AEC00F0FF0E0501E3
:102040006025646FFF0E6121656FFF0E6221666F70
:10205000FF0E6321676F5CEC00F006017351741191
:10206000D8B435EF90F037EF90F0C1EF95F00FEC6A
:10207000E1F0C1EF95F0000E05016C6F000E6D6F81
:10208000000E0FECF0F0010E486E000E89EC01F02E
:10209000030E0501616FB40E606FB3EC00F0BA0E71
:1020A0000501606FE50E616F010E626F4DEC01F08E
:1020B000F7EF95F0CEAA5FEF90F062EF90F0010E8F
:1020C00063EF90F0000E8F6FCEA669EF90F06CEF8B
:1020D00090F0010E6DEF90F0000E8F15E8A073EFF9
:1020E00090F075EF90F077EF90F020ECD1F09FEC4E
:1020F000DEF0020E486EF7EF95F0DBECF4F0020A2A
:10210000D8A485EF90F087EF90F08BEF90F0BAECC9
:1021100001F08DEF90F0BDEC01F0E00E0601886F4C
:10212000070E896F000E8A6F000E8B6F8C9D8C9F3F
:102130008C938C918C51C30B20098C6FF50E8D6F95
:10214000070E8E6F500E6100A0F3B2FAE00E610030
:10215000A0F3B3FA010E6100A0F3B4FAE80E610037
:10216000A0F3AEFA030E6100A0F3AFFA000E610017
:10217000A0F3B0FA000E6100A0F3B1FAE00E610026
:10218000A0F3B5FA070E6100A0F3B6FA000E6100E5
:10219000A0F3B7FA000E6100A0F3B8FA010E6100D7
:1021A000A0F3B9FA8E0E0501786F090E796F17EC5E
:1021B000E8F0DBECF4F00009D8A4E1EF90F0E3EFF5
:1021C00090F015EF91F02DEF91F08E0E0501656FF7
:1021D000090E666FDC0E676F070E686FA6ECD8F00D
:1021E0008E0E0501606F090E616FCB0E626F070ED8
:1021F000636FCDECCAF044EF91F08E0E0501656F70
:10220000090E666FDC0E676F070E686FA6ECD8F0DC
:102210008E0E0501656F090E666FCB0E676F070E98
:10222000686FA6ECD8F044EF91F08E0E0501606F58
:10223000090E616FDC0E626F070E636FCDECCAF0A2
:102240008E0E0501606F090E616FCB0E626F070E77
:10225000636FCDECCAF044EF91F05BECF4F0060153
:102260008F6F906B9051000AD8B439EF91F015EF51
:1022700091F08F51000AD8B4E5EF90F0010AD8B47C
:10228000FDEF90F015EF91F0BE92BF9E030E486EE9
:10229000F7EF95F00EECEBF064C58FF665C590F6A0
:1022A00066C591F667C592F634ECEBF00501645112
:1022B00006018F5D0501686F6551060190590501A2
:1022C000696F66510601915905016A6F67510601F0
:1022D000925905016B6F640E6C6F000E6D6F000EEE
:1022E0006E6F000E6F6FCAECE2F0050E7EEF91F09C
:1022F0000501D8906B336A3369336833E82E78EF81
:1023000091F068C574F569C575F56AC576F56BC554
:1023100077F5640E786F000E796F000E7A6F000EFD
:102320007B6FA8ECDDF074C54AF675C54BF676C533
:102330004CF677C54DF6C6EF91F0090E4A6F000EC8
:102340004B6F000E4C6F000E4D6F040E466F000E6B
:10235000476F000E486F000E496FC6EF91F05BECBF
:10236000F4F006018F6F906B9051000AD8B4BBEF68
:1023700091F0C6EF91F08F51000AD8B44AEF91F076
:10238000010AD8B49DEF91F0C6EF91F0040E486EAB
:10239000F7EF95F0DBECF4F0E806D8B4D2EF91F06B
:1023A000D5EF91F0010ED6EF91F0000E06018F6F80
:1023B000DBECF4F00009D8B4E0EF91F0E3EF91F03A
:1023C000010EE4EF91F0000E06018F11E8A0EBEF93
:1023D00091F0EDEF91F0FAEF92F07BECD9F000097B
:1023E000D8B4F5EF91F0F7EF91F097EF92F0810EFE
:1023F0000501766F060E776F92ECD0F0E806D8A450
:1024000004EF92F006EF92F097EF92F0900E060133
:102410008119821183118411D8A411EF92F013EF66
:1024200092F06AEF92F0000E976F000E986F000E18
:10243000996F000E9A6F20EE04F08651D9268751CD
:10244000DA22DF508F6F0F0E8F178FC690F6916BC9
:10245000926B936B92C693F691C692F690C691F6E4
:10246000906B20EE05F08651D9268751DA22DF5095
:10247000946F94519011976F9151986F9251996FF9
:1024800093519A6FD8909735976F9835986F993583
:10249000996F9A359A6FDBECF4F0E806D8A453EF05
:1024A00092F055EF92F097EF92F097C697F598C695
:1024B00098F599C699F59AC69AF5E80E05019B6FAD
:1024C000030E9C6F000E9D6F000E9E6F1AECF1F0D4
:1024D00097EF92F0845183110BE1E10E815D070EBD
:1024E0008259D8A076EF92F078EF92F097EF92F0C1
:1024F000DBECF4F00009D8A480EF92F082EF92F0C8
:1025000097EF92F08E0E0501806F090E816F81C6E4
:1025100082F582C683F583C684F584C685F586C6B2
:1025200086F587C687F54AECB8F097EF92F0DBECBA
:10253000F4F00009D8A49FEF92F0A1EF92F0CAEF57
:1025400092F00701E751E811E911EA11D8B4ABEFB5
:1025500092F0ADEF92F0CAEF92F0E3C760F5E4C7F6
:1025600061F5E5C762F5E6C763F54AECD3F060C5EF
:1025700097F561C598F562C599F563C59AF5E80EBA
:1025800005019B6F030E9C6F000E9D6F000E9E6FEA
:102590001AECF1F05BECF4F0E806D8A4D2EF92F07C
:1025A000D4EF92F0F3EF92F00701D651D711D81182
:1025B000D911D8B4DEEF92F0E0EF92F0F3EF92F0A1
:1025C000D2C760F5D3C761F5D4C762F5D5C763F547
:1025D0004AECD3F09B0E050160256A6FFF0E612166
:1025E0006B6F9BEC00F08E0E0501E76F090EE86F34
:1025F0003AECB0F006017F517E110009D8B403EF28
:1026000093F005EF93F0F7EF95F05BECF4F0000931
:10261000D8A40DEF93F00FEF93F015EF94F04AEC80
:1026200000F060C58FF661C590F662C591F663C58E
:1026300092F60EECEBF00501645106018F5D050189
:102640006551060190590501665106019159050130
:10265000675106019259D8A030EF93F032EF93F012
:1026600036EF93F0B7EC01F0E3EF94F0B4EC01F047
:10267000000E06019D6F0F0E9D6541EF93F043EF35
:1026800093F045EF93F0E3EF94F09D510501686FEF
:10269000696B6A6B6B6B4AC66CF54BC66DF54CC6C5
:1026A0006EF54DC66FF5CAECE2F068C58FF669C5E8
:1026B00090F66AC591F66BC592F634ECEBF0050125
:1026C000645106018F25936F050165510601902124
:1026D000946F0501665106019121956F05016751BF
:1026E00006019221966F4AEC00F006019351050114
:1026F000605D06019451050161590601955105017E
:1027000062590601965105016359D8A08AEF93F0EA
:102710008CEF93F0D0EF93F006019D518F6F906B8B
:1027200056508F5D9051800A916F5750800A915991
:10273000D8B09DEF93F0A0EF93F0010EA1EF93F0CE
:10274000000E926F936B1BECF4F00601946F9451A2
:102750009217000E931792519311D8B4B2EF93F0E1
:10276000B4EF93F0B9EF93F0040E5E6E9DC656F58C
:10277000576A9D5190ECE7F005016C6F06019D5181
:10278000BDECE7F005016D6F06019D51EAECE7F045
:1027900005016E6F06019D5135ECCCF011EF94F000
:1027A00006019D518F6F906B56508F190AE157505B
:1027B0009019D8B4DEEF93F0E1EF93F0010EE2EF61
:1027C00093F0000E916F926B1BECF4F00601936F87
:1027D00093519117000E921791519211D8B4F3EFC3
:1027E00093F0F5EF93F006EF94F026ECF3F005018B
:1027F0006C6F26ECF3F005016D6F26ECF3F005012C
:102800006E6F565035ECCCF011EF94F0000E0501D0
:102810006C6F000E6D6F000E6E6F06019D5135ECF2
:10282000CCF006019D2B3BEF93F05BECF4F0E80657
:10283000D8A41DEF94F01FEF94F0E3EF94F006019D
:1028400076BF25EF94F027EF94F081EF94F0000E1F
:102850009B6F0F0E9B652FEF94F031EF94F033EFE9
:1028600094F0E3EF94F09B510501686F696B6A6B1C
:102870006B6B4AC66CF54BC66DF54CC66EF54DC616
:102880006FF5CAECE2F075C68FF676C690F6000ECC
:10289000060190BFFF0E916F926F0501685106010E
:1028A0008F5D050169510601905905016A510601C4
:1028B000915905016B5106019259D8A062EF94F02D
:1028C00064EF94F072EF94F026ECF3F005016C6F76
:1028D000000E6D6F000E6E6F06019B5135ECCCF053
:1028E0007DEF94F0000E05016C6F000E6D6F000E11
:1028F0006E6F06019B5135ECCCF006019B2B29EF46
:1029000094F0000E9C6F0F0E9C6589EF94F08BEF96
:1029100094F08DEF94F0E3EF94F075C672F576C6FF
:1029200073F5E7ECECF0050172C58FF673C590F610
:10293000000E060190BFFF0E916F926F9C51050132
:10294000686F696B6A6B6B6B46C66CF547C66DF555
:1029500048C66EF549C66FF5CAECE2F0050168514C
:1029600006018F5D050169510601905905016A5103
:102970000601915905016B5106019259D8A0C3EF88
:1029800094F0C5EF94F0D4EF94F0000E05016C6F55
:10299000000E6D6F26ECF3F005016E6F06019C5181
:1029A00035ECCCF0DFEF94F0000E05016C6F000EFB
:1029B0006D6F000E6E6F06019C5135ECCCF0060178
:1029C0009C2B83EF94F04AEC00F0050163516211F7
:1029D0000CE15E0E605D010E6159D8A0F2EF94F03B
:1029E000F5EF94F0010EF6EF94F0000E06018F6FF4
:1029F000906B7F518F17000E90178F519011D8B4A4
:102A000004EF95F006EF95F008EF95F0070E486E8D
:102A1000000E7E6F000E7F6FF7EF95F0CEB813EFCC
:102A200095F015EF95F032EF95F053EC00F00501BD
:102A300060510601425D05016151060143590501DE
:102A40006251060144590501635106014559D8B048
:102A50002CEF95F02EEF95F042EF95F0060E486EB4
:102A6000F7EF95F042694369446945695BECF4F01E
:102A70000009D8B43EEF95F040EF95F042EF95F0A5
:102A8000000E486E060142290AE1432908E1442963
:102A900006E14529D8A44FEF95F051EF95F0F7EFF7
:102AA00095F0BBECA3F00009D8A459EF95F05BEFCB
:102AB00095F0F7EF95F0000E486EACECD1F0F7EF23
:102AC00095F0D0ECBCF00009D8A469EF95F06BEF5D
:102AD00095F0F7EF95F05BEF95F0000E05016C6F48
:102AE00026ECF3F005016D6F000E0FECF0F053ECE7
:102AF00000F00501605106014E5D050161510601BE
:102B00004F590501625106015059050163510601F3
:102B10005159D8B08EEF95F090EF95F0F7EF95F012
:102B2000040E486EACECD1F0000E05016C6F000E87
:102B30006D6F000E0FECF0F0F7EF95F057BEA3EFBE
:102B400095F0A5EF95F0A7EF95F0F7EF95F04AEC2B
:102B500000F00501635162110BE15E0E605D010E34
:102B60006159D8A0B6EF95F0B8EF95F0BCEF95F0AD
:102B7000000E486EF7EF95F0BE82BF8E0300B8EFEF
:102B800095F0485006018F6F906B9051000AD8B4B1
:102B9000CCEF95F0F7EF95F08F51000AD8B43BEFEA
:102BA00090F0010AD8B45AEF90F0030AD8B47DEF40
:102BB00090F0010AD8B4AFEF91F0070AD8B4CAEF89
:102BC00091F0010AD8B40EEF95F0030AD8B461EF82
:102BD00095F0010AD8B49EEF95F00F0AD8B46DEFC6
:102BE00095F0010AD8B4F7EF95F0F7EF95F01200E1
:102BF000000E0601B06FD5C5B1F6D6C5B2F6D7C581
:102C0000B3F6D8C5B4F6B4BF0AEF96F008EF96F065
:102C10001EEF96F0010EB06FB1C660F5B2C661F559
:102C2000B3C662F5B4C663F5DBECEDF060C5B1F692
:102C300061C5B2F662C5B3F663C5B4F6000E06010F
:102C4000B66F000EB56F67C6A4F668C6A5F6B0519C
:102C5000D8B42DEF96F02FEF96F043EF96F0B051E9
:102C6000D8A435EF96F037EF96F03DEF96F0000ED2
:102C7000966F2B0E956F41EF96F0000E966F2D0E0E
:102C8000956F95C6B0F6B1C660F5B2C661F5B3C62C
:102C900062F5B4C663F5D8ECD5F0050160056111A5
:102CA000D8A455EF96F057EF96F092EF96F0060104
:102CB000B051D8B45EEF96F060EF96F069EF96F001
:102CC000B0C680F8A407D8A0A507000EB66F010E05
:102CD000B56F800EB5250501606F080E0601B6219F
:102CE0000501616FD60E626FFF0E636F7EECECF034
:102CF0000601FD0EA427FF0EA523D3C570F5D4C58C
:102D000071F5800E0501726F080E736FA4C674F51D
:102D1000A5C675F5E3ECD9F070C5D3F571C5D4F54A
:102D20007CEF9BF0B1C660F5B2C661F5B3C662F543
:102D3000B4C663F5D8ECD5F0050160516111D8A493
:102D4000A4EF96F0A6EF96F0C9EF96F00601B05109
:102D5000D8B4ADEF96F0AFEF96F0B8EF96F0B0C6FE
:102D600080F8A407D8A0A507000EB66F010EB56FB6
:102D7000800EB5250501606F080E0601B62105011C
:102D8000616FDA0E626FFF0E636F7EECECF078EF2E
:102D900096F0000E0601B76F000EB86F800EB96F87
:102DA0003F0EBA6F000E9F6F000E9E6FB1C660F5AA
:102DB000B2C661F5B3C662F5B4C663F5000E05018F
:102DC000646F000E656F000E666F000E676F52EC49
:102DD000DDF00501D8B0EFEF96F0F1EF96F0EBEFF4
:102DE00097F0FEEF96F0A0C6B7F6A1C6B8F6A2C659
:102DF000B9F6A3C6BAF606019E4B9F2BB7C67DF562
:102E0000B8C67EF5B9C67FF5BAC680F5000E0501D5
:102E1000816F000E826F200E836F410E846F59EC1C
:102E2000B2F07DC5A0F67EC5A1F67FC5A2F680C52D
:102E3000A3F60601A051B15D0501606F0601A15125
:102E4000B2590501616F0601A251B3590501626FC4
:102E50000601A351B4590501636F35ECE3F0050198
:102E600063BF3EEF97F063516211611109E1020EF9
:102E7000605DD8A03EEF97F040EF97F0F3EF96F04B
:102E8000A0C696F5A1C697F5A2C698F5A3C699F572
:102E9000B1C69AF5B2C69BF5B3C69CF5B4C69DF50E
:102EA000CEECD3F00501D8A058EF97F05AEF97F089
:102EB000F3EF96F00601B751B15D0501606F0601B1
:102EC000B851B2590501616F0601B951B3590501F5
:102ED000626F0601BA51B4590501636F35ECE3F036
:102EE000050163BF81EF97F063516211611107E142
:102EF000020E605DD8B07FEF97F081EF97F0D1EFD1
:102F000097F0B7C6B1F6B8C6B2F6B9C6B3F6BAC648
:102F1000B4F6EBEF97F0B7C6A6F5B8C6A7F5B9C6F5
:102F2000A8F5BAC6A9F5000EAA6F000EAB6F200E69
:102F3000AC6F410EAD6F7CECB6F0A6C5B7F6A7C579
:102F4000B8F6A8C5B9F6A9C5BAF606019E07D8A075
:102F50009F07B751B15D0501606F0601B851B259C5
:102F60000501616F0601B951B3590501626F060190
:102F7000BA51B4590501636F35ECE3F0050163BF45
:102F8000CFEF97F063516211611107E1020E605DAE
:102F9000D8B0CDEF97F0CFEF97F0D1EF97F081EF6A
:102FA00097F0B1C696F5B2C697F5B3C698F5B4C614
:102FB00099F5B7C69AF5B8C69BF5B9C69CF5BAC6D9
:102FC0009DF5CEECD3F00501D8A0E9EF97F0EBEF3B
:102FD00097F08BEF97F0D9C598F698C699F6060149
:102FE0006ABFF5EF97F0F7EF97F0FDEF97F069C63E
:102FF00091F66AC692F601EF98F0000E926F060EF7
:10300000916F91C69CF692C69DF69C4B9D2B660EC9
:103010009919D8A40EEF98F010EF98F030EF98F0CF
:103020009FBF17EF98F015EF98F023EF98F0000E80
:10303000B76F000EB86F800EB96F3F0EBA6F000EFB
:103040009F6F000E9E6F670E9819D8B42AEF98F004
:103050002CEF98F030EF98F09E519C279F519D23C4
:10306000000EAF6F000EAE6FB1C6A6F6B2C6A7F6E1
:10307000B3C6A8F6B4C6A9F6B7C6A0F6B8C6A1F6F8
:10308000B9C6A2F6BAC6A3F6C2EF98F0A6C6A6F5D0
:10309000A7C6A7F5A8C6A8F5A9C6A9F5B7C6AAF5F3
:1030A000B8C6ABF5B9C6ACF5BAC6ADF57CECB6F0B2
:1030B000A6C5BFF5A7C5C0F5A8C5C1F5A9C5C2F588
:1030C00050ECC0F0BFC5AAF6C0C5ABF6C1C5ACF6A2
:1030D000C2C5ADF6AAC660F5ABC661F5ACC662F571
:1030E000ADC663F54AECD3F060C59AF661C59BF6B0
:1030F000A6C6A6F5A7C6A7F5A8C6A8F5A9C6A9F5A8
:10310000AAC681F5ABC682F5ACC683F5ADC684F51B
:10311000B7C67DF5B8C67EF5B9C67FF5BAC680F5E7
:1031200059ECB2F07DC5AAF57EC5ABF57FC5ACF50F
:1031300080C5ADF5CAECEBF0A6C5A6F6A7C5A7F607
:10314000A8C5A8F6A9C5A9F6B7C6A6F5B8C6A7F535
:10315000B9C6A8F5BAC6A9F5000E0501AA6F000EFA
:10316000AB6F200EAC6F410EAD6F7CECB6F0A6C518
:10317000B7F6A7C5B8F6A8C5B9F6A9C5BAF6060147
:10318000AE4BAF2B9C51AE5DAF51800A0501DA6F9B
:1031900006019D51800A0501DA59D8A0D2EF98F0B6
:1031A000D4EF98F046EF98F0B7C67DF5B8C67EF537
:1031B000B9C67FF5BAC680F5000E816F000E826F2A
:1031C000A00E836F400E846F59ECB2F07DC5AAF655
:1031D0007EC5ABF67FC5ACF680C5ADF6A6C696F546
:1031E000A7C697F5A8C698F5A9C699F5AAC69AF5EF
:1031F000ABC69BF5ACC69CF5ADC69DF5CEECD3F049
:103200000501D8B006EF99F008EF99F013EF99F0A7
:10321000000E0601AA6F000EAB6F000EAC6F000E21
:10322000AD6F3DEF99F0A6C660F5A7C661F5A8C6DB
:1032300062F5A9C663F5AAC664F5ABC665F5ACC66A
:1032400066F5ADC667F552ECDDF00501D8A02BEFB1
:1032500099F02DEF99F03DEF99F006019AB133EF17
:1032600099F035EF99F03DEF99F0000EAA6F000E3E
:10327000AB6F000EAC6F000EAD6FB1C696F5B2C667
:1032800097F5B3C698F5B4C699F5AAC69AF5ABC634
:103290009BF5ACC69CF5ADC69DF504ECA7F096C5B4
:1032A000A6F697C5A7F698C5A8F699C5A9F6A6C625
:1032B00096F5A7C697F5A8C698F5A9C699F5000E84
:1032C0000501816F000E826F200E836F410E846FA7
:1032D000A0C67DF5A1C67EF5A2C67FF5A3C680F582
:1032E00059ECB2F07DC59AF57EC59BF57FC59CF57E
:1032F00080C59DF5CEECD3F00501D8A082EF99F002
:1033000084EF99F0AEEF99F006019E4B9F2BA0C67B
:103310007DF5A1C67EF5A2C67FF5A3C680F5000E99
:103320000501816F000E826F200E836F410E846F46
:1033300059ECB2F07DC5A0F67EC5A1F67FC5A2F618
:1033400080C5A3F6660E06019919D8A4AAEF99F0D4
:10335000ACEF99F0AEEF99F09C4B9D2BA0C6B7F661
:10336000A1C6B8F6A2C6B9F6A3C6BAF69EC68FF62F
:103370009FC690F6000E0601976F000E946F000E28
:10338000936F000EAF6F000EAE6FAEEF9AF0A6C651
:10339000A6F5A7C6A7F5A8C6A8F5A9C6A9F5B7C6F4
:1033A000AAF5B8C6ABF5B9C6ACF5BAC6ADF57CECB6
:1033B000B6F0A6C5BFF5A7C5C0F5A8C5C1F5A9C596
:1033C000C2F550ECC0F0BFC5AAF6C0C5ABF6C1C58A
:1033D000ACF6C2C5ADF6AAC660F5ABC661F5ACC623
:1033E00062F5ADC663F54AECD3F0050161BF04EFA9
:1033F0009AF0615107E10A0E605DD8B002EF9AF0D1
:1034000004EF9AF014EF9AF0AAC660F5ABC661F526
:10341000ACC662F5ADC663F54AECD3F060C59AF66A
:1034200061C59BF619EF9AF0000E06019B6F090E1D
:103430009A6F06019751D8A420EF9AF022EF9AF0E4
:103440004AEF9AF090BF29EF9AF027EF9AF04AEFEF
:103450009AF0800EB525D96E080EB621DA6E2E0EC2
:10346000DF6EB54BB62BA407D8A0A507010E976F4A
:103470004AEF9AF0800EB525D96E080EB621DA6EA5
:10348000300EDF6EB54BB62BA407D8A0A507930767
:10349000D8A0940793519411D8A451EF9AF053EF08
:1034A0009AF03AEF9AF0800EB525D96E080EB62143
:1034B000DA6E9A51300FDF6EB54BB62BA407D8A049
:1034C000A507A6C6A6F5A7C6A7F5A8C6A8F5A9C6C6
:1034D000A9F5AAC681F5ABC682F5ACC683F5ADC623
:1034E00084F5B7C67DF5B8C67EF5B9C67FF5BAC610
:1034F00080F559ECB2F07DC5AAF57EC5ABF57FC568
:10350000ACF580C5ADF5CAECEBF0A6C5A6F6A7C52F
:10351000A7F6A8C5A8F6A9C5A9F6B7C6A6F5B8C660
:10352000A7F5B9C6A8F5BAC6A9F5000E0501AA6F98
:10353000000EAB6F200EAC6F410EAD6F7CECB6F0A1
:10354000A6C5B7F6A7C5B8F6A8C5B9F6A9C5BAF60F
:1035500006018F07D8A09007AE4BAF2B9C51AE5DF4
:10356000AF51800A0501DA6F06019D51800A0501FD
:10357000DA59D8B0BEEF9AF0C0EF9AF0CFEF9AF0D8
:103580000601B6BFCDEF9AF0B65109E14B0EB55D1D
:10359000D8A0CDEF9AF0CFEF9AF0C7EF99F0000ED8
:1035A0000601AF6F4F0EAE6F800EAE25D96E080EBE
:1035B000AF21DA6E000EDF6E800E0501DA6F080EA5
:1035C000DB6F0601B5510501DA5F0601B651050151
:1035D000DB5B0601AE510501DA25606F0601AF51D4
:1035E0000501DB21616F800E626F080E636FB5C647
:1035F00064F5B6C665F5C8ECE9F00601B551AE5DF7
:10360000B56FB651AF59B66FB051D8A40AEF9BF061
:103610000DEF9BF0010E0EEF9BF0000EAE6FAF6B47
:103620007DA315EF9BF017EF9BF04DEF9BF028EF7C
:103630009BF00601B507D8A0B607800EB525D96E58
:10364000080EB621DA6E300EDF6EA407D8A0A507EB
:10365000A451AE5DAF51800A0501DA6F0601A55194
:10366000800A0501DA59D8B038EF9BF03AEF9BF0A9
:103670004DEF9BF00601B551AE5DAF51800A0501DB
:10368000DA6F0601B651800A0501DA59D8A04BEF6E
:103690009BF04DEF9BF019EF9BF00601B051D8B4B1
:1036A00054EF9BF056EF9BF061EF9BF0B507D8A06D
:1036B000B607800EB525D96E080EB621DA6EB0C6F3
:1036C000DFF4AE51A45FAF51A55BD3C570F5D4C58F
:1036D00071F5800EB5250501726F080E0601B62141
:1036E0000501736FA4C674F5A5C675F5E3ECD9F0B2
:1036F00070C5D3F571C5D4F51200DEC5D9F4DFC5A8
:10370000DAF4DEC4F6F4DDC4F7F4000EF86E080057
:10371000F550250AD8A48FEF9BF091EF9BF03BEF7B
:10372000A0F0DEC5D9F4DFC5DAF4DE2A000EDD2212
:10373000000E0601686F000E676F67C67DF6696947
:103740006A69000E0501F16F000EF06FD5EF9BF076
:1037500006017D83DEC5D9F4DFC5DAF4DE2A000E6A
:10376000DD22D5EF9BF0000EF16F010EF06FD5EF6B
:103770009BF0DEC5D9F4DFC5DAF4DEC4F6F4DDC4AF
:10378000F7F4000EF86E0800F550E26FE36BE351BA
:10379000000AD8B4CEEF9BF0B3EF9BF0E251300AB1
:1037A000D8B4A8EF9BF0B3EF9BF00501F051F111F5
:1037B000D8B4DDEF9BF0DFEF9BF0B9EF9BF0DEC5F7
:1037C000D9F4DFC5DAF4DEC4F6F4DDC4F7F4000E94
:1037D000F86E0800F5502A0AD8A4F1EF9BF0F3EF39
:1037E0009BF01DEF9CF0DEC5D9F4DFC5DAF4DE2ACC
:1037F000000EDD22E0C5D9F4E1C5DAF4DFC4E2F55C
:10380000020EDE26DFC4E3F5000EDD22E2C5D9F4A8
:10381000E3C5DAF4DEC467F6DDC468F6060168BF06
:1038200016EF9CF014EF9CF053EF9CF07D81676DD8
:10383000681FD8B0682B53EF9CF0DEC5D9F4DFC504
:10384000DAF4DEC466F5DDC467F54BECC4F066C59A
:1038500067F667C568F634EF9CF0DEC5D9F4DFC5BE
:10386000DAF4DE2A000EDD22DEC5D9F4DFC5DAF493
:10387000DEC4F6F4DDC4F7F4000EF86E0800F5C4FB
:10388000E2F5D00E0501E225E36FE46BFF0EE423C1
:10389000E45109E10A0EE35DD8A051EF9CF053EF2B
:1038A0009CF02DEF9CF0DEC5D9F4DFC5DAF4DEC460
:1038B000FDF5DDC4FEF5FDC5F6F4FEC5F7F4000E1A
:1038C000F86E0800F5C4FCF572EF9CF0FD4BFE2B82
:1038D00098EF9CF0690EFC6F98EF9CF0000EFC6F67
:1038E00098EF9CF00501FC51E26FE36BE351000A95
:1038F000D8B47DEF9CF06EEF9CF0E251640AD8B42E
:103900006AEF9CF00D0AD8B46AEF9CF0050AD8B4AF
:1039100066EF9CF0020AD8B46AEF9CF01B0AD8B498
:103920006AEF9CF00D0AD8B46AEF9CF06EEF9CF041
:10393000FDC5F6F4FEC5F7F4000EF86E0800F5506C
:10394000640AD8B4A6EF9CF0A8EF9CF014EF9DF0A9
:10395000FDC5F6F4FEC5F7F4000EF86E0800F5504C
:10396000690AD8A4B6EF9CF0B8EF9CF053EF9DF035
:1039700014EF9DF0E0C5D9F4E1C5DAF4DFC4E2F557
:10398000020EDE26DFC4E3F5000EDD22E2C5D9F427
:10399000E3C5DAF4DEC4F4F5DDC4F5F5000EF5BFD9
:1039A000FF0EF66FF76FF86FF96FFA6FFB6F29EF85
:1039B0009DF0E0C5D9F4E1C5DAF4DFC4E2F5040E08
:1039C000DE26DFC4E3F5000EDD22E2C5D9F4E3C54F
:1039D000DAF4DEC4E4F5DEC4E5F5DEC4E6F5DEC403
:1039E000E7F5E4C5E8F5E5C5E9F5E6C5EAF5E7C5B7
:1039F000EBF5EC6BEBBFEC69ECC5EDF5ECC5EEF56A
:103A0000ECC5EFF5E8C5F4F5E9C5F5F5EAC5F6F559
:103A1000EBC5F7F5ECC5F8F5EDC5F9F5EEC5FAF52A
:103A2000EFC5FBF529EF9DF0FC51E26FE36BE3512D
:103A3000000AD8B41EEF9DF029EF9DF0E251690A0B
:103A4000D8B4BAEF9CF0050AD8B4D9EF9CF029EFAE
:103A50009DF0010EFD25E26F000EFE21E36FDEC535
:103A6000D9F4DFC5DAF4E2C5DEF4E3C5DDF4DCC584
:103A70007BF5DDC57CF5F4C57DF5F5C57EF5F6C5B0
:103A80007FF5F7C580F5F8C581F5F9C582F5FAC56A
:103A900083F5FBC584F569ECBBF07BC5DCF57CC523
:103AA000DDF559EFA0F0FDC5F6F4FEC5F7F4000E04
:103AB000F86E0800F550780AD8B461EF9DF063EF16
:103AC0009DF0BBEF9DF0FDC5F6F4FEC5F7F4000ECA
:103AD000F86E0800F550750AD8A471EF9DF073EFE9
:103AE0009DF034EF9EF0BBEF9DF0E0C5D9F4E1C549
:103AF000DAF4DFC4E2F5020EDE26DFC4E3F5000EE1
:103B0000DD22E2C5D9F4E3C5DAF4DEC4E4F5DDC4B0
:103B1000E5F5E4C5F4F5E5C5F5F5F66BF76BF86B7F
:103B2000F96BFA6BFB6BD0EF9DF0E0C5D9F4E1C502
:103B3000DAF4DFC4E2F5040EDE26DFC4E3F5000E9E
:103B4000DD22E2C5D9F4E3C5DAF4DEC4E4F5DEC46F
:103B5000E5F5DEC4E6F5DEC4E7F5E451F46FE551C2
:103B6000F56FE651F66FE751F76FF86BF96BFA6B8B
:103B7000FB6BD0EF9DF0FC51E26FE36BE351000A69
:103B8000D8B4C5EF9DF0D0EF9DF0E251690AD8B4EA
:103B900075EF9DF0050AD8B495EF9DF0D0EF9DF03C
:103BA000010EFD25E26F000EFE21E36FDEC5D9F4A4
:103BB000DFC5DAF4E2C5DEF4E3C5DDF418EF9EF00C
:103BC000DCC57BF5DDC57CF5F4C57DF5F5C57EF579
:103BD000F6C57FF5F7C580F5F8C581F5F9C582F51D
:103BE000FAC583F5FBC584F55BECC1F07BC5DCF55C
:103BF0007CC5DDF559EFA0F0DCC57BF5DDC57CF5B6
:103C0000F4C57DF5F5C57EF5F6C57FF5F7C580F5FC
:103C1000F8C581F5F9C582F5FAC583F5FBC584F5CC
:103C20005AECC3F07BC5DCF57CC5DDF559EFA0F09F
:103C3000FDC5F6F4FEC5F7F4000EF86E0800F55069
:103C4000E26FE36BE351000AD8B429EF9EF034EF42
:103C50009EF0E251750AD8B4E0EF9DF00D0AD8B499
:103C6000FCEF9DF034EF9EF0FDC5F6F4FEC5F7F4D1
:103C7000000EF86E0800F5506E0AD8A442EF9EF0D0
:103C800044EF9EF0B8EF9EF08FEF9EF0E0C5D9F4C0
:103C9000E1C5DAF4DFC4E2F5020EDE26DFC4E3F5A7
:103CA000000EDD22E2C5D9F4E3C5DAF4DEC4E4F5A2
:103CB000DDC4E5F5E4C5D9F4E5C5DAF465C6DEF49E
:103CC00066C6DDF4A4EF9EF065C6E2F566C6E3F5D0
:103CD000000EE3BFFF0EE46FE56FE0C5D9F4E1C568
:103CE000DAF4DFC4E6F5020EDE26DFC4E7F5000EE7
:103CF000DD22E6C5D9F4E7C5DAF4DEC4E8F5DDC4B3
:103D0000E9F5E8C5D9F4E9C5DAF4E2C5DEF4E3C5BE
:103D1000DEF4E4C5DEF4E5C5DEF4A4EF9EF0FC516C
:103D2000E26FE36BE351000AD8B499EF9EF0A4EF81
:103D30009EF0E251690AD8B446EF9EF0050AD8B465
:103D400064EF9EF0A4EF9EF0010EFD25E26F000EE1
:103D5000FE21E36FDEC5D9F4DFC5DAF4E2C5DEF497
:103D6000E3C5DDF4000EDD6F000EDC6F59EFA0F04F
:103D7000DEC5D9F4DFC5DAF4DEC4F6F4DDC4F7F449
:103D8000000EF86E0800F550730AD8B4CAEF9EF022
:103D9000CCEF9EF0E8EF9EF0DEC5D9F4DFC5DAF493
:103DA000DEC460F5DDC461F5DE0E626FFF0E636F89
:103DB000000E656F030E646F58ECD6F0050160517C
:103DC0006111D8A4E6EF9EF0E8EF9EF02EEF9FF091
:103DD000DEC5D9F4DFC5DAF4DEC4F6F4DDC4F7F4E9
:103DE000000EF86E0800F550730AD8B4FAEF9EF092
:103DF000FCEF9EF002EF9FF0000EF36F030EF26FE8
:103E000006EF9FF0000EF36F010EF26FDEC5D9F4DE
:103E1000DFC5DAF4F251DE26F351DD22DCC569F5A7
:103E2000DDC56AF5E0C5D9F4E1C5DAF4DFC4E2F531
:103E3000020EDE26DFC4E3F5000EDD22E2C5D9F472
:103E4000E3C5DAF4DEC46BF5DDC46CF5B8ECC7F09D
:103E500069C5DCF56AC5DDF559EFA0F0DEC5D9F41A
:103E6000DFC5DAF4DEC4FDF5DDC4FEF5FDC5F6F40C
:103E7000FEC5F7F4000EF86E0800F5C4FCF54DEF32
:103E80009FF0FD4BFE2B66EF9FF06C0EFC6F66EF14
:103E90009FF0000EFC6F66EF9FF0FC51E26FE36B4A
:103EA000E351000AD8B457EF9FF049EF9FF0E25179
:103EB0004C0AD8B441EF9FF02A0AD8B445EF9FF0DE
:103EC0000A0AD8B441EF9FF049EF9FF0FDC5F6F420
:103ED000FEC5F7F4000EF86E0800F550660AD8A487
:103EE00074EF9FF076EF9FF006EFA0F0ACEF9FF03D
:103EF000E0C5D9F4E1C5DAF4DFC4E2F5040EDE264C
:103F0000DFC4E3F5000EDD22E2C5D9F4E3C5DAF43F
:103F1000DEC4F4F5DEC4F5F5DEC4F6F5DEC4F7F56F
:103F2000C1EF9FF0E0C5D9F4E1C5DAF4DFC4E2F5F2
:103F3000040EDE26DFC4E3F5000EDD22E2C5D9F46F
:103F4000E3C5DAF4DEC4F4F5DEC4F5F5DEC4F6F557
:103F5000DEC4F7F5C1EF9FF0FC51E26FE36BE35174
:103F6000000AD8B4B6EF9FF0C1EF9FF0E2514C0ABF
:103F7000D8B492EF9FF0200AD8B478EF9FF0C1EF49
:103F80009FF0010EFD25E26F000EFE21E36FDEC5FE
:103F9000D9F4DFC5DAF4E2C5DEF4E3C5DDF4EEEF13
:103FA0009FF0DCC5D3F5DDC5D4F5F4C5D5F5F5C571
:103FB000D6F5F6C5D7F5F7C5D8F5FDC5F6F4FEC5B7
:103FC000F7F4000EF86E0800F5C4D9F5F8EC95F09A
:103FD000D3C5DCF5D4C5DDF559EFA0F0FDC5F6F489
:103FE000FEC5F7F4000EF86E0800F550E26FE36BC3
:103FF000E351000AD8B4FFEF9FF006EFA0F0E251C2
:10400000660AD8B4D1EF9FF006EFA0F0DEC5D9F470
:10401000DFC5DAF4DEC4F6F4DDC4F7F4000EF86EA2
:104020000800F550250AD8A418EFA0F01AEFA0F068
:1040300032EFA0F0DEC5D9F4DFC5DAF4DE2A000ED7
:10404000DD22000E616F250E606FDCC562F5DDC5F7
:1040500063F549ECDAF0000E0501DD6F010EDC6F4F
:1040600059EFA0F0DEC5D9F4DFC5DAF4DE2A000E80
:10407000DD22B2EF9EF0DEC5D9F4DFC5DAF4DEC48E
:10408000F6F4DDC4F7F4000EF86E0800F5500501F3
:10409000606F616BDCC562F5DDC563F549ECDAF094
:1040A000DEC5D9F4DFC5DAF4DE2A000EDD222BEFFF
:1040B000A0F01200050120EE2CF17851D92679519B
:1040C000DA22DF50D8A467EFA0F069EFA0F06CEF20
:1040D000A0F0030EBAEFA3F020EE01F07851D9263C
:1040E0007951DA22000EDF6E78C56CF579C56DF571
:1040F00051ECD4F0000E0501886F00EFA1F0000E26
:104100008B6F8B51230DF3C47AF5F4C47BF57A5190
:1041100078257C6F7B5179217D6F020E7C25D96ECD
:10412000000E7D21DA6E8851020DF3C47FF5F4C4D0
:1041300080F57F517825816F80517921826F2D0E16
:104140008125E16E010E8221E26E00EE02F0E65062
:10415000E926E550EA22DE50EE18D8A4B2EFA0F02E
:10416000B4EFA0F0B6EFA0F0FFEFA0F0070E8B19B0
:10417000D8A4BDEFA0F0BFEFA0F0F6EFA0F08851FB
:10418000020DF3C47AF5F4C47BF57A5178257C6F7F
:104190007B5179217D6F2D0E7C25D96E010E7D21FD
:1041A000DA6E10EE02F0DE50E126DD50E22278C534
:1041B000D9F479C5DAF4DF507E6F7E51230DF3C454
:1041C0007FF5F4C480F57F517825816F8051792186
:1041D000826F020E8125D96E000E8221DA6EE7C44D
:1041E000DFF478C5D9F479C5DAF4DF2A8B2B070E12
:1041F0008B65FDEFA0F0FFEFA0F081EFA0F0882B22
:1042000020EE2CF17851D9267951DA22DE50885DE2
:10421000D8A00DEFA1F00FEFA1F07FEFA0F0000EFE
:104220008F6FACEFA3F0010E896F000E8E6F000E42
:104230008D6F000E8A6F7FEFA1F08A51020DF3C4DB
:104240007AF5F4C47BF57A5178257C6F7B5179211E
:104250007D6F2D0E7C25D96E010E7D21DA6E10EE5C
:1042600002F0DE50E126DD50E2228F51230DF3C42F
:104270007FF5F4C480F57F517825816F80517921D5
:10428000826F020E8125D96E000E8221DA6EE65011
:10429000DE18D8A44EEFA1F050EFA1F07EEFA1F010
:1042A0008A51020DF3C47AF5F4C47BF57A5178256E
:1042B0007C6F7B5179217D6F2D0E7C25D96E010E8F
:1042C0007D21DA6E10EE03F0DE50E126DD50E222B1
:1042D000E6C47EF5E5C47FF57FC57EF57F6B7E5134
:1042E0007F11D8A476EFA1F07AEFA1F0806B802B3C
:1042F0007CEFA1F00501806B802989278A2B20EEB5
:104300002CF17851D9267951DA22DE508A5DD8A075
:104310008CEFA1F08EEFA1F01DEFA1F0070E8961E7
:1043200094EFA1F096EFA1F0DCEFA1F08F51230DF7
:10433000F3C47AF5F4C47BF57A5178257C6F7B5110
:1043400079217D6F8E517C27000E7D23030E7C2505
:10435000D96E000E7D21DA6E89C5DFF48E2B8F5168
:10436000230DF3C47AF5F4C47BF57A5178257C6F7C
:104370007B5179217D6F020E7C25D96E000E7D2147
:10438000DA6E8F51230DF3C47EF5F4C47FF57E51B0
:104390007825806F7F517921816F8E518027000EA3
:1043A0008123030E8025E16E000E8121E26EDFC4C1
:1043B000E7F48E2B3BEFA2F08F51230DF3C47AF577
:1043C000F4C47BF57A5178257C6F7B5179217D6F20
:1043D0008E517C27000E7D23030E7C25D96E000EA6
:1043E0007D21DA6E8D511009DF6E8E2B8F51230DDA
:1043F000F3C47AF5F4C47BF57A5178257C6F7B5150
:1044000079217D6F8E517C27000E7D23030E7C2544
:10441000D96E000E7D21DA6E89C5DFF48E2B8F51A7
:10442000230DF3C47AF5F4C47BF57A5178257C6FBB
:104430007B5179217D6F020E7C25D96E000E7D2186
:10444000DA6E8F51230DF3C47EF5F4C47FF57E51EF
:104450007825806F7F517921816F8E518027000EE2
:104460008123030E8025E16E000E8121E26EDFC400
:10447000E7F4D9EFA1F0000E8C6F9CEFA3F08C5104
:10448000020DF3C47AF5F4C47BF57A5178257C6F7C
:104490007B5179217D6F2D0E7C25D96E010E7D21FA
:1044A000DA6E10EE02F0DE50E126DD50E2228F518E
:1044B000230DF3C47FF5F4C480F57F517825816F17
:1044C00080517921826F020E8125D96E000E8221E2
:1044D000DA6EE650DE18D8A470EFA2F072EFA2F008
:1044E00087EFA3F08C51020DF3C47AF5F4C47BF589
:1044F0007A5178257C6F7B5179217D6F2D0E7C253B
:10450000D96E010E7D21DA6E10EE03F0DE50E12649
:10451000DD50E222E6C47EF5E5C47FF57FC57EF579
:104520007F6B7E517F11D8A498EFA2F09AEFA2F092
:104530009CEFA2F0E9EFA2F08D51080DF3C47AF5DB
:10454000F4C47BF58F51230DF3C47CF5F4C47DF5E1
:104550007C5178257E6F7D5179217F6F7A517E2540
:10456000806F7B517F21816F8E518027000E8123C8
:10457000030E8025D96E000E8121DA6E8C51020D5A
:10458000F3C482F5F4C483F582517825846F835196
:104590007921856F2D0E8425E16E010E8521E26E55
:1045A00000EE03F0E650E926E550EA22EEC486F577
:1045B000EDC487F587C586F5876B8651DF6E8D0E56
:1045C000606F050E616F8E0E626F050E636F20ECDB
:1045D000E9F005018C51020DF3C47AF5F4C47BF5C2
:1045E0007A5178257C6F7B5179217D6F2D0E7C254A
:1045F000D96E010E7D21DA6E10EE03F0DE50E12659
:10460000DD50E222E6C47EF5E5C47FF57E51000967
:10461000D8B40DEFA3F00FEFA3F055EFA3F08C513A
:10462000020DF3C47AF5F4C47BF57A5178257C6FDA
:104630007B5179217D6F2D0E7C25D96E010E7D2158
:10464000DA6E10EE03F0DE50E126DD50E2228D51ED
:10465000080DF3C47EF5F4C47FF58F51230DF3C428
:1046600080F5F4C481F580517825826F81517921DC
:10467000836F7E518225846F7F518321856F8E5198
:104680008427000E8523030E8425D96E000E852114
:10469000DA6EE7C4DFF48D0E606F050E616F8E0E6B
:1046A000626F050E636F20ECE9F005018D51D8B4FF
:1046B0005CEFA3F05EEFA3F087EFA3F08E05D8A424
:1046C00064EFA3F066EFA3F087EFA3F08D51080D20
:1046D000F3C47AF5F4C47BF58F51230DF3C47CF554
:1046E000F4C47DF57C5178257E6F7D5179217F6FF3
:1046F0007A517E25806F7B517F21816F030E80254B
:10470000D96E000E8121DA6E8D512009DF6E8F5136
:10471000230DF3C47AF5F4C47BF57A5178257C6FC8
:104720007B5179217D6F230E7C25D96E000E7D2172
:10473000DA6E8D29DF6E8C2B20EE2CF17851D92684
:104740007951DA22DE508C5DD8A0A9EFA3F0ABEF4F
:10475000A3F03FEFA2F08F2B78C5D9F479C5DAF436
:10476000DE508F5DD8A0B7EFA3F0B9EFA3F013EF41
:10477000A1F0010E12004350D8B4C1EFA3F0C3EF73
:10478000A3F0E1EFA6F0010E03EFA7F0010E3FEC5E
:10479000EFF0010E446EC3EFA3F0000E7B6F010E2D
:1047A0007B25606F616B000E6123010E636FF40E59
:1047B000626F43ECF2F0050160C576F561C577F5EF
:1047C000000E77BFFF0E786F796F34ECEBF00501C8
:1047D0007651645D775165597851665979516759B9
:1047E000D8A0F5EFA3F0F7EFA3F024EFA4F07BC57A
:1047F00060F5616B000E636F020E626F79ECDBF0A7
:10480000050160A106EFA4F008EFA4F015EFA4F0F5
:10481000000E686F000E696F37ECF3F005016A6FE8
:104820007B5180ECEBF067EFA4F0000E686F37EC83
:10483000F3F00501696F37ECF3F005016A6F7B5106
:1048400080ECEBF067EFA4F0010E7B25606F616BED
:10485000000E6123010E636FF40E626F43ECF2F001
:10486000050160C576F561C577F5000E77BFFF0ECF
:10487000786F796F0EECEBF00501645176190DE15C
:10488000655177190AE16651781907E1675179197D
:10489000D8A44DEFA4F04FEFA4F05EEFA4F037ECF6
:1048A000F3F00501686F37ECF3F00501696F000E56
:1048B0006A6F7B5180ECEBF067EFA4F0000E686F3D
:1048C000000E696F000E6A6F7B5180ECEBF0050102
:1048D0007B2B0F0E7B656FEFA4F071EFA4F0CFEF91
:1048E000A3F0020E446EC3EFA3F04050D8B47BEFA8
:1048F000A4F07DEFA4F0A5EFA4F034ECEBF00501FB
:10490000675166110BE1F50E645D010E6559D8A083
:104910008CEFA4F08EEFA4F0A1EFA4F034ECEBF058
:104920000C0E050164256F6FFE0E6521706FFF0E82
:104930006621716FFF0E6721726F000E736F3FEC7F
:10494000DFF0000E406EC9EFA3F03F50D8B4ABEFDC
:10495000A4F0ADEFA4F0D5EFA4F034ECEBF005013A
:104960006751661109E1400E645D1F0E6559D8B0AC
:10497000BCEFA4F0BEEFA4F0D1EFA4F034ECEBF068
:10498000F40E050164256F6F010E6521706F000E36
:104990006621716F000E6721726F000E736F3FEC1E
:1049A000DFF0000E3F6EC9EFA3F04150D8B4DBEF4B
:1049B000A4F0DDEFA4F0FCEFA4F0000E416E7EEC5D
:1049C000F2F003EFA7F04450766F776B7751000A4F
:1049D000D8B4EDEFA4F0C3EFA3F07651000AD8B439
:1049E000C6EFA3F0010AD8B4CDEFA3F0030AD8B400
:1049F00075EFA4F0C3EFA3F0C3EFA3F0020E3FECFA
:104A0000EFF0C9EFA3F0000E7A6F0F0E7A650BEF8F
:104A1000A5F00DEFA5F00FEFA5F071EFA4F0010EDA
:104A20007A25606F616B000E6123010E636FF40ED7
:104A3000626F43ECF2F0050160C576F561C577F56C
:104A4000000E77BFFF0E786F796F0EECEBF005016B
:104A50007651645D77516559785166597951675936
:104A6000D8A035EFA5F037EFA5F064EFA5F07AC533
:104A700060F5616B000E636F020E626F79ECDBF024
:104A8000050160A146EFA5F048EFA5F055EFA5F0B0
:104A900037ECF3F00501686F000E696F000E6A6F66
:104AA0007A5180ECEBF06DEFA5F037ECF3F00501F7
:104AB000686F37ECF3F00501696F000E6A6F7A5189
:104AC00080ECEBF06DEFA5F0000E686F000E696FE3
:104AD000000E6A6F7A5180ECEBF005017A2B05EF3E
:104AE000A5F04050D8B477EFA5F079EFA5F09FEF8F
:104AF000A5F00EECEBF00501675166110BE1F50E28
:104B0000645D010E6559D8A088EFA5F08AEFA5F085
:104B1000A1EFA4F00EECEBF00C0E050164256F6F15
:104B2000FE0E6521706FFF0E6621716FFF0E67210B
:104B3000726F000E736FF0ECDEF0A1EFA4F03F5047
:104B4000D8B4A5EFA5F0A7EFA5F0CDEFA5F00EEC3A
:104B5000EBF005016751661109E1400E645D1F0E1F
:104B60006559D8B0B6EFA5F0B8EFA5F0D1EFA4F035
:104B70000EECEBF0F40E050164256F6F010E65215C
:104B8000706F000E6621716F000E6721726F000E4C
:104B9000736FF0ECDEF0D1EFA4F04150D8B4D3EF56
:104BA000A5F0D5EFA5F0FCEFA4F0DDEFA4F04450A4
:104BB000766F776B7751000AD8B4E1EFA5F0C3EFB9
:104BC000A3F07651000AD8B4FEEFA4F0010AD8B4DD
:104BD00003EFA5F0030AD8B471EFA5F0C3EFA3F07B
:104BE000030E3FECEFF0C9EFA3F04050D8B4FBEF59
:104BF000A5F0FDEFA5F01FEFA6F0BBECF3F0000968
:104C0000D8B405EFA6F007EFA6F013EFA6F0000E5C
:104C100005016F6FBBECF3F00501766F760539EC9B
:104C2000E4F019EFA6F0000E05016F6F030E39ECEA
:104C3000E4F0000E406E000E446EC3EFA3F03F5050
:104C4000D8B425EFA6F027EFA6F047EFA6F0BBEC0F
:104C5000F3F00501766F030E766131EFA6F033EFC6
:104C6000A6F03EEFA6F0000E6F6FBBECF3F005016F
:104C7000766F762939ECE4F043EFA6F0000E6F6F03
:104C8000000E39ECE4F0000E3F6E1BEFA6F0415031
:104C9000D8B44DEFA6F04FEFA6F0FCEFA4F0DDEF97
:104CA000A4F04450766F776B7751000AD8B45BEF6D
:104CB000A6F0C3EFA3F07651000AD8B4F0EFA5F048
:104CC000010AD8B471EFA4F0030AD8B4F5EFA5F047
:104CD000C3EFA3F0040E3FECEFF0C9EFA3F0405098
:104CE000D8B475EFA6F077EFA6F095EFA6F09BECA1
:104CF000F3F00009D8B47FEFA6F081EFA6F08DEFB6
:104D0000A6F0000E05016F6F9BECF3F00501766FC6
:104D1000760505ECE4F019EFA6F0000E05016F6FC3
:104D2000030E05ECE4F019EFA6F03F50D8B49BEF6A
:104D3000A6F09DEFA6F0BBEFA6F09BECF3F005010B
:104D4000766F030E7661A7EFA6F0A9EFA6F0B4EF99
:104D5000A6F0000E6F6F9BECF3F00501766F7629DD
:104D600005ECE4F043EFA6F0000E6F6F000E05ECCB
:104D7000E4F043EFA6F04150D8B4C1EFA6F0C3EF82
:104D8000A6F0FCEFA4F0DDEFA4F04450766F776B53
:104D90007751000AD8B4CFEFA6F0C3EFA3F0765155
:104DA000000AD8B46AEFA6F0010AD8B471EFA4F0F3
:104DB000030AD8B46FEFA6F0C3EFA3F0000E03EF21
:104DC000A7F045500501766F776B7751000AD8B48C
:104DD000ECEFA6F0DEEFA6F07651000AD8B4E3EFD0
:104DE000A4F0010AD8B4D7EFA5F0030AD8B451EF64
:104DF000A6F0010AD8B4C5EFA6F0070AD8B4DEEFD2
:104E0000A6F0DEEFA6F0120005019951800BA26F0B
:104E100099519925A46F98AF10EFA7F012EFA7F062
:104E200013EFA7F0A481A451D8B419EFA7F01BEF9A
:104E3000A7F030EFA7F0A429D8A421EFA7F023EF23
:104E4000A7F02BEFA7F0000E966F000E976F000EE5
:104E5000986F000E996F988F000E996F38EFA7F03A
:104E6000000E966F000E976F000E986F000E996FF0
:104E70009D51800BA36FA251A319D8B442EFA7F0A4
:104E800044EFA7F045EFA7F0A28D9D519D25A36F9C
:104E90009CAF4DEFA7F04FEFA7F050EFA7F0A38125
:104EA000A351D8B456EFA7F058EFA7F06DEFA7F0D5
:104EB000A329D8A45EEFA7F060EFA7F068EFA7F0F2
:104EC000000E9A6F000E9B6F000E9C6F000E9D6F80
:104ED0009C8F000E9D6F75EFA7F0000E9A6F000E6D
:104EE0009B6F000E9C6F000E9D6FA451A35DD8B008
:104EF0007CEFA7F07EEFA7F0A5EFA7F0A2AD83EFC0
:104F0000A7F085EFA7F087EFA7F0800EA21BA4C53E
:104F1000A5F5A3C5A4F5A5C5A3F596C5A5F59AC5A0
:104F200096F5A5C59AF597C5A5F59BC597F5A5C5B1
:104F30009BF598C5A5F59CC598F5A5C59CF599C5A3
:104F4000A5F59DC599F5A5C59DF5000EA56FA451C4
:104F5000A3C59EF59F6B9E5F000E9F5B9FBFBAEF40
:104F6000A7F09F5109E11A0E9E5DD8A0BAEFA7F0F5
:104F7000BCEFA7F0F3EFA7F0965197119811991194
:104F8000D8A4C5EFA7F0C8EFA7F0010EC9EFA7F0AE
:104F9000000EA56F000E966F000E976F000E986FB3
:104FA000000E996FA3C5A4F5FCEFA7F0A5A1DBEF58
:104FB000A7F0DDEFA7F0E3EFA7F0D890A531010946
:104FC000A56FE5EFA7F0D890A53396A1EAEFA7F07B
:104FD000ECEFA7F0EDEFA7F0A58F99359933983353
:104FE00097339633A42BA351A45DD8A0FAEFA7F072
:104FF000FCEFA7F0D6EFA7F0A2BD01EFA8F003EFFA
:10500000A8F043EFA8F0A451D8A409EFA8F00BEF43
:10501000A8F015EFA8F0000E966F000E976F000E27
:10502000986F000E996F64EFA9F09A5196279B51E3
:1050300097239C5198239D51992399A122EFA8F081
:1050400024EFA8F0D0EFA8F0A5A129EFA8F02BEF4E
:10505000A8F031EFA8F0D890A5310109A56F33EF82
:10506000A8F0D890A53396A138EFA8F03AEFA8F0B1
:105070003BEFA8F0A58F9935993398339733963342
:10508000A42BD0EFA8F09A51965D9B5197599C5153
:1050900098599951800A9E6F9D51800A9E59D8B0A7
:1050A00054EFA8F056EFA8F081EFA8F096519A5D62
:1050B0009E6F97519B599F6F98519C59A06F995122
:1050C0009D59A16FFF0E9E25966FFF0E9F21976F32
:1050D000FF0EA021986FFF0EA121996F800EA21BD9
:1050E000A56DA551D8A477EFA8F079EFA8F089EFC6
:1050F000A8F0010E9627000E97239823992389EF95
:10510000A8F09A51965F9B51975B9C51985B9D517B
:10511000995B9651971198119911D8A492EFA8F024
:1051200094EFA8F0C9EFA8F0A551D8A49AEFA8F081
:105130009CEFA8F0C9EFA8F0000E966F000E976FD5
:10514000000E986F000E996F64EFA9F0D890963713
:10515000973798379937A5AFB0EFA8F0B2EFA8F01E
:10516000B3EFA8F09681A5A1B8EFA8F0BAEFA8F028
:10517000BEEFA8F0D880A537C0EFA8F0D890A5372B
:10518000A451D8B4C6EFA8F0C8EFA8F0C9EFA8F0B2
:10519000A40798AFCEEFA8F0D0EFA8F0A6EFA8F044
:1051A000000EA36FA5AFD7EFA8F0D9EFA8F0F1EFED
:1051B000A8F0A5C59EF57F0E9E17D8B4E2EFA8F023
:1051C000E4EFA8F0E8EFA8F0010EA36FF1EFA8F06C
:1051D00096A1EDEFA8F0EFEFA8F0F1EFA8F0E4EF63
:1051E000A8F0A351D8B4F7EFA8F0F9EFA8F024EF96
:1051F000A9F0010E9627000E97239823992399A1D1
:1052000004EFA9F006EFA9F024EFA9F096C59EF5EA
:1052100097C59FF598C5A0F599C5A1F5A135A1330E
:10522000A0339F339E339EC596F59FC597F5A0C5C5
:1052300098F5A1C599F5A429D8B421EFA9F023EFD9
:10524000A9F024EFA9F0A42BA429D8B42AEFA9F03F
:105250002CEFA9F034EFA9F0A451D8A432EFA9F0B3
:1052600034EFA9F046EFA9F0000E966F000E976F8D
:10527000000E986F000E996FA451D8A442EFA9F0C8
:1052800044EFA9F046EFA9F0000EA26FA4A14BEFE6
:10529000A9F04DEFA9F050EFA9F0988F51EFA9F0C8
:1052A000989FD890A431996FA2AF59EFA9F05BEF06
:1052B000A9F05CEFA9F0998F96C596F597C597F57B
:1052C00098C598F599C599F512009FEFABF0040EBB
:1052D00042606DEFA9F06FEFA9F090EFA9F042B036
:1052E00074EFA9F076EFA9F080EFA9F0000E056E3B
:1052F00059ECF3F0066E000E5CECF1F087EFA9F0CC
:10530000000E056E000E066E000E5CECF1F0422AF7
:10531000000E026EC80E016E9DEC01F0BCEFABF00A
:10532000000E436E000E426EC9EC01F0BCEFABF014
:10533000040E42609EEFA9F0A0EFA9F090EFA9F053
:1053400042B0A5EFA9F0A7EFA9F0B1EFA9F0000EC8
:10535000056E000E066E59ECF3F05CECF1F087EF91
:10536000A9F0000E056E000E066E000E5CECF1F06A
:1053700087EFA9F0100E4260C0EFA9F0C2EFA9F0CC
:10538000D6EFA9F0000E016E59ECF3F0026E000E9C
:10539000036E42500F0BC4ECECF0000E026E140EC4
:1053A000016E9DEC01F0422ABCEFABF04250016E61
:1053B000026A036A046A010E0BECC6F001C50FF520
:1053C00002C510F503C511F504C512F5000E136EE4
:1053D000000E146EE00E156E410E166E56ECD5F0F2
:1053E000D8B0F5EFA9F0F7EFA9F090EFA9F0000E13
:1053F000016E000E026E000E036E42C51BF50F0E0D
:105400001B161B500F08C4ECECF0CDEFA9F0100EEA
:1054100042600DEFAAF00FEFAAF020EFAAF0000E05
:10542000016E59ECF3F0026E000E036E42C51BF5DF
:105430000F0E1B161B500F08C4ECECF0CDEFA9F0BB
:105440004250016E026A036A046A010E0BECC6F058
:1054500001C50FF502C510F503C511F504C512F518
:10546000000E136E000E146EE00E156E410E166ED9
:1054700056ECD5F0D8B03FEFAAF041EFAAF090EF8C
:10548000A9F0000E016E000E026E000E036E425077
:105490000F0BC4ECECF0CDEFA9F0080E426053EF17
:1054A000AAF055EFAAF077EFAAF0000E016E59ECC2
:1054B000F3F0026E000E036E42500F0BC4ECECF0E2
:1054C000000E016E59ECF3F0026E000E036E42C541
:1054D0001BF50F0E1B161B500F08C4ECECF0000E52
:1054E000026E280E016E9DEC01F0D3EFA9F0425040
:1054F000016E026A036A046A010E0BECC6F001C574
:105500000FF502C510F503C511F504C512F59A0E85
:10551000136E990E146E590E156E410E166E56ECE2
:10552000D5F0D8B096EFAAF098EFAAF090EFA9F0D6
:10553000000E016E000E026E000E036E4250C4ECAF
:10554000ECF0000E016E000E026E000E036E425073
:105550000F08C4ECECF06FEFAAF0080E4260B3EF56
:10556000AAF0B5EFAAF0CDEFAAF0000E016E59EC4B
:10557000F3F0026E000E036E4250080FC4ECECF024
:10558000000E016E59ECF3F0026E000E036E4250F5
:105590000708C4ECECF06FEFAAF04250016E026A0B
:1055A000036A046A010E0BECC6F001C50FF502C5D3
:1055B00010F503C511F504C512F59A0E136E990E78
:1055C000146E590E156E410E166E56ECD5F0D8B00D
