:040000000DEF00F010
:04000800C3EFC4F08E
:10001800FF008AEFDEF0010E0501646F200E601903
:100028006111D8B41AEF00F01CEF00F02FEF00F0C8
:10003800F70E6025626FFF0E6121636F635109E15E
:10004800050E625DD8A02BEF00F02DEF00F02FEF2A
:1000580000F0000E646F64C560F5616B1200050165
:100068006351621109E1F40E605D010E6159D8B067
:1000780040EF00F042EF00F045EF00F0000E56EFC1
:1000880000F0635162110BE1810E605D3E0E615913
:10009800D8A051EF00F053EF00F055EF00F042EF19
:1000A80000F0010E120062C564F563C565F560C510
:1000B80066F561C567F564C5F6F465C5F7F405012D
:1000C800644B652B000EF86E66C5D9F467C5DAF483
:1000D800664B672B0800F5C4DFF4DF50D8A477EF30
:1000E80000F079EF00F05FEF00F01200A8ECF5F0F7
:1000F80064C594F765C595F766C596F767C597F71C
:100108007CC599F77DC59AF7000E17EC04F0050138
:100118007F6F7FA192EF00F094EF00F09BEF00F06B
:10012800940E766F070E776F000E60ECE8F0010E04
:1001380012000501616F000E0501606F040E616118
:10014800A8EF00F0AAEF00F0BDEF00F061510C0D30
:10015800500EF324D96E010EF420DA6E0101DFAEE1
:10016800B8EF00F0BAEF00F0BDEF00F0010E0501A6
:10017800606F050160511200046E04500F08046E90
:100188000450030D520EF324D96E090EF420DA6ED2
:1001980002C5DFF40450030D530EF324D96E090E83
:1001A800F420DA6E01C5DFF40450030D540EF32475
:1001B800D96E090EF420DA6E03C5DFF4120004507C
:1001C800031009E1F40E015C010E0258D8B0EFEFFC
:1001D80000F0F1EF00F0F4EF00F0000E05EF01F091
:1001E800045003100BE1810E015C3E0E0258D8A0AA
:1001F80000EF01F002EF01F004EF01F0F1EF00F081
:10020800010E1200286E756C6C2900FFFFFFFFE8D5
:100218000300000101010000010B000400000000C0
:10022800000000000000000000010C0006000000B3
:100238000000000000000000300000000000000086
:100248005555555555555555050173BF36EF01F0B0
:10025800735106E17205D8B034EF01F036EF01F0C2
:1002680044EF01F072C574F573C575F5741F751FF9
:10027800744B752B74C572F575C573F548EF01F0AD
:1002880072C572F573C573F512004FEC0CF004508B
:100298000310021007E1650E015CD8B056EF01F0BB
:1002A80058EF01F069EF01F00601F251F311F41172
:1002B800F511D8B462EF01F064EF01F069EF01F0D5
:1002C800F207000EF35BF45BF55B1200000E05010C
:1002D800616F080E606FA9EC09F00501646F645145
:1002E800676F686B000E616F090E606FA9EC09F00B
:1002F8000501646F6751656F6451676F65C568F57F
:1003080067C562F568C563F51200000E0501616FE7
:100318000D0E606FA9EC09F00501646F6451676FF9
:10032800686B000E616F0E0E606FA9EC09F0050195
:10033800646F6751656F6451676F65C568F567C518
:1003480062F568C563F512000501646F64C5ECF3D6
:100358000301F38FF39DF381F3B1B5EF01F0B7EF2C
:1003680001F0B0EF01F0EB510501636F626B03011F
:10037800EA5105016225606F0301000E0501632142
:10038800616F12009F0E05016425666FFF0E6521DF
:10039800676F675107E11A0E665DD8B0D6EF01F0B6
:1003A800D8EF01F0DEEF01F05F0E6415646F656B46
:1003B800E2EF01F064C564F565C565F51200200E2D
:1003C80005016011626F000E6111636F9F0E622557
:1003D800646FFF0E6321656F65510AE11A0E645D53
:1003E800D8A0F9EF01F0FCEF01F0010EFDEF01F0EC
:1003F800000E606F616B120005016051611162119E
:100408006311D8B40AEF02F00CEF02F014EF02F017
:10041800000E601B000E611B000E621B800E631B2A
:1004280060C560F561C561F562C562F563C563F5D0
:100438001200B3986DC601F56EC602F586EC05F09C
:1004480006016B4B6C2B6C5109E1050E6B5DD8A056
:1004580030EF02F032EF02F039EF02F062EC04F014
:10046800000E06016C6F000E6B6F1200B19871C61A
:1004780001F572C602F59BEC05F006016F4B702B77
:10048800705109E1080E6F5DD8A04DEF02F04FEFF3
:1004980002F056EF02F07BEC04F0000E0601706FDC
:1004A800000E6F6F120086C574F587C575F50501D6
:1004B800000E75BFFF0E766F776F010EA3ECC6F0C6
:1004C80074C582F575C583F576C584F577C585F558
:1004D80046EC0CF0010E06017D6F12000701EB518E
:1004E800EC11ED11D8B47BEF02F07DEF02F08AEF4A
:1004F80002F002D88AEF02F00500FA6EEB51FD6EA9
:10050800EC51FE6EED51FF6EFA5012000401179F78
:1005180012000701EE51EF11F011D8B496EF02F076
:1005280098EF02F0A5EF02F002D8A5EF02F005005F
:10053800FA6EEE51FD6EEF51FE6EF051FF6EFA50FD
:1005480012000401179712000701F151F211F3117B
:10055800D8B4B1EF02F0B3EF02F0C0EF02F002D866
:10056800C0EF02F00500FA6EF151FD6EF251FE6E19
:10057800F351FF6EFA50120004010F9512000701A3
:10058800F451F511F611D8B4CCEF02F0CEEF02F029
:10059800DBEF02F002D8DBEF02F00500FA6EF4514F
:1005A800FD6EF551FE6EF651FF6EFA501200040111
:1005B800079B12000701F751F811F911D8B4E7EFBA
:1005C80002F0E9EF02F0F6EF02F002D8F6EF02F0DF
:1005D8000500FA6EF751FD6EF851FE6EF951FF6E87
:1005E800FA5012000401079912000701FA51FB1191
:1005F800FC11D8B402EF03F004EF03F011EF03F09D
:1006080002D811EF03F00500FA6EFA51FD6EFB51A6
:10061800FE6EFC51FF6EFA5012000401079712009B
:100628005FC660F560C661F55EEC09F00009D8A404
:1006380020EF03F022EF03F029EF03F0000E05018D
:10064800636F000E626F2DEF03F05FC662F560C640
:1006580063F512000501706F000E4A6E70C57BF6D7
:10066800000E05016C6F000E6D6F000EFEEC03F0BE
:10067800010E4B6E000E0501616F050E606F7FEC79
:100688000DF0A3EC0DF01200050120EE84F16C5181
:10069800D9266D51DA22000EDF6E620E6C25606F6E
:1006A800010E6D21616F000E636F000E626F000E08
:1006B800656F200E646F1FECCDF01200010E030170
:1006C8003E6F000E3D6F000E3F6F9F0E3B6F000E9A
:1006D8003A6FBD96AD86B60E0501606F1B0E616F51
:1006E800000E626FD4EC0CF0FC0E03013C6F12009C
:1006F800010E0301326F000E316F000E336F310EA1
:100708002F6F000E2E6FB996A986BA0E0501606F7D
:100718001B0E616F000E626FE2EC0CF0640E0301B9
:10072800306F1200000E0001D56F010ED76F1F0E3B
:10073800D86F410ED96F400EDA6F1F0EDB6F050EB2
:10074800DC6F100EDD6F080EDE6F200EDF6F000EFF
:10075800D46F800ED66F1200BD960601405141112C
:100768004211D8B4BAEF03F0BCEF03F0C9EF03F0BD
:1007780002D8C9EF03F00500FA6E4051FD6E4151F1
:10078800FE6E4251FF6EFA5012001200B19E060131
:100798003D513E113F11D8B4D4EF03F0D6EF03F02A
:1007A800E3EF03F002D8E3EF03F00500FA6E3D51E2
:1007B800FD6E3E51FE6E3F51FF6EFA501200120060
:1007C800B0900701E551E611E711D8B4EEEF03F058
:1007D800F0EF03F0FDEF03F002D8FDEF03F00500A2
:1007E800FA6EE551FD6EE651FE6EE751FF6EFA5066
:1007F8001200120005016E6F000E05016F6F6EC5C5
:1008080068F56CC569F56DC56AF56F51AFECF6F022
:1008180005016F2B0F0E6F6514EF04F016EF04F04F
:1008280003EF04F012000501636F000E0501626F0B
:1008380063519DEC00F00009D8B425EF04F027EFD0
:1008480004F02DEF04F005016351B7EC09F0050140
:10085800626F0501625112000601435144114511AE
:10086800D8B439EF04F03BEF04F048EF04F002D8B5
:1008780048EF04F00500FA6E4351FD6E4451FE6ED8
:100888004551FF6EFA5012001200060146514711F9
:100898004811D8B452EF04F054EF04F061EF04F0BB
:1008A80002D861EF04F00500FA6E4651FD6E47511B
:1008B800FE6E4851FF6EFA501200120006014951AF
:1008C8004A114B11D8B46BEF04F06DEF04F07AEFD6
:1008D80004F002D87AEF04F00500FA6E4951FD6E73
:1008E8004A51FE6E4B51FF6EFA501200120006017B
:1008F8004C514D114E11D8B484EF04F086EF04F03A
:1009080093EF04F002D893EF04F00500FA6E4C510F
:10091800FD6E4D51FE6E4E51FF6EFA5012001200E0
:100928009F0E05016025626FFF0E6121636F6351A1
:100938000AE11A0E625DD8A0A4EF04F0A7EF04F054
:10094800010EA8EF04F0000E606F616B1200D00E6C
:1009580005016025626FFF0E6121636F63510AE133
:100968000A0E625DD8A0BBEF04F0BEEF04F0010EE2
:10097800BFEF04F0000E606F616B1200000E0501FE
:10098800606F6051020DF70EF324D96E060EF42045
:10099800DA6E000EDF6E602B010E6065D6EF04F094
:1009A800D8EF04F0C5EF04F01200B9960601694BC0
:1009B8006A2BFA51695DFB516A59D8A0E6EF04F039
:1009C800E8EF04F0EFEF04F049EC04F0000E060144
:1009D8006A6F000E696F12004A0E03011B6F8D0EBD
:1009E800196F000E186FB19EA18EC00E0501606FC1
:1009F8001B0E616F000E626FF7EC0CF08A0E03019C
:100A08001A6F1200040E0201946F800E956F180E73
:100A1800966F030E9E6F000E9A6F000E9B6F000E6E
:100A2800976F000E8C6F000E8D6F000E9D6F120079
:100A3800076E000E086E07C501F505C502F506C567
:100A480003F50850C0EC00F0082A0F0E08642FEFD9
:100A580005F031EF05F01FEF05F01200000E05015B
:100A6800626F622B180E62653CEF05F03EEF05F0F1
:100A780035EF05F020EE2FF16051D9266151DA22C9
:100A8800000EDF6E1200480E5524D96EDA6A080E81
:100A9800DA22B4C2DFF4552A170E556456EF05F072
:100AA80058EF05F05AEF05F0000E556E532A120064
:100AB800180E5224D96EDA6A080EDA22A1C2DFF4BF
:100AC800522A170E52646BEF05F06DEF05F06FEFC9
:100AD80005F0000E526E502A1200030136A577EF7A
:100AE80005F079EF05F081EF05F036910250356F8A
:100AF80001C534F3368185EF05F00250356F01C525
:100B080034F3120003012AA58CEF05F08EEF05F0EF
:100B180096EF05F02A910250296F01C528F32A8122
:100B28009AEF05F00250296F01C528F3120003015E
:100B38001EA5A1EF05F0A3EF05F0ABEF05F01E91A0
:100B480002501D6F01C51CF31E81AFEF05F0025066
:100B58001D6F01C51CF312009C0E05019E6F050E4A
:100B68009F6F000E8E6F000E8F6F9AC590F59BC514
:100B780091F59E0E926F050E936FFCECDEF012005D
:100B88000501635162110BE18D0E605D3C0E6159E8
:100B9800D8A0D1EF05F0D3EF05F0D6EF05F0000EA1
:100BA800D7EF05F0010E1200050160516203F3C48E
:100BB80064F5F4C465F560516303F350652761512A
:100BC8006203F350652764C560F565C561F51200D9
:100BD800600E0001606F000E616F030E626F470EBA
:100BE800636F7F0E646FF60E656FE40E666FFE0E20
:100BF800676FFE0E686F1200E8070000E00700004C
:100C080090000000D007000064190000204E00008A
:100C180010270000010002006400000001004D2AB6
:100C2800000E4C6E040E4D18D8A41DEF06F01FEFF1
:100C380006F024EF06F0000E4D6E000E25EF06F0CC
:100C4800010E1200000E0501616F000E606F65C590
:100C580062F577ECF2F0000E0501616F010E606F2E
:100C680064C562F577ECF2F01200000E0501616FC1
:100C7800020E606F65C562F577ECF2F0000E0501B3
:100C8800616F030E606F64C562F577ECF2F01200D5
:100C9800200E0001AD6F000EAF6F010EB36F080E8E
:100CA800B16F000EB06FB2A15CEF06F05EEF06F018
:100CB80057EF06F0120001500302F3C405F5F4C41F
:100CC80006F501500402F350062602500302F350C1
:100CD800062605C501F506C502F5120004500310E5
:100CE8000BE18D0E015C3C0E0258D8A07EEF06F099
:100CF80080EF06F083EF06F0000E84EF06F0010E99
:100D08001200000E0101506F040E516F600E526FF9
:100D1800050E536F800E746F040E756F620E766F3A
:100D2800050E776F1200000E01015C6F040E5D6FF7
:100D3800600E5E6F050E5F6F000E686F040E696FC0
:100D4800600E6A6F050E6B6F1200830E03010C6F45
:100D5800420E0D6F000E0E6F000E0F6F000E116F1A
:100D6800000E106F0B690A6909699F8C1200CAECA2
:100D78000DF00009D8A4C3EF06F0C5EF06F0C9EFDF
:100D880006F04EEC08F0CBEF06F03EEC08F012004F
:100D98000501616F050161510C0D530EF324D96EE5
:100DA800010EF420DA6EDF50606F1F0E60176029A5
:100DB8001200D2EC0DF00009D8A4E5EF06F0E7EF39
:100DC80006F0EBEF06F04EEC09F0EDEF06F03EEC26
:100DD80009F012005850C6EC0DF00009D8A4F7EF3E
:100DE80006F0F9EF06F0FCEF06F0200EFDEF06F036
:100DF800585012003E501EEC07F00009D8A407EF27
:100E080007F009EF07F00CEF07F0000E0DEF07F001
:100E18003E5012003D502EEC07F00009D8A417EF01
:100E280007F019EF07F01CEF07F0000E1DEF07F0B1
:100E38003D5012000501606F010E0501606527EF46
:100E480007F029EF07F02CEF07F0000E2DEF07F061
:100E5800010E12000501606F020E0501606537EF93
:100E680007F039EF07F03CEF07F0000E3DEF07F011
:100E7800010E120044504EEC07F00009D8A447EFC9
:100E880007F049EF07F04CEF07F0000E4DEF07F0C1
:100E9800445012000501606F030E0501606557EFAD
:100EA80007F059EF07F05CEF07F0000E5DEF07F071
:100EB800010E120045506EEC07F00009D8A467EF48
:100EC80007F069EF07F06CEF07F0000E6DEF07F021
:100ED800455012000501606F030E0501606577EF4C
:100EE80007F079EF07F07CEF07F0000E7DEF07F0D1
:100EF800010E12005C508EEC07F00009D8A487EFB1
:100F080007F089EF07F08CEF07F0070E8DEF07F079
:100F18005C5012000501606F070E0501606597EFD0
:100F280007F099EF07F09CEF07F0000E9DEF07F030
:100F3800010E12005A50AEEC07F00009D8A4A7EF32
:100F480007F0A9EF07F0ACEF07F0010EADEF07F0DF
:100F58005A5012000501606F010E05016065B7EF78
:100F680007F0B9EF07F0BCEF07F0000EBDEF07F090
:100F7800010E12004250CEEC07F00009D8A4C7EFCA
:100F880007F0C9EF07F0CCEF07F0000ECDEF07F040
:100F9800425012000501606F010E05016065D7EF30
:100FA80007F0D9EF07F0DCEF07F0000EDDEF07F0F0
:100FB800010E12005B50EEEC07F00009D8A4E7EF31
:100FC80007F0E9EF07F0ECEF07F0010EEDEF07F09F
:100FD8005B5012000501606F010E05016065F7EFB7
:100FE80007F0F9EF07F0FCEF07F0000EFDEF07F050
:100FF800010E120040500EEC08F00009D8A407EFCB
:1010080008F009EF08F00CEF08F0000E0DEF08F0FB
:10101800405012000501606F010E0501606517EF71
:1010280008F019EF08F01CEF08F0000E1DEF08F0AB
:10103800010E120059502EEC08F00009D8A427EF31
:1010480008F029EF08F02CEF08F0010E2DEF08F05A
:10105800595012000501606F030E0501606537EFF6
:1010680008F039EF08F03CEF08F0000E3DEF08F00B
:10107800010E12005D50C8EC0DF00009D8A447EF2E
:1010880008F049EF08F04CEF08F0960E4DEF08F025
:101098005D5012005E50CCEC0DF00009D8A457EF5B
:1010A80008F059EF08F05CEF08F0960E5DEF08F0D5
:1010B8005E50120041506EEC08F00009D8A467EFAA
:1010C80008F069EF08F06CEF08F0000E6DEF08F01B
:1010D800415012000501606F010E0501606577EF50
:1010E80008F079EF08F07CEF08F0000E7DEF08F0CB
:1010F800010E120043508EEC08F00009D8A487EFC7
:1011080008F089EF08F08CEF08F0000E8DEF08F07A
:10111800435012000501606F020E0501606597EFEC
:1011280008F099EF08F09CEF08F0000E9DEF08F02A
:10113800010E120005016151000AD8A4A6EF08F0BB
:10114800AAEF08F0626B622BACEF08F00501626B46
:1011580062291200050120EE1AF16051D926615169
:10116800DA222AC6DEF42BC6DEF42CC6DEF42DC63F
:10117800DEF412003F50CEEC08F00009D8A4C7EF07
:1011880008F0C9EF08F0CCEF08F0000ECDEF08F03A
:101198003F5012000501606F010E05016065D7EF31
:1011A80008F0D9EF08F0DCEF08F0000EDDEF08F0EA
:1011B800010E12004450D3EC09F00009D8A4E7EF5F
:1011C80008F0E9EF08F0ECEF08F0000EEDEF08F09A
:1011D800445012005C50E1EC09F00009D8A4F7EF84
:1011E80008F0F9EF08F0FCEF08F0070EFDEF08F043
:1011F8005C5012005B50EFEC09F00009D8A407EF2F
:1012080009F009EF09F00CEF09F0010E0DEF09F0F4
:101218005B5012004550FDEC09F00009D8A417EF07
:1012280009F019EF09F01CEF09F0000E1DEF09F0A5
:101238004550120022ECECF00009D8A426EF09F082
:1012480028EF09F02BEF09F0010E91ECCBF0050E19
:101258004F6E12003D500BEC0AF00009D8A437EF8E
:1012680009F039EF09F03CEF09F0000E3DEF09F005
:101278003D5012005D50D0EC0DF00009D8A447EFA6
:1012880009F049EF09F04CEF09F0960E4DEF09F01F
:101298005D5012005E50D4EC0DF00009D8A457EF51
:1012A80009F059EF09F05CEF09F0960E5DEF09F0CF
:1012B8005E501200050160516111D8B466EF09F063
:1012C80068EF09F06BEF09F0000E6CEF09F0010E02
:1012D8001200200E0501635DD8A075EF09F077EFC5
:1012E80009F07AEF09F0000E7BEF09F0010E120009
:1012F800200E0501635DD8A084EF09F086EF09F0A0
:1013080089EF09F0000E8AEF09F0010E1200200E95
:101318000501635DD8A093EF09F095EF09F098EF08
:1013280009F0000E99EF09F0010E1200010E0301F9
:10133800266F600E256F000E276F090E236F000EB3
:10134800226FB196800E246F1200380E0001456F8F
:10135800050161510001446F60C543F0F80E411763
:101368004081465112000501606F050160510C0D66
:10137800540EF324D96E010EF420DA6EDF50010BFF
:1013880012000501606F050160510C0D540EF32425
:10139800D96E010EF420DA6EDF50090B1200016ECF
:1013A800030E0164DAEF09F0DCEF09F0DFEF09F072
:1013B800000EE0EF09F0010E1200016E070E016445
:1013C800E8EF09F0EAEF09F0EDEF09F0000EEEEFB3
:1013D80009F0010E1200016E010E0164F6EF09F02A
:1013E800F8EF09F0FBEF09F0000EFCEF09F0010E31
:1013F8001200016E030E016404EF0AF006EF0AF012
:1014080009EF0AF0000E0AEF0AF0010E1200016E51
:10141800020E016412EF0AF014EF0AF017EF0AF057
:10142800000E18EF0AF0010E1200830E0001846FFF
:10143800000E856F020E866F060E8C6F000E896F88
:10144800C79A12000501606FB2A22DEF0AF02FEFC4
:101458000AF028EF0AF060C5A3F212000501646FD4
:10146800000E0501616F210E606F64C562F577ECAF
:10147800F2F012000501646F000E0501616F220E83
:10148800606F64C562F577ECF2F012000501646FD5
:10149800000E0501616F070E606F64C562F577EC99
:1014A800F2F012000501646F000E0501616F060E6F
:1014B800606F64C562F577ECF2F012000501646FA5
:1014C800000E0501616F230E606F64C562F577EC4D
:1014D800F2F012000501646F000E0501616F050E40
:1014E800606F64C562F577ECF2F012000501646F75
:1014F800000E0501616F040E606F64C562F577EC3C
:10150800F2F012000501646F000E0501616F0F0E05
:10151800606F64C562F577ECF2F012000501646F44
:10152800000E0501616F110E606F64C562F577ECFE
:10153800F2F012000501646F000E0501616F0B0ED9
:10154800606F64C562F577ECF2F012000501646F14
:10155800000E0501616F100E606F64C562F577ECCF
:10156800F2F012000501646F000E0501616F0C0EA8
:10157800606F64C562F577ECF2F012000501646FE4
:10158800000E0501616F140E606F64C562F577EC9B
:10159800F2F012000501646F000E0501616F130E71
:1015A800606F64C562F577ECF2F012000501646FB4
:1015B800000E0501616F120E606F64C562F577EC6D
:1015C800F2F012000501646F000E0501616F0A0E4A
:1015D800606F64C562F577ECF2F012008C0E0301BF
:1015E800426F000E416F130E406F4C51FC0B010906
:1015F8004C6F1200380E0001456F0250446F01C550
:1016080043F0F80E41174081465112005050D8A4BB
:1016180010EF0BF013EF0BF0010E14EF0BF0000EB0
:101628001200000E0501616F210E606FA9EC09F030
:101638000501626F62511200000E0501616F220EF2
:10164800606FA9EC09F00501626F62511200000E8B
:101658000501616F070E606FA9EC09F00501626F63
:1016680062511200000E0501616F060E606FA9EC51
:1016780009F00501626F62511200000E0501616FE9
:10168800230E606FA9EC09F00501626F6251120028
:10169800000E0501616F050E606FA9EC09F00501E8
:1016A800626F62511200000E0501616F040E606FD7
:1016B800A9EC09F00501626F62511200000E0501E4
:1016C800616F0F0E606FA9EC09F00501626F62513E
:1016D8001200000E0501616F110E606FA9EC09F090
:1016E8000501626F62511200000E0501616F0B0E59
:1016F800606FA9EC09F00501626F62511200000EDB
:101708000501616F100E606FA9EC09F00501626FA9
:1017180062511200000E0501616F0C0E606FA9EC9A
:1017280009F00501626F62511200000E0501616F38
:10173800140E606FA9EC09F00501626F6251120086
:10174800000E0501616F130E606FA9EC09F0050129
:10175800626F62511200000E0501616F120E606F18
:10176800A9EC09F00501626F62511200000E050133
:10177800616F0A0E606FA9EC09F00501626F625192
:1017880012004B50D8A4CBEF0BF0CDEF0BF0CFEFFE
:101798000BF0010E486E12004B50D8A4D6EF0BF098
:1017A800D8EF0BF0DAEF0BF0010E496E12004B5038
:1017B800D8A4E1EF0BF0E3EF0BF0E5EF0BF0010E2F
:1017C800476E120082C508F783C509F784C50AF772
:1017D80085C50BF7010E120082C514F783C515F7EE
:1017E80084C516F785C517F7010E1200190E0101F9
:1017F800046F190E056F640E066F000E076F120056
:10180800B69867C601F568C602F571EC05F030ECCC
:1018180004F01200056E000E026E070E016E05C57B
:1018280003F535ECF5F01200056E000E026E060E9B
:10183800016E05C503F535ECF5F012000CC760F52F
:101848000DC761F50EC762F50FC763F5120010C723
:1018580060F511C761F512C762F513C763F5120089
:1018680064C50CF765C50DF766C50EF767C50FF7B4
:1018780012001CC760F51DC761F51EC762F51FC7BA
:1018880063F5120082C510F783C511F784C512F7F6
:1018980085C513F712000CC701F50DC702F50EC771
:1018A80003F50FC704F5120001C50CF702C50DF7C3
:1018B80003C50EF704C50FF7120003010351016EAB
:1018C8000451026E0551036E046A12001CC701F52B
:1018D8001DC702F51EC703F51FC704F51200000E49
:1018E800026E070E016EFEEC0AF0036E0350120042
:1018F800000E026E060E016EFEEC0AF0036E035037
:101908001200010E07011C27000E1D231E231F2392
:101918001200010E06012A27000E2B232C232D234B
:101928001200050161510301DC6F60C5DBF3120091
:1019380060C54EF761C54FF762C550F7120060C524
:1019480045F761C546F762C547F7120060C548F715
:1019580061C549F762C54AF7120060C542F761C51B
:1019680043F762C544F7120060C54BF761C54CF7F1
:1019780062C54DF7120060C53CF761C53DF762C509
:101988003EF7120060C53FF761C540F762C541F7F1
:10199800120060C539F761C53AF762C53BF7120016
:1019A80060C540F661C541F662C542F6120060C5E1
:1019B80043F661C544F662C545F6120060C546F6B1
:1019C80061C547F662C548F6120060C549F661C5AB
:1019D8004AF662C54BF6120060C54CF661C54DF675
:1019E80062C54EF6120060C53DF661C53EF662C599
:1019F8003FF61200550E0001B46FAA0EB46FB48101
:101A0800120060C5EBF761C5ECF762C5EDF712008F
:101A180060C5EEF761C5EFF762C5F0F7120060C563
:101A2800F1F761C5F2F762C5F3F7120060C5F4F784
:101A380061C5F5F762C5F6F7120060C5F7F761C52D
:101A4800F8F762C5F9F7120060C5FAF761C5FBF748
:101A580062C5FCF7120060C5E2F761C5E3F762C52D
:101A6800E4F7120060C5E5F761C5E6F762C5E7F778
:101A7800120060C5DFF761C5E0F762C5E1F7120043
:101A880060C5E8F761C5E9F762C5EAF7120060C505
:101A980030F761C531F762C532F7120060C53AF612
:101AA80061C53BF662C53CF6120060C533F761C5F7
:101AB80034F762C535F7120060C536F761C537F7E8
:101AC80062C538F7120085EC0CF08DEC0CF049EC8F
:101AD80001F012000501606F60C576F6010E120074
:101AE8000501606F60C53CF5010E1200FFFF200183
:101AF80001010796960460C5FAF661C5FBF6120067
:101B080001010239E832070B12000501606F60C558
:101B1800FBF31200000E0001E86FFC8D120001C5F6
:101B2800FAF602C5FBF61200050160696169120048
:101B3800010E06017C6F12000601765112000301A6
:101B4800308F120003012A91120003012A8112002A
:101B580003010D8F120003010D9F12000301F39B77
:101B6800120047EC05F012005CEC05F012008EEC58
:101B78000DF012000301309F120003012A91120098
:101B88004B501200010E1200010E12003C501200C0
:101B9800010E1200D69A1200010E12003C501200DB
:101BA800010E1200120012001200120012001200A0
:101BB800120012001200120012001200120012008D
:0A1BC80012001200120012001200B9
:10FE9400000000000000000000000000000000005E
:10FEA400000000000000000000000000000000004E
:10FEB400000000000000000000000000000000003E
:10FEC400000000000000000000000001020304051F
:10FED40006070800FC1F000000F80F00FCE0FF1FED
:10FEE40000E003FF03830002000050015B457272CF
:10FEF4006F725D20257320697320696E76616C6969
:10FF04006400257320697320526561642D4F6E6C03
:10FF140079005348494654434F4C4F5200494C4C86
:10FF2400554D4E4947485400494C4C554D4D4F444E
:10FF340045004C4F4144414E494D00494C4C554DB0
:10FF44005F494E00535441525442495400494C4C69
:10FF5400554D4441590043414E42415544004445A6
:10FF64004641554C54004241545445525900434172
:10FF74004E4944450043525549534500434F4E466C
:10FF8400494700302E302E3300534E494646004632
:10FF94004C41534800454556455200504F57455231
:10FFA400004552524F52005245534554005348495C
:10FFB400465400424F4F5354005258494400545839
:10FFC4004944005045414B004543484F00564F4C6F
:10FFD4005400696E66006E616E006C6C7300525062
:10FFE4004D004143510041435400256C75004F4B73
:0BFFF400002564002566002573000056
:020000040001F9
:10000000FB0E05019A6FFF0E9B6F200E9C6F090E71
:100010009D6FB0EC05F006017951D8B412EF80F075
:1000200014EF80F0E5EF89F0530EBF6F070EC06F3D
:10003000000EC26F320EC16FF20EC36FFF0EC46F9F
:100040006CECD6F0BFC663F6C0C664F66AEF85F006
:10005000B00E746F080E756FFBECC9F074C583F5B4
:1000600075C584F576C585F577C586F5010E05015C
:10007000876F24ECE7F00009D8A441EF80F043EF4C
:1000800080F073EF8AF0530E0601BF6F070EC06F4A
:10009000000EC26F320EC16FF00EC36FFE0EC46F42
:1000A000B00EC56F080EC66F6CECD6F0BFC663F617
:1000B000C0C664F673EF8AF0B00E746F080E756FE9
:1000C000FBECC9F074C583F575C584F576C585F577
:1000D00077C586F5010E0501876F73ECE7F000091F
:1000E000D8A475EF80F077EF80F073EF8AF0530EAD
:1000F0000601BF6F070EC06F000EC26F320EC16FD8
:10010000F00EC36FFE0EC46FB00EC56F080EC66F43
:100110006CECD6F0BFC663F6C0C664F673EF8AF027
:10012000010E6F6FB00E666F080E676FBCECD2F0F9
:10013000050166516DECEEF00009D8A4A2EF80F045
:10014000A4EF80F073EF8AF0530E0601BF6F070E25
:10015000C06F000EC26F320EC16FF00EC36FFE0E85
:10016000C46FB00EC56F080EC66F6CECD6F0BFC67C
:1001700063F6C0C664F673EF8AF0010E6F6FB00EBF
:10018000666F080E676FBCECD2F00501665139EC62
:10019000EEF00009D8A4CFEF80F0D1EF80F073EF3C
:1001A0008AF0530E0601BF6F070EC06F000EC26FBC
:1001B000320EC16FF00EC36FFE0EC46FB00EC56F6E
:1001C000080EC66F6CECD6F0BFC663F6C0C664F608
:1001D00073EF8AF0010E836FB00E746F080E756FA7
:1001E000FBECC9F005017451D1ECEDF00009D8A485
:1001F000FCEF80F0FEEF80F073EF8AF0530E060103
:10020000BF6F070EC06F000EC26F320EC16FF00ECF
:10021000C36FFE0EC46FB00EC56F080EC66F6CECD8
:10022000D6F0BFC663F6C0C664F673EF8AF0010E5F
:10023000836FB00E746F080E756FFBECC9F005018B
:1002400074519DECEDF00009D8A429EF81F02BEF5B
:1002500081F073EF8AF0530E0601BF6F070EC06F77
:10026000000EC26F320EC16FF00EC36FFE0EC46F70
:10027000B00EC56F080EC66F6CECD6F0BFC663F645
:10028000C0C664F673EF8AF0B00E666F080E676F33
:10029000BCECD2F0050166C574F567C575F5000EB6
:1002A00075BFFF0E766F776F010EA3ECC6F074C5B5
:1002B00082F575C583F576C584F577C585F5F0ECCF
:1002C0000BF00009D8A467EF81F069EF81F073EFBC
:1002D0008AF0530E0601BF6F070EC06F000EC26F8B
:1002E000320EC16FF00EC36FFE0EC46FB00EC56F3D
:1002F000080EC66F6CECD6F0BFC663F6C0C664F6D7
:1003000073EF8AF0B00E666F080E676FBCECD2F028
:100310000501665174EC0DF00009D8A492EF81F04C
:1003200094EF81F073EF8AF0530E0601BF6F070E52
:10033000C06F000EC26F320EC16FF00EC36FFE0EA3
:10034000C46FB00EC56F080EC66F6CECD6F0BFC69A
:1003500063F6C0C664F673EF8AF0B00E746F080ED1
:10036000756FFBECC9F0050174516EEC0DF00009DE
:10037000D8A4BDEF81F0BFEF81F073EF8AF0530E88
:100380000601BF6F070EC06F000EC26F320EC16F45
:10039000F00EC36FFE0EC46FB00EC56F080EC66FB1
:1003A0006CECD6F0BFC663F6C0C664F673EF8AF095
:1003B000530E0601BF6F070EC06F000EC26F320EE4
:1003C000C16F060EC36FFF0EC46F200EC56F090EFE
:1003D000C66F6CECD6F0BFC663F6C0C664F673EFAA
:1003E0008AF0010E6F6FB00E666F080E676FBCEC7F
:1003F000D2F00501665141ECF0F00009D8A403EFFA
:1004000082F005EF82F073EF8AF0530E0601BF6FA2
:10041000070EC06F000EC26F320EC16FF00EC36FB9
:10042000FE0EC46FB00EC56F080EC66F6CECD6F032
:10043000BFC663F6C0C664F673EF8AF0B00E916F64
:10044000080E926F000E936F000E946F000E966F61
:10045000000E956F66ECF7F091C597F592C598F58B
:1004600093C599F594C59AF5FF0E05019B6FFF0E94
:100470009C6FFF0E9D6FFF0E9E6FBEECF4F073EF4E
:100480008AF0010E6F6FB00E666F080E676FBCECDE
:10049000D2F00501665109ECEFF00009D8A453EF42
:1004A00082F055EF82F073EF8AF0530E0601BF6FB2
:1004B000070EC06F000EC26F320EC16FF00EC36F19
:1004C000FE0EC46FB00EC56F080EC66F6CECD6F092
:1004D000BFC663F6C0C664F673EF8AF0010E6F6F95
:1004E000B00E666F080E676FBCECD2F00501665166
:1004F00071ECEFF00009D8A480EF82F082EF82F077
:1005000073EF8AF0530E0601BF6F070EC06F000E27
:10051000C26F320EC16FF00EC36FFE0EC46FB00E0D
:10052000C56F080EC66F6CECD6F0BFC663F6C0C6CA
:1005300064F673EF8AF0530E0601BF6F070EC06FAB
:10054000000EC26F320EC16F060EC36FFF0EC46F76
:10055000200EC56F090EC66F6CECD6F0BFC663F6F1
:10056000C0C664F673EF8AF0010E6F6FB00E666F4F
:10057000080E676FBCECD2F005016651A1ECEEF0FD
:100580000009D8A4C6EF82F0C8EF82F073EF8AF0BA
:10059000530E0601BF6F070EC06F000EC26F320E02
:1005A000C16FF00EC36FFE0EC46FB00EC56F080EA4
:1005B000C66F6CECD6F0BFC663F6C0C664F673EFC8
:1005C0008AF0010E6F6FB00E666F080E676FBCEC9D
:1005D000D2F0050166513DECEFF00009D8A4F3EF2D
:1005E00082F0F5EF82F073EF8AF0530E0601BF6FD1
:1005F000070EC06F000EC26F320EC16FF00EC36FD8
:10060000FE0EC46FB00EC56F080EC66F6CECD6F050
:10061000BFC663F6C0C664F673EF8AF0010E6F6F53
:10062000B00E666F080E676FBCECD2F00501665124
:10063000D5ECEEF00009D8A420EF83F022EF83F090
:1006400073EF8AF0530E0601BF6F070EC06F000EE6
:10065000C26F320EC16FF00EC36FFE0EC46FB00ECC
:10066000C56F080EC66F6CECD6F0BFC663F6C0C689
:1006700064F673EF8AF0010E6F6FB00E666F080EAE
:10068000676FBCECD2F0050166510DECF0F000098B
:10069000D8A44DEF83F04FEF83F073EF8AF0530E41
:1006A0000601BF6F070EC06F000EC26F320EC16F22
:1006B000F00EC36FFE0EC46FB00EC56F080EC66F8E
:1006C0006CECD6F0BFC663F6C0C664F673EF8AF072
:1006D000B00E666F080E676FBCECD2F0050166C500
:1006E00074F567C575F5000E75BFFF0E766F776FF1
:1006F000010EA3ECC6F074C582F575C583F576C509
:1007000084F577C585F5E6EC0BF00009D8A48BEFEE
:1007100083F08DEF83F073EF8AF0530E0601BF6F05
:10072000070EC06F000EC26F320EC16FF00EC36FA6
:10073000FE0EC46FB00EC56F080EC66F6CECD6F01F
:10074000BFC663F6C0C664F673EF8AF0010E6F6F22
:10075000B00E666F080E676FBCECD2F005016651F3
:10076000D9ECEFF00009D8A4B8EF83F0BAEF83F02A
:1007700073EF8AF0530E0601BF6F070EC06F000EB5
:10078000C26F320EC16FF00EC36FFE0EC46FB00E9B
:10079000C56F080EC66F6CECD6F0BFC663F6C0C658
:1007A00064F673EF8AF0010E6F6FB00E666F080E7D
:1007B000676FBCECD2F005016651A5ECEFF00009C3
:1007C000D8A4E5EF83F0E7EF83F073EF8AF0530EE0
:1007D0000601BF6F070EC06F000EC26F320EC16FF1
:1007E000F00EC36FFE0EC46FB00EC56F080EC66F5D
:1007F0006CECD6F0BFC663F6C0C664F673EF8AF041
:10080000B00E746F080E756FFBECC9F074C583F5FC
:1008100075C584F576C585F577C586F5010E0501A4
:10082000876F86ECE6F00009D8A419EF84F01BEF7F
:1008300084F073EF8AF0530E0601BF6F070EC06F8E
:10084000000EC26F320EC16FF00EC36FFE0EC46F8A
:10085000B00EC56F080EC66F6CECD6F0BFC663F65F
:10086000C0C664F673EF8AF0B00E746F080E756F31
:10087000FBECC9F074C583F575C584F576C585F5BF
:1008800077C586F5010E0501876F37ECE6F00009A4
:10089000D8A44DEF84F04FEF84F073EF8AF0530E3D
:1008A0000601BF6F070EC06F000EC26F320EC16F20
:1008B000F00EC36FFE0EC46FB00EC56F080EC66F8C
:1008C0006CECD6F0BFC663F6C0C664F673EF8AF070
:1008D000B00E746F080E756FFBECC9F074C583F52C
:1008E00075C584F576C585F577C586F5010E0501D4
:1008F000876FD5ECE6F00009D8A481EF84F083EF90
:1009000084F073EF8AF0530E0601BF6F070EC06FBD
:10091000000EC26F320EC16FF00EC36FFE0EC46FB9
:10092000B00EC56F080EC66F6CECD6F0BFC663F68E
:10093000C0C664F673EF8AF0010E836FB00E746F59
:10094000080E756FFBECC9F00501745135ECEDF044
:100950000009D8A4AEEF84F0B0EF84F073EF8AF012
:10096000530E0601BF6F070EC06F000EC26F320E2E
:10097000C16FF00EC36FFE0EC46FB00EC56F080ED0
:10098000C66F6CECD6F0BFC663F6C0C664F673EFF4
:100990008AF0010E6F6FB00E666F080E676FBCECC9
:1009A000D2F00501665169ECEDF00009D8A4DBEF47
:1009B00084F0DDEF84F073EF8AF0530E0601BF6F11
:1009C000070EC06F000EC26F320EC16FF00EC36F04
:1009D000FE0EC46FB00EC56F080EC66F6CECD6F07D
:1009E000BFC663F6C0C664F673EF8AF0010E6F6F80
:1009F000B00E666F080E676FBCECD2F00501665151
:100A000005ECEEF00009D8A408EF85F00AEF85F0B8
:100A100073EF8AF0530E0601BF6F070EC06F000E12
:100A2000C26F320EC16FF00EC36FFE0EC46FB00EF8
:100A3000C56F080EC66F6CECD6F0BFC663F6C0C6B5
:100A400064F673EF8AF0530E0601BF6F070EC06F96
:100A5000000EC26F320EC16F060EC36FFF0EC46F61
:100A6000200EC56F090EC66F6CECD6F0BFC663F6DC
:100A7000C0C664F673EF8AF0530E0601BF6F070E0F
:100A8000C06F000EC26F320EC16F060EC36FFF0E35
:100A9000C46F200EC56F090EC66F6CECD6F0BFC6D2
:100AA00063F6C0C664F673EF8AF0530E0601BF6F9B
:100AB000070EC06F000EC26F320EC16FA50EC36F5E
:100AC000FF0EC46F6CECD6F0BFC663F6C0C664F60A
:100AD00073EF8AF0200E0501666F090E676F45EC13
:100AE000E9F005016751000AD8B479EF85F055EFB8
:100AF00085F06651010AD8B428EF80F0030AD8B413
:100B00005CEF80F0010AD8B490EF80F0070AD8B407
:100B1000BDEF80F0010AD8B4EAEF80F0030AD8B440
:100B200017EF81F0010AD8B444EF81F00F0AD8B46E
:100B300082EF81F0010AD8B4ADEF81F0030AD8B496
:100B4000D8EF81F0010AD8B473EF8AF0070AD8B45D
:100B5000F1EF81F0010AD8B41EEF82F0030AD8B495
:100B600041EF82F0010AD8B46EEF82F01F0AD8B4C8
:100B70009BEF82F0010AD8B4B4EF82F0030AD8B434
:100B8000E1EF82F0010AD8B40EEF83F0070AD8B47F
:100B90003BEF83F0010AD8B468EF83F0030AD8B4BE
:100BA000A6EF83F0010AD8B4D3EF83F00F0AD8B4CC
:100BB00000EF84F0010AD8B434EF84F0030AD8B40B
:100BC00068EF84F0010AD8B49CEF84F0070AD8B427
:100BD000C9EF84F0010AD8B4F6EF84F0030AD8B460
:100BE00023EF85F0010AD8B43CEF85F055EF85F08E
:100BF000530E0601BF6F070EC06F000EC26F320E9C
:100C0000C16FEE0EC36FFF0EC46F82ECF5F064C5CA
:100C1000C5F665C5C6F666C5C7F667C5C8F66CEC09
:100C2000D6F0BFC663F6C0C664F673EF8AF0530E03
:100C30000601BF6F070EC06F000EC26F320EC16F8C
:100C4000EE0EC36FFF0EC46F5CECF5F064C5C5F625
:100C500065C5C6F666C5C7F667C5C8F66CECD6F0BE
:100C6000BFC663F6C0C664F673EF8AF0530E060182
:100C7000BF6F070EC06F000EC26F320EC16FF50E50
:100C8000C36FFF0EC46F5EEC07F00501FA6FFA51F7
:100C90000601C56FC66B6CECD6F0BFC663F6C0C666
:100CA00064F673EF8AF0530E0601BF6F070EC06F34
:100CB000000EC26F320EC16FF50EC36FFF0EC46F10
:100CC0003EEC07F00501FA6FFA510601C56FC66BDD
:100CD0006CECD6F0BFC663F6C0C664F673EF8AF05C
:100CE000530E0601BF6F070EC06F000EC26F320EAB
:100CF000C16FF50EC36FFF0EC46F4EEC08F0050117
:100D0000FA6FFA510601C56FC66B6CECD6F0BFC620
:100D100063F6C0C664F673EF8AF0530E0601BF6F28
:100D2000070EC06F000EC26F320EC16FF50EC36F9B
:100D3000FF0EC46F3EEC08F00501FA6FFA51060190
:100D4000C56FC66B6CECD6F0BFC663F6C0C664F662
:100D500073EF8AF0B2EC0DF0010E89EC0DF0FF0E8E
:100D60000501866F090E876FA00E886F3A0E896F96
:100D7000130EA8EC01F0050160C574F561C575F5A9
:100D8000766B776B000EA3ECC6F074C582F575C563
:100D900083F576C584F577C585F5EBECB7F082C5AC
:100DA0009BF583C59CF584C59DF585C59EF5CD0E47
:100DB00005019F6FCC0EA06FCC0EA16FBD0EA26F70
:100DC000CDECACF09BC520F79CC521F79DC522F763
:100DD0009EC523F7530E0601BF6F070EC06F000EAE
:100DE000C26F320EC16FF80EC36FFF0EC46F20C703
:100DF000C5F621C7C6F622C7C7F623C7C8F66CECEE
:100E0000D6F0BFC663F6C0C664F673EF8AF0530E21
:100E10000601BF6F070EC06F000EC26F320EC16FAA
:100E2000F50EC36FFF0EC46FCAEC0DF00501FA6F2B
:100E3000FA510601C56FC66B6CECD6F0BFC663F6FF
:100E4000C0C664F673EF8AF0530E0601BF6F070E3B
:100E5000C06F000EC26F320EC16FF50EC36FFF0E72
:100E6000C46FA0EC0DF00501FA6FFA510601C56FD1
:100E7000C66B6CECD6F0BFC663F6C0C664F673EF03
:100E80008AF0530E0601BF6F070EC06F000EC26FCF
:100E9000320EC16FFB0EC36FFF0EC46F870EC56F9E
:100EA000FF0EC66F6CECD6F0BFC663F6C0C664F624
:100EB00073EF8AF0530E0601BF6F070EC06F000E6E
:100EC000C26F320EC16FF80EC36FFF0EC46F2BECF2
:100ED0000CF060C5C5F661C5C6F662C5C7F663C548
:100EE000C8F66CECD6F0BFC663F6C0C664F673EF06
:100EF0008AF0530E0601BF6F070EC06F000EC26F5F
:100F0000320EC16FF50EC36FFF0EC46F7EEC08F09A
:100F10000501FA6FFA510601C56FC66B6CECD6F08D
:100F2000BFC663F6C0C664F673EF8AF0530E0601BF
:100F3000BF6F070EC06F000EC26F320EC16FEE0E94
:100F4000C36FFF0EC46F22EC0CF060C5C5F661C51F
:100F5000C6F662C5C7F663C5C8F66CECD6F0BFC668
:100F600063F6C0C664F673EF8AF0530E0601BF6FD6
:100F7000070EC06F000EC26F320EC16FF50EC36F49
:100F8000FF0EC46FBEEC07F00501FA6FFA510601BF
:100F9000C56FC66B6CECD6F0BFC663F6C0C664F610
:100FA00073EF8AF0530E0601BF6F070EC06F000E7D
:100FB000C26F320EC16FF50EC36FFF0EC46F5EECD1
:100FC00008F00501FA6FFA510601C56FC66B6CECAB
:100FD000D6F0BFC663F6C0C664F673EF8AF0530E50
:100FE0000601BF6F070EC06F000EC26F320EC16FD9
:100FF000F50EC36FFF0EC46F14EC03F062C5C5F6A7
:1010000063C5C6F66CECD6F0BFC663F6C0C664F620
:1010100073EF8AF0530E0601BF6F070EC06F000E0C
:10102000C26F320EC16FF50EC36FFF0EC46F7EEC40
:1010300007F00501FA6FFA510601C56FC66B6CEC3B
:10104000D6F0BFC663F6C0C664F673EF8AF0530EDF
:101050000601BF6F070EC06F000EC26F320EC16F68
:10106000F50EC36FFF0EC46FDEEC07F00501FA6FDB
:10107000FA510601C56FC66B6CECD6F0BFC663F6BD
:10108000C0C664F673EF8AF0530E0601BF6F070EF9
:10109000C06F000EC26F320EC16FF50EC36FFF0E30
:1010A000C46F9EEC07F00501FA6FFA510601C56F97
:1010B000C66B6CECD6F0BFC663F6C0C664F673EFC1
:1010C0008AF0530E0601BF6F070EC06F000EC26F8D
:1010D000320EC16FF50EC36FFF0EC46F1EEC08F029
:1010E0000501FA6FFA510601C56FC66B6CECD6F0BC
:1010F000BFC663F6C0C664F673EF8AF0B2EC0DF0BB
:10110000000E89EC0DF0FF0E0501866F090E876F4A
:10111000A00E886F3A0E896F000EA8EC01F0050151
:1011200060C574F561C575F5766B776B000EA3EC41
:10113000C6F074C582F575C583F576C584F577C5A7
:1011400085F5EBECB7F082C59BF583C59CF584C5AE
:101150009DF585C59EF5CD0E05019F6FCC0EA06F48
:10116000CC0EA16FBD0EA26FCDECACF09BC520F7ED
:101170009CC521F79DC522F79EC523F7530E060196
:10118000BF6F070EC06F000EC26F320EC16FF80E38
:10119000C36FFF0EC46F20C7C5F621C7C6F622C7AE
:1011A000C7F623C7C8F66CECD6F0BFC663F6C0C658
:1011B00064F673EF8AF0530E0601BF6F070EC06F1F
:1011C000000EC26F320EC16FF50EC36FFF0EC46FFB
:1011D000FEEC07F00501FA6FFA510601C56FC66B08
:1011E0006CECD6F0BFC663F6C0C664F673EF8AF047
:1011F000530E0601BF6F070EC06F000EC26F320E96
:10120000C16FF50EC36FFF0EC46FBEEC08F0050191
:10121000FA6FFA510601C56FC66B6CECD6F0BFC60B
:1012200063F6C0C664F673EF8AF0530E0601BF6F13
:10123000070EC06F000EC26F320EC16FEE0EC36F8D
:10124000FF0EC46FCEECF5F064C5C5F665C5C6F6F5
:1012500066C5C7F667C5C8F66CECD6F0BFC663F6C0
:10126000C0C664F673EF8AF0530E0601BF6F070E17
:10127000C06F000EC26F320EC16FEE0EC36FFF0E55
:10128000C46FA8ECF5F064C5C5F665C5C6F666C5BD
:10129000C7F667C5C8F66CECD6F0BFC663F6C0C625
:1012A00064F673EF8AF0530E0601BF6F070EC06F2E
:1012B000000EC26F320EC16FEE0EC36FFF0EC46F11
:1012C000F4ECF5F064C5C5F665C5C6F666C5C7F6A7
:1012D00067C5C8F66CECD6F0BFC663F6C0C664F648
:1012E00073EF8AF0530E0601BF6F070EC06F000E3A
:1012F000C26F320EC16FF50EC36FFF0EC46FEEECFE
:1013000006F00501FA6FFA510601C56FC66B6CEC69
:10131000D6F0BFC663F6C0C664F673EF8AF0530E0C
:101320000601BF6F070EC06F000EC26F320EC16F95
:10133000F50EC36FFF0EC46FFEEC06F00501FA6FE9
:10134000FA510601C56FC66B6CECD6F0BFC663F6EA
:10135000C0C664F673EF8AF0530E0601BF6F070E26
:10136000C06F000EC26F320EC16FF50EC36FFF0E5D
:10137000C46F0EEC07F00501FA6FFA510601C56F54
:10138000C66B6CECD6F0BFC663F6C0C664F673EFEE
:101390008AF0FF0073EF8AF0DBECCDF073EF8AF098
:1013A000530E0601BF6F070EC06F000EC26F320EE4
:1013B000C16FA50EC36FFF0EC46F6CECD6F0BFC635
:1013C00063F6C0C664F673EF8AF0200E0501666FFF
:1013D000090E676F45ECE9F005016751000AD8B4C2
:1013E000F4EF89F0D0EF89F06651010AD8B4F8EF34
:1013F00085F0030AD8B417EF86F0010AD8B436EFA7
:1014000086F0070AD8B453EF86F0010AD8B470EF1B
:1014100086F0030AD8B48DEF86F0010AD8B4AAEF9B
:1014200086F00F0AD8B407EF87F0010AD8B424EF8A
:1014300087F0030AD8B441EF87F0010AD8B45AEF15
:1014400087F0070AD8B479EF87F0010AD8B496EF8D
:1014500087F0030AD8B4B5EF87F0010AD8B4D2EF09
:1014600087F01F0AD8B4EFEF87F0010AD8B40AEF6B
:1014700088F0030AD8B427EF88F0010AD8B444EF03
:1014800088F0070AD8B461EF88F0010AD8B47EEF7B
:1014900088F0030AD8B4DBEF88F0010AD8B4F8EF7B
:1014A00088F00F0AD8B415EF89F0010AD8B434EFE8
:1014B00089F0030AD8B453EF89F0010AD8B472EF67
:1014C00089F0070AD8B48FEF89F0010AD8B4ACEFDD
:1014D00089F0030AD8B4C9EF89F0010AD8B4CCEF77
:1014E00089F0D0EF89F0530E0501616F070E626F2E
:1014F00063C663F564C664F568ECEBF0200E050185
:10150000606F090E616F000E636F000E626F000E58
:10151000656F320E646F1FECCDF0000E0601786F20
:10152000B00E0501606F080E616F000E636F000E54
:10153000626F000E656F320E646F1FECCDF0000E0F
:101540000601776F530E0501606F070E616F000E85
:10155000636F000E626F000E656F320E646F1FECDA
:10156000CDF0000E0601646F000E636F000E796F00
:101570009CEC0DF012000501CE6F73EF92F0000E9F
:10158000866F000E876FC80E886F420E896FC6C5C2
:10159000D9F4C7C5DAF4DF50C86FC851746F756BE2
:1015A000766B776B000EA3ECC6F074C582F575C53B
:1015B00083F576C584F577C585F5EBECB7F082C584
:1015C000ABF583C5ACF584C5ADF585C5AEF5000EAC
:1015D0000501AF6F000EB06F7F0EB16F430EB26F9B
:1015E00001ECBAF0ABC5C4F5ACC5C5F5ADC5C6F5E3
:1015F000AEC5C7F591EF92F0C6C5D9F4C7C5DAF408
:10160000DF50C86FC851746F756B766B776B000EC7
:10161000A3ECC6F074C59BF575C59CF576C59DF524
:1016200077C59EF5000E05019F6F000EA06F200E7E
:10163000A16FC20EA26FCDECACF09BC5C4F59CC5EA
:10164000C5F59DC5C6F59EC5C7F591EF92F0000E94
:10165000866F000E876F480E886F3F0E896FC6C574
:10166000D9F4C7C5DAF4DF50C86FC851746F756B11
:10167000766B776B000EA3ECC6F074C582F575C56A
:1016800083F576C584F577C585F5EBECB7F082C5B3
:101690009BF583C59CF584C59DF585C59EF5000E1B
:1016A00005019F6F000EA06FC80EA16FC20EA26F42
:1016B000CDECACF09BC5C4F59CC5C5F59DC5C6F584
:1016C0009EC5C7F591EF92F0C6C5D9F4C7C5DAF447
:1016D000DF50C86FC851746F756B766B776B000EF7
:1016E000A3ECC6F074C582F575C583F576C584F59F
:1016F00077C585F5000E0501866F000E876F400ED9
:10170000886F400E896FEBECB7F082C5C4F583C5D6
:10171000C5F584C5C6F585C5C7F591EF92F0C6C578
:10172000D9F4C7C5DAF4DF50C86FC851746F756B50
:10173000766B776B000EA3ECC6F074C5C4F575C567
:10174000C5F576C5C6F577C5C7F591EF92F020EEE1
:1017500001F0C651D926C751DA22DF50C86FC851EF
:10176000746F756B766B776B000EA3ECC6F074C567
:101770009FF575C5A0F576C5A1F577C5A2F5000E54
:101780000501866F000E876F800E886F430E896F8C
:10179000C6C5D9F4C7C5DAF4DF50C96FC951746F33
:1017A000756B766B776B000EA3ECC6F074C582F593
:1017B00075C583F576C584F577C585F5EBECB7F08F
:1017C00082C59BF583C59CF584C59DF585C59EF5B1
:1017D000CDECACF09BC5ABF59CC5ACF59DC5ADF5AE
:1017E0009EC5AEF5000E0501AF6F000EB06F800E06
:1017F000B16F400EB26F01ECBAF0ABC5C4F5ACC529
:10180000C5F5ADC5C6F5AEC5C7F591EF92F0000EB2
:10181000AF6F000EB06F000EB16F400EB26FC6C555
:10182000D9F4C7C5DAF4DF50C86FC851746F756B4F
:10183000766B776B000EA3ECC6F074C5ABF575C57F
:10184000ACF576C5ADF577C5AEF501ECBAF0ABC534
:101850009BF5ACC59CF5ADC59DF5AEC59EF5000EDE
:1018600005019F6F000EA06F800EA16FC20EA26FC8
:10187000CDECACF09BC5C4F59CC5C5F59DC5C6F5C2
:101880009EC5C7F591EF92F0C6C5D9F4C7C5DAF485
:10189000DF50C86FC851746F756B766B776B000E35
:1018A000A3ECC6F074C5ABF575C5ACF576C5ADF562
:1018B00077C5AEF5000E0501AF6F000EB06F7F0E5D
:1018C000B16F430EB26F01ECBAF0ABC5C4F5ACC555
:1018D000C5F5ADC5C6F5AEC5C7F591EF92F020EEE2
:1018E00001F0C651D926C751DA22DF50C86FC8515E
:1018F000746F756B766B776B000EA3ECC6F074C5D6
:101900009FF575C5A0F576C5A1F577C5A2F5000EC2
:101910000501866F000E876F800E886F430E896FFA
:10192000C6C5D9F4C7C5DAF4DF50C96FC951746FA1
:10193000756B766B776B000EA3ECC6F074C582F501
:1019400075C583F576C584F577C585F5EBECB7F0FD
:1019500082C59BF583C59CF584C59DF585C59EF51F
:10196000CDECACF09BC5CFF59CC5D0F59DC5D1F5B0
:101970009EC5D2F5CFC582F5D0C583F5D1C584F516
:10198000D2C585F5C10E0501866FCA0E876FA10EFF
:10199000886F3D0E896FEBECB7F082C5C4F583C547
:1019A000C5F584C5C6F585C5C7F591EF92F020EE63
:1019B00001F0C651D926C751DA22DF50C86FC8518D
:1019C000746F756B766B776B000EA3ECC6F074C505
:1019D0009FF575C5A0F576C5A1F577C5A2F5000EF2
:1019E0000501866F000E876F800E886F430E896F2A
:1019F000C6C5D9F4C7C5DAF4DF50C96FC951746FD1
:101A0000756B766B776B000EA3ECC6F074C582F530
:101A100075C583F576C584F577C585F5EBECB7F02C
:101A200082C59BF583C59CF584C59DF585C59EF54E
:101A3000CDECACF09BC5CFF59CC5D0F59DC5D1F5DF
:101A40009EC5D2F5000E0501866F000E876F000E51
:101A5000886F400E896FCFC582F5D0C583F5D1C59B
:101A600084F5D2C585F5EBECB7F082C5ABF583C53F
:101A7000ACF584C5ADF585C5AEF5000E0501AF6FBB
:101A8000000EB06F800EB16F470EB26F01ECBAF06E
:101A9000ABC5C4F5ACC5C5F5ADC5C6F5AEC5C7F596
:101AA00091EF92F0000EC46F000EC56F000EC66F6E
:101AB000000EC76F91EF92F0000EC46F000EC56F5D
:101AC000000EC66F000EC76F91EF92F0C4C5C8F547
:101AD000C5C5C9F5C951000AD8B471EF8DF05CEFE6
:101AE0008DF0C851040AD8B4BFEF8AF0010AD8B407
:101AF000FCEF8AF0030AD8B427EF8BF0010AD8B4C0
:101B000027EF8BF00F0AD8B427EF8BF0010AD8B477
:101B100027EF8BF0030AD8B464EF8BF0010AD8B436
:101B20008FEF8BF0070AD8B4A7EF8BF0010AD8B477
:101B30008FEF8BF0030AD8B407EF8CF0010AD8B40A
:101B4000FCEF8AF01F0AD8B4FCEF8AF0010AD8B47F
:101B5000BFEF8AF0040AD8B444EF8CF0370AD8B447
:101B60006FEF8CF0110AD8B48FEF8BF0070AD8B45E
:101B7000D7EF8CF06E0AD8B4BFEF8AF0060AD8B45B
:101B8000FCEF8AF0330AD8B452EF8DF05CEF8DF0A1
:101B900020EE01F0C651D926C751DA22DF50C86FB6
:101BA000C851746F756B766B776B000EA3ECC6F043
:101BB00074C59FF575C5A0F576C5A1F577C5A2F5E5
:101BC000000E0501866F000E876F800E886F430E32
:101BD000896FC6C5D9F4C7C5DAF4DF50746F000E3B
:101BE00074BFFF0E756F766F776F010EA3ECC6F0B2
:101BF00074C582F575C583F576C584F577C585F519
:101C0000EBECB7F082C59BF583C59CF584C59DF5CB
:101C100085C59EF5CDECACF09BC5CFF59CC5D0F548
:101C20009DC5D1F59EC5D2F5CFC582F5D0C583F54A
:101C3000D1C584F5D2C585F56F0E0501866F120EEC
:101C4000876F030E886F3B0E896FEBECB7F082C590
:101C5000C4F583C5C5F584C5C6F585C5C7F591EF3F
:101C600092F020EE01F0C651D926C751DA22DF509A
:101C7000C86FC851746F756B766B776B000EA3ECF1
:101C8000C6F074C59FF575C5A0F576C5A1F577C5F5
:101C9000A2F5000E0501866F000E876F800E886F1B
:101CA000430E896FC6C5D9F4C7C5DAF4DF50746F27
:101CB000000E74BFFF0E756F766F776F010EA3EC89
:101CC000C6F074C582F575C583F576C584F577C50C
:101CD00085F5EBECB7F082C59BF583C59CF584C513
:101CE0009DF585C59EF5CDECACF09BC5ABF59CC5CF
:101CF000ACF59DC5ADF59EC5AEF5000E0501AF6F07
:101D0000000EB06F800EB16F440EB26F01ECBAF0EE
:101D1000ABC5C4F5ACC5C5F5ADC5C6F5AEC5C7F513
:101D200091EF92F020EE01F0C651D926C751DA2288
:101D3000DF50C86FC851746F756B766B776B000E90
:101D4000A3ECC6F074C59FF575C5A0F576C5A1F5E1
:101D500077C5A2F5000E0501866F000E876F800E15
:101D6000886F430E896FC6C5D9F4C7C5DAF4DF5052
:101D7000C96FC951746F756B766B776B000EA3ECEE
:101D8000C6F074C582F575C583F576C584F577C54B
:101D900085F5EBECB7F082C59BF583C59CF584C552
:101DA0009DF585C59EF5CDECACF09BC5ABF59CC50E
:101DB000ACF59DC5ADF59EC5AEF50A0E0501AF6F3C
:101DC000D70EB06FA30EB16F430EB26F01ECBAF035
:101DD000ABC5C4F5ACC5C5F5ADC5C6F5AEC5C7F553
:101DE00091EF92F020EE01F0C651D926C751DA22C8
:101DF000DF50C86FC851746F756B766B776B000ED0
:101E0000A3ECC6F074C59FF575C5A0F576C5A1F520
:101E100077C5A2F5000E0501866F000E876F800E54
:101E2000886F430E896FC6C5D9F4C7C5DAF4DF5091
:101E3000746F000E74BFFF0E756F766F776F010EB3
:101E4000A3ECC6F074C582F575C583F576C584F537
:101E500077C585F5EBECB7F082C59BF583C59CF59E
:101E600084C59DF585C59EF5CDECACF09BC5ABF565
:101E70009CC5ACF59DC5ADF59EC5AEF5000E050142
:101E8000AF6F000EB06F000EB16FC40EB26F01ECF9
:101E9000BAF0ABC5C4F5ACC5C5F5ADC5C6F5AEC5A4
:101EA000C7F591EF92F0C6C5D9F4C7C5DAF4DF5093
:101EB000C86FC851746F756B766B776B000EA3ECAF
:101EC000C6F074C59BF575C59CF576C59DF577C5BF
:101ED0009EF5000E05019F6F000EA06F200EA16FF2
:101EE000C20EA26FCDECACF09BC5C4F59CC5C5F588
:101EF0009DC5C6F59EC5C7F591EF92F020EE01F0A5
:101F0000C651D926C751DA22DF50C86FC851746F45
:101F1000756B766B776B000EA3ECC6F074C59FF5FE
:101F200075C5A0F576C5A1F577C5A2F5000E05012A
:101F3000866F000E876F800E886F430E896FC6C54F
:101F4000D9F4C7C5DAF4DF50746F000E74BFFF0E0A
:101F5000756F766F776F010EA3ECC6F074C582F5CE
:101F600075C583F576C584F577C585F5EBECB7F0D7
:101F700082C59BF583C59CF584C59DF585C59EF5F9
:101F8000CDECACF09BC5ABF59CC5ACF59DC5ADF5F6
:101F90009EC5AEF5000E0501AF6F000EB06F800E4E
:101FA000B16F420EB26F01ECBAF0ABC5C4F5ACC56F
:101FB000C5F5ADC5C6F5AEC5C7F591EF92F020EEFB
:101FC00001F0C651D926C751DA22DF50C86FC85177
:101FD000746F756B766B776B000EA3ECC6F074C5EF
:101FE0009FF575C5A0F576C5A1F577C5A2F5000EDC
:101FF0000501866F000E876F800E886F430E896F14
:10200000C6C5D9F4C7C5DAF4DF50746F000E74BFCB
:10201000FF0E756F766F776F010EA3ECC6F074C577
:1020200082F575C583F576C584F577C585F5EBEC46
:10203000B7F082C59BF583C59CF584C59DF585C524
:102040009EF5CDECACF09BC5ABF59CC5ACF59DC544
:10205000ADF59EC5AEF5000E0501AF6F000EB06F79
:10206000800EB16F460EB26F01ECBAF0ABC5C4F58D
:10207000ACC5C5F5ADC5C6F5AEC5C7F591EF92F0D7
:10208000000EAF6F000EB06F000EB16F400EB26F5A
:10209000C6C5D9F4C7C5DAF4DF50C86FC851746F2C
:1020A000756B766B776B000EA3ECC6F074C5ABF561
:1020B00075C5ACF576C5ADF577C5AEF501ECBAF0F2
:1020C000ABC59BF5ACC59CF5ADC59DF5AEC59EF504
:1020D000000E05019F6F000EA06F200EA16FC20EB3
:1020E000A26FCDECACF09BC5C4F59CC5C5F59DC5F4
:1020F000C6F59EC5C7F591EF92F0000E866F000EF3
:10210000876FC80E886F420E896FC6C5D9F4C7C5E0
:10211000DAF4DF50C86FC851746F756B766B776BEC
:10212000000EA3ECC6F074C582F575C583F576C5BF
:1021300084F577C585F5EBECB7F082C5ABF583C5C3
:10214000ACF584C5ADF585C5AEF5000E0501AF6FE4
:10215000000EB06F7F0EB16F430EB26F01ECBAF09C
:10216000ABC5C4F5ACC5C5F5ADC5C6F5AEC5C7F5BF
:1021700091EF92F0C6C5D9F4C7C5DAF4DF50C86F45
:10218000C851746F756B766B776B000EA3ECC6F05D
:1021900074C5C4F575C5C5F576C5C6F577C5C7F56B
:1021A00091EF92F020EE01F0C651D926C751DA2204
:1021B000DF50C86FC851746F756B766B776B000E0C
:1021C000A3ECC6F074C59FF575C5A0F576C5A1F55D
:1021D00077C5A2F5000E0501866F000E876F800E91
:1021E000886F430E896FC6C5D9F4C7C5DAF4DF50CE
:1021F000C96FC951746F756B766B776B000EA3EC6A
:10220000C6F074C582F575C583F576C584F577C5C6
:1022100085F5EBECB7F082C59BF583C59CF584C5CD
:102220009DF585C59EF5CDECACF09BC5CAF59CC56A
:10223000CBF59DC5CCF59EC5CDF5CAC59BF5CBC5E7
:102240009CF5CCC59DF5CDC59EF5AB0E05019F6FE8
:10225000AA0EA06FEA0EA16F400EA26FCDECACF0FB
:102260009BC5C4F59CC5C5F59DC5C6F59EC5C7F5FE
:1022700091EF92F0000EC46F000EC56F000EC66F96
:10228000000EC76F91EF92F0C4C5C8F5C5C5C9F57A
:10229000C951030AD8B467EF91F0070AD8B486EFA2
:1022A00091F0010AD8B48DEF91F02D0AD8B494EFD3
:1022B00091F0030AD8B49BEF91F06B0AD8B4A6EF63
:1022C00091F0B40AD8B4ADEF91F03AEF91F0C85163
:1022D000010AD8B431EF8EF0060AD8B492EF8EF02E
:1022E000110AD8B492EF8EF0010AD8B492EF8EF0B2
:1022F000DD0AD8B453EF8FF0220AD8B4DFEF8FF0A5
:10230000040AD8B4F2EF8EF03AEF91F0C851610AA6
:10231000D8B47EEF8FF03AEF91F0C8517D0AD8B46F
:1023200040EF90F03AEF91F0C851130AD8B4D2EFD1
:1023300090F03AEF91F0C8510C0AD8B4C8EF8DF084
:102340001D0AD8B4C8EF8DF03AEF91F0C851280AB1
:10235000D8B4BAEF90F03AEF91F0C851040AD8B46B
:102360007DEF90F00B0AD8B453EF8FF03AEF91F075
:10237000000EC46F000EC56F000EC66F000EC76F53
:1023800091EF92F0000EC46F000EC56F000EC66F85
:10239000000EC76F91EF92F0C4C5C8F5C5C5C9F569
:1023A000C951010AD8B4EFEF91F0020AD8B4F6EFA0
:1023B00091F00B0AD8B411EF92F0040AD8B41CEFD4
:1023C00092F01E0AD8B423EF92F0040AD8B42AEF90
:1023D00092F00E0AD8B431EF92F0C2EF91F0C851EA
:1023E000C80AD8B4B8EF91F0C2EF91F0C851010A11
:1023F000D8B4B8EF91F0030AD8B4B8EF91F0010A5D
:10240000D8B4B8EF91F0070AD8B4B8EF91F0010A48
:10241000D8B4B8EF91F0030AD8B4B8EF91F0C2EF96
:1024200091F0C851020AD8B4B8EF91F0010AD8B4BB
:10243000B8EF91F0C2EF91F0C851820AD8B4B8EF6A
:1024400091F0C2EF91F0C851600AD8B4B8EF91F0A2
:10245000C2EF91F0C851020AD8B4B8EF91F0C2EFC0
:1024600091F0C851020AD8B4B8EF91F0C2EF91F0E0
:10247000000EC46F000EC56F000EC66F000EC76F52
:1024800091EF92F0000EC46F000EC56F000EC66F84
:10249000000EC76F91EF92F0C4C5C8F5C5C5C9F568
:1024A000C951000AD8B45BEF92F0030AD8B462EFC6
:1024B00092F042EF92F0C8516F0AD8B438EF92F020
:1024C00042EF92F0C851020AD8B438EF92F042EFCE
:1024D00092F0000EC46F000EC56F000EC66F000EA6
:1024E000C76F91EF92F00501CE51C86FC96BC9510A
:1024F000000AD8B47EEF92F069EF92F0C851010A59
:10250000D8B466EF8DF0230AD8B444EF91F0E30A13
:10251000D8B44CEF92F01F0AD8B4CCEF91F069EF29
:1025200092F012000701A651A711A811A911D8B461
:102530009CEF92F09EEF92F0A5EF92F0A607000EAE
:10254000A75BA85BA95BD5EF92F022EC0CF005012C
:1025500063516211611109E1650E605DD8A0B3EFAE
:1025600092F0B5EF92F0CBEF92F0010E06017D6F85
:1025700022EC0CF0FB0E05016025646FFF0E61215B
:10258000656FFF0E6221666FFF0E6321676F34EC8B
:102590000CF0D5EF92F0000E646F000E656F000E28
:1025A000666F000E676F34EC0CF0B2EC0DF0010EAC
:1025B00089EC0DF0130EA8EC01F0F40E0501605D3E
:1025C000010E6159D8B0E7EF92F0E9EF92F0EEEF2B
:1025D00092F0010E74EC0DF000EF93F0130EA8ECE6
:1025E00001F0590E0501605D020E6159D8A0FBEFA4
:1025F00092F0FDEF92F000EF93F0000E74EC0DF00E
:10260000060165516611D8B408EF93F00AEF93F014
:10261000FAEF99F090ECE9F0FAEF99F0000E05016D
:102620006C6F000E6D6F000EFEEC03F0010E4F6E2E
:1026300030EF9AF0CEAA1FEF93F022EF93F0010E45
:1026400023EF93F0000E806FCEA629EF93F02CEFCE
:1026500093F0010E2DEF93F0000E8015E8A033EFFC
:1026600093F035EF93F037EF93F0DBECCDF06CECBB
:10267000DFF09EEC07F0E806D8A441EF93F043EFBB
:1026800093F094EF93F0000E89EC0DF06CEF93F063
:10269000080E0501616F620E606F95EC0CF08BEF18
:1026A00093F0080E0501616FC00E606F95EC0CF0A1
:1026B0008BEF93F0090E0501616F0C0E606F95ECC6
:1026C0000CF08BEF93F0090E0501616F6A0E606FDD
:1026D00095EC0CF08BEF93F01EEC08F00601806F88
:1026E000816B8151000AD8B478EF93F051EF93F0E9
:1026F0008051000AD8B448EF93F0010AD8B451EFE2
:1027000093F0030AD8B45AEF93F0010AD8B463EFF8
:1027100093F051EF93F0D00E0501606F1B0E616FC7
:10272000000E626F36EC0DF0BE82BF9EBE94FEECD2
:1027300006F0E806D8A49FEF93F0A1EF93F0AEEF78
:1027400093F0040E2EEC03F0C4EC0DF00009D8A4B5
:10275000ACEF93F0AEEF93F0A4EF93F0000E050111
:102760006C6F000E6D6F000EFEEC03F0020E4F6EEC
:1027700030EF9AF07EEC08F0020AD8A4C2EF93F092
:10278000C4EF93F0C8EF93F0ACEC0DF0CAEF93F008
:10279000AFEC0DF07EEC08F0E806D8B4D2EF93F081
:1027A000D5EF93F0010ED6EF93F0000E0601806F87
:1027B0007EEC08F00009D8B4E0EF93F0E3EF93F07B
:1027C000010EE4EF93F0000E06018011E8A0EBEF9C
:1027D00093F0EDEF93F0EFEF93F075ECF3F0A8ECDE
:1027E000F5F064C594F765C595F766C596F767C5B6
:1027F00097F70701989D989F9893BEEC08F0000901
:10280000D8A405EF94F00AEF94F00601806B802BBA
:102810000CEF94F00601806B0701985106018019B6
:10282000FE0B80190701986F9851C30B2009986F10
:10283000D70E996F070E9A6FF40E6100A0F322FB7A
:10284000000E6100A0F323FB000E6100A0F324FB47
:10285000540E6100A0F325FBC80E6100A0F326FB17
:10286000010E6100A0F327FBE80E6100A0F31EFB40
:10287000030E6100A0F31FFB000E6100A0F320FB1C
:10288000000E6100A0F321FBA8ECF5F0050161004A
:1028900090F528FB610094F529FB610098F52AFB6F
:1028A00061009CF52BFBBEEC08F00009D8B45BEF8F
:1028B00094F05DEF94F064EF94F0000E0601896FE0
:1028C000020E886F69EF94F0000E0601896F010E09
:1028D000886F22EE2CF388C6DFF4FE0E0501786FB8
:1028E000090E796F4AECF2F0000E0701C96F000E75
:1028F000CA6F000ECB6F000ECC6F000EB86F000ECB
:10290000B96F000EBA6F000EBB6F7EEC08F00009C5
:10291000D8A48DEF94F08FEF94F0C1EF94F0D9EF3D
:1029200094F0FE0E0501656F090E666FBE0E676FAF
:10293000070E686FDBECDFF0FE0E0501606F090E1D
:10294000616FAD0E626F070E636F4FECCFF0F0EF6B
:1029500094F0FE0E0501656F090E666FBE0E676F7F
:10296000070E686FDBECDFF0FE0E0501656F090EE8
:10297000666FAD0E676F070E686FDBECDFF0F0EF90
:1029800094F0FE0E0501606F090E616FBE0E626F5E
:10299000070E636F4FECCFF0FE0E0501606F090E5E
:1029A000616FAD0E626F070E636F4FECCFF0F0EF0B
:1029B00094F05EEC08F00601806F816B8151000A93
:1029C000D8B4E5EF94F0C1EF94F08051000AD8B488
:1029D00091EF94F0010AD8B4A9EF94F0C1EF94F00C
:1029E000030E4F6E30EF9AF082ECF5F064C580F67E
:1029F00065C581F666C582F667C583F65CECF5F0C1
:102A0000050164510601805D0501686F655106018D
:102A100081590501696F66510601825905016A6F86
:102A200067510601835905016B6F640E6C6F000ED0
:102A30006D6F000E6E6F000E6F6F96ECECF0050E72
:102A400028EF95F00501D8906B336A33693368330A
:102A5000E82E22EF95F068C574F569C575F56AC56D
:102A600076F56BC577F5640E786F000E796F000E02
:102A70007A6F000E7B6F92ECE5F074C536F675C583
:102A800037F676C538F677C539F671EF95F0090E49
:102A9000366F000E376F000E386F000E396F040E60
:102AA0000701286F000E296F000E2A6F000E2B6F92
:102AB00071EF95F05EEC08F00601806F816B81513B
:102AC000000AD8B466EF95F071EF95F08051000AD6
:102AD000D8B4F4EF94F0010AD8B447EF95F071EF51
:102AE00095F0040E4F6E30EF9AF07EEC08F0E80699
:102AF000D8B47DEF95F080EF95F0010E81EF95F061
:102B0000000E0601806F7EEC08F00009D8B48BEF50
:102B100095F08EEF95F0010E8FEF95F0000E060107
:102B20008011E8A096EF95F098EF95F06BEF96F096
:102B3000B0ECE0F00009D8B4A0EF95F0A2EF95F06A
:102B400064EF96F08D0E0501766F070E776F8CECB3
:102B5000D7F0E806D8A4AFEF95F0B1EF95F064EFA9
:102B600096F0CEECF5F007018D510501641913E1E3
:102B700007018E51050165190EE107018F5105010D
:102B8000661909E10701905105016719D8A4CBEF37
:102B900095F0CDEF95F029EF96F0000E06018B6FC2
:102BA000000E8C6F000E8D6F000E8E6F070120EEF1
:102BB00004F09251D9269351DA22DF500601806F3A
:102BC0000F0E801780C681F6826B836B846B83C681
:102BD00084F682C683F681C682F6816B070120EEF9
:102BE00005F09251D9269351DA22DF500601856F04
:102BF000855181118B6F82518C6F83518D6F845100
:102C00008E6FD8908B358B6F8C358C6F8D358D6F2B
:102C10008E358E6F7EEC08F0E806D8A412EF96F0A1
:102C200014EF96F064EF96F08BC697F58CC698F586
:102C30008DC699F58EC69AF5E80E05019B6F030EB9
:102C40009C6F000E9D6F000E9E6FBEECF4F064EF63
:102C500096F0F4ECF5F007018D510501641913E1CC
:102C600007018E51050165190EE107018F5105011C
:102C7000661909E10701905105016719D8A443EFCE
:102C800096F045EF96F064EF96F07EEC08F00009C0
:102C9000D8A44DEF96F04FEF96F064EF96F0FE0E4D
:102CA0000501806F090E816F8DC782F58EC783F590
:102CB0008FC784F590C785F592C786F593C787F5CA
:102CC000CFECBBF064EF96F0FE0E0501EC6F090E41
:102CD000ED6FCCECB5F006017D517C110009D8B444
:102CE00074EF96F076EF96F023EF99F05EEC08F033
:102CF0000009D8A47EEF96F080EF96F03AEF98F0B6
:102D000022EC0CF060C580F661C581F662C582F6E2
:102D100063C583F682ECF5F0050164510601805D20
:102D20000501655106018159050166510601825967
:102D30000501675106018359D8A0A1EF96F0A3EFD2
:102D400096F0A7EF96F0A9EC0DF01EEF99F0A6EC27
:102D50000DF0000E06018A6F000E926F0F0E926545
:102D6000B4EF96F0B6EF96F0B8EF96F005EF97F067
:102D700092510501686F696B6A6B6B6B36C66CF5B7
:102D800037C66DF538C66EF539C66FF596ECECF0C2
:102D900068C580F669C581F66AC582F66BC583F69B
:102DA0005CECF5F00501645106018025846F050196
:102DB000655106018121856F050166510601822159
:102DC000866F0501675106018321876F22EC0CF0A5
:102DD000060184510501605D0601855105016159B7
:102DE00006018651050162590601875105016359A3
:102DF000D8A0FDEF96F0FFEF96F001EF97F092C6A6
:102E00008AF60601922BAEEF96F08AC67BF5050195
:102E10007C6B1DECF2F07BC58FF67CC590F67DC512
:102E200091F6000E0601956F0F0E95651AEF97F05B
:102E30001CEF97F01EEF97F01EEF99F095510501EA
:102E4000686F696B6A6B6B6B36C66CF537C66DF570
:102E500038C66EF539C66FF596ECECF068C580F6AD
:102E600069C581F66AC582F66BC583F65CECF5F040
:102E70000501645106018025846F05016551060135
:102E80008121856F0501665106018221866F05014A
:102E9000675106018321876F22EC0CF006018451F3
:102EA0000501605D060185510501615906018651E4
:102EB000050162590601875105016359D8A063EFE6
:102EC00097F065EF97F0F5EF97F006019551806F59
:102ED000816B5650805D8151800A826F5750800A05
:102EE0008259D8B076EF97F079EF97F0010E7AEF2C
:102EF00097F0000E836F846BBEEC07F00601856FC0
:102F000085518317000E841783518411D8B48BEF39
:102F100097F08DEF97F0C7EF97F0040E5F6E5EECC1
:102F200007F0030AD8B497EF97F09AEF97F0010EE5
:102F30009BEF97F0000E0601806F5EEC07F0020A2F
:102F4000D8B4A5EF97F0A8EF97F0010EA9EF97F08E
:102F5000000E06018011E8A0B0EF97F0B2EF97F0F5
:102F6000C4EF97F095C660F50501616B000E636FC5
:102F7000020E626F48ECE2F0D89005016035566EA3
:102F80006135576EC7EF97F095C656F5576A3EEC18
:102F900007F0030AD8B4CFEF97F0D1EF97F0E9EF3D
:102FA00097F00601955196ECF1F005016C6F060162
:102FB0009551C3ECF1F005016D6F06019551F0ECF0
:102FC000F1F005016E6F06019551B7ECD0F036EFC8
:102FD00098F08FC66CF590C66DF591C66EF506013A
:102FE0009551B7ECD0F036EF98F006019551806F0F
:102FF000816B565080190AE157508119D8B403EFFC
:1030000098F006EF98F0010E07EF98F0000E826F2F
:10301000836BBEEC07F00601846F84518217000EAB
:10302000831782518311D8B418EF98F01AEF98F0F3
:103030002BEF98F0DAECE9F005016C6FDAECE9F0CF
:1030400005016D6FDAECE9F005016E6F5650B7ECD3
:10305000D0F036EF98F0000E05016C6F000E6D6F2A
:10306000000E6E6F06019551B7ECD0F00601952B5E
:1030700014EF97F05EEC08F0E806D8A442EF98F061
:1030800044EF98F01EEF99F02BEC0CF0050163BFB4
:103090004CEF98F04EEF98F0AFEF98F0000E06016D
:1030A000936F0F0E936557EF98F059EF98F05BEF21
:1030B00098F01EEF99F02BEC0CF060C59BF561C504
:1030C0009CF562C59DF563C59EF50601935105010A
:1030D000686F696B6A6B6B6B36C66CF537C66DF5DE
:1030E00038C66EF539C66FF596ECECF068C574F528
:1030F00069C575F56AC576F56BC577F5000EA3EC65
:10310000C6F074C59FF575C5A0F576C5A1F577C560
:10311000A2F528ECD9F00501D8A091EF98F093EF33
:1031200098F0A1EF98F0DAECE9F005016C6F000E71
:103130006D6F000E6E6F06019351B7ECD0F0ABEFE0
:1031400098F0000E6C6F000E6D6F000E6E6F060132
:103150009351B7ECD0F00601932B51EF98F0000E8D
:103160000601946F0F0E9465B8EF98F0BAEF98F0DF
:10317000BCEF98F01EEF99F02BEC0CF060C564F5F5
:1031800061C565F562C566F563C567F5A4ECD8F061
:1031900064C572F565C573F528EC01F0050172C5CB
:1031A00080F673C581F6000E060181BFFF0E826FA7
:1031B000836F94510501686F696B6A6B6B6B28C7ED
:1031C0006CF529C76DF52AC76EF52BC76FF596EC20
:1031D000ECF0050168510601805D050169510601A9
:1031E000815905016A510601825905016B51060199
:1031F0008359D8A0FEEF98F000EF99F00FEF99F007
:10320000000E05016C6F000E6D6FDAECE9F0050140
:103210006E6F06019451B7ECD0F01AEF99F0000EE2
:1032200005016C6F000E6D6F000E6E6F06019451FC
:10323000B7ECD0F00601942BB2EF98F0000E060127
:103240007C6F000E7D6FF251F311F411F511D8A4CB
:103250002CEF99F02EEF99F030EF9AF0070E4F6EA9
:1032600030EF9AF0CEB837EF99F039EF99F056EF8A
:1032700099F03DEC0CF0050160510601325D05014D
:1032800061510601335905016251060134590501A6
:10329000635106013559D8B050EF99F052EF99F0CB
:1032A00066EF99F0060E4F6E30EF9AF0326933698F
:1032B000346935695EEC08F00009D8B462EF99F022
:1032C00064EF99F066EF99F0000E4F6E0601322917
:1032D0000AE1332908E1342906E13529D8A473EF3E
:1032E00099F075EF99F030EF9AF021ECA7F0000912
:1032F000D8A47DEF99F07FEF99F030EF9AF0000EAF
:103300004F6E95ECCEF030EF9AF0EEECBEF0000987
:10331000D8A48DEF99F08FEF99F030EF9AF07FEF0E
:1033200099F0000E05016C6FDAECE9F005016D6FA4
:10333000000EFEEC03F03DEC0CF0050160510701BE
:103340002C5D0501615107012D59050162510701ED
:103350002E590501635107012F59D8B0B2EF99F0EA
:10336000B4EF99F030EF9AF0040E4F6E95ECCEF07A
:10337000000E05016C6F000E6D6F000EFEEC03F089
:1033800030EF9AF057BEC7EF99F0C9EF99F0CBEF45
:1033900099F030EF9AF022EC0CF0050163516211C4
:1033A000611109E1650E605DD8A0D9EF99F0DBEFFE
:1033B00099F0DFEF99F0000E4F6E30EF9AF0BE9269
:1033C000BF8EBE84640E0601F26F000EF36F000E16
:1033D000F46F000EF56F03000601F251F311F411C2
:1033E000F511D8B4F6EF99F0F8EF99F030EF9AF0C4
:1033F000DBEF99F04F500601806F816B8151000A1D
:10340000D8B405EF9AF030EF9AF08051000AD8B4A2
:103410000EEF93F0010AD8B41AEF93F0030AD8B470
:10342000BAEF93F0010AD8B45AEF95F0070AD8B46E
:1034300075EF95F0010AD8B432EF99F0030AD8B4C9
:1034400085EF99F0010AD8B4C2EF99F00F0AD8B409
:1034500091EF99F0010AD8B430EF9AF030EF9AF07A
:103460001200000E0601A16FDAC5A4F6DBC5A5F6B1
:10347000DCC5A6F6DDC5A7F6A7BF43EF9AF041EF7E
:103480009AF057EF9AF0010EA16FA4C660F5A5C699
:1034900061F5A6C662F5A7C663F500EC02F060C54B
:1034A000A4F661C5A5F662C5A6F663C5A7F6000E2B
:1034B0000601A36F000EA26F59C691F65AC692F686
:1034C000A151D8B466EF9AF068EF9AF07CEF9AF0C9
:1034D000A151D8A46EEF9AF070EF9AF076EF9AF0BF
:1034E000000E876F2B0E866F7AEF9AF0000E876FB3
:1034F0002D0E866F86C6A1F6A4C660F5A5C661F539
:10350000A6C662F5A7C663F5B0ECDAF00501600562
:103510006111D8A48EEF9AF090EF9AF0CBEF9AF069
:103520000601A151D8B497EF9AF099EF9AF0A2EF63
:103530009AF0A1C660F89107D8A09207000EA36F79
:10354000010EA26F600EA2250501606F080E060134
:10355000A3210501616FD60E626FFF0E636F57ECFA
:1035600000F00601FD0E9127FF0E9223D8C570F5DD
:10357000D9C571F5600E0501726F080E736F91C6A3
:1035800074F592C675F5ADECE8F070C5D8F571C567
:10359000D9F577EF9FF0A4C660F5A5C661F5A6C67C
:1035A00062F5A7C663F5B0ECDAF005016051611170
:1035B000D8A4DDEF9AF0DFEF9AF002EF9BF006015E
:1035C000A151D8B4E6EF9AF0E8EF9AF0F1EF9AF053
:1035D000A1C660F89107D8A09207000EA36F010E54
:1035E000A26F600EA2250501606F080E0601A321DF
:1035F0000501616FDA0E626FFF0E636F57EC00F02A
:10360000B1EF9AF0000E0601A86F000EA96F800EB0
:10361000AA6F3F0EAB6F000E906F000E8F6FA4C6A7
:1036200060F5A5C661F5A6C662F5A7C663F5000EEE
:103630000501646F000E656F000E666F000E676F08
:103640003CECE5F00501D8B028EF9BF02AEF9BF0A9
:1036500024EF9CF037EF9BF093C6A8F694C6A9F62A
:1036600095C6AAF696C6ABF606018F4B902BA8C658
:1036700082F5A9C683F5AAC684F5ABC685F5000E0A
:103680000501866F000E876F200E886F410E896FCF
:10369000EBECB7F082C593F683C594F684C595F636
:1036A00085C596F606019351A45D0501606F06017C
:1036B0009451A5590501616F06019551A65905015F
:1036C000626F06019651A7590501636F01ECEDF099
:1036D000050163BF77EF9BF063516211611109E14E
:1036E000020E605DD8A077EF9BF079EF9BF02CEF96
:1036F0009BF093C69BF594C69CF595C69DF596C622
:103700009EF5A4C69FF5A5C6A0F5A6C6A1F5A7C6B9
:10371000A2F528ECD9F00501D8A091EF9BF093EF2A
:103720009BF02CEF9BF00601A851A45D0501606F92
:103730000601A951A5590501616F0601AA51A659B3
:103740000501626F0601AB51A7590501636F01ECDA
:10375000EDF0050163BFBAEF9BF063516211611197
:1037600007E1020E605DD8B0B8EF9BF0BAEF9BF0B6
:103770000AEF9CF0A8C6A4F6A9C6A5F6AAC6A6F6A6
:10378000ABC6A7F624EF9CF0A8C6ABF5A9C6ACF56E
:10379000AAC6ADF5ABC6AEF5000EAF6F000EB06FAA
:1037A000200EB16F410EB26F01ECBAF0ABC5A8F6B6
:1037B000ACC5A9F6ADC5AAF6AEC5ABF606018F0736
:1037C000D8A09007A851A45D0501606F0601A9511A
:1037D000A5590501616F0601AA51A6590501626F3D
:1037E0000601AB51A7590501636F01ECEDF005012E
:1037F00063BF08EF9CF063516211611107E1020E93
:10380000605DD8B006EF9CF008EF9CF00AEF9CF0EA
:10381000BAEF9BF0A4C69BF5A5C69CF5A6C69DF580
:10382000A7C69EF5A8C69FF5A9C6A0F5AAC6A1F58C
:10383000ABC6A2F528ECD9F00501D8A022EF9CF088
:1038400024EF9CF0C4EF9BF0DEC589F689C68AF6AA
:1038500006015CBF2EEF9CF030EF9CF036EF9CF041
:103860005BC682F65CC683F63AEF9CF0000E836F6F
:10387000060E826F82C68DF683C68EF68D4B8E2B1A
:10388000660E8A19D8A447EF9CF049EF9CF069EFC7
:103890009CF090BF50EF9CF04EEF9CF05CEF9CF0E2
:1038A000000EA86F000EA96F800EAA6F3F0EAB6FBF
:1038B000000E906F000E8F6F670E8919D8B463EFFA
:1038C0009CF065EF9CF069EF9CF08F518D27905133
:1038D0008E23000E986F000E976FA4C699F6A5C6AA
:1038E0009AF6A6C69BF6A7C69CF6A8C693F6A9C6E6
:1038F00094F6AAC695F6ABC696F6FBEF9CF099C671
:10390000ABF59AC6ACF59BC6ADF59CC6AEF5A8C6A0
:10391000AFF5A9C6B0F5AAC6B1F5ABC6B2F501ECD4
:10392000BAF0ABC5C4F5ACC5C5F5ADC5C6F5AEC5F9
:10393000C7F5B8ECC3F0C4C59DF6C5C59EF6C6C5AF
:103940009FF6C7C5A0F69DC664F59EC665F59FC6E1
:1039500066F5A0C667F5A4ECD8F064C58BF665C51E
:103960008CF699C6ABF59AC6ACF59BC6ADF59CC670
:10397000AEF59DC686F59EC687F59FC688F5A0C69E
:1039800089F5A8C682F5A9C683F5AAC684F5ABC693
:1039900085F5EBECB7F082C5AFF583C5B0F584C50E
:1039A000B1F585C5B2F51EECF7F0ABC599F6ACC51F
:1039B0009AF6ADC59BF6AEC59CF6A8C6ABF5A9C6F2
:1039C000ACF5AAC6ADF5ABC6AEF5000E0501AF6FFE
:1039D000000EB06F200EB16F410EB26F01ECBAF065
:1039E000ABC5A8F6ACC5A9F6ADC5AAF6AEC5ABF693
:1039F0000601974B982B8D51975D9851800A0501D0
:103A0000DF6F06018E51800A0501DF59D8A00BEF48
:103A10009DF00DEF9DF07FEF9CF0A8C682F5A9C642
:103A200083F5AAC684F5ABC685F5000E866F000E39
:103A3000876FA00E886F400E896FEBECB7F082C5E0
:103A40009DF683C59EF684C59FF685C5A0F699C6EA
:103A50009BF59AC69CF59BC69DF59CC69EF59DC69A
:103A60009FF59EC6A0F59FC6A1F5A0C6A2F528ECBD
:103A7000D9F00501D8B03FEF9DF041EF9DF04CEF3C
:103A80009DF0000E06019D6F000E9E6F000E9F6F51
:103A9000000EA06F76EF9DF099C660F59AC661F5AD
:103AA0009BC662F59CC663F59DC664F59EC665F52A
:103AB0009FC666F5A0C667F53CECE5F00501D8A009
:103AC00064EF9DF066EF9DF076EF9DF006018BB1FF
:103AD0006CEF9DF06EEF9DF076EF9DF0000E9D6F08
:103AE000000E9E6F000E9F6F000EA06FA4C69BF588
:103AF000A5C69CF5A6C69DF5A7C69EF59DC69FF5D5
:103B00009EC6A0F59FC6A1F5A0C6A2F5CDECACF06F
:103B10009BC599F69CC59AF69DC59BF69EC59CF6DD
:103B200099C69BF59AC69CF59BC69DF59CC69EF5CD
:103B3000000E0501866F000E876F200E886F410E04
:103B4000896F93C682F594C683F595C684F596C6AB
:103B500085F5EBECB7F082C59FF583C5A0F584C56C
:103B6000A1F585C5A2F528ECD9F00501D8A0BBEFD9
:103B70009DF0BDEF9DF0E7EF9DF006018F4B902B80
:103B800093C682F594C683F595C684F596C685F5E9
:103B9000000E0501866F000E876F200E886F410EA4
:103BA000896FEBECB7F082C593F683C594F684C5B4
:103BB00095F685C596F6660E06018A19D8A4E3EF38
:103BC0009DF0E5EF9DF0E7EF9DF08D4B8E2B93C6BA
:103BD000A8F694C6A9F695C6AAF696C6ABF68FC601
:103BE00080F690C681F6000E0601886F000E856F84
:103BF000000E846F000E986F000E976FE7EF9EF037
:103C000099C6ABF59AC6ACF59BC6ADF59CC6AEF5AC
:103C1000A8C6AFF5A9C6B0F5AAC6B1F5ABC6B2F550
:103C200001ECBAF0ABC5C4F5ACC5C5F5ADC5C6F57C
:103C3000AEC5C7F5B8ECC3F0C4C59DF6C5C59EF6C4
:103C4000C6C59FF6C7C5A0F69DC664F59EC665F5B8
:103C50009FC666F5A0C667F5A4ECD8F0050165BF60
:103C60003DEF9EF0655107E10A0E645DD8B03BEF71
:103C70009EF03DEF9EF04DEF9EF09DC664F59EC612
:103C800065F59FC666F5A0C667F5A4ECD8F064C5D7
:103C90008BF665C58CF652EF9EF0000E06018C6F18
:103CA000090E8B6F06018851D8A459EF9EF05BEF87
:103CB0009EF083EF9EF081BF62EF9EF060EF9EF07A
:103CC00083EF9EF0600EA225D96E080EA321DA6E56
:103CD0002E0EDF6EA24BA32B9107D8A09207010EE8
:103CE000886F83EF9EF0600EA225D96E080EA32187
:103CF000DA6E300EDF6EA24BA32B9107D8A092078D
:103D00008407D8A0850784518511D8A48AEF9EF036
:103D10008CEF9EF073EF9EF0600EA225D96E080E18
:103D2000A321DA6E8B51300FDF6EA24BA32B9107CC
:103D3000D8A0920799C6ABF59AC6ACF59BC6ADF56F
:103D40009CC6AEF59DC686F59EC687F59FC688F5CE
:103D5000A0C689F5A8C682F5A9C683F5AAC684F5CA
:103D6000ABC685F5EBECB7F082C5AFF583C5B0F512
:103D700084C5B1F585C5B2F51EECF7F0ABC599F673
:103D8000ACC59AF6ADC59BF6AEC59CF6A8C6ABF51C
:103D9000A9C6ACF5AAC6ADF5ABC6AEF5000E0501D9
