:040000000DEF00F010
:04000800D9EFC4F078
:10001800FF00A0EFDEF0010E0501646F200E6019ED
:100028006111D8B41AEF00F01CEF00F02FEF00F0C8
:10003800F70E6025626FFF0E6121636F635109E15E
:10004800050E625DD8A02BEF00F02DEF00F02FEF2A
:1000580000F0000E646F64C560F5616B1200050165
:100068006351621109E1F40E605D010E6159D8B067
:1000780040EF00F042EF00F045EF00F0000E56EFC1
:1000880000F0635162110BE1810E605D3E0E615913
:10009800D8A051EF00F053EF00F055EF00F042EF19
:1000A80000F0010E120062C564F563C565F560C510
:1000B80066F561C567F564C5F6F465C5F7F405012D
:1000C800644B652B000EF86E66C5D9F467C5DAF483
:1000D800664B672B0800F5C4DFF4DF50D8A477EF30
:1000E80000F079EF00F05FEF00F01200BEECF5F0E1
:1000F80064C594F765C595F766C596F767C597F71C
:100108007CC599F77DC59AF7000E31EC04F005011E
:100118007F6F7FA192EF00F094EF00F09BEF00F06B
:10012800940E766F070E776F000E76ECE8F0010EEE
:1001380012000501616F000E0501606F040E616118
:10014800A8EF00F0AAEF00F0BDEF00F061510C0D30
:10015800500EF324D96E010EF420DA6E0101DFAEE1
:10016800B8EF00F0BAEF00F0BDEF00F0010E0501A6
:10017800606F050160511200046E04500F08046E90
:100188000450030D520EF324D96E090EF420DA6ED2
:1001980002C5DFF40450030D530EF324D96E090E83
:1001A800F420DA6E01C5DFF40450030D540EF32475
:1001B800D96E090EF420DA6E03C5DFF4120004507C
:1001C800031009E1F40E015C010E0258D8B0EFEFFC
:1001D80000F0F1EF00F0F4EF00F0000E05EF01F091
:1001E800045003100BE1810E015C3E0E0258D8A0AA
:1001F80000EF01F002EF01F004EF01F0F1EF00F081
:10020800010E1200286E756C6C2900FFFFFFFFE8D5
:100218000300000101010000010B000400000000C0
:10022800000000000000000000010C0006000000B3
:100238000000000000000000300000000000000086
:100248005555555555555555050173BF36EF01F0B0
:10025800735106E17205D8B034EF01F036EF01F0C2
:1002680044EF01F072C574F573C575F5741F751FF9
:10027800744B752B74C572F575C573F548EF01F0AD
:1002880072C572F573C573F5120069EC0CF0045071
:100298000310021007E1650E015CD8B056EF01F0BB
:1002A80058EF01F069EF01F00601F251F311F41172
:1002B800F511D8B462EF01F064EF01F069EF01F0D5
:1002C800F207000EF35BF45BF55B1200000E05010C
:1002D800616F080E606FC3EC09F00501646F64512B
:1002E800676F686B000E616F090E606FC3EC09F0F1
:1002F8000501646F6751656F6451676F65C568F57F
:1003080067C562F568C563F51200000E0501616FE7
:100318000D0E606FC3EC09F00501646F6451676FDF
:10032800686B000E616F0E0E606FC3EC09F005017B
:10033800646F6751656F6451676F65C568F567C518
:1003480062F568C563F512000501646F64C5ECF3D6
:100358000301F38FF39DF381F3B1B5EF01F0B7EF2C
:1003680001F0B0EF01F0EB510501636F626B03011F
:10037800EA5105016225606F0301000E0501632142
:10038800616F12009F0E05016425666FFF0E6521DF
:10039800676F675107E11A0E665DD8B0D6EF01F0B6
:1003A800D8EF01F0DEEF01F05F0E6415646F656B46
:1003B800E2EF01F064C564F565C565F51200200E2D
:1003C80005016011626F000E6111636F9F0E622557
:1003D800646FFF0E6321656F65510AE11A0E645D53
:1003E800D8A0F9EF01F0FCEF01F0010EFDEF01F0EC
:1003F800000E606F616B120005016051611162119E
:100408006311D8B40AEF02F00CEF02F014EF02F017
:10041800000E601B000E611B000E621B800E631B2A
:1004280060C560F561C561F562C562F563C563F5D0
:100438001200B3986DC601F56EC602F5A0EC05F082
:1004480006016B4B6C2B6C5109E1050E6B5DD8A056
:1004580030EF02F032EF02F039EF02F07CEC04F0FA
:10046800000E06016C6F000E6B6F1200B19871C61A
:1004780001F572C602F5B5EC05F006016F4B702B5D
:10048800705109E1080E6F5DD8A04DEF02F04FEFF3
:1004980002F056EF02F095EC04F0000E0601706FC2
:1004A800000E6F6F120086C574F587C575F50501D6
:1004B800000E75BFFF0E766F776F010EB9ECC6F0B0
:1004C80074C582F575C583F576C584F577C585F558
:1004D80060EC0CF0010E06017D6F12000701EB5174
:1004E800EC11ED11D8B47BEF02F07DEF02F08AEF4A
:1004F80002F002D88AEF02F00500FA6EEB51FD6EA9
:10050800EC51FE6EED51FF6EFA5012000401179F78
:1005180012000701EE51EF11F011D8B496EF02F076
:1005280098EF02F0A5EF02F002D8A5EF02F005005F
:10053800FA6EEE51FD6EEF51FE6EF051FF6EFA50FD
:1005480012000401179712000701F151F211F3117B
:10055800D8B4B1EF02F0B3EF02F0C0EF02F002D866
:10056800C0EF02F00500FA6EF151FD6EF251FE6E19
:10057800F351FF6EFA50120004010F9512000701A3
:10058800F451F511F611D8B4CCEF02F0CEEF02F029
:10059800DBEF02F002D8DBEF02F00500FA6EF4514F
:1005A800FD6EF551FE6EF651FF6EFA501200040111
:1005B800079B12000701F751F811F911D8B4E7EFBA
:1005C80002F0E9EF02F0F6EF02F002D8F6EF02F0DF
:1005D8000500FA6EF751FD6EF851FE6EF951FF6E87
:1005E800FA5012000401079912000701FA51FB1191
:1005F800FC11D8B402EF03F004EF03F011EF03F09D
:1006080002D811EF03F00500FA6EFA51FD6EFB51A6
:10061800FE6EFC51FF6EFA5012000401079712009B
:1006280091C574F592C575F593C576F594C577F5BA
:1006380095C578F596C579F5000E05017A6F44ECF5
:10064800AFF074C591F575C592F576C593F577C584
:1006580094F512005FC660F560C661F578EC09F0A4
:100668000009D8A43AEF03F03CEF03F043EF03F09E
:10067800000E0501636F000E626F47EF03F05FC65F
:1006880062F560C663F512000501706F000E4B6ECF
:1006980070C57BF6000E05016C6F000E6D6F000EC5
:1006A80018EC04F0010E4C6E000E0501616F050E8A
:1006B800606F94EC0DF0B8EC0DF01200050120EE1F
:1006C80084F16C51D9266D51DA22000EDF6E620E6C
:1006D8006C25606F010E6D21616F000E636F000E57
:1006E800626F000E656F200E646F35ECCDF012005E
:1006F800010E03013E6F000E3D6F000E3F6F9F0E0F
:100708003B6F000E3A6FBD96AD86E00E0501606F37
:100718001B0E616F000E626FEEEC0CF0FC0E030115
:100728003C6F1200010E0301326F000E316F000E94
:10073800336F310E2F6F000E2E6FB996A986E40E17
:100748000501606F1B0E616F000E626FFCEC0CF010
:10075800640E0301306F1200000E0001D56F010E08
:10076800D76F1F0ED86F410ED96F400EDA6F1F0E6C
:10077800DB6F050EDC6F100EDD6F080EDE6F200ECE
:10078800DF6F000ED46F800ED66F1200BD96060183
:10079800405141114211D8B4D4EF03F0D6EF03F021
:1007A800E3EF03F002D8E3EF03F00500FA6E4051DF
:1007B800FD6E4151FE6E4251FF6EFA50120012005A
:1007C800B19E06013D513E113F11D8B4EEEF03F042
:1007D800F0EF03F0FDEF03F002D8FDEF03F00500A2
:1007E800FA6E3D51FD6E3E51FE6E3F51FF6EFA505E
:1007F80012001200B0900701E551E611E711D8B4D4
:1008080008EF04F00AEF04F017EF04F002D817EF2E
:1008180004F00500FA6EE551FD6EE651FE6EE751F3
:10082800FF6EFA501200120005016E6F000E0501EE
:100838006F6F6EC568F56CC569F56DC56AF56F5162
:10084800C5ECF6F005016F2B0F0E6F652EEF04F067
:1008580030EF04F01DEF04F012000501636F000E85
:100868000501626F63519DEC00F00009D8B43FEFB9
:1008780004F041EF04F047EF04F005016351D1ECB7
:1008880009F00501626F050162511200060143512A
:1008980044114511D8B453EF04F055EF04F062EF5A
:1008A80004F002D862EF04F00500FA6E4351FD6EC1
:1008B8004451FE6E4551FF6EFA50120012000601B7
:1008C800465147114811D8B46CEF04F06EEF04F0AC
:1008D8007BEF04F002D87BEF04F00500FA6E465176
:1008E800FD6E4751FE6E4851FF6EFA50120012001D
:1008F800060149514A114B11D8B485EF04F087EF2E
:1009080004F094EF04F002D894EF04F00500FA6EB6
:100918004951FD6E4A51FE6E4B51FF6EFA5012005E
:10092800120006014C514D114E11D8B49EEF04F03F
:10093800A0EF04F0ADEF04F002D8ADEF04F005002D
:10094800FA6E4C51FD6E4D51FE6E4E51FF6EFA50CF
:10095800120012009F0E05016025626FFF0E6121D3
:10096800636F63510AE11A0E625DD8A0BEEF04F00E
:10097800C1EF04F0010EC2EF04F0000E606F616B6E
:100988001200D00E05016025626FFF0E6121636FB2
:1009980063510AE10A0E625DD8A0D5EF04F0D8EFE2
:1009A80004F0010ED9EF04F0000E606F616B1200C5
:1009B800000E0501606F6051020DF70EF324D96E29
:1009C800060EF420DA6E000EDF6E602B010E6065F5
:1009D800F0EF04F0F2EF04F0DFEF04F01200B99644
:1009E8000601694B6A2BFA51695DFB516A59D8A017
:1009F80000EF05F002EF05F009EF05F063EC04F0F5
:100A0800000E06016A6F000E696F12004A0E03019C
:100A18001B6F8D0E196F000E186FB19EA18EEA0E16
:100A28000501606F1B0E616F000E626F11EC0DF017
:100A38008A0E03011A6F1200040E0201946F800ED1
:100A4800956F180E966F030E9E6F000E9A6F000E2C
:100A58009B6F000E976F000E8C6F000E8D6F000E4F
:100A68009D6F1200076E000E086E07C501F505C5DB
:100A780002F506C503F50850C0EC00F0082A0F0E71
:100A8800086449EF05F04BEF05F039EF05F0120067
:100A9800000E0501626F622B180E626556EF05F0B5
:100AA80058EF05F04FEF05F020EE2FF16051D926F1
:100AB8006151DA22000EDF6E1200480E5624D96EFC
:100AC800DA6A080EDA22B4C2DFF4562A170E566420
:100AD80070EF05F072EF05F074EF05F0000E566E3A
:100AE800542A1200180E5324D96EDA6A080EDA2234
:100AF800A1C2DFF4532A170E536485EF05F087EF80
:100B080005F089EF05F0000E536E512A120003011B
:100B180036A591EF05F093EF05F09BEF05F03691C0
:100B28000250356F01C534F336819FEF05F002504E
:100B3800356F01C534F3120003012AA5A6EF05F0AD
:100B4800A8EF05F0B0EF05F02A910250296F01C512
:100B580028F32A81B4EF05F00250296F01C528F364
:100B6800120003011EA5BBEF05F0BDEF05F0C5EFB0
:100B780005F01E9102501D6F01C51CF31E81C9EFBF
:100B880005F002501D6F01C51CF312009C0E0501F3
:100B98009E6F050E9F6F000E8E6F000E8F6F9AC5A9
:100BA80090F59BC591F59E0E926F050E936F12EC12
:100BB800DFF012000501635162110BE18D0E605DDB
:100BC8003C0E6159D8A0EBEF05F0EDEF05F0F0EF22
:100BD80005F0000EF1EF05F0010E1200050160515D
:100BE8006203F3C464F5F4C465F560516303F3501C
:100BF800652761516203F350652764C560F565C5D3
:100C080061F51200600E0001606F000E616F030E47
:100C1800626F470E636F7F0E646FF60E656FE40EAA
:100C2800666FFE0E676FFE0E686F1200E807000021
:100C3800E007000090000000D007000064190000E1
:100C4800204E000010270000010002006400000090
:100C580001004E2A000E4D6E040E4E18D8A437EF30
:100C680006F039EF06F03EEF06F0000E4E6E000E6D
:100C78003FEF06F0010E1200000E0501616F000E35
:100C8800606F65C562F58DECF2F0000E0501616FCD
:100C9800010E606F64C562F58DECF2F01200000E73
:100CA8000501616F020E606F65C562F58DECF2F0AB
:100CB800000E0501616F030E606F64C562F58DEC6F
:100CC800F2F01200200E0001AD6F000EAF6F010EA2
:100CD800B36F080EB16F000EB06FB2A176EF06F0D9
:100CE80078EF06F071EF06F0120001500302F3C42A
:100CF80005F5F4C406F501500402F3500626025027
:100D08000302F350062605C501F506C502F51200D3
:100D1800045003100BE18D0E015C3C0E0258D8A064
:100D280098EF06F09AEF06F09DEF06F0000E9EEFA2
:100D380006F0010E1200000E0101506F040E516FF3
:100D4800600E526F050E536F800E746F040E756F30
:100D5800620E766F050E776F1200000E01015C6F50
:100D6800040E5D6F600E5E6F050E5F6F000E686F9C
:100D7800040E696F600E6A6F050E6B6F1200830EAA
:100D880003010C6F420E0D6F000E0E6F000E0F6FF9
:100D9800000E116F000E106F0B690A6909699F8CAC
:100DA8001200DFEC0DF00009D8A4DDEF06F0DFEF4C
:100DB80006F0E3EF06F068EC08F0E5EF06F058EC13
:100DC80008F012000501616F050161510C0D530E09
:100DD800F324D96E010EF420DA6EDF50606F1F0E17
:100DE800601760291200E7EC0DF00009D8A4FFEFA6
:100DF80006F001EF07F005EF07F068EC09F007EFE0
:100E080007F058EC09F012005950DBEC0DF000091E
:100E1800D8A411EF07F013EF07F016EF07F0200E34
:100E280017EF07F0595012003E5038EC07F0000950
:100E3800D8A421EF07F023EF07F026EF07F0000E04
:100E480027EF07F03E5012003D5048EC07F000092C
:100E5800D8A431EF07F033EF07F036EF07F0000EB4
:100E680037EF07F03D5012000501606F010E0501D4
:100E7800606541EF07F043EF07F046EF07F0000E1B
:100E880047EF07F0010E12000501606F020E050121
:100E9800606551EF07F053EF07F056EF07F0000ECB
:100EA80057EF07F0010E1200455068EC07F00009F3
:100EB800D8A461EF07F063EF07F066EF07F0000EC4
:100EC80067EF07F0455012000501606F030E05013A
:100ED800606571EF07F073EF07F076EF07F0000E2B
:100EE80077EF07F0010E1200465088EC07F0000972
:100EF800D8A481EF07F083EF07F086EF07F0000E24
:100F080087EF07F0465012000501606F030E0501D8
:100F1800606591EF07F093EF07F096EF07F0000E8A
:100F280097EF07F0010E12005C50A8EC07F00009DB
:100F3800D8A4A1EF07F0A3EF07F0A6EF07F0070E7C
:100F4800A7EF07F05C5012000501606F070E05015E
:100F58006065B1EF07F0B3EF07F0B6EF07F0000EEA
:100F6800B7EF07F0010E12004150C8EC07F0000976
:100F7800D8A4C1EF07F0C3EF07F0C6EF07F0000EE3
:100F8800C7EF07F0415012000501606F010E05011F
:100F98006065D1EF07F0D3EF07F0D6EF07F0000E4A
:100FA800D7EF07F0010E12004350E8EC07F00009F4
:100FB800D8A4E1EF07F0E3EF07F0E6EF07F0000E43
:100FC800E7EF07F0435012000501606F010E0501BD
:100FD8006065F1EF07F0F3EF07F0F6EF07F0000EAA
:100FE800F7EF07F0010E12005B5008EC08F000095B
:100FF800D8A401EF08F003EF08F006EF08F0010E9F
:1010080007EF08F05B5012000501606F010E050143
:10101800606511EF08F013EF08F016EF08F0000E06
:1010280017EF08F0010E1200405028EC08F00009F4
:10103800D8A421EF08F023EF08F026EF08F0000EFF
:1010480027EF08F0405012000501606F010E0501FE
:10105800606531EF08F033EF08F036EF08F0000E66
:1010680037EF08F0010E12005A5048EC08F000095A
:10107800D8A441EF08F043EF08F046EF08F0010E5E
:1010880047EF08F05A5012000501606F030E050182
:10109800606551EF08F053EF08F056EF08F0000EC6
:1010A80057EF08F0010E12005D50DDEC0DF000095D
:1010B800D8A461EF08F063EF08F066EF08F0960E29
:1010C80067EF08F05D5012005E50E1EC0DF000098A
:1010D800D8A471EF08F073EF08F076EF08F0960ED9
:1010E80077EF08F05E501200425088EC08F00009D3
:1010F800D8A481EF08F083EF08F086EF08F0000E1F
:1011080087EF08F0425012000501606F010E0501DB
:10111800606591EF08F093EF08F096EF08F0000E85
:1011280097EF08F0010E12004450A8EC08F00009EF
:10113800D8A4A1EF08F0A3EF08F0A6EF08F0000E7E
:10114800A7EF08F0445012000501606F020E050178
:101158006065B1EF08F0B3EF08F0B6EF08F0000EE5
:10116800B7EF08F0010E120005016151000AD8A47A
:10117800C0EF08F0C4EF08F0626B622BC6EF08F00E
:101188000501626B62291200050120EE1AF1605117
:10119800D9266151DA222AC6DEF42BC6DEF42CC623
:1011A800DEF42DC6DEF412003F50E8EC08F000092A
:1011B800D8A4E1EF08F0E3EF08F0E6EF08F0000E3E
:1011C800E7EF08F03F5012000501606F010E0501BE
:1011D8006065F1EF08F0F3EF08F0F6EF08F0000EA5
:1011E800F7EF08F0010E12004550EDEC09F0000988
:1011F800D8A401EF09F003EF09F006EF09F0000E9B
:1012080007EF09F0455012005C50FBEC09F00009AB
:10121800D8A411EF09F013EF09F016EF09F0070E43
:1012280017EF09F05C5012005B5009EC0AF0000956
:10123800D8A421EF09F023EF09F026EF09F0010EF9
:1012480027EF09F05B501200465017EC0AF000092E
:10125800D8A431EF09F033EF09F036EF09F0000EAA
:1012680037EF09F04650120038ECECF00009D8A42A
:1012780040EF09F042EF09F045EF09F0010EA7EC45
:10128800CBF0050E506E12003D5025EC0AF0000917
:10129800D8A451EF09F053EF09F056EF09F0000E0A
:1012A80057EF09F03D5012005D50E5EC0DF00009D4
:1012B800D8A461EF09F063EF09F066EF09F0960E24
:1012C80067EF09F05D5012005E50E9EC0DF000097F
:1012D800D8A471EF09F073EF09F076EF09F0960ED4
:1012E80077EF09F05E501200050160516111D8B422
:1012F80080EF09F082EF09F085EF09F0000E86EF24
:1013080009F0010E1200200E0501635DD8A08FEFD1
:1013180009F091EF09F094EF09F0000E95EF09F04C
:10132800010E1200200E0501635DD8A09EEF09F0A2
:10133800A0EF09F0A3EF09F0000EA4EF09F0010EE9
:101348001200200E0501635DD8A0ADEF09F0AFEFE4
:1013580009F0B2EF09F0000EB3EF09F0010E120028
:10136800010E0301266F600E256F000E276F090E10
:10137800236F000E226FB196800E246F1200380E74
:101388000001456F050161510001446F60C543F0DC
:10139800F80E41174081465112000501606F0501A2
:1013A80060510C0D540EF324D96E010EF420DA6E40
:1013B800DF50010B12000501606F050160510C0D33
:1013C800540EF324D96E010EF420DA6EDF50090BA7
:1013D8001200016E030E0164F4EF09F0F6EF09F054
:1013E800F9EF09F0000EFAEF09F0010E1200016E94
:1013F800070E016402EF0AF004EF0AF007EF0AF0A3
:10140800000E08EF0AF0010E1200016E010E0164D1
:1014180010EF0AF012EF0AF015EF0AF0000E16EFBF
:101428000AF0010E1200016E030E01641EEF0AF0AD
:1014380020EF0AF023EF0AF0000E24EF0AF0010E65
:101448001200016E020E01642CEF0AF02EEF0AF072
:1014580031EF0AF0000E32EF0AF0010E1200830E8F
:101468000001846F000E856F020E866F060E8C6F6A
:10147800000E896FC79A12000501606FB2A247EF8C
:101488000AF049EF0AF042EF0AF060C5A3F2120031
:101498000501646F000E0501616F210E606F64C560
:1014A80062F58DECF2F012000501646F000E050183
:1014B800616F220E606F64C562F58DECF2F0120068
:1014C8000501646F000E0501616F070E606F64C54A
:1014D80062F58DECF2F012000501646F000E050153
:1014E800616F060E606F64C562F58DECF2F0120054
:1014F8000501646F000E0501616F230E606F64C5FE
:1015080062F58DECF2F012000501646F000E050122
:10151800616F050E606F64C562F58DECF2F0120024
:101528000501646F000E0501616F040E606F64C5EC
:1015380062F58DECF2F012000501646F000E0501F2
:10154800616F0F0E606F64C562F58DECF2F01200EA
:101558000501646F000E0501616F110E606F64C5AF
:1015680062F58DECF2F012000501646F000E0501C2
:10157800616F0B0E606F64C562F58DECF2F01200BE
:101588000501646F000E0501616F100E606F64C580
:1015980062F58DECF2F012000501646F000E050192
:1015A800616F0C0E606F64C562F58DECF2F012008D
:1015B8000501646F000E0501616F140E606F64C54C
:1015C80062F58DECF2F012000501646F000E050162
:1015D800616F130E606F64C562F58DECF2F0120056
:1015E8000501646F000E0501616F120E606F64C51E
:1015F80062F58DECF2F012000501646F000E050132
:10160800616F0A0E606F64C562F58DECF2F012002E
:101618008C0E0301426F000E416F130E406F4C5148
:10162800FC0B01094C6F1200380E0001456F025087
:10163800446F01C543F0F80E41174081465112002E
:101648005150D8A42AEF0BF02DEF0BF0010E2EEF1E
:101658000BF0000E1200000E0501616F210E606F85
:10166800C3EC09F00501626F62511200000E05011A
:10167800616F220E606FC3EC09F00501626F625161
:101688001200000E0501616F070E606FC3EC09F0D0
:101698000501626F62511200000E0501616F060EAE
:1016A800606FC3EC09F00501626F62511200000E11
:1016B8000501616F230E606FC3EC09F00501626FCD
:1016C80062511200000E0501616F050E606FC3ECD8
:1016D80009F00501626F62511200000E0501616F89
:1016E800040E606FC3EC09F00501626F62511200CD
:1016F800000E0501616F0F0E606FC3EC09F0050164
:10170800626F62511200000E0501616F110E606F69
:10171800C3EC09F00501626F62511200000E050169
:10172800616F0B0E606FC3EC09F00501626F6251C7
:101738001200000E0501616F100E606FC3EC09F016
:101748000501626F62511200000E0501616F0C0EF7
:10175800606FC3EC09F00501626F62511200000E60
:101768000501616F140E606FC3EC09F00501626F2B
:1017780062511200000E0501616F130E606FC3EC19
:1017880009F00501626F62511200000E0501616FD8
:10179800120E606FC3EC09F00501626F625112000E
:1017A800000E0501616F0A0E606FC3EC09F00501B8
:1017B800626F625112004C50D8A4E5EF0BF0E7EFCE
:1017C8000BF0E9EF0BF0010E496E12004C50D8A453
:1017D800F0EF0BF0F2EF0BF0F4EF0BF0010E4A6EA6
:1017E80012004C50D8A4FBEF0BF0FDEF0BF0FFEF0D
:1017F8000BF0010E486E120082C508F783C509F781
:1018080084C50AF785C50BF7010E120082C514F7C7
:1018180083C515F784C516F785C517F7010E12009D
:10182800190E0101046F190E056F640E066F000E84
:10183800076F1200B69867C601F568C602F58BEC0B
:1018480005F04AEC04F01200056E000E026E070E59
:10185800016E05C503F54BECF5F01200056E000EA0
:10186800026E060E016E05C503F54BECF5F012008D
:101878000CC760F50DC761F50EC762F50FC763F5B4
:10188800120010C760F511C761F512C762F513C7DA
:1018980063F5120064C50CF765C50DF766C50EF74C
:1018A80067C50FF712001CC760F51DC761F51EC795
:1018B80062F51FC763F5120082C510F783C511F7DB
:1018C80084C512F785C513F712000CC701F50DC7BB
:1018D80002F50EC703F50FC704F5120001C50CF792
:1018E80002C50DF703C50EF704C50FF71200030173
:1018F8000351016E0451026E0551036E046A120011
:101908001CC701F51DC702F51EC703F51FC704F55F
:101918001200000E026E070E016E18EC0BF0036E3B
:1019280003501200000E026E060E016E18EC0BF04A
:10193800036E03501200010E07011C27000E1D2321
:101948001E231F231200010E06012A27000E2B2337
:101958002C232D231200050161510301DC6F60C5A2
:10196800DBF3120060C54EF761C54FF762C550F74B
:10197800120060C545F761C546F762C547F7120012
:1019880060C548F761C549F762C54AF7120060C5E6
:1019980042F761C543F762C544F7120060C54BF7CB
:1019A80061C54CF762C54DF7120060C53CF761C5CB
:1019B8003DF762C53EF7120060C53FF761C540F7C5
:1019C80062C541F7120060C539F761C53AF762C5CB
:1019D8003BF7120060C540F661C541F662C542F6A4
:1019E800120060C543F661C544F662C545F61200AB
:1019F80060C546F661C547F662C548F6120060C57F
:101A080049F661C54AF662C54BF6120060C54CF648
:101A180061C54DF662C54EF6120060C53DF661C55A
:101A28003EF662C53FF61200550E0001B46FAA0ECD
:101A3800B46FB481120060C5EBF761C5ECF762C5FD
:101A4800EDF7120060C5EEF761C5EFF762C5F0F774
:101A5800120060C5F1F761C5F2F762C5F3F712002D
:101A680060C5F4F761C5F5F762C5F6F7120060C501
:101A7800F7F761C5F8F762C5F9F7120060C5FAF71C
:101A880061C5FBF762C5FCF7120060C5E2F761C5E6
:101A9800E3F762C5E4F7120060C5E5F761C5E6F74C
:101AA80062C5E7F7120060C5DFF761C5E0F762C5F8
:101AB800E1F7120060C5E8F761C5E9F762C5EAF722
:101AC800120060C530F761C531F762C532F7120000
:101AD80060C53AF661C53BF662C53CF6120060C5C2
:101AE80033F761C534F762C535F7120060C536F7BC
:101AF80061C537F762C538F712009FEC0CF0A7EC08
:101B08000CF049EC01F012000501606F60C576F633
:101B1800010E12000501606F60C53CF5010E120050
:101B280060C5FAF661C5FBF6120001010239E83218
:101B3800070B12000501606F60C5FBF31200000E71
:101B48000001E86FFC8D120001C5FAF602C5FBF62C
:101B580012000501606961691200010E06017C6FBF
:101B680012000601765112000301308F12000301A2
:101B78002A91120003012A81120003010D8F12001D
:101B880003010D9F12000301F39B120061EC05F0A5
:101B9800120076EC05F01200A3EC0DF01200030120
:101BA800309F120003012A9112004C501200010EBE
:101BB8001200010E12003C501200010E1200D69ABB
:101BC8001200010E12003C501200010E1200120009
:101BD800120012001200120012001200120012006D
:101BE800120012001200120012001200120012005D
:041BF80012001200C5
:10FE9400000000000000000000000000000000005E
:10FEA400000000000000000000000000000000004E
:10FEB400000000000000000000000000000000003E
:10FEC400000000000000000000000001020304051F
:10FED40006070800FC1F000000F80F00FCE0FF1FED
:10FEE40000E003FF03830002000050015B457272CF
:10FEF4006F725D20257320697320696E76616C6969
:10FF04006400257320697320526561642D4F6E6C03
:10FF140079005348494654434F4C4F5200494C4C86
:10FF2400554D4E4947485400494C4C554D4D4F444E
:10FF340045004C4F4144414E494D00494C4C554DB0
:10FF44005F494E00535441525442495400494C4C69
:10FF5400554D4441590043414E42415544004445A6
:10FF64004641554C54004241545445525900434172
:10FF74004E4944450043525549534500434F4E466C
:10FF8400494700302E302E3400534E494646004631
:10FF94004C41534800454556455200504F57455231
:10FFA400004552524F52005245534554005348495C
:10FFB400465400424F4F5354005258494400545839
:10FFC4004944005045414B004543484F00564F4C6F
:10FFD4005400696E66006E616E006C6C7300525062
:10FFE4004D004143510041435400256C75004F4B73
:0BFFF400002564002566002573000056
:020000040001F9
:10000000FB0E05019A6FFF0E9B6F200E9C6F090E71
:100010009D6FCAEC05F006017951D8B412EF80F05B
:1000200014EF80F0E5EF89F0530EBF6F070EC06F3D
:10003000000EC26F320EC16FF20EC36FFF0EC46F9F
:1000400082ECD6F0BFC663F6C0C664F66AEF85F0F0
:10005000B00E746F080E756F11ECCAF074C583F59D
:1000600075C584F576C585F577C586F5010E05015C
:10007000876F3AECE7F00009D8A441EF80F043EF36
:1000800080F073EF8AF0530E0601BF6F070EC06F4A
:10009000000EC26F320EC16FF00EC36FFE0EC46F42
:1000A000B00EC56F080EC66F82ECD6F0BFC663F601
:1000B000C0C664F673EF8AF0B00E746F080E756FE9
:1000C00011ECCAF074C583F575C584F576C585F560
:1000D00077C586F5010E0501876F89ECE7F0000909
:1000E000D8A475EF80F077EF80F073EF8AF0530EAD
:1000F0000601BF6F070EC06F000EC26F320EC16FD8
:10010000F00EC36FFE0EC46FB00EC56F080EC66F43
:1001100082ECD6F0BFC663F6C0C664F673EF8AF011
:10012000010E6F6FB00E666F080E676FD2ECD2F0E3
:100130000501665183ECEEF00009D8A4A2EF80F02F
:10014000A4EF80F073EF8AF0530E0601BF6F070E25
:10015000C06F000EC26F320EC16FF00EC36FFE0E85
:10016000C46FB00EC56F080EC66F82ECD6F0BFC666
:1001700063F6C0C664F673EF8AF0010E6F6FB00EBF
:10018000666F080E676FD2ECD2F0050166514FEC36
:10019000EEF00009D8A4CFEF80F0D1EF80F073EF3C
:1001A0008AF0530E0601BF6F070EC06F000EC26FBC
:1001B000320EC16FF00EC36FFE0EC46FB00EC56F6E
:1001C000080EC66F82ECD6F0BFC663F6C0C664F6F2
:1001D00073EF8AF0010E836FB00E746F080E756FA7
:1001E00011ECCAF005017451E7ECEDF00009D8A458
:1001F000FCEF80F0FEEF80F073EF8AF0530E060103
:10020000BF6F070EC06F000EC26F320EC16FF00ECF
:10021000C36FFE0EC46FB00EC56F080EC66F82ECC2
:10022000D6F0BFC663F6C0C664F673EF8AF0010E5F
:10023000836FB00E746F080E756F11ECCAF0050174
:100240007451B3ECEDF00009D8A429EF81F02BEF45
:1002500081F073EF8AF0530E0601BF6F070EC06F77
:10026000000EC26F320EC16FF00EC36FFE0EC46F70
:10027000B00EC56F080EC66F82ECD6F0BFC663F62F
:10028000C0C664F673EF8AF0B00E666F080E676F33
:10029000D2ECD2F0050166C574F567C575F5000EA0
:1002A00075BFFF0E766F776F010EB9ECC6F074C59F
:1002B00082F575C583F576C584F577C585F50AECB5
:1002C0000CF00009D8A467EF81F069EF81F073EFBB
:1002D0008AF0530E0601BF6F070EC06F000EC26F8B
:1002E000320EC16FF00EC36FFE0EC46FB00EC56F3D
:1002F000080EC66F82ECD6F0BFC663F6C0C664F6C1
:1003000073EF8AF0B00E666F080E676FD2ECD2F012
:10031000050166518EEC0DF00009D8A492EF81F032
:1003200094EF81F073EF8AF0530E0601BF6F070E52
:10033000C06F000EC26F320EC16FF00EC36FFE0EA3
:10034000C46FB00EC56F080EC66F82ECD6F0BFC684
:1003500063F6C0C664F673EF8AF0B00E746F080ED1
:10036000756F11ECCAF00501745188EC0DF00009AD
:10037000D8A4BDEF81F0BFEF81F073EF8AF0530E88
:100380000601BF6F070EC06F000EC26F320EC16F45
:10039000F00EC36FFE0EC46FB00EC56F080EC66FB1
:1003A00082ECD6F0BFC663F6C0C664F673EF8AF07F
:1003B000530E0601BF6F070EC06F000EC26F320EE4
:1003C000C16F060EC36FFF0EC46F200EC56F090EFE
:1003D000C66F82ECD6F0BFC663F6C0C664F673EF94
:1003E0008AF0010E6F6FB00E666F080E676FD2EC69
:1003F000D2F00501665157ECF0F00009D8A403EFE4
:1004000082F005EF82F073EF8AF0530E0601BF6FA2
:10041000070EC06F000EC26F320EC16FF00EC36FB9
:10042000FE0EC46FB00EC56F080EC66F82ECD6F01C
:10043000BFC663F6C0C664F673EF8AF0B00E916F64
:10044000080E926F000E936F000E946F000E966F61
:10045000000E956F14EC03F091C597F592C598F5D1
:1004600093C599F594C59AF5FF0E05019B6FFF0E94
:100470009C6FFF0E9D6FFF0E9E6FD4ECF4F073EF38
:100480008AF0010E6F6FB00E666F080E676FD2ECC8
:10049000D2F0050166511FECEFF00009D8A453EF2C
:1004A00082F055EF82F073EF8AF0530E0601BF6FB2
:1004B000070EC06F000EC26F320EC16FF00EC36F19
:1004C000FE0EC46FB00EC56F080EC66F82ECD6F07C
:1004D000BFC663F6C0C664F673EF8AF0010E6F6F95
:1004E000B00E666F080E676FD2ECD2F00501665150
:1004F00087ECEFF00009D8A480EF82F082EF82F061
:1005000073EF8AF0530E0601BF6F070EC06F000E27
:10051000C26F320EC16FF00EC36FFE0EC46FB00E0D
:10052000C56F080EC66F82ECD6F0BFC663F6C0C6B4
:1005300064F673EF8AF0530E0601BF6F070EC06FAB
:10054000000EC26F320EC16F060EC36FFF0EC46F76
:10055000200EC56F090EC66F82ECD6F0BFC663F6DB
:10056000C0C664F673EF8AF0010E6F6FB00E666F4F
:10057000080E676FD2ECD2F005016651B7ECEEF0D1
:100580000009D8A4C6EF82F0C8EF82F073EF8AF0BA
:10059000530E0601BF6F070EC06F000EC26F320E02
:1005A000C16FF00EC36FFE0EC46FB00EC56F080EA4
:1005B000C66F82ECD6F0BFC663F6C0C664F673EFB2
:1005C0008AF0010E6F6FB00E666F080E676FD2EC87
:1005D000D2F00501665153ECEFF00009D8A4F3EF17
:1005E00082F0F5EF82F073EF8AF0530E0601BF6FD1
:1005F000070EC06F000EC26F320EC16FF00EC36FD8
:10060000FE0EC46FB00EC56F080EC66F82ECD6F03A
:10061000BFC663F6C0C664F673EF8AF0010E6F6F53
:10062000B00E666F080E676FD2ECD2F0050166510E
:10063000EBECEEF00009D8A420EF83F022EF83F07A
:1006400073EF8AF0530E0601BF6F070EC06F000EE6
:10065000C26F320EC16FF00EC36FFE0EC46FB00ECC
:10066000C56F080EC66F82ECD6F0BFC663F6C0C673
:1006700064F673EF8AF0010E6F6FB00E666F080EAE
:10068000676FD2ECD2F00501665123ECF0F000095F
:10069000D8A44DEF83F04FEF83F073EF8AF0530E41
:1006A0000601BF6F070EC06F000EC26F320EC16F22
:1006B000F00EC36FFE0EC46FB00EC56F080EC66F8E
:1006C00082ECD6F0BFC663F6C0C664F673EF8AF05C
:1006D000B00E666F080E676FD2ECD2F0050166C5EA
:1006E00074F567C575F5000E75BFFF0E766F776FF1
:1006F000010EB9ECC6F074C582F575C583F576C5F3
:1007000084F577C585F500EC0CF00009D8A48BEFD3
:1007100083F08DEF83F073EF8AF0530E0601BF6F05
:10072000070EC06F000EC26F320EC16FF00EC36FA6
:10073000FE0EC46FB00EC56F080EC66F82ECD6F009
:10074000BFC663F6C0C664F673EF8AF0010E6F6F22
:10075000B00E666F080E676FD2ECD2F005016651DD
:10076000EFECEFF00009D8A4B8EF83F0BAEF83F014
:1007700073EF8AF0530E0601BF6F070EC06F000EB5
:10078000C26F320EC16FF00EC36FFE0EC46FB00E9B
:10079000C56F080EC66F82ECD6F0BFC663F6C0C642
:1007A00064F673EF8AF0010E6F6FB00E666F080E7D
:1007B000676FD2ECD2F005016651BBECEFF0000997
:1007C000D8A4E5EF83F0E7EF83F073EF8AF0530EE0
:1007D0000601BF6F070EC06F000EC26F320EC16FF1
:1007E000F00EC36FFE0EC46FB00EC56F080EC66F5D
:1007F00082ECD6F0BFC663F6C0C664F673EF8AF02B
:10080000B00E746F080E756F11ECCAF074C583F5E5
:1008100075C584F576C585F577C586F5010E0501A4
:10082000876F9CECE6F00009D8A419EF84F01BEF69
:1008300084F073EF8AF0530E0601BF6F070EC06F8E
:10084000000EC26F320EC16FF00EC36FFE0EC46F8A
:10085000B00EC56F080EC66F82ECD6F0BFC663F649
:10086000C0C664F673EF8AF0B00E746F080E756F31
:1008700011ECCAF074C583F575C584F576C585F5A8
:1008800077C586F5010E0501876F4DECE6F000098E
:10089000D8A44DEF84F04FEF84F073EF8AF0530E3D
:1008A0000601BF6F070EC06F000EC26F320EC16F20
:1008B000F00EC36FFE0EC46FB00EC56F080EC66F8C
:1008C00082ECD6F0BFC663F6C0C664F673EF8AF05A
:1008D000B00E746F080E756F11ECCAF074C583F515
:1008E00075C584F576C585F577C586F5010E0501D4
:1008F000876FEBECE6F00009D8A481EF84F083EF7A
:1009000084F073EF8AF0530E0601BF6F070EC06FBD
:10091000000EC26F320EC16FF00EC36FFE0EC46FB9
:10092000B00EC56F080EC66F82ECD6F0BFC663F678
:10093000C0C664F673EF8AF0010E836FB00E746F59
:10094000080E756F11ECCAF0050174514BECEDF017
:100950000009D8A4AEEF84F0B0EF84F073EF8AF012
:10096000530E0601BF6F070EC06F000EC26F320E2E
:10097000C16FF00EC36FFE0EC46FB00EC56F080ED0
:10098000C66F82ECD6F0BFC663F6C0C664F673EFDE
:100990008AF0010E6F6FB00E666F080E676FD2ECB3
:1009A000D2F0050166517FECEDF00009D8A4DBEF31
:1009B00084F0DDEF84F073EF8AF0530E0601BF6F11
:1009C000070EC06F000EC26F320EC16FF00EC36F04
:1009D000FE0EC46FB00EC56F080EC66F82ECD6F067
:1009E000BFC663F6C0C664F673EF8AF0010E6F6F80
:1009F000B00E666F080E676FD2ECD2F0050166513B
:100A00001BECEEF00009D8A408EF85F00AEF85F0A2
:100A100073EF8AF0530E0601BF6F070EC06F000E12
:100A2000C26F320EC16FF00EC36FFE0EC46FB00EF8
:100A3000C56F080EC66F82ECD6F0BFC663F6C0C69F
:100A400064F673EF8AF0530E0601BF6F070EC06F96
:100A5000000EC26F320EC16F060EC36FFF0EC46F61
:100A6000200EC56F090EC66F82ECD6F0BFC663F6C6
:100A7000C0C664F673EF8AF0530E0601BF6F070E0F
:100A8000C06F000EC26F320EC16F060EC36FFF0E35
:100A9000C46F200EC56F090EC66F82ECD6F0BFC6BC
:100AA00063F6C0C664F673EF8AF0530E0601BF6F9B
:100AB000070EC06F000EC26F320EC16FA50EC36F5E
:100AC000FF0EC46F82ECD6F0BFC663F6C0C664F6F4
:100AD00073EF8AF0200E0501666F090E676F5BECFD
:100AE000E9F005016751000AD8B479EF85F055EFB8
:100AF00085F06651010AD8B428EF80F0030AD8B413
:100B00005CEF80F0010AD8B490EF80F0070AD8B407
:100B1000BDEF80F0010AD8B4EAEF80F0030AD8B440
:100B200017EF81F0010AD8B444EF81F00F0AD8B46E
:100B300082EF81F0010AD8B4ADEF81F0030AD8B496
:100B4000D8EF81F0010AD8B473EF8AF0070AD8B45D
:100B5000F1EF81F0010AD8B41EEF82F0030AD8B495
:100B600041EF82F0010AD8B46EEF82F01F0AD8B4C8
:100B70009BEF82F0010AD8B4B4EF82F0030AD8B434
:100B8000E1EF82F0010AD8B40EEF83F0070AD8B47F
:100B90003BEF83F0010AD8B468EF83F0030AD8B4BE
:100BA000A6EF83F0010AD8B4D3EF83F00F0AD8B4CC
:100BB00000EF84F0010AD8B434EF84F0030AD8B40B
:100BC00068EF84F0010AD8B49CEF84F0070AD8B427
:100BD000C9EF84F0010AD8B4F6EF84F0030AD8B460
:100BE00023EF85F0010AD8B43CEF85F055EF85F08E
:100BF000530E0601BF6F070EC06F000EC26F320E9C
:100C0000C16FEE0EC36FFF0EC46F98ECF5F064C5B4
:100C1000C5F665C5C6F666C5C7F667C5C8F682ECF3
:100C2000D6F0BFC663F6C0C664F673EF8AF0530E03
:100C30000601BF6F070EC06F000EC26F320EC16F8C
:100C4000EE0EC36FFF0EC46F72ECF5F064C5C5F60F
:100C500065C5C6F666C5C7F667C5C8F682ECD6F0A8
:100C6000BFC663F6C0C664F673EF8AF0530E060182
:100C7000BF6F070EC06F000EC26F320EC16FF50E50
:100C8000C36FFF0EC46F78EC07F00501FA6FFA51DD
:100C90000601C56FC66B82ECD6F0BFC663F6C0C650
:100CA00064F673EF8AF0530E0601BF6F070EC06F34
:100CB000000EC26F320EC16FF50EC36FFF0EC46F10
:100CC00058EC07F00501FA6FFA510601C56FC66BC3
:100CD00082ECD6F0BFC663F6C0C664F673EF8AF046
:100CE000530E0601BF6F070EC06F000EC26F320EAB
:100CF000C16FF50EC36FFF0EC46F68EC08F00501FD
:100D0000FA6FFA510601C56FC66B82ECD6F0BFC60A
:100D100063F6C0C664F673EF8AF0530E0601BF6F28
:100D2000070EC06F000EC26F320EC16FF50EC36F9B
:100D3000FF0EC46F58EC08F00501FA6FFA51060176
:100D4000C56FC66B82ECD6F0BFC663F6C0C664F64C
:100D500073EF8AF0C7EC0DF0010E9EEC0DF0FF0E64
:100D60000501866F090E876FA00E886F3A0E896F96
:100D7000130EA8EC01F0050160C574F561C575F5A9
:100D8000766B776B000EB9ECC6F074C582F575C54D
:100D900083F576C584F577C585F501ECB8F082C595
:100DA0009BF583C59CF584C59DF585C59EF5CD0E47
:100DB00005019F6FCC0EA06FCC0EA16FBD0EA26F70
:100DC000E3ECACF09BC520F79CC521F79DC522F74D
:100DD0009EC523F7530E0601BF6F070EC06F000EAE
:100DE000C26F320EC16FF80EC36FFF0EC46F20C703
:100DF000C5F621C7C6F622C7C7F623C7C8F682ECD8
:100E0000D6F0BFC663F6C0C664F673EF8AF0530E21
:100E10000601BF6F070EC06F000EC26F320EC16FAA
:100E2000F50EC36FFF0EC46FDFEC0DF00501FA6F16
:100E3000FA510601C56FC66B82ECD6F0BFC663F6E9
:100E4000C0C664F673EF8AF0530E0601BF6F070E3B
:100E5000C06F000EC26F320EC16FF50EC36FFF0E72
:100E6000C46FB5EC0DF00501FA6FFA510601C56FBC
:100E7000C66B82ECD6F0BFC663F6C0C664F673EFED
:100E80008AF0530E0601BF6F070EC06F000EC26FCF
:100E9000320EC16FFB0EC36FFF0EC46F870EC56F9E
:100EA000FF0EC66F82ECD6F0BFC663F6C0C664F60E
:100EB00073EF8AF0530E0601BF6F070EC06F000E6E
:100EC000C26F320EC16FF80EC36FFF0EC46F45ECD8
:100ED0000CF060C5C5F661C5C6F662C5C7F663C548
:100EE000C8F682ECD6F0BFC663F6C0C664F673EFF0
:100EF0008AF0530E0601BF6F070EC06F000EC26F5F
:100F0000320EC16FF50EC36FFF0EC46F98EC08F080
:100F10000501FA6FFA510601C56FC66B82ECD6F077
:100F2000BFC663F6C0C664F673EF8AF0530E0601BF
:100F3000BF6F070EC06F000EC26F320EC16FEE0E94
:100F4000C36FFF0EC46F3CEC0CF060C5C5F661C505
:100F5000C6F662C5C7F663C5C8F682ECD6F0BFC652
:100F600063F6C0C664F673EF8AF0530E0601BF6FD6
:100F7000070EC06F000EC26F320EC16FF50EC36F49
:100F8000FF0EC46FD8EC07F00501FA6FFA510601A5
:100F9000C56FC66B82ECD6F0BFC663F6C0C664F6FA
:100FA00073EF8AF0530E0601BF6F070EC06F000E7D
:100FB000C26F320EC16FF50EC36FFF0EC46F78ECB7
:100FC00008F00501FA6FFA510601C56FC66B82EC95
:100FD000D6F0BFC663F6C0C664F673EF8AF0530E50
:100FE0000601BF6F070EC06F000EC26F320EC16FD9
:100FF000F50EC36FFF0EC46F2EEC03F062C5C5F68D
:1010000063C5C6F682ECD6F0BFC663F6C0C664F60A
:1010100073EF8AF0530E0601BF6F070EC06F000E0C
:10102000C26F320EC16FF50EC36FFF0EC46F98EC26
:1010300007F00501FA6FFA510601C56FC66B82EC25
:10104000D6F0BFC663F6C0C664F673EF8AF0530EDF
:101050000601BF6F070EC06F000EC26F320EC16F68
:10106000F50EC36FFF0EC46FF8EC07F00501FA6FC1
:10107000FA510601C56FC66B82ECD6F0BFC663F6A7
:10108000C0C664F673EF8AF0530E0601BF6F070EF9
:10109000C06F000EC26F320EC16FF50EC36FFF0E30
:1010A000C46FB8EC07F00501FA6FFA510601C56F7D
:1010B000C66B82ECD6F0BFC663F6C0C664F673EFAB
:1010C0008AF0530E0601BF6F070EC06F000EC26F8D
:1010D000320EC16FF50EC36FFF0EC46F38EC08F00F
:1010E0000501FA6FFA510601C56FC66B82ECD6F0A6
:1010F000BFC663F6C0C664F673EF8AF0C7EC0DF0A6
:10110000000E9EEC0DF0FF0E0501866F090E876F35
:10111000A00E886F3A0E896F000EA8EC01F0050151
:1011200060C574F561C575F5766B776B000EB9EC2B
:10113000C6F074C582F575C583F576C584F577C5A7
:1011400085F501ECB8F082C59BF583C59CF584C597
:101150009DF585C59EF5CD0E05019F6FCC0EA06F48
:10116000CC0EA16FBD0EA26FE3ECACF09BC520F7D7
:101170009CC521F79DC522F79EC523F7530E060196
:10118000BF6F070EC06F000EC26F320EC16FF80E38
:10119000C36FFF0EC46F20C7C5F621C7C6F622C7AE
:1011A000C7F623C7C8F682ECD6F0BFC663F6C0C642
:1011B00064F673EF8AF0530E0601BF6F070EC06F1F
:1011C000000EC26F320EC16FF50EC36FFF0EC46FFB
:1011D00018EC08F00501FA6FFA510601C56FC66BED
:1011E00082ECD6F0BFC663F6C0C664F673EF8AF031
:1011F000530E0601BF6F070EC06F000EC26F320E96
:10120000C16FF50EC36FFF0EC46FD8EC08F0050177
:10121000FA6FFA510601C56FC66B82ECD6F0BFC6F5
:1012200063F6C0C664F673EF8AF0530E0601BF6F13
:10123000070EC06F000EC26F320EC16FEE0EC36F8D
:10124000FF0EC46FE4ECF5F064C5C5F665C5C6F6DF
:1012500066C5C7F667C5C8F682ECD6F0BFC663F6AA
:10126000C0C664F673EF8AF0530E0601BF6F070E17
:10127000C06F000EC26F320EC16FEE0EC36FFF0E55
:10128000C46FBEECF5F064C5C5F665C5C6F666C5A7
:10129000C7F667C5C8F682ECD6F0BFC663F6C0C60F
:1012A00064F673EF8AF0530E0601BF6F070EC06F2E
:1012B000000EC26F320EC16FEE0EC36FFF0EC46F11
:1012C0000AECF6F064C5C5F665C5C6F666C5C7F690
:1012D00067C5C8F682ECD6F0BFC663F6C0C664F632
:1012E00073EF8AF0530E0601BF6F070EC06F000E3A
:1012F000C26F320EC16FF50EC36FFF0EC46F08ECE4
:1013000007F00501FA6FFA510601C56FC66B82EC52
:10131000D6F0BFC663F6C0C664F673EF8AF0530E0C
:101320000601BF6F070EC06F000EC26F320EC16F95
:10133000F50EC36FFF0EC46F18EC07F00501FA6FCE
:10134000FA510601C56FC66B82ECD6F0BFC663F6D4
:10135000C0C664F673EF8AF0530E0601BF6F070E26
:10136000C06F000EC26F320EC16FF50EC36FFF0E5D
:10137000C46F28EC07F00501FA6FFA510601C56F3A
:10138000C66B82ECD6F0BFC663F6C0C664F673EFD8
:101390008AF0FF0073EF8AF0F1ECCDF073EF8AF082
:1013A000530E0601BF6F070EC06F000EC26F320EE4
:1013B000C16FA50EC36FFF0EC46F82ECD6F0BFC61F
:1013C00063F6C0C664F673EF8AF0200E0501666FFF
:1013D000090E676F5BECE9F005016751000AD8B4AC
:1013E000F4EF89F0D0EF89F06651010AD8B4F8EF34
:1013F00085F0030AD8B417EF86F0010AD8B436EFA7
:1014000086F0070AD8B453EF86F0010AD8B470EF1B
:1014100086F0030AD8B48DEF86F0010AD8B4AAEF9B
:1014200086F00F0AD8B407EF87F0010AD8B424EF8A
:1014300087F0030AD8B441EF87F0010AD8B45AEF15
:1014400087F0070AD8B479EF87F0010AD8B496EF8D
:1014500087F0030AD8B4B5EF87F0010AD8B4D2EF09
:1014600087F01F0AD8B4EFEF87F0010AD8B40AEF6B
:1014700088F0030AD8B427EF88F0010AD8B444EF03
:1014800088F0070AD8B461EF88F0010AD8B47EEF7B
:1014900088F0030AD8B4DBEF88F0010AD8B4F8EF7B
:1014A00088F00F0AD8B415EF89F0010AD8B434EFE8
:1014B00089F0030AD8B453EF89F0010AD8B472EF67
:1014C00089F0070AD8B48FEF89F0010AD8B4ACEFDD
:1014D00089F0030AD8B4C9EF89F0010AD8B4CCEF77
:1014E00089F0D0EF89F0530E0501616F070E626F2E
:1014F00063C663F564C664F57EECEBF0200E05016F
:10150000606F090E616F000E636F000E626F000E58
:10151000656F320E646F35ECCDF0000E0601786F0A
:10152000B00E0501606F080E616F000E636F000E54
:10153000626F000E656F320E646F35ECCDF0000EF9
:101540000601776F530E0501606F070E616F000E85
:10155000636F000E626F000E656F320E646F35ECC4
:10156000CDF0000E0601646F000E636F000E796F00
:10157000B1EC0DF012000501CE6F73EF92F0000E8A
:10158000866F000E876FC80E886F420E896FC6C5C2
:10159000D9F4C7C5DAF4DF50C86FC851746F756BE2
:1015A000766B776B000EB9ECC6F074C582F575C525
:1015B00083F576C584F577C585F501ECB8F082C56D
:1015C000ABF583C5ACF584C5ADF585C5AEF5000EAC
:1015D0000501AF6F000EB06F7F0EB16F430EB26F9B
:1015E00017ECBAF0ABC5C4F5ACC5C5F5ADC5C6F5CD
:1015F000AEC5C7F591EF92F0C6C5D9F4C7C5DAF408
:10160000DF50C86FC851746F756B766B776B000EC7
:10161000B9ECC6F074C59BF575C59CF576C59DF50E
:1016200077C59EF5000E05019F6F000EA06F200E7E
:10163000A16FC20EA26FE3ECACF09BC5C4F59CC5D4
:10164000C5F59DC5C6F59EC5C7F591EF92F0000E94
:10165000866F000E876F480E886F3F0E896FC6C574
:10166000D9F4C7C5DAF4DF50C86FC851746F756B11
:10167000766B776B000EB9ECC6F074C582F575C554
:1016800083F576C584F577C585F501ECB8F082C59C
:101690009BF583C59CF584C59DF585C59EF5000E1B
:1016A00005019F6F000EA06FC80EA16FC20EA26F42
:1016B000E3ECACF09BC5C4F59CC5C5F59DC5C6F56E
:1016C0009EC5C7F591EF92F0C6C5D9F4C7C5DAF447
:1016D000DF50C86FC851746F756B766B776B000EF7
:1016E000B9ECC6F074C582F575C583F576C584F589
:1016F00077C585F5000E0501866F000E876F400ED9
:10170000886F400E896F01ECB8F082C5C4F583C5BF
:10171000C5F584C5C6F585C5C7F591EF92F0C6C578
:10172000D9F4C7C5DAF4DF50C86FC851746F756B50
:10173000766B776B000EB9ECC6F074C5C4F575C551
:10174000C5F576C5C6F577C5C7F591EF92F020EEE1
:1017500001F0C651D926C751DA22DF50C86FC851EF
:10176000746F756B766B776B000EB9ECC6F074C551
:101770009FF575C5A0F576C5A1F577C5A2F5000E54
:101780000501866F000E876F800E886F430E896F8C
:10179000C6C5D9F4C7C5DAF4DF50C96FC951746F33
:1017A000756B766B776B000EB9ECC6F074C582F57D
:1017B00075C583F576C584F577C585F501ECB8F078
:1017C00082C59BF583C59CF584C59DF585C59EF5B1
:1017D000E3ECACF09BC5ABF59CC5ACF59DC5ADF598
:1017E0009EC5AEF5000E0501AF6F000EB06F800E06
:1017F000B16F400EB26F17ECBAF0ABC5C4F5ACC513
:10180000C5F5ADC5C6F5AEC5C7F591EF92F0000EB2
:10181000AF6F000EB06F000EB16F400EB26FC6C555
:10182000D9F4C7C5DAF4DF50C86FC851746F756B4F
:10183000766B776B000EB9ECC6F074C5ABF575C569
:10184000ACF576C5ADF577C5AEF517ECBAF0ABC51E
:101850009BF5ACC59CF5ADC59DF5AEC59EF5000EDE
:1018600005019F6F000EA06F800EA16FC20EA26FC8
:10187000E3ECACF09BC5C4F59CC5C5F59DC5C6F5AC
:101880009EC5C7F591EF92F0C6C5D9F4C7C5DAF485
:10189000DF50C86FC851746F756B766B776B000E35
:1018A000B9ECC6F074C5ABF575C5ACF576C5ADF54C
:1018B00077C5AEF5000E0501AF6F000EB06F7F0E5D
:1018C000B16F430EB26F17ECBAF0ABC5C4F5ACC53F
:1018D000C5F5ADC5C6F5AEC5C7F591EF92F020EEE2
:1018E00001F0C651D926C751DA22DF50C86FC8515E
:1018F000746F756B766B776B000EB9ECC6F074C5C0
:101900009FF575C5A0F576C5A1F577C5A2F5000EC2
:101910000501866F000E876F800E886F430E896FFA
:10192000C6C5D9F4C7C5DAF4DF50C96FC951746FA1
:10193000756B766B776B000EB9ECC6F074C582F5EB
:1019400075C583F576C584F577C585F501ECB8F0E6
:1019500082C59BF583C59CF584C59DF585C59EF51F
:10196000E3ECACF09BC5CFF59CC5D0F59DC5D1F59A
:101970009EC5D2F5CFC582F5D0C583F5D1C584F516
:10198000D2C585F5C10E0501866FCA0E876FA10EFF
:10199000886F3D0E896F01ECB8F082C5C4F583C530
:1019A000C5F584C5C6F585C5C7F591EF92F020EE63
:1019B00001F0C651D926C751DA22DF50C86FC8518D
:1019C000746F756B766B776B000EB9ECC6F074C5EF
:1019D0009FF575C5A0F576C5A1F577C5A2F5000EF2
:1019E0000501866F000E876F800E886F430E896F2A
:1019F000C6C5D9F4C7C5DAF4DF50C96FC951746FD1
:101A0000756B766B776B000EB9ECC6F074C582F51A
:101A100075C583F576C584F577C585F501ECB8F015
:101A200082C59BF583C59CF584C59DF585C59EF54E
:101A3000E3ECACF09BC5CFF59CC5D0F59DC5D1F5C9
:101A40009EC5D2F5000E0501866F000E876F000E51
:101A5000886F400E896FCFC582F5D0C583F5D1C59B
:101A600084F5D2C585F501ECB8F082C5ABF583C528
:101A7000ACF584C5ADF585C5AEF5000E0501AF6FBB
:101A8000000EB06F800EB16F470EB26F17ECBAF058
:101A9000ABC5C4F5ACC5C5F5ADC5C6F5AEC5C7F596
:101AA00091EF92F0000EC46F000EC56F000EC66F6E
:101AB000000EC76F91EF92F0000EC46F000EC56F5D
:101AC000000EC66F000EC76F91EF92F0C4C5C8F547
:101AD000C5C5C9F5C951000AD8B471EF8DF05CEFE6
:101AE0008DF0C851040AD8B4BFEF8AF0010AD8B407
:101AF000FCEF8AF0030AD8B427EF8BF0010AD8B4C0
:101B000027EF8BF00F0AD8B427EF8BF0010AD8B477
:101B100027EF8BF0030AD8B464EF8BF0010AD8B436
:101B20008FEF8BF0070AD8B4A7EF8BF0010AD8B477
:101B30008FEF8BF0030AD8B407EF8CF0010AD8B40A
:101B4000FCEF8AF01F0AD8B4FCEF8AF0010AD8B47F
:101B5000BFEF8AF0040AD8B444EF8CF0370AD8B447
:101B60006FEF8CF0110AD8B48FEF8BF0070AD8B45E
:101B7000D7EF8CF06E0AD8B4BFEF8AF0060AD8B45B
:101B8000FCEF8AF0330AD8B452EF8DF05CEF8DF0A1
:101B900020EE01F0C651D926C751DA22DF50C86FB6
:101BA000C851746F756B766B776B000EB9ECC6F02D
:101BB00074C59FF575C5A0F576C5A1F577C5A2F5E5
:101BC000000E0501866F000E876F800E886F430E32
:101BD000896FC6C5D9F4C7C5DAF4DF50746F000E3B
:101BE00074BFFF0E756F766F776F010EB9ECC6F09C
:101BF00074C582F575C583F576C584F577C585F519
:101C000001ECB8F082C59BF583C59CF584C59DF5B4
:101C100085C59EF5E3ECACF09BC5CFF59CC5D0F532
:101C20009DC5D1F59EC5D2F5CFC582F5D0C583F54A
:101C3000D1C584F5D2C585F56F0E0501866F120EEC
:101C4000876F030E886F3B0E896F01ECB8F082C579
:101C5000C4F583C5C5F584C5C6F585C5C7F591EF3F
:101C600092F020EE01F0C651D926C751DA22DF509A
:101C7000C86FC851746F756B766B776B000EB9ECDB
:101C8000C6F074C59FF575C5A0F576C5A1F577C5F5
:101C9000A2F5000E0501866F000E876F800E886F1B
:101CA000430E896FC6C5D9F4C7C5DAF4DF50746F27
:101CB000000E74BFFF0E756F766F776F010EB9EC73
:101CC000C6F074C582F575C583F576C584F577C50C
:101CD00085F501ECB8F082C59BF583C59CF584C5FC
:101CE0009DF585C59EF5E3ECACF09BC5ABF59CC5B9
:101CF000ACF59DC5ADF59EC5AEF5000E0501AF6F07
:101D0000000EB06F800EB16F440EB26F17ECBAF0D8
:101D1000ABC5C4F5ACC5C5F5ADC5C6F5AEC5C7F513
:101D200091EF92F020EE01F0C651D926C751DA2288
:101D3000DF50C86FC851746F756B766B776B000E90
:101D4000B9ECC6F074C59FF575C5A0F576C5A1F5CB
:101D500077C5A2F5000E0501866F000E876F800E15
:101D6000886F430E896FC6C5D9F4C7C5DAF4DF5052
:101D7000C96FC951746F756B766B776B000EB9ECD8
:101D8000C6F074C582F575C583F576C584F577C54B
:101D900085F501ECB8F082C59BF583C59CF584C53B
:101DA0009DF585C59EF5E3ECACF09BC5ABF59CC5F8
:101DB000ACF59DC5ADF59EC5AEF50A0E0501AF6F3C
:101DC000D70EB06FA30EB16F430EB26F17ECBAF01F
:101DD000ABC5C4F5ACC5C5F5ADC5C6F5AEC5C7F553
:101DE00091EF92F020EE01F0C651D926C751DA22C8
:101DF000DF50C86FC851746F756B766B776B000ED0
:101E0000B9ECC6F074C59FF575C5A0F576C5A1F50A
:101E100077C5A2F5000E0501866F000E876F800E54
:101E2000886F430E896FC6C5D9F4C7C5DAF4DF5091
:101E3000746F000E74BFFF0E756F766F776F010EB3
:101E4000B9ECC6F074C582F575C583F576C584F521
:101E500077C585F501ECB8F082C59BF583C59CF587
:101E600084C59DF585C59EF5E3ECACF09BC5ABF54F
:101E70009CC5ACF59DC5ADF59EC5AEF5000E050142
:101E8000AF6F000EB06F000EB16FC40EB26F17ECE3
:101E9000BAF0ABC5C4F5ACC5C5F5ADC5C6F5AEC5A4
:101EA000C7F591EF92F0C6C5D9F4C7C5DAF4DF5093
:101EB000C86FC851746F756B766B776B000EB9EC99
:101EC000C6F074C59BF575C59CF576C59DF577C5BF
:101ED0009EF5000E05019F6F000EA06F200EA16FF2
:101EE000C20EA26FE3ECACF09BC5C4F59CC5C5F572
:101EF0009DC5C6F59EC5C7F591EF92F020EE01F0A5
:101F0000C651D926C751DA22DF50C86FC851746F45
:101F1000756B766B776B000EB9ECC6F074C59FF5E8
:101F200075C5A0F576C5A1F577C5A2F5000E05012A
:101F3000866F000E876F800E886F430E896FC6C54F
:101F4000D9F4C7C5DAF4DF50746F000E74BFFF0E0A
:101F5000756F766F776F010EB9ECC6F074C582F5B8
:101F600075C583F576C584F577C585F501ECB8F0C0
:101F700082C59BF583C59CF584C59DF585C59EF5F9
:101F8000E3ECACF09BC5ABF59CC5ACF59DC5ADF5E0
:101F90009EC5AEF5000E0501AF6F000EB06F800E4E
:101FA000B16F420EB26F17ECBAF0ABC5C4F5ACC559
:101FB000C5F5ADC5C6F5AEC5C7F591EF92F020EEFB
:101FC00001F0C651D926C751DA22DF50C86FC85177
:101FD000746F756B766B776B000EB9ECC6F074C5D9
:101FE0009FF575C5A0F576C5A1F577C5A2F5000EDC
:101FF0000501866F000E876F800E886F430E896F14
:10200000C6C5D9F4C7C5DAF4DF50746F000E74BFCB
:10201000FF0E756F766F776F010EB9ECC6F074C561
:1020200082F575C583F576C584F577C585F501EC30
:10203000B8F082C59BF583C59CF584C59DF585C523
:102040009EF5E3ECACF09BC5ABF59CC5ACF59DC52E
:10205000ADF59EC5AEF5000E0501AF6F000EB06F79
:10206000800EB16F460EB26F17ECBAF0ABC5C4F577
:10207000ACC5C5F5ADC5C6F5AEC5C7F591EF92F0D7
:10208000000EAF6F000EB06F000EB16F400EB26F5A
:10209000C6C5D9F4C7C5DAF4DF50C86FC851746F2C
:1020A000756B766B776B000EB9ECC6F074C5ABF54B
:1020B00075C5ACF576C5ADF577C5AEF517ECBAF0DC
:1020C000ABC59BF5ACC59CF5ADC59DF5AEC59EF504
:1020D000000E05019F6F000EA06F200EA16FC20EB3
:1020E000A26FE3ECACF09BC5C4F59CC5C5F59DC5DE
:1020F000C6F59EC5C7F591EF92F0000E866F000EF3
:10210000876FC80E886F420E896FC6C5D9F4C7C5E0
:10211000DAF4DF50C86FC851746F756B766B776BEC
:10212000000EB9ECC6F074C582F575C583F576C5A9
:1021300084F577C585F501ECB8F082C5ABF583C5AC
:10214000ACF584C5ADF585C5AEF5000E0501AF6FE4
:10215000000EB06F7F0EB16F430EB26F17ECBAF086
:10216000ABC5C4F5ACC5C5F5ADC5C6F5AEC5C7F5BF
:1021700091EF92F0C6C5D9F4C7C5DAF4DF50C86F45
:10218000C851746F756B766B776B000EB9ECC6F047
:1021900074C5C4F575C5C5F576C5C6F577C5C7F56B
:1021A00091EF92F020EE01F0C651D926C751DA2204
:1021B000DF50C86FC851746F756B766B776B000E0C
:1021C000B9ECC6F074C59FF575C5A0F576C5A1F547
:1021D00077C5A2F5000E0501866F000E876F800E91
:1021E000886F430E896FC6C5D9F4C7C5DAF4DF50CE
:1021F000C96FC951746F756B766B776B000EB9EC54
:10220000C6F074C582F575C583F576C584F577C5C6
:1022100085F501ECB8F082C59BF583C59CF584C5B6
:102220009DF585C59EF5E3ECACF09BC5CAF59CC554
:10223000CBF59DC5CCF59EC5CDF5CAC59BF5CBC5E7
:102240009CF5CCC59DF5CDC59EF5AB0E05019F6FE8
:10225000AA0EA06FEA0EA16F400EA26FE3ECACF0E5
:102260009BC5C4F59CC5C5F59DC5C6F59EC5C7F5FE
:1022700091EF92F0000EC46F000EC56F000EC66F96
:10228000000EC76F91EF92F0C4C5C8F5C5C5C9F57A
:10229000C951030AD8B467EF91F0070AD8B486EFA2
:1022A00091F0010AD8B48DEF91F02D0AD8B494EFD3
:1022B00091F0030AD8B49BEF91F06B0AD8B4A6EF63
:1022C00091F0B40AD8B4ADEF91F03AEF91F0C85163
:1022D000010AD8B431EF8EF0060AD8B492EF8EF02E
:1022E000110AD8B492EF8EF0010AD8B492EF8EF0B2
:1022F000DD0AD8B453EF8FF0220AD8B4DFEF8FF0A5
:10230000040AD8B4F2EF8EF03AEF91F0C851610AA6
:10231000D8B47EEF8FF03AEF91F0C8517D0AD8B46F
:1023200040EF90F03AEF91F0C851130AD8B4D2EFD1
:1023300090F03AEF91F0C8510C0AD8B4C8EF8DF084
:102340001D0AD8B4C8EF8DF03AEF91F0C851280AB1
:10235000D8B4BAEF90F03AEF91F0C851040AD8B46B
:102360007DEF90F00B0AD8B453EF8FF03AEF91F075
:10237000000EC46F000EC56F000EC66F000EC76F53
:1023800091EF92F0000EC46F000EC56F000EC66F85
:10239000000EC76F91EF92F0C4C5C8F5C5C5C9F569
:1023A000C951010AD8B4EFEF91F0020AD8B4F6EFA0
:1023B00091F00B0AD8B411EF92F0040AD8B41CEFD4
:1023C00092F01E0AD8B423EF92F0040AD8B42AEF90
:1023D00092F00E0AD8B431EF92F0C2EF91F0C851EA
:1023E000C80AD8B4B8EF91F0C2EF91F0C851010A11
:1023F000D8B4B8EF91F0030AD8B4B8EF91F0010A5D
:10240000D8B4B8EF91F0070AD8B4B8EF91F0010A48
:10241000D8B4B8EF91F0030AD8B4B8EF91F0C2EF96
:1024200091F0C851020AD8B4B8EF91F0010AD8B4BB
:10243000B8EF91F0C2EF91F0C851820AD8B4B8EF6A
:1024400091F0C2EF91F0C851600AD8B4B8EF91F0A2
:10245000C2EF91F0C851020AD8B4B8EF91F0C2EFC0
:1024600091F0C851020AD8B4B8EF91F0C2EF91F0E0
:10247000000EC46F000EC56F000EC66F000EC76F52
:1024800091EF92F0000EC46F000EC56F000EC66F84
:10249000000EC76F91EF92F0C4C5C8F5C5C5C9F568
:1024A000C951000AD8B45BEF92F0030AD8B462EFC6
:1024B00092F042EF92F0C8516F0AD8B438EF92F020
:1024C00042EF92F0C851020AD8B438EF92F042EFCE
:1024D00092F0000EC46F000EC56F000EC66F000EA6
:1024E000C76F91EF92F00501CE51C86FC96BC9510A
:1024F000000AD8B47EEF92F069EF92F0C851010A59
:10250000D8B466EF8DF0230AD8B444EF91F0E30A13
:10251000D8B44CEF92F01F0AD8B4CCEF91F069EF29
:1025200092F012000701A651A711A811A911D8B461
:102530009CEF92F09EEF92F0A5EF92F0A607000EAE
:10254000A75BA85BA95BD5EF92F03CEC0CF0050112
:1025500063516211611109E1650E605DD8A0B3EFAE
:1025600092F0B5EF92F0CBEF92F0010E06017D6F85
:102570003CEC0CF0FB0E05016025646FFF0E612141
:10258000656FFF0E6221666FFF0E6321676F4EEC71
:102590000CF0D5EF92F0000E646F000E656F000E28
:1025A000666F000E676F4EEC0CF0C7EC0DF0010E7D
:1025B0009EEC0DF0130EA8EC01F0F40E0501605D29
:1025C000010E6159D8B0E7EF92F0E9EF92F0EEEF2B
:1025D00092F0010E8EEC0DF000EF93F0130EA8ECCC
:1025E00001F0590E0501605D020E6159D8A0FBEFA4
:1025F00092F0FDEF92F000EF93F0000E8EEC0DF0F4
:10260000060165516611D8B408EF93F00AEF93F014
:1026100010EF9AF0A6ECE9F010EF9AF0000E050129
:102620006C6F000E6D6F000E18EC04F0010E506E12
:1026300046EF9AF0CEAA1FEF93F022EF93F0010E2F
:1026400023EF93F0000E806FCEA629EF93F02CEFCE
:1026500093F0010E2DEF93F0000E8015E8A033EFFC
:1026600093F035EF93F037EF93F082ECDFF0B8ECB6
:1026700007F0E806D8A43FEF93F041EF93F092EF14
:1026800093F0000E9EEC0DF06AEF93F0080E05013A
:10269000616F620E606FAFEC0CF089EF93F0080E83
:1026A0000501616FC00E606FAFEC0CF089EF93F025
:1026B000090E0501616F0C0E606FAFEC0CF089EF35
:1026C00093F0090E0501616F6A0E606FAFEC0CF0BC
:1026D00089EF93F038EC08F00601806F816B81512F
:1026E000000AD8B476EF93F04FEF93F08051000AD0
:1026F000D8B446EF93F0010AD8B44FEF93F0030A31
:10270000D8B458EF93F0010AD8B461EF93F04FEFCB
:1027100093F0FA0E0501606F1B0E616F000E626F81
:1027200050EC0DF0BE82BF9EBE9418EC07F0E80698
:10273000D8A49DEF93F09FEF93F0ACEF93F0040ECD
:1027400048EC03F0D9EC0DF00009D8A4AAEF93F0FF
:10275000ACEF93F0A2EF93F0000E05016C6F000E4A
:102760006D6F000E18EC04F0020E506E46EF9AF0FA
:1027700098EC08F0020AD8A4C0EF93F0C2EF93F0EF
:10278000C6EF93F0C1EC0DF0C8EF93F0C4EC0DF080
:1027900098EC08F0E806D8B4D0EF93F0D3EF93F0BC
:1027A000010ED4EF93F0000E0601806F98EC08F054
:1027B0000009D8B4DEEF93F0E1EF93F0010EE2EF01
:1027C00093F0000E06018011E8A0E9EF93F0EBEF23
:1027D00093F0EDEF93F08BECF3F0BEECF5F064C505
:1027E00094F765C595F766C596F767C597F707012E
:1027F000989D989F9893D8EC08F00009D8A403EF0F
:1028000094F008EF94F00601806B802B0AEF94F0AF
:102810000601806B0701985106018019FE0B801993
:102820000701986F9851C30B2009986FD70E996FC5
:10283000070E9A6FF40E6100A0F322FB000E6100F8
:10284000A0F323FB000E6100A0F324FB800E6100C7
:10285000A0F325FBC80E6100A0F326FB010E61006A
:10286000A0F327FBE80E6100A0F31EFB030E61003E
:10287000A0F31FFB000E6100A0F320FB000E61001F
:10288000A0F321FBBEECF5F00501610090F528FBFB
:10289000610094F529FB610098F52AFB61009CF525
:1028A0002BFBD8EC08F00009D8B459EF94F05BEF9B
:1028B00094F062EF94F0000E0601896F020E886FAB
:1028C00067EF94F0000E0601896F010E886F22EE0B
:1028D0002CF388C6DFF4FE0E0501786F090E796FC0
:1028E00060ECF2F0000E0701C96F000ECA6F000E17
:1028F000CB6F000ECC6F000EB86F000EB96F000EDC
:10290000BA6F000EBB6F98EC08F00009D8A48BEFEB
:1029100094F08DEF94F0BFEF94F0D7EF94F0FE0EAB
:102920000501656F090E666FBE0E676F070E686F53
:10293000F1ECDFF0FE0E0501606F090E616FAD0E68
:10294000626F070E636F65ECCFF0EEEF94F0FE0E52
:102950000501656F090E666FBE0E676F070E686F23
:10296000F1ECDFF0FE0E0501656F090E666FAD0E2E
:10297000676F070E686FF1ECDFF0EEEF94F0FE0E7C
:102980000501606F090E616FBE0E626F070E636F07
:1029900065ECCFF0FE0E0501606F090E616FAD0EA4
:1029A000626F070E636F65ECCFF0EEEF94F078EC9A
:1029B00008F00601806F816B8151000AD8B4E3EF03
:1029C00094F0BFEF94F08051000AD8B48FEF94F0E8
:1029D000010AD8B4A7EF94F0BFEF94F0030E506E45
:1029E00046EF9AF098ECF5F064C580F665C581F67F
:1029F00066C582F667C583F672ECF5F00501645191
:102A00000601805D0501686F655106018159050168
:102A1000696F66510601825905016A6F67510601A7
:102A2000835905016B6F640E6C6F000E6D6F000EA5
:102A30006E6F000E6F6FACECECF0050E26EF95F0AC
:102A40000501D8906B336A3369336833E82E20EF81
:102A500095F068C574F569C575F56AC576F56BC5F9
:102A600077F5640E786F000E796F000E7A6F000EA6
:102A70007B6FA8ECE5F074C536F675C537F676C5FC
:102A800038F677C539F66FEF95F0090E366F000E00
:102A9000376F000E386F000E396F040E0701286F74
:102AA000000E296F000E2A6F000E2B6F6FEF95F04E
:102AB00078EC08F00601806F816B8151000AD8B470
:102AC00064EF95F06FEF95F08051000AD8B4F2EF03
:102AD00094F0010AD8B445EF95F06FEF95F0040E2D
:102AE000506E46EF9AF098EC08F0E806D8B47BEF09
:102AF00095F07EEF95F0010E7FEF95F0000E060148
:102B0000806F98EC08F00009D8B489EF95F08CEF4D
:102B100095F0010E8DEF95F0000E06018011E8A0F2
:102B200094EF95F096EF95F069EF96F0C6ECE0F033
:102B30000009D8B49EEF95F0A0EF95F062EF96F003
:102B40008D0E0501766F070E776FA2ECD7F0E806C1
:102B5000D8A4ADEF95F0AFEF95F062EF96F0E4EC0E
:102B6000F5F007018D510501641913E107018E513C
:102B7000050165190EE107018F510501661909E18B
:102B80000701905105016719D8A4C9EF95F0CBEF63
:102B900095F027EF96F0000E06018B6F000E8C6FFC
:102BA000000E8D6F000E8E6F070120EE04F0925123
:102BB000D9269351DA22DF500601806F0F0E80175D
:102BC00080C681F6826B836B846B83C684F682C673
:102BD00083F681C682F6816B070120EE05F09251E3
:102BE000D9269351DA22DF500601856F8551811174
:102BF0008B6F82518C6F83518D6F84518E6FD89003
:102C00008B358B6F8C358C6F8D358D6F8E358E6FD0
:102C100098EC08F0E806D8A410EF96F012EF96F0C2
:102C200062EF96F08BC697F58CC698F58DC699F530
:102C30008EC69AF5E80E05019B6F030E9C6F000E81
:102C40009D6F000E9E6FD4ECF4F062EF96F00AECEC
:102C5000F6F007018D510501641913E107018E514A
:102C6000050165190EE107018F510501661909E19A
:102C70000701905105016719D8A441EF96F043EF81
:102C800096F062EF96F098EC08F00009D8A44BEFAC
:102C900096F04DEF96F062EF96F0FE0E0501806F14
:102CA000090E816F8DC782F58EC783F58FC784F5B6
:102CB00090C785F592C786F593C787F5E5ECBBF01D
:102CC00062EF96F0FE0E0501EC6F090EED6FE2EC7F
:102CD000B5F006017D517C110009D8B472EF96F071
:102CE00074EF96F021EF99F078EC08F00009D8A481
:102CF0007CEF96F07EEF96F038EF98F03CEC0CF01D
:102D000060C580F661C581F662C582F663C583F64B
:102D100098ECF5F0050164510601805D05016551EF
:102D20000601815905016651060182590501675165
:102D300006018359D8A09FEF96F0A1EF96F0A5EF7A
:102D400096F0BEEC0DF01CEF99F0BBEC0DF0000E10
:102D500006018A6F000E926F0F0E9265B2EF96F029
:102D6000B4EF96F0B6EF96F003EF97F092510501AD
:102D7000686F696B6A6B6B6B36C66CF537C66DF541
:102D800038C66EF539C66FF5ACECECF068C580F668
:102D900069C581F66AC582F66BC583F672ECF5F0FB
:102DA0000501645106018025846F05016551060106
:102DB0008121856F0501665106018221866F05011B
:102DC000675106018321876F3CEC0CF006018451AA
:102DD0000501605D060185510501615906018651B5
:102DE000050162590601875105016359D8A0FBEF1F
:102DF00096F0FDEF96F0FFEF96F092C68AF6060188
:102E0000922BACEF96F08AC67BF505017C6B33EC18
:102E1000F2F07BC58FF67CC590F67DC591F6000E6D
:102E20000601956F0F0E956518EF97F01AEF97F062
:102E30001CEF97F01CEF99F095510501686F696BD5
:102E40006A6B6B6B36C66CF537C66DF538C66EF5BA
:102E500039C66FF5ACECECF068C580F669C581F653
:102E60006AC582F66BC583F672ECF5F00501645114
:102E700006018025846F0501655106018121856F5A
:102E80000501665106018221866F05016751060121
:102E90008321876F3CEC0CF0060184510501605DD5
:102EA00006018551050161590601865105016259E6
:102EB0000601875105016359D8A061EF97F063EFD0
:102EC00097F0F3EF97F006019551806F816B5750A3
:102ED000805D8151800A826F5850800A8259D8B033
:102EE00074EF97F077EF97F0010E78EF97F0000E00
:102EF000836F846BD8EC07F00601856F85518317CB
:102F0000000E841783518411D8B489EF97F08BEFAA
:102F100097F0C5EF97F0040E5F6E78EC07F0030AA8
:102F2000D8B495EF97F098EF97F0010E99EF97F0DE
:102F3000000E0601806F78EC07F0020AD8B4A3EF08
:102F400097F0A6EF97F0010EA7EF97F0000E06019D
:102F50008011E8A0AEEF97F0B0EF97F0C2EF97F0D6
:102F600095C660F50501616B000E636F020E626F1E
:102F70005EECE2F0D89005016035576E6135586E11
:102F8000C5EF97F095C657F5586A58EC07F0030A55
:102F9000D8B4CDEF97F0CFEF97F0E7EF97F00601B9
:102FA0009551ACECF1F005016C6F06019551D9EC2F
:102FB000F1F005016D6F0601955106ECF2F0050187
:102FC0006E6F06019551CDECD0F034EF98F08FC6BE
:102FD0006CF590C66DF591C66EF506019551CDEC78
:102FE000D0F034EF98F006019551806F816B575007
:102FF00080190AE158508119D8B401EF98F004EF14
:1030000098F0010E05EF98F0000E826F836BD8ECFC
:1030100007F00601846F84518217000E83178251D6
:103020008311D8B416EF98F018EF98F029EF98F0C4
:10303000F0ECE9F005016C6FF0ECE9F005016D6F63
:10304000F0ECE9F005016E6F5750CDECD0F034EFA5
:1030500098F0000E05016C6F000E6D6F000E6E6F24
:1030600006019551CDECD0F00601952B12EF97F0AB
:1030700078EC08F0E806D8A440EF98F042EF98F01A
:103080001CEF99F045EC0CF0050163BF4AEF98F096
:103090004CEF98F0ADEF98F0000E0601936F0F0E15
:1030A000936555EF98F057EF98F059EF98F01CEFB3
:1030B00099F045EC0CF060C59BF561C59CF562C5C7
:1030C0009DF563C59EF5060193510501686F696B17
:1030D0006A6B6B6B36C66CF537C66DF538C66EF528
:1030E00039C66FF5ACECECF068C574F569C575F5DB
:1030F0006AC576F56BC577F5000EB9ECC6F074C5F8
:103100009FF575C5A0F576C5A1F577C5A2F53EEC8E
:10311000D9F00501D8A08FEF98F091EF98F09FEFCC
:1031200098F0F0ECE9F005016C6F000E6D6F000E89
:103130006E6F06019351CDECD0F0A9EF98F0000E20
:103140006C6F000E6D6F000E6E6F06019351CDEC2B
:10315000D0F00601932B4FEF98F0000E0601946F0C
:103160000F0E9465B6EF98F0B8EF98F0BAEF98F0BC
:103170001CEF99F045EC0CF060C564F561C565F590
:1031800062C566F563C567F5BAECD8F064C572F53B
:1031900065C573F528EC01F0050172C580F673C5AD
:1031A00081F6000E060181BFFF0E826F836F94517E
:1031B0000501686F696B6A6B6B6B28C76CF529C773
:1031C0006DF52AC76EF52BC76FF5ACECECF0050179
:1031D00068510601805D05016951060181590501AB
:1031E0006A510601825905016B5106018359D8A025
:1031F000FCEF98F0FEEF98F00DEF99F0000E05014E
:103200006C6F000E6D6FF0ECE9F005016E6F06015A
:103210009451CDECD0F018EF99F0000E05016C6FD1
:10322000000E6D6F000E6E6F06019451CDECD0F064
:103230000601942BB0EF98F0000E06017C6F000E93
:103240007D6FB8EC07F0E806D8B429EF99F02CEFC1
:1032500099F0010E2DEF99F0000E0601806FF251EA
:10326000F311F411F511D8B438EF99F03BEF99F060
:10327000010E3CEF99F0000E8015E8A042EF99F0A6
:1032800044EF99F046EF9AF0070E506E46EF9AF031
:10329000CEB84DEF99F04FEF99F06CEF99F057ECF5
:1032A0000CF0050160510601325D05016151060116
:1032B0003359050162510601345905016351060174
:1032C0003559D8B066EF99F068EF99F07CEF99F036
:1032D000060E506E46EF9AF03269336934693569EB
:1032E00078EC08F00009D8B478EF99F07AEF99F00B
:1032F0007CEF99F0000E506E060132290AE1332965
:1033000008E1342906E13529D8A489EF99F08BEF3B
:1033100099F046EF9AF037ECA7F00009D8A493EFA4
:1033200099F095EF99F046EF9AF0000E506EABECE5
:10333000CEF046EF9AF004ECBFF00009D8A4A3EF5A
:1033400099F0A5EF99F046EF9AF095EF99F0000EFD
:1033500005016C6FF0ECE9F005016D6F000E18ECE3
:1033600004F057EC0CF00501605107012C5D0501DC
:10337000615107012D590501625107012E590501BF
:10338000635107012F59D8B0C8EF99F0CAEF99F0EF
:1033900046EF9AF0040E506EABECCEF0000E050135
:1033A0006C6F000E6D6F000E18EC04F046EF9AF093
:1033B00058BEDDEF99F0DFEF99F0E1EF99F046EFBD
:1033C0009AF03CEC0CF0050163516211611109E1C6
:1033D000650E605DD8A0EFEF99F0F1EF99F0F5EF91
:1033E00099F0000E506E46EF9AF0BE92BF8EBE84EA
:1033F000640E0601F26F000EF36F000EF46F000E04
:10340000F56F03000601F251F311F411F511D8B470
:103410000CEF9AF00EEF9AF046EF9AF0F1EF99F078
:1034200050500601806F816B8151000AD8B41BEFA8
:103430009AF046EF9AF08051000AD8B40EEF93F05C
:10344000010AD8B41AEF93F0030AD8B4B8EF93F096
:10345000010AD8B458EF95F0070AD8B473EF95F085
:10346000010AD8B448EF99F0030AD8B49BEF99F059
:10347000010AD8B4D8EF99F00F0AD8B4A7EF99F0A1
:10348000010AD8B446EF9AF046EF9AF01200000E07
:103490000601A16FDAC5A4F6DBC5A5F6DCC5A6F664
:1034A000DDC5A7F6A7BF59EF9AF057EF9AF06DEF79
:1034B0009AF0010EA16FA4C660F5A5C661F5A6C677
:1034C00062F5A7C663F500EC02F060C5A4F661C51D
:1034D000A5F662C5A6F663C5A7F6000E0601A36FA2
:1034E000000EA26F59C691F65AC692F6A151D8B4F1
:1034F0007CEF9AF07EEF9AF092EF9AF0A151D8A467
:1035000084EF9AF086EF9AF08CEF9AF0000E876FB6
:103510002B0E866F90EF9AF0000E876F2D0E866F40
:1035200086C6A1F6A4C660F5A5C661F5A6C662F575
:10353000A7C663F5C6ECDAF0050160056111D8A4F1
:10354000A4EF9AF0A6EF9AF0E1EF9AF00601A151EC
:10355000D8B4ADEF9AF0AFEF9AF0B8EF9AF0A1C6F9
:1035600060F89107D8A09207000EA36F010EA26F1A
:10357000600EA2250501606F080E0601A32105015A
:10358000616FD60E626FFF0E636F57EC00F006019D
:10359000FD0E9127FF0E9223D8C570F5D9C571F5A0
:1035A000600E0501726F080E736F91C674F592C6B6
:1035B00075F5C3ECE8F070C5D8F571C5D9F58DEF98
:1035C0009FF0A4C660F5A5C661F5A6C662F5A7C6BC
:1035D00063F5C6ECDAF0050160516111D8A4F3EF90
:1035E0009AF0F5EF9AF018EF9BF00601A151D8B4CC
:1035F000FCEF9AF0FEEF9AF007EF9BF0A1C660F89F
:103600009107D8A09207000EA36F010EA26F600E63
:10361000A2250501606F080E0601A3210501616F57
:10362000DA0E626FFF0E636F57EC00F0C7EF9AF08F
:10363000000E0601A86F000EA96F800EAA6F3F0E44
:10364000AB6F000E906F000E8F6FA4C660F5A5C61D
:1036500061F5A6C662F5A7C663F5000E0501646FA5
:10366000000E656F000E666F000E676F52ECE5F09E
:103670000501D8B03EEF9BF040EF9BF03AEF9CF095
:103680004DEF9BF093C6A8F694C6A9F695C6AAF688
:1036900096C6ABF606018F4B902BA8C682F5A9C63D
:1036A00083F5AAC684F5ABC685F5000E0501866FC5
:1036B000000E876F200E886F410E896F01ECB8F005
:1036C00082C593F683C594F684C595F685C596F6AE
:1036D00006019351A45D0501606F06019451A5593F
:1036E0000501616F06019551A6590501626F06013A
:1036F0009651A7590501636F17ECEDF0050163BF03
:103700008DEF9BF063516211611109E1020E605D62
:10371000D8A08DEF9BF08FEF9BF042EF9BF093C60C
:103720009BF594C69CF595C69DF596C69EF5A4C6D8
:103730009FF5A5C6A0F5A6C6A1F5A7C6A2F53EECC5
:10374000D9F00501D8A0A7EF9BF0A9EF9BF042EFBD
:103750009BF00601A851A45D0501606F0601A95107
:10376000A5590501616F0601AA51A6590501626FAD
:103770000601AB51A7590501636F17ECEDF0050188
:1037800063BFD0EF9BF063516211611107E1020E3C
:10379000605DD8B0CEEF9BF0D0EF9BF020EF9CF0B7
:1037A000A8C6A4F6A9C6A5F6AAC6A6F6ABC6A7F6ED
:1037B0003AEF9CF0A8C6ABF5A9C6ACF5AAC6ADF524
:1037C000ABC6AEF5000EAF6F000EB06F200EB16F3E
:1037D000410EB26F17ECBAF0ABC5A8F6ACC5A9F6AE
:1037E000ADC5AAF6AEC5ABF606018F07D8A0900707
:1037F000A851A45D0501606F0601A951A5590501F5
:10380000616F0601AA51A6590501626F0601AB510D
:10381000A7590501636F17ECEDF0050163BF1EEFBB
:103820009CF063516211611107E1020E605DD8B036
:103830001CEF9CF01EEF9CF020EF9CF0D0EF9BF073
:10384000A4C69BF5A5C69CF5A6C69DF5A7C69EF584
:10385000A8C69FF5A9C6A0F5AAC6A1F5ABC6A2F554
:103860003EECD9F00501D8A038EF9CF03AEF9CF07F
:10387000DAEF9BF0DEC589F689C68AF606015CBFE1
:1038800044EF9CF046EF9CF04CEF9CF05BC682F658
:103890005CC683F650EF9CF0000E836F060E826FBD
:1038A00082C68DF683C68EF68D4B8E2B660E8A19D8
:1038B000D8A45DEF9CF05FEF9CF07FEF9CF090BF91
:1038C00066EF9CF064EF9CF072EF9CF0000EA86F26
:1038D000000EA96F800EAA6F3F0EAB6F000E906FA7
:1038E000000E8F6F670E8919D8B479EF9CF07BEFCB
:1038F0009CF07FEF9CF08F518D2790518E23000E0E
:10390000986F000E976FA4C699F6A5C69AF6A6C63C
:103910009BF6A7C69CF6A8C693F6A9C694F6AAC6B7
:1039200095F6ABC696F611EF9DF099C6ABF59AC623
:10393000ACF59BC6ADF59CC6AEF5A8C6AFF5A9C65D
:10394000B0F5AAC6B1F5ABC6B2F517ECBAF0ABC587
:10395000C4F5ACC5C5F5ADC5C6F5AEC5C7F5CEEC6D
:10396000C3F0C4C59DF6C5C59EF6C6C59FF6C7C5BE
:10397000A0F69DC664F59EC665F59FC666F5A0C611
:1039800067F5BAECD8F064C58BF665C58CF699C6B8
:10399000ABF59AC6ACF59BC6ADF59CC6AEF59DC61B
:1039A00086F59EC687F59FC688F5A0C689F5A8C688
:1039B00082F5A9C683F5AAC684F5ABC685F501ECE8
:1039C000B8F082C5AFF583C5B0F584C5B1F585C53E
:1039D000B2F534ECF7F0ABC599F6ACC59AF6ADC5C7
:1039E0009BF6AEC59CF6A8C6ABF5A9C6ACF5AAC6B3
:1039F000ADF5ABC6AEF5000E0501AF6F000EB06FB2
:103A0000200EB16F410EB26F17ECBAF0ABC5A8F63D
:103A1000ACC5A9F6ADC5AAF6AEC5ABF60601974B87
:103A2000982B8D51975D9851800A0501DF6F060133
:103A30008E51800A0501DF59D8A021EF9DF023EFB8
:103A40009DF095EF9CF0A8C682F5A9C683F5AAC69D
:103A500084F5ABC685F5000E866F000E876FA00E4D
:103A6000886F400E896F01ECB8F082C59DF683C562
:103A70009EF684C59FF685C5A0F699C69BF59AC6A5
:103A80009CF59BC69DF59CC69EF59DC69FF59EC662
:103A9000A0F59FC6A1F5A0C6A2F53EECD9F00501A0
:103AA000D8B055EF9DF057EF9DF062EF9DF0000EFE
:103AB00006019D6F000E9E6F000E9F6F000EA06F9F
:103AC0008CEF9DF099C660F59AC661F59BC662F5CC
:103AD0009CC663F59DC664F59EC665F59FC666F5F2
:103AE000A0C667F552ECE5F00501D8A07AEF9DF08D
:103AF0007CEF9DF08CEF9DF006018BB182EF9DF085
:103B000084EF9DF08CEF9DF0000E9D6F000E9E6F78
:103B1000000E9F6F000EA06FA4C69BF5A5C69CF576
:103B2000A6C69DF5A7C69EF59DC69FF59EC6A0F5A7
:103B30009FC6A1F5A0C6A2F5E3ECACF09BC599F633
:103B40009CC59AF69DC59BF69EC59CF699C69BF5AD
:103B50009AC69CF59BC69DF59CC69EF5000E050178
:103B6000866F000E876F200E886F410E896F93C697
:103B700082F594C683F595C684F596C685F501EC65
:103B8000B8F082C59FF583C5A0F584C5A1F585C5AC
:103B9000A2F53EECD9F00501D8A0D1EF9DF0D3EF0E
:103BA0009DF0FDEF9DF006018F4B902B93C682F5A3
:103BB00094C683F595C684F596C685F5000E050175
:103BC000866F000E876F200E886F410E896F01ECA3
:103BD000B8F082C593F683C594F684C595F685C57D
:103BE00096F6660E06018A19D8A4F9EF9DF0FBEF50
:103BF0009DF0FDEF9DF08D4B8E2B93C6A8F694C6DD
:103C0000A9F695C6AAF696C6ABF68FC680F690C6FC
:103C100081F6000E0601886F000E856F000E846F1E
:103C2000000E986F000E976FFDEF9EF099C6ABF5F2
:103C30009AC6ACF59BC6ADF59CC6AEF5A8C6AFF569
:103C4000A9C6B0F5AAC6B1F5ABC6B2F517ECBAF085
:103C5000ABC5C4F5ACC5C5F5ADC5C6F5AEC5C7F5B4
:103C6000CEECC3F0C4C59DF6C5C59EF6C6C59FF68D
:103C7000C7C5A0F69DC664F59EC665F59FC666F5E8
:103C8000A0C667F5BAECD8F0050165BF53EF9EF00A
:103C9000655107E10A0E645DD8B051EF9EF053EF15
:103CA0009EF063EF9EF09DC664F59EC665F59FC6C7
:103CB00066F5A0C667F5BAECD8F064C58BF665C5A5
:103CC0008CF668EF9EF0000E06018C6F090E8B6F6C
:103CD00006018851D8A46FEF9EF071EF9EF099EF26
:103CE0009EF081BF78EF9EF076EF9EF099EF9EF008
:103CF000600EA225D96E080EA321DA6E2E0EDF6E9D
:103D0000A24BA32B9107D8A09207010E886F99EFC1
:103D10009EF0600EA225D96E080EA321DA6E300E39
:103D2000DF6EA24BA32B9107D8A092078407D8A0DF
:103D3000850784518511D8A4A0EF9EF0A2EF9EF0D4
:103D400089EF9EF0600EA225D96E080EA321DA6ECF
:103D50008B51300FDF6EA24BA32B9107D8A0920797
:103D600099C6ABF59AC6ACF59BC6ADF59CC6AEF54B
:103D70009DC686F59EC687F59FC688F5A0C689F5BF
