:040000000DEF00F010
:0400080019EFC4F038
:10001800FF0074EFD8F0000E0501626F622B180E16
:10002800626519EF00F01BEF00F012EF00F020EE10
:100038002CF16051D9266151DA22000EDF6E1200D0
:10004800480E5024D96EDA6A080EDA22B4C2DFF4F8
:10005800502A170E506433EF00F035EF00F037EFF9
:1000680000F0000E506E4E2A1200180E4D24D96E64
:10007800DA6A080EDA22A1C2DFF44D2A170E4D649F
:1000880048EF00F04AEF00F04CEF00F0000E4D6E24
:100098004B2A1200030136A554EF00F056EF00F08A
:1000A8005EEF00F036910250356F01C534F33681AA
:1000B80062EF00F00250356F01C534F312000301FE
:1000C8002AA569EF00F06BEF00F073EF00F02A91BA
:1000D8000250296F01C528F32A8177EF00F00250FA
:1000E800296F01C528F3120003011EA57EEF00F059
:1000F80080EF00F088EF00F01E9102501D6F01C5DF
:100108001CF31E818CEF00F002501D6F01C51CF31B
:1001180012009C0E05019E6F050E9F6F000E8E6FDC
:10012800000E8F6F9AC590F59BC591F59E0E926F44
:10013800050E936FE3ECDBF01200050163516211C9
:100148000BE18D0E605D3C0E6159D8A0AEEF00F05A
:10015800B0EF00F0B3EF00F0000EB4EF00F0010EC6
:100168001200050160516203F3C464F5F4C465F537
:1001780060516303F350652761516203F3506527AB
:1001880064C560F565C561F51200600E0001606F19
:10019800000E616F030E626F470E636F7F0E646F10
:1001A800F60E656FE40E666FFE0E676FFE0E686FE3
:1001B8001200472A000E466E040E4718D8A4E7EF2F
:1001C80000F0E9EF00F0EEEF00F0000E476E000ED1
:1001D800EFEF00F0010E1200000E0501616F000E36
:1001E800606F65C562F56DECEEF0000E0501616F9C
:1001F800010E606F64C562F56DECEEF01200000E42
:100208000501616F020E606F65C562F56DECEEF079
:10021800000E0501616F030E606F64C562F56DEC39
:10022800EEF0120001500302F3C405F5F4C406F51C
:1002380001500402F350062602500302F35006262A
:1002480005C501F506C502F51200045003100BE1BF
:100258008D0E015C3C0E0258D8A035EF01F037EF47
:1002680001F03AEF01F0000E3BEF01F0010E120031
:10027800000E0101506F040E516F600E526F050E93
:10028800536F800E746F040E756F620E766F050ED5
:10029800776F1200000E01015C6F040E5D6F600E37
:1002A8005E6F050E5F6F000E686F040E696F600E5B
:1002B8006A6F050E6B6F1200830E03010C6F420EFE
:1002C8000D6F000E0E6F000E0F6F000E116F000EF7
:1002D800106F0B690A6909699F8C1200E807000012
:1002E800E00700009000000064190000FFFFFFFF16
:1002F800E80300000100020064000000010062EC55
:1003080008F00009D8A48BEF01F08DEF01F091EF10
:1003180001F058EC03F093EF01F048EC03F0120001
:1003280062EC08F00009D8A49CEF01F09EEF01F000
:10033800A2EF01F058EC03F0A4EF01F048EC03F051
:1003480012000501616F050161510C0D530EF32474
:10035800D96E010EF420DA6EDF50606F1F0E601741
:10036800602912006AEC08F00009D8A4BEEF01F079
:10037800C0EF01F0C4EF01F018EC04F0C6EF01F093
:1003880008EC04F012006AEC08F00009D8A4CFEFDA
:1003980001F0D1EF01F0D5EF01F018EC04F0D7EF40
:1003A80001F008EC04F0120057505EEC08F0000968
:1003B800D8A4E1EF01F0E3EF01F0E6EF01F0200E41
:1003C800E7EF01F0575012003950F8EC01F000093E
:1003D800D8A4F1EF01F0F3EF01F0F6EF01F0000E11
:1003E800F7EF01F0395012000501606F010E0501A9
:1003F800606501EF02F003EF02F006EF02F0000E75
:1004080007EF02F0010E12003A5018EC02F0000952
:10041800D8A411EF02F013EF02F016EF02F0000E6D
:1004280017EF02F03A5012000501606F030E050144
:10043800606521EF02F023EF02F026EF02F0000ED4
:1004480027EF02F0010E12003B5038EC02F00009D1
:10045800D8A431EF02F033EF02F036EF02F0000ECD
:1004680037EF02F03B5012000501606F030E0501E3
:10047800606541EF02F043EF02F046EF02F0000E34
:1004880047EF02F0010E12005B5058EC02F0000931
:10049800D8A451EF02F053EF02F056EF02F0070E26
:1004A80057EF02F05B5012000501606F070E05015F
:1004B800606561EF02F063EF02F066EF02F0000E94
:1004C80067EF02F0010E1200595078EC02F00009B3
:1004D800D8A471EF02F073EF02F076EF02F0010E8C
:1004E80077EF02F0595012000501606F010E050107
:1004F800606581EF02F083EF02F086EF02F0000EF4
:1005080087EF02F0010E1200375098EC02F0000954
:10051800D8A491EF02F093EF02F096EF02F0000EEC
:1005280097EF02F0375012000501606F010E0501C8
:100538006065A1EF02F0A3EF02F0A6EF02F0000E53
:10054800A7EF02F0010E12005A50B8EC02F00009B1
:10055800D8A4B1EF02F0B3EF02F0B6EF02F0010E4B
:10056800B7EF02F05A5012000501606F010E050145
:100578006065C1EF02F0C3EF02F0C6EF02F0000EB3
:10058800C7EF02F0010E12003650D8EC02F0000955
:10059800D8A4D1EF02F0D3EF02F0D6EF02F0000EAC
:1005A800D7EF02F0365012000501606F010E050109
:1005B8006065E1EF02F0E3EF02F0E6EF02F0000E13
:1005C800E7EF02F0010E12003550F8EC02F00009D6
:1005D800D8A4F1EF02F0F3EF02F0F6EF02F0000E0C
:1005E800F7EF02F0355012000501606F010E0501AA
:1005F800606501EF03F003EF03F006EF03F0000E70
:1006080007EF03F0010E1200585018EC03F0000930
:10061800D8A411EF03F013EF03F016EF03F0010E67
:1006280017EF03F0585012000501606F030E050123
:10063800606521EF03F023EF03F026EF03F0000ECF
:1006480027EF03F0010E1200385038EC03F00009D0
:10065800D8A431EF03F033EF03F036EF03F0000EC8
:1006680037EF03F0385012000501606F020E0501E4
:10067800606541EF03F043EF03F046EF03F0000E2F
:1006880047EF03F0010E12005C5060EC08F000091F
:10069800D8A451EF03F053EF03F056EF03F0960E92
:1006A80057EF03F05C5012005D5064EC08F000094D
:1006B800D8A461EF03F063EF03F066EF03F0960E42
:1006C80067EF03F05D50120005016151000AD8A4DC
:1006D80070EF03F074EF03F0626B622B76EF03F0B8
:1006E8000501626B62291200050120EE1AF16051C2
:1006F800D9266151DA222EC6DEF42FC6DEF430C6C2
:10070800DEF431C6DEF41200345098EC03F0000930
:10071800D8A491EF03F093EF03F096EF03F0000EE7
:1007280097EF03F0345012000501606F010E0501C8
:100738006065A1EF03F0A3EF03F0A6EF03F0000E4E
:10074800A7EF03F0010E12003B509DEC04F00009E6
:10075800D8A4B1EF03F0B3EF03F0B6EF03F0000E47
:10076800B7EF03F03B5012003A50ABEC04F000092D
:10077800D8A4C1EF03F0C3EF03F0C6EF03F0000EF7
:10078800C7EF03F03A5012005B50B9EC04F00009CF
:10079800D8A4D1EF03F0D3EF03F0D6EF03F0070EA0
:1007A800D7EF03F05B5012005A50C7EC04F0000971
:1007B800D8A4E1EF03F0E3EF03F0E6EF03F0010E56
:1007C800E7EF03F05A501200D0A6EDEF03F0EFEF79
:1007D80003F0F4EF03F0010E39EC08F0F7EF03F043
:1007E800000E39EC08F01200C7EC01F00009D8A49B
:1007F80000EF04F002EF04F005EF04F0010ED5EC71
:10080800CBF0050E4A6E12005C5068EC08F0000947
:10081800D8A411EF04F013EF04F016EF04F0960ECD
:1008280017EF04F05C5012005D506CEC08F0000902
:10083800D8A421EF04F023EF04F026EF04F0960E7D
:1008480027EF04F05D501200050160516111D8B422
:1008580030EF04F032EF04F035EF04F0000E36EF1D
:1008680004F0010E1200200E0501635DD8A03FEFD1
:1008780004F041EF04F044EF04F0000E45EF04F0FB
:10088800010E1200200E0501635DD8A04EEF04F0A2
:1008980050EF04F053EF04F0000E54EF04F0010E93
:1008A8001200200E0501635DD8A05DEF04F05FEF34
:1008B80004F062EF04F0000E63EF04F0010E120082
:1008C800010E0301266F600E256F000E276F090EBB
:1008D800236F000E226FB196800E246F1200380E1F
:1008E8000001456F050161510001446F60C543F087
:1008F800F80E41174081465112000501606F05014D
:1009080060510C0D540EF324D96E010EF420DA6EEA
:10091800DF50010B12000501606F050160510C0DDD
:10092800540EF324D96E010EF420DA6EDF50090B51
:100938001200016E030E0164A4EF04F0A6EF04F0A8
:10094800A9EF04F0000EAAEF04F0010E1200016EE8
:10095800030E0164B2EF04F0B4EF04F0B7EF04F053
:10096800000EB8EF04F0010E1200016E070E0164CC
:10097800C0EF04F0C2EF04F0C5EF04F0000EC6EFBC
:1009880004F0010E1200016E010E0164CEEF04F0B6
:10099800D0EF04F0D3EF04F0000ED4EF04F0010E12
:1009A8001200830E0001846F000E856F020E866FA1
:1009B800060E8C6F000E896FC79A12000501606FD2
:1009C800B2A2E9EF04F0EBEF04F0E4EF04F060C545
:1009D800A3F212000501646F000E0501616F220E7B
:1009E800606F64C562F56DECEEF012000501646F8E
:1009F800000E0501616F070E606F64C562F56DEC4E
:100A0800EEF012000501646F000E0501616F060E1D
:100A1800606F64C562F56DECEEF012000501646F5D
:100A2800000E0501616F080E606F64C562F56DEC1C
:100A3800EEF012000501646F000E0501616F050EEE
:100A4800606F64C562F56DECEEF012000501646F2D
:100A5800000E0501616F040E606F64C562F56DECF0
:100A6800EEF012000501646F000E0501616F100EB3
:100A7800606F64C562F56DECEEF012000501646FFD
:100A8800000E0501616F120E606F64C562F56DECB2
:100A9800EEF012000501646F000E0501616F0C0E87
:100AA800606F64C562F56DECEEF012000501646FCD
:100AB800000E0501616F110E606F64C562F56DEC83
:100AC800EEF012000501646F000E0501616F0D0E56
:100AD800606F64C562F56DECEEF012000501646F9D
:100AE800000E0501616F150E606F64C562F56DEC4F
:100AF800EEF012000501646F000E0501616F140E1F
:100B0800606F64C562F56DECEEF012000501646F6C
:100B1800000E0501616F130E606F64C562F56DEC20
:100B2800EEF012000501646F000E0501616F0B0EF7
:100B3800606F64C562F56DECEEF012008C0E030177
:100B4800426F000E416F130E406F4C51FC0B0109B0
:100B58004C6F1200600E0001AD6F000EAF6F010EFA
:100B6800B36F080EB16F000EB06F1200380E00019F
:100B7800456F0250446F01C543F0F80E411740819C
:100B8800465112004B50D8A4CCEF05F0CFEF05F03A
:100B9800010ED0EF05F0000E1200000E0501616F86
:100BA800220E606F73EC04F00501626F625112004F
:100BB800000E0501616F070E606F73EC04F005010C
:100BC800626F62511200000E0501616F060E606FC0
:100BD80073EC04F00501626F62511200000E05010A
:100BE800616F080E606F73EC04F00501626F62516B
:100BF8001200000E0501616F050E606F73EC04F0C2
:100C08000501626F62511200000E0501616F040E4A
:100C1800606F73EC04F00501626F62511200000E00
:100C28000501616F100E606F73EC04F00501626FCF
:100C380062511200000E0501616F120E606F73ECB5
:100C480004F00501626F62511200000E0501616F28
:100C58000C0E606F73EC04F00501626F62511200B4
:100C6800000E0501616F110E606F73EC04F0050151
:100C7800626F62511200000E0501616F0D0E606F08
:100C880073EC04F00501626F62511200000E050159
:100C9800616F150E606F73EC04F00501626F6251AD
:100CA8001200000E0501616F140E606F73EC04F002
:100CB8000501626F62511200000E0501616F130E8B
:100CC800606F73EC04F00501626F62511200000E50
:100CD8000501616F0B0E606F73EC04F00501626F24
:100CE800625112004550D8A47CEF06F07EEF06F062
:100CF80080EF06F0010E426E12004550D8A487EF2F
:100D080006F089EF06F08BEF06F0010E436E120035
:100D18004550D8A492EF06F094EF06F096EF06F04F
:100D2800010E416E12007DC508F77EC509F77FC523
:100D38000AF780C50BF7010E1200190E0101046FA6
:100D4800190E056F640E066F000E076F1200B69835
:100D5800FAC601F5FBC602F54EEC00F0B1ECF6F070
:100D68001200056E000E026E070E016E05C503F532
:100D7800B4ECF0F01200056E000E026E060E016E65
:100D880005C503F5B4ECF0F012000CC760F50DC70B
:100D980061F50EC762F50FC763F512002AC660F544
:100DA8002BC661F52CC662F52DC663F5120032C656
:100DB80060F533C661F534C662F535C663F51200D1
:100DC80064C52AF665C52BF666C52CF667C52DF6EB
:100DD80012002AC601F52BC602F52CC603F52DC64E
:100DE80004F5120001C52AF602C52BF603C52CF638
:100DF80004C52DF6120003010351016E0451026E61
:100E08000551036E046A120032C601F533C602F5B5
:100E180034C603F535C604F51200000E026E070E3F
:100E2800016EBAEC05F0036E03501200000E026E5C
:100E3800060E016EBAEC05F0036E035012006AC587
:100E480066F66BC567F6010E0601726F1200010E99
:100E580006013227000E3323342335231200010EF6
:100E680006012E27000E2F23302331231200D0072E
:100E78000000FFFF2001010107969604050161515A
:100E88000301DC6F60C5DBF3120060C5B6F761C50E
:100E9800B7F762C5B8F7120060C5A4F761C5A5F732
:100EA80062C5A6F7120060C5A7F761C5A8F762C5B5
:100EB800A9F7120060C5A1F761C5A2F762C5A3F73B
:100EC800120060C5B3F761C5B4F762C5B5F7120083
:100ED80060C59BF761C59CF762C59DF7120060C5A8
:100EE8009EF761C59FF762C5A0F7120060C598F725
:100EF80061C599F762C59AF7120060C589F761C59F
:100F08008AF762C58BF7120060C58CF761C58DF74B
:100F180062C58EF7120060C58FF761C590F762C58C
:100F280091F7120060C592F761C593F762C594F70F
:100F3800120060C595F761C596F762C597F712006C
:100F480060C586F761C587F762C588F71200550E38
:100F58000001B46FAA0EB46FB481120060C5B9F76E
:100F680061C5BAF762C5BBF7120060C5BCF761C5B9
:100F7800BDF762C5BEF7120060C5BFF761C5C0F70F
:100F880062C5C1F7120060C5C2F761C5C3F762C583
:100F9800C4F7120060C5C5F761C5C6F762C5C7F7D3
:100FA800120060C5C8F761C5C9F762C5CAF7120063
:100FB80060C5ADF761C5AEF762C5AFF7120060C591
:100FC800AAF761C5ABF762C5ACF7120060C5B0F708
:100FD80061C5B1F762C5B2F7120060C5EAF861C52C
:100FE800EBF862C5ECF8120060C5F7F661C5F8F6D3
:100FF80062C5F9F6120060C580F761C581F762C560
:1010080082F7120060C583F761C584F762C585F76A
:1010180012000501606F60C533F5010E120060C54E
:10102800F1F661C5F2F6120001010239E832070B48
:1010380012000501606F60C5FBF31200000E00018D
:10104800E86FFC8D12002BEC07F033EC07F0120070
:1010580001C5F1F602C5F2F6120005016069616981
:101068001200010E0601716F1200016E01C533F501
:1010780012000301F39B12000301308F12000301D9
:101088002A91120003012A81120003010D8F120018
:1010980003010D9F120024EC00F0120039EC00F05F
:1010A800120022EC08F012000301309F1200030125
:1010B8002A911200010E1200010E12003350120084
:1010C800010E1200D69A1200010E120033501200BF
:1010D800010E12001200120012001200120012007B
:1010E8001200120012001200120012001200120068
:0A10F8001200120012001200120094
:10FEA800000000000000000000000000000000004A
:10FEB800000000000000000000000000000000003A
:10FEC800000000000000000000000000000000002A
:10FED800000000000000000000000001020304050B
:10FEE80006070800FC1F000000F80F00FCE0FF1FD9
:10FEF80000E003FF03830002000050015B457272BB
:10FF08006F725D20257320697320696E76616C6954
:10FF18006400257320697320526561642D4F6E6CEF
:10FF280079005348494654434F4C4F5200494C4C72
:10FF3800554D4E4947485400494C4C554D4D4F443A
:10FF48004500535441525442495400494C4C554D74
:10FF58004441590043414E424155440044454641BD
:10FF6800554C5400424154544552590043414E495E
:10FF7800444500434F4E46494700534E49464600C4
:10FF8800464C41534800454556455200504F574549
:10FF980052004552524F520052455345540053485F
:10FFA80049465400424F4F5354002530386C78006E
:10FFB800525849440054584944005045414B004167
:10FFC8004E494D004543484F00564F4C5400696E0A
:10FFD80066006E616E006C6C730052504D004143B8
:10FFE800510041435400256C75004F4B00256400B7
:07FFF80025660025730000DF
:020000040001F9
:10000000FB0E05019A6FFF0E9B6FB00E9C6F080EE2
:100010009D6F8DEC00F03E50D8B411EF80F013EFDF
:1000200080F0B0EF88F0140E0601B76F070EB86FBE
:10003000000EBA6F320EB96FF20EBB6FFF0EBC6FBF
:10004000D8ECD5F0B7C662F6B8C663F6D4EF84F044
:10005000460E746F070E756F0AECCBF074C583F50E
:1000600075C584F576C585F577C586F5010E05015C
:10007000876FC1ECE4F00009D8A441EF80F043EFB2
:1000800080F032EF89F0140E0601B76F070EB86FDB
:10009000000EBA6F320EB96F040EBB6FFF0EBC6F4D
:1000A000460EBD6F070EBE6FD8ECD5F0B7C662F630
:1000B000B8C663F632EF89F0460E746F070E756F9F
:1000C0000AECCBF074C583F575C584F576C585F566
:1000D00077C586F5010E0501876F10ECE5F0000984
:1000E000D8A475EF80F077EF80F032EF89F0140E2E
:1000F0000601B76F070EB86F000EBA6F320EB96FF8
:10010000040EBB6FFF0EBC6F460EBD6F070EBE6FB9
:10011000D8ECD5F0B7C662F6B8C663F632EF89F010
:10012000010E6F6F460E666F070E676F01ECC6F02B
:100130000501665103ECEAF00009D8A4A2EF80F0B3
:10014000A4EF80F032EF89F0140E0601B76F070EAE
:10015000B86F000EBA6F320EB96F040EBB6FFF0E90
:10016000BC6F460EBD6F070EBE6FD8ECD5F0B7C69C
:1001700062F6B8C663F632EF89F0010E6F6F460E75
:10018000666F070E676F01ECC6F005016651CFEC94
:10019000E9F00009D8A4CFEF80F0D1EF80F032EF82
:1001A00089F0140E0601B76F070EB86F000EBA6F14
:1001B000320EB96F040EBB6FFF0EBC6F460EBD6FE3
:1001C000070EBE6FD8ECD5F0B7C662F6B8C663F6B8
:1001D00032EF89F0010E836F460E746F070E756F54
:1001E0000AECCBF00501745167ECE9F00009D8A4E2
:1001F000FCEF80F0FEEF80F032EF89F0140E060184
:10020000B76F070EB86F000EBA6F320EB96F040EDB
:10021000BB6FFF0EBC6F460EBD6F070EBE6FD8ECF6
:10022000D5F0B7C662F6B8C663F632EF89F0010EB4
:10023000836F460E746F070E756F0AECCBF00501E5
:10024000745133ECE9F00009D8A429EF81F02BEFC9
:1002500081F032EF89F0140E0601B76F070EB86F08
:10026000000EBA6F320EB96F040EBB6FFF0EBC6F7B
:10027000460EBD6F070EBE6FD8ECD5F0B7C662F65E
:10028000B8C663F632EF89F0460E666F070E676FE9
:1002900001ECC6F0050166510DEC08F00009D8A488
:1002A00054EF81F056EF81F032EF89F0140E060121
:1002B000B76F070EB86F000EBA6F320EB96F040E2B
:1002C000BB6FFF0EBC6F460EBD6F070EBE6FD8EC46
:1002D000D5F0B7C662F6B8C663F632EF89F0010E04
:1002E000836F460E746F070E756F0AECCBF0050135
:1002F00074519BECE9F00009D8A481EF81F083EF01
:1003000081F032EF89F0140E0601B76F070EB86F57
:10031000000EBA6F320EB96F040EBB6FFF0EBC6FCA
:10032000460EBD6F070EBE6FD8ECD5F0B7C662F6AD
:10033000B8C663F632EF89F0140E0601B76F070EE8
:10034000B86F000EBA6F320EB96F1A0EBB6FFF0E88
:10035000BC6FB00EBD6F080EBE6FD8ECD5F0B7C63F
:1003600062F6B8C663F632EF89F0010E6F6F460E83
:10037000666F070E676F01ECC6F005016651D7EC9A
:10038000EBF00009D8A4C7EF81F0C9EF81F032EF9C
:1003900089F0140E0601B76F070EB86F000EBA6F22
:1003A000320EB96F040EBB6FFF0EBC6F460EBD6FF1
:1003B000070EBE6FD8ECD5F0B7C662F6B8C663F6C6
:1003C00032EF89F0460E916F070E926F000E936F19
:1003D000000E946F000E966F000E956F7BECF5F09B
:1003E00091C597F592C598F593C599F594C59AF579
:1003F000FF0E05019B6FFF0E9C6FFF0E9D6FFF0EA2
:100400009E6F71ECF7F032EF89F0010E6F6F460EC0
:10041000666F070E676F01ECC6F0050166519FEC31
:10042000EAF00009D8A417EF82F019EF82F032EF5A
:1004300089F0140E0601B76F070EB86F000EBA6F81
:10044000320EB96F040EBB6FFF0EBC6F460EBD6F50
:10045000070EBE6FD8ECD5F0B7C662F6B8C663F625
:1004600032EF89F0010E6F6F460E666F070E676FF1
:1004700001ECC6F00501665107ECEBF00009D8A4C9
:1004800044EF82F046EF82F032EF89F0140E06015D
:10049000B76F070EB86F000EBA6F320EB96F040E49
:1004A000BB6FFF0EBC6F460EBD6F070EBE6FD8EC64
:1004B000D5F0B7C662F6B8C663F632EF89F0140E0F
:1004C0000601B76F070EB86F000EBA6F320EB96F24
:1004D0001A0EBB6FFF0EBC6FB00EBD6F080EBE6F65
:1004E000D8ECD5F0B7C662F6B8C663F632EF89F03D
:1004F000010E6F6F460E666F070E676F01ECC6F058
:100500000501665137ECEAF00009D8A48AEF82F0C1
:100510008CEF82F032EF89F0140E0601B76F070EF0
:10052000B86F000EBA6F320EB96F040EBB6FFF0EBC
:10053000BC6F460EBD6F070EBE6FD8ECD5F0B7C6C8
:1005400062F6B8C663F632EF89F0010E6F6F460EA1
:10055000666F070E676F01ECC6F005016651D3ECBC
:10056000EAF00009D8A4B7EF82F0B9EF82F032EFD9
:1005700089F0140E0601B76F070EB86F000EBA6F40
:10058000320EB96F040EBB6FFF0EBC6F460EBD6F0F
:10059000070EBE6FD8ECD5F0B7C662F6B8C663F6E4
:1005A00032EF89F0010E6F6F460E666F070E676FB0
:1005B00001ECC6F0050166516BECEAF00009D8A425
:1005C000E4EF82F0E6EF82F032EF89F0140E0601DC
:1005D000B76F070EB86F000EBA6F320EB96F040E08
:1005E000BB6FFF0EBC6F460EBD6F070EBE6FD8EC23
:1005F000D5F0B7C662F6B8C663F632EF89F0010EE1
:100600006F6F460E666F070E676F01ECC6F005014F
:100610006651A3ECEBF00009D8A411EF83F013EFBF
:1006200083F032EF89F0140E0601B76F070EB86F32
:10063000000EBA6F320EB96F040EBB6FFF0EBC6FA7
:10064000460EBD6F070EBE6FD8ECD5F0B7C662F68A
:10065000B8C663F632EF89F0460E666F070E676F15
:1006600001ECC6F0050166C56FF567C570F5000EB3
:1006700070BFFF0E716F726F010EE5ECC6F06FC5B3
:100680007DF570C57EF571C57FF572C580F597EC77
:1006900006F00009D8A44FEF83F051EF83F032EF5A
:1006A00089F0140E0601B76F070EB86F000EBA6F0F
:1006B000320EB96F040EBB6FFF0EBC6F460EBD6FDE
:1006C000070EBE6FD8ECD5F0B7C662F6B8C663F6B3
:1006D00032EF89F0010E6F6F460E666F070E676F7F
:1006E00001ECC6F0050166516FECEBF00009D8A4EF
:1006F0007CEF83F07EEF83F032EF89F0140E060179
:10070000B76F070EB86F000EBA6F320EB96F040ED6
:10071000BB6FFF0EBC6F460EBD6F070EBE6FD8ECF1
:10072000D5F0B7C662F6B8C663F632EF89F0010EAF
:100730006F6F460E666F070E676F01ECC6F005011E
:1007400066513BECEBF00009D8A4A9EF83F0ABEFC6
:1007500083F032EF89F0140E0601B76F070EB86F01
:10076000000EBA6F320EB96F040EBB6FFF0EBC6F76
:10077000460EBD6F070EBE6FD8ECD5F0B7C662F659
:10078000B8C663F632EF89F0460E746F070E756FC8
:100790000AECCBF074C583F575C584F576C585F58F
:1007A00077C586F5010E0501876F23ECE4F000099B
:1007B000D8A4DDEF83F0DFEF83F032EF89F0140E81
:1007C0000601B76F070EB86F000EBA6F320EB96F21
:1007D000040EBB6FFF0EBC6F460EBD6F070EBE6FE3
:1007E000D8ECD5F0B7C662F6B8C663F632EF89F03A
:1007F000460E746F070E756F0AECCBF074C583F567
:1008000075C584F576C585F577C586F5010E0501B4
:10081000876FD4ECE3F00009D8A411EF84F013EF54
:1008200084F032EF89F0140E0601B76F070EB86F2F
:10083000000EBA6F320EB96F040EBB6FFF0EBC6FA5
:10084000460EBD6F070EBE6FD8ECD5F0B7C662F688
:10085000B8C663F632EF89F0460E746F070E756FF7
:100860000AECCBF074C583F575C584F576C585F5BE
:1008700077C586F5010E0501876F72ECE4F000097B
:10088000D8A445EF84F047EF84F032EF89F0140EDE
:100890000601B76F070EB86F000EBA6F320EB96F50
:1008A000040EBB6FFF0EBC6F460EBD6F070EBE6F12
:1008B000D8ECD5F0B7C662F6B8C663F632EF89F069
:1008C000010E836F460E746F070E756F0AECCBF046
:1008D00005017451FFECE8F00009D8A472EF84F030
:1008E00074EF84F032EF89F0140E0601B76F070E33
:1008F000B86F000EBA6F320EB96F040EBB6FFF0EE9
:10090000BC6F460EBD6F070EBE6FD8ECD5F0B7C6F4
:1009100062F6B8C663F632EF89F0140E0601B76FBF
:10092000070EB86F000EBA6F320EB96F1A0EBB6F9A
:10093000FF0EBC6FB00EBD6F080EBE6FD8ECD5F0C9
:10094000B7C662F6B8C663F632EF89F0140E060138
:10095000B76F070EB86F000EBA6F320EB96F1A0E6E
:10096000BB6FFF0EBC6FB00EBD6F080EBE6FD8EC34
:10097000D5F0B7C662F6B8C663F632EF89F0140E4A
:100980000601B76F070EB86F000EBA6F320EB96F5F
:100990009A0EBB6FFF0EBC6FD8ECD5F0B7C662F6EF
:1009A000B8C663F632EF89F0B00E0501666F080E27
:1009B000676F96ECE6F005016751000AD8B4E3EFE3
:1009C00084F0BFEF84F06651010AD8B428EF80F0BC
:1009D000030AD8B45CEF80F0010AD8B490EF80F03D
:1009E000070AD8B4BDEF80F0010AD8B4EAEF80F06E
:1009F000030AD8B417EF81F0010AD8B444EF81F0AC
:100A00000F0AD8B46FEF81F0010AD8B49CEF81F0DF
:100A1000030AD8B432EF89F0010AD8B4B5EF81F0F7
:100A2000070AD8B4E2EF81F0010AD8B405EF82F0EA
:100A3000030AD8B432EF82F0010AD8B45FEF82F033
:100A40001F0AD8B478EF82F0010AD8B4A5EF82F07B
:100A5000030AD8B4D2EF82F0010AD8B4FFEF82F0D3
:100A6000070AD8B42CEF83F0010AD8B46AEF83F0F8
:100A7000030AD8B497EF83F0010AD8B4C4EF83F027
:100A80000F0AD8B4F8EF83F0010AD8B42CEF84F041
:100A9000030AD8B460EF84F0010AD8B48DEF84F073
:100AA000070AD8B4A6EF84F0BFEF84F0140E060155
:100AB000B76F070EB86F000EBA6F320EB96FEE0E39
:100AC000BB6FFF0EBC6FDBECF0F064C5BDF665C517
:100AD000BEF666C5BFF667C5C0F6D8ECD5F0B7C69A
:100AE00062F6B8C663F632EF89F0140E0601B76FEE
:100AF000070EB86F000EBA6F320EB96FEE0EBB6FF5
:100B0000FF0EBC6F01ECF1F064C5BDF665C5BEF625
:100B100066C5BFF667C5C0F6D8ECD5F0B7C662F6B5
:100B2000B8C663F632EF89F0140E0601B76F070EF0
:100B3000B86F000EBA6F320EB96FF50EBB6FFF0EB5
:100B4000BC6F28EC02F00501FF6FFF510601BD6F7D
:100B5000BE6BD8ECD5F0B7C662F6B8C663F632EF16
:100B600089F0140E0601B76F070EB86F000EBA6F4A
:100B7000320EB96FF50EBB6FFF0EBC6F08EC02F0C2
:100B80000501FF6FFF510601BD6FBE6BD8ECD5F0BC
:100B9000B7C662F6B8C663F632EF89F0140E0601E6
:100BA000B76F070EB86F000EBA6F320EB96FF50E41
:100BB000BB6FFF0EBC6F58EC03F00501FF6FFF51D8
:100BC0000601BD6FBE6BD8ECD5F0B7C662F6B8C6ED
:100BD00063F632EF89F0140E0601B76F070EB86F97
:100BE000000EBA6F320EB96FF50EBB6FFF0EBC6F01
:100BF00048EC03F00501FF6FFF510601BD6FBE6BAE
:100C0000D8ECD5F0B7C662F6B8C663F632EF89F015
:100C1000140E0601B76F070EB86F000EBA6F320ED2
:100C2000B96FF50EBB6FFF0EBC6F62EC08F00501EB
:100C3000FF6FFF510601BD6FBE6BD8ECD5F0B7C694
:100C400062F6B8C663F632EF89F0140E0601B76F8C
:100C5000070EB86F000EBA6F320EB96FF50EBB6F8C
:100C6000FF0EBC6FE8EC01F00501FF6FFF510601BC
:100C7000BD6FBE6BD8ECD5F0B7C662F6B8C663F6EA
:100C800032EF89F0140E0601B76F070EB86F000E31
:100C9000BA6F320EB96FB20EBB6FFF0EBC6F050E8E
:100CA000BD6F0B0EBE6F520EBF6F0D0EC06FD8EC36
:100CB000D5F0B7C662F6B8C663F632EF89F0140E07
:100CC0000601B76F070EB86F000EBA6F320EB96F1C
:100CD000F80EBB6FFF0EBC6FC9EC06F060C5BDF629
:100CE00061C5BEF662C5BFF663C5C0F6D8ECD5F0E7
:100CF000B7C662F6B8C663F632EF89F0140E060185
:100D0000B76F070EB86F000EBA6F320EB96FF50EDF
:100D1000BB6FFF0EBC6F28EC03F00501FF6FFF51A6
:100D20000601BD6FBE6BD8ECD5F0B7C662F6B8C68B
:100D300063F632EF89F0140E0601B76F070EB86F35
:100D4000000EBA6F320EB96FEE0EBB6FFF0EBC6FA6
:100D5000D2EC06F060C5BDF661C5BEF662C5BFF651
:100D600063C5C0F6D8ECD5F0B7C662F6B8C663F670
:100D700032EF89F0140E0601B76F070EB86F000E40
:100D8000BA6F320EB96FF50EBB6FFF0EBC6F88ECF9
:100D900002F00501FF6FFF510601BD6FBE6BD8EC7D
:100DA000D5F0B7C662F6B8C663F632EF89F0140E16
:100DB0000601B76F070EB86F000EBA6F320EB96F2B
:100DC000F50EBB6FFF0EBC6FC8EC02F00501FF6FA4
:100DD000FF510601BD6FBE6BD8ECD5F0B7C662F609
:100DE000B8C663F632EF89F0140E0601B76F070E2E
:100DF000B86F000EBA6F320EB96FF50EBB6FFF0EF3
:100E0000BC6F95ECF5F062C5BDF663C5BEF6D8ECD7
:100E1000D5F0B7C662F6B8C663F632EF89F0140EA5
:100E20000601B76F070EB86F000EBA6F320EB96FBA
:100E3000F50EBB6FFF0EBC6F48EC02F00501FF6FB3
:100E4000FF510601BD6FBE6BD8ECD5F0B7C662F698
:100E5000B8C663F632EF89F0140E0601B76F070EBD
:100E6000B86F000EBA6F320EB96FF50EBB6FFF0E82
:100E7000BC6FA8EC02F00501FF6FFF510601BD6FCA
:100E8000BE6BD8ECD5F0B7C662F6B8C663F632EFE3
:100E900089F0140E0601B76F070EB86F000EBA6F17
:100EA000320EB96FF50EBB6FFF0EBC6F68EC02F02F
:100EB0000501FF6FFF510601BD6FBE6BD8ECD5F089
:100EC000B7C662F6B8C663F632EF89F0140E0601B3
:100ED000B76F070EB86F000EBA6F320EB96FF50E0E
:100EE000BB6FFF0EBC6F08EC03F00501FF6FFF51F5
:100EF0000601BD6FBE6BD8ECD5F0B7C662F6B8C6BA
:100F000063F632EF89F03DEC08F0000E1DEC08F0BE
:100F1000FF0E0501816F090E826FA00E836F3A0EDE
:100F2000846F000EF3ECF3F0050160C56FF561C549
:100F300070F5716B726B000EE5ECC6F06FC57DF558
:100F400070C57EF571C57FF572C580F50FECB4F004
:100F50007DC596F57EC597F57FC598F580C599F551
:100F6000CD0E05019A6FCC0E9B6FCC0E9C6FBD0E03
:100F70009D6FBAECA8F096C536F697C537F698C5BA
:100F800038F699C539F6140E0601B76F070EB86F1B
:100F9000000EBA6F320EB96FF80EBB6FFF0EBC6F4A
:100FA00036C6BDF637C6BEF638C6BFF639C6C0F679
:100FB000D8ECD5F0B7C662F6B8C663F632EF89F062
:100FC000140E0601B76F070EB86F000EBA6F320E1F
:100FD000B96FF50EBB6FFF0EBC6FE8EC02F00501B8
:100FE000FF6FFF510601BD6FBE6BD8ECD5F0B7C6E1
:100FF00062F6B8C663F632EF89F0140E0601B76FD9
:10100000070EB86F000EBA6F320EB96FF50EBB6FD8
:10101000FF0EBC6F88EC03F00501FF6FFF51060166
:10102000BD6FBE6BD8ECD5F0B7C662F6B8C663F636
:1010300032EF89F0140E0601B76F070EB86F000E7D
:10104000BA6F320EB96FEE0EBB6FFF0EBC6F4DEC78
:10105000F1F064C5BDF665C5BEF666C5BFF667C5E9
:10106000C0F6D8ECD5F0B7C662F6B8C663F632EF74
:1010700089F0140E0601B76F070EB86F000EBA6F35
:10108000320EB96FEE0EBB6FFF0EBC6F27ECF1F0A6
:1010900064C5BDF665C5BEF666C5BFF667C5C0F6D4
:1010A000D8ECD5F0B7C662F6B8C663F632EF89F071
:1010B000140E0601B76F070EB86F000EBA6F320E2E
:1010C000B96FEE0EBB6FFF0EBC6F73ECF1F064C531
:1010D000BDF665C5BEF666C5BFF667C5C0F6D8ECF9
:1010E000D5F0B7C662F6B8C663F632EF89F0140ED3
:1010F0000601B76F070EB86F000EBA6F320EB96FE8
:10110000F50EBB6FFF0EBC6FD8EC01F00501FF6F51
:10111000FF510601BD6FBE6BD8ECD5F0B7C662F6C5
:10112000B8C663F632EF89F0FF0032EF89F087EC42
:10113000CFF032EF89F0140E0601B76F070EB86FCB
:10114000000EBA6F320EB96F9A0EBB6FFF0EBC6FF6
:10115000D8ECD5F0B7C662F6B8C663F632EF89F0C0
:10116000B00E0501666F080E676F96ECE6F005019C
:101170006751000AD8B4BFEF88F09BEF88F0665142
:10118000010AD8B456EF85F0030AD8B475EF85F09C
:10119000010AD8B494EF85F0070AD8B4B1EF85F00E
:1011A000010AD8B4CEEF85F0030AD8B4EBEF85F08E
:1011B000010AD8B408EF86F00F0AD8B425EF86F0FC
:1011C000010AD8B442EF86F0030AD8B45FEF86F084
:1011D000010AD8B47EEF86F0070AD8B49BEF86F0F8
:1011E000010AD8B4BAEF86F0030AD8B4D7EF86F074
:1011F000010AD8B4F4EF86F01F0AD8B40FEF87F0D5
:10120000010AD8B42CEF87F0030AD8B449EF87F06D
:10121000010AD8B466EF87F0070AD8B483EF87F0E5
:10122000010AD8B4E0EF87F0030AD8B4FDEF87F0E5
:10123000010AD8B41AEF88F00F0AD8B439EF88F051
:10124000010AD8B458EF88F0030AD8B477EF88F0D1
:10125000010AD8B494EF88F0070AD8B497EF88F061
:101260009BEF88F0140E0501616F070E626F62C676
:1012700063F563C664F5ACECE7F0B00E0501606F92
:10128000080E616F000E636F000E626F000E656FD7
:10129000320E646F63ECCDF0000E3D6E460E05011C
:1012A000606F070E616F000E636F000E626F000EBD
:1012B000656F320E646F63ECCDF0000E3C6E140E61
:1012C0000501606F070E616F000E636F000E626FA5
:1012D000000E656F320E646F63ECCDF0000E0601F8
:1012E000636F000E626F000E3E6E35EC08F0120068
:1012F0000501C96F30EF91F0000E816F000E826F13
:10130000C80E836F420E846FC1C5D9F4C2C5DAF42A
:10131000DF50C36FC3516F6F706B716B726B000ED8
:10132000E5ECC6F06FC57DF570C57EF571C57FF53E
:1013300072C580F50FECB4F07DC5A6F57EC5A7F5A6
:101340007FC5A8F580C5A9F5000E0501AA6F000E9E
:10135000AB6F7F0EAC6F430EAD6F32ECB8F0A6C52D
:10136000BFF5A7C5C0F5A8C5C1F5A9C5C2F54EEF23
:1013700091F0C1C5D9F4C2C5DAF4DF50C36FC351CF
:101380006F6F706B716B726B000EE5ECC6F06FC522
:1013900096F570C597F571C598F572C599F5000E6B
:1013A00005019A6F000E9B6F200E9C6FC20E9D6F01
:1013B000BAECA8F096C5BFF597C5C0F598C5C1F5BC
:1013C00099C5C2F54EEF91F0000E816F000E826F4D
:1013D000480E836F3F0E846FC1C5D9F4C2C5DAF4DD
:1013E000DF50C36FC3516F6F706B716B726B000E08
:1013F000E5ECC6F06FC57DF570C57EF571C57FF56E
:1014000072C580F50FECB4F07DC596F57EC597F5F5
:101410007FC598F580C599F5000E05019A6F000EFD
:101420009B6FC80E9C6FC20E9D6FBAECA8F096C55C
:10143000BFF597C5C0F598C5C1F599C5C2F54EEF82
:1014400091F0C1C5D9F4C2C5DAF4DF50C36FC351FE
:101450006F6F706B716B726B000EE5ECC6F06FC551
:101460007DF570C57EF571C57FF572C580F5000EFE
:101470000501816F000E826F400E836F400E846FF6
:101480000FECB4F07DC5BFF57EC5C0F57FC5C1F5D5
:1014900080C5C2F54EEF91F0C1C5D9F4C2C5DAF4EA
:1014A000DF50C36FC3516F6F706B716B726B000E47
:1014B000E5ECC6F06FC5BFF570C5C0F571C5C1F5E7
:1014C00072C5C2F54EEF91F020EE01F0C151D92660
:1014D000C251DA22DF50C36FC3516F6F706B716BF3
:1014E000726B000EE5ECC6F06FC59AF570C59BF502
:1014F00071C59CF572C59DF5000E0501816F000E4A
:10150000826F800E836F430E846FC1C5D9F4C2C54C
:10151000DAF4DF50C46FC4516F6F706B716B726B14
:10152000000EE5ECC6F06FC57DF570C57EF571C5A2
:101530007FF572C580F50FECB4F07DC596F57EC5DC
:1015400097F57FC598F580C599F5BAECA8F096C5D2
:10155000A6F597C5A7F598C5A8F599C5A9F5000EF4
:101560000501AA6F000EAB6F800EAC6F400EAD6F21
:1015700032ECB8F0A6C5BFF5A7C5C0F5A8C5C1F542
:10158000A9C5C2F54EEF91F0000EAA6F000EAB6F29
:10159000000EAC6F400EAD6FC1C5D9F4C2C5DAF410
:1015A000DF50C36FC3516F6F706B716B726B000E46
:1015B000E5ECC6F06FC5A6F570C5A7F571C5A8F531
:1015C00072C5A9F532ECB8F0A6C596F5A7C597F592
:1015D000A8C598F5A9C599F5000E05019A6F000EEA
:1015E0009B6F800E9C6FC20E9D6FBAECA8F096C5E3
:1015F000BFF597C5C0F598C5C1F599C5C2F54EEFC1
:1016000091F0C1C5D9F4C2C5DAF4DF50C36FC3513C
:101610006F6F706B716B726B000EE5ECC6F06FC58F
:10162000A6F570C5A7F571C5A8F572C5A9F5000E98
:101630000501AA6F000EAB6F7F0EAC6F430EAD6F4E
:1016400032ECB8F0A6C5BFF5A7C5C0F5A8C5C1F571
:10165000A9C5C2F54EEF91F020EE01F0C151D92697
:10166000C251DA22DF50C36FC3516F6F706B716B61
:10167000726B000EE5ECC6F06FC59AF570C59BF570
:1016800071C59CF572C59DF5000E0501816F000EB8
:10169000826F800E836F430E846FC1C5D9F4C2C5BB
:1016A000DAF4DF50C46FC4516F6F706B716B726B83
:1016B000000EE5ECC6F06FC57DF570C57EF571C511
:1016C0007FF572C580F50FECB4F07DC596F57EC54B
:1016D00097F57FC598F580C599F5BAECA8F096C541
:1016E000CAF597C5CBF598C5CCF599C5CDF5CAC552
:1016F0007DF5CBC57EF5CCC57FF5CDC580F5C10E9A
:101700000501816FCA0E826FA10E836F3D0E846F3B
:101710000FECB4F07DC5BFF57EC5C0F57FC5C1F542
:1017200080C5C2F54EEF91F020EE01F0C151D926EF
:10173000C251DA22DF50C36FC3516F6F706B716B90
:10174000726B000EE5ECC6F06FC59AF570C59BF59F
:1017500071C59CF572C59DF5000E0501816F000EE7
:10176000826F800E836F430E846FC1C5D9F4C2C5EA
:10177000DAF4DF50C46FC4516F6F706B716B726BB2
:10178000000EE5ECC6F06FC57DF570C57EF571C540
:101790007FF572C580F50FECB4F07DC596F57EC57A
:1017A00097F57FC598F580C599F5BAECA8F096C570
:1017B000CAF597C5CBF598C5CCF599C5CDF5000E02
:1017C0000501816F000E826F000E836F400E846FE3
:1017D000CAC57DF5CBC57EF5CCC57FF5CDC580F5F9
:1017E0000FECB4F07DC5A6F57EC5A7F57FC5A8F5BD
:1017F00080C5A9F5000E0501AA6F000EAB6F800E23
:10180000AC6F470EAD6F32ECB8F0A6C5BFF5A7C5FB
:10181000C0F5A8C5C1F5A9C5C2F54EEF91F0000EFF
:10182000BF6F000EC06F000EC16F000EC26F4EEF93
:1018300091F0000EBF6F000EC06F000EC16F000E62
:10184000C26F4EEF91F0BFC5C3F5C0C5C4F5C4511A
:10185000000AD8B42EEF8CF019EF8CF0C351040AB3
:10186000D8B47CEF89F0010AD8B4B9EF89F0030A43
:10187000D8B4E4EF89F0010AD8B4E4EF89F00F0A94
:10188000D8B4E4EF89F0010AD8B4E4EF89F0030A90
:10189000D8B421EF8AF0010AD8B44CEF8AF0070AD5
:1018A000D8B464EF8AF0010AD8B44CEF8AF0030A86
:1018B000D8B4C4EF8AF0010AD8B4B9EF89F01F0A8E
:1018C000D8B4B9EF89F0010AD8B47CEF89F0040AE2
:1018D000D8B401EF8BF0370AD8B42CEF8BF0110A93
:1018E000D8B44CEF8AF0070AD8B494EF8BF06E0AA4
:1018F000D8B47CEF89F0060AD8B4B9EF89F0330A7E
:10190000D8B40FEF8CF019EF8CF020EE01F0C1513C
:10191000D926C251DA22DF50C36FC3516F6F706B8B
:10192000716B726B000EE5ECC6F06FC59AF570C571
:101930009BF571C59CF572C59DF5000E0501816F83
:10194000000E826F800E836F430E846FC1C5D9F481
:10195000C2C5DAF4DF506F6F000E6FBFFF0E706FFD
:10196000716F726F010EE5ECC6F06FC57DF570C545
:101970007EF571C57FF572C580F50FECB4F07DC5BD
:1019800096F57EC597F57FC598F580C599F5BAECB3
:10199000A8F096C5CAF597C5CBF598C5CCF599C5FD
:1019A000CDF5CAC57DF5CBC57EF5CCC57FF5CDC5DA
:1019B00080F56F0E0501816F120E826F030E836F2B
:1019C0003B0E846F0FECB4F07DC5BFF57EC5C0F54E
:1019D0007FC5C1F580C5C2F54EEF91F020EE01F054
:1019E000C151D926C251DA22DF50C36FC3516F6F84
:1019F000706B716B726B000EE5ECC6F06FC59AF5FB
:101A000070C59BF571C59CF572C59DF5000E05016D
:101A1000816F000E826F800E836F430E846FC1C58D
:101A2000D9F4C2C5DAF4DF506F6F000E6FBFFF0E3E
:101A3000706F716F726F010EE5ECC6F06FC57DF5CA
:101A400070C57EF571C57FF572C580F50FECB4F0F9
:101A50007DC596F57EC597F57FC598F580C599F546
:101A6000BAECA8F096C5A6F597C5A7F598C5A8F550
:101A700099C5A9F5000E0501AA6F000EAB6F800E87
:101A8000AC6F440EAD6F32ECB8F0A6C5BFF5A7C57C
:101A9000C0F5A8C5C1F5A9C5C2F54EEF91F020EE7D
:101AA00001F0C151D926C251DA22DF50C36FC351B0
:101AB0006F6F706B716B726B000EE5ECC6F06FC5EB
:101AC0009AF570C59BF571C59CF572C59DF5000E24
:101AD0000501816F000E826F800E836F430E846F4D
:101AE000C1C5D9F4C2C5DAF4DF50C46FC4516F6FF9
:101AF000706B716B726B000EE5ECC6F06FC57DF517
:101B000070C57EF571C57FF572C580F50FECB4F038
:101B10007DC596F57EC597F57FC598F580C599F585
:101B2000BAECA8F096C5A6F597C5A7F598C5A8F58F
:101B300099C5A9F50A0E0501AA6FD70EAB6FA30EC2
:101B4000AC6F430EAD6F32ECB8F0A6C5BFF5A7C5BC
:101B5000C0F5A8C5C1F5A9C5C2F54EEF91F020EEBC
:101B600001F0C151D926C251DA22DF50C36FC351EF
:101B70006F6F706B716B726B000EE5ECC6F06FC52A
:101B80009AF570C59BF571C59CF572C59DF5000E63
:101B90000501816F000E826F800E836F430E846F8C
:101BA000C1C5D9F4C2C5DAF4DF506F6F000E6FBF44
:101BB000FF0E706F716F726F010EE5ECC6F06FC5AE
:101BC0007DF570C57EF571C57FF572C580F50FECAA
:101BD000B4F07DC596F57EC597F57FC598F580C5AF
:101BE00099F5BAECA8F096C5A6F597C5A7F598C5DE
:101BF000A8F599C5A9F5000E0501AA6F000EAB6FF7
:101C0000000EAC6FC40EAD6F32ECB8F0A6C5BFF5D8
:101C1000A7C5C0F5A8C5C1F5A9C5C2F54EEF91F09D
:101C2000C1C5D9F4C2C5DAF4DF50C36FC3516F6FB9
:101C3000706B716B726B000EE5ECC6F06FC596F5BC
:101C400070C597F571C598F572C599F5000E050137
:101C50009A6F000E9B6F200E9C6FC20E9D6FBAECA8
:101C6000A8F096C5BFF597C5C0F598C5C1F599C54B
:101C7000C2F54EEF91F020EE01F0C151D926C251CC
:101C8000DA22DF50C36FC3516F6F706B716B726B71
:101C9000000EE5ECC6F06FC59AF570C59BF571C5F1
:101CA0009CF572C59DF5000E0501816F000E826FD7
:101CB000800E836F430E846FC1C5D9F4C2C5DAF4B8
:101CC000DF506F6F000E6FBFFF0E706F716F726F1E
:101CD000010EE5ECC6F06FC57DF570C57EF571C5EA
:101CE0007FF572C580F50FECB4F07DC596F57EC525
:101CF00097F57FC598F580C599F5BAECA8F096C51B
:101D0000A6F597C5A7F598C5A8F599C5A9F5000E3C
:101D10000501AA6F000EAB6F800EAC6F420EAD6F67
:101D200032ECB8F0A6C5BFF5A7C5C0F5A8C5C1F58A
:101D3000A9C5C2F54EEF91F020EE01F0C151D926B0
:101D4000C251DA22DF50C36FC3516F6F706B716B7A
:101D5000726B000EE5ECC6F06FC59AF570C59BF589
:101D600071C59CF572C59DF5000E0501816F000ED1
:101D7000826F800E836F430E846FC1C5D9F4C2C5D4
:101D8000DAF4DF506F6F000E6FBFFF0E706F716F70
:101D9000726F010EE5ECC6F06FC57DF570C57EF57E
:101DA00071C57FF572C580F50FECB4F07DC596F571
:101DB0007EC597F57FC598F580C599F5BAECA8F072
:101DC00096C5A6F597C5A7F598C5A8F599C5A9F52F
:101DD000000E0501AA6F000EAB6F800EAC6F460EB1
:101DE000AD6F32ECB8F0A6C5BFF5A7C5C0F5A8C564
:101DF000C1F5A9C5C2F54EEF91F0000EAA6F000E15
:101E0000AB6F000EAC6F400EAD6FC1C5D9F4C2C54B
:101E1000DAF4DF50C36FC3516F6F706B716B726B0D
:101E2000000EE5ECC6F06FC5A6F570C5A7F571C547
:101E3000A8F572C5A9F532ECB8F0A6C596F5A7C508
:101E400097F5A8C598F5A9C599F5000E05019A6FF3
:101E5000000E9B6F200E9C6FC20E9D6FBAECA8F017
:101E600096C5BFF597C5C0F598C5C1F599C5C2F52A
:101E70004EEF91F0000E816F000E826FC80E836FDF
:101E8000420E846FC1C5D9F4C2C5DAF4DF50C36F06
:101E9000C3516F6F706B716B726B000EE5ECC6F027
:101EA0006FC57DF570C57EF571C57FF572C580F58E
:101EB0000FECB4F07DC5A6F57EC5A7F57FC5A8F5E6
:101EC00080C5A9F5000E0501AA6F000EAB6F7F0E4D
:101ED000AC6F430EAD6F32ECB8F0A6C5BFF5A7C529
:101EE000C0F5A8C5C1F5A9C5C2F54EEF91F0C1C5B1
:101EF000D9F4C2C5DAF4DF50C36FC3516F6F706B92
:101F0000716B726B000EE5ECC6F06FC5BFF570C566
:101F1000C0F571C5C1F572C5C2F54EEF91F020EE66
:101F200001F0C151D926C251DA22DF50C36FC3512B
:101F30006F6F706B716B726B000EE5ECC6F06FC566
:101F40009AF570C59BF571C59CF572C59DF5000E9F
:101F50000501816F000E826F800E836F430E846FC8
:101F6000C1C5D9F4C2C5DAF4DF50C46FC4516F6F74
:101F7000706B716B726B000EE5ECC6F06FC57DF592
:101F800070C57EF571C57FF572C580F50FECB4F0B4
:101F90007DC596F57EC597F57FC598F580C599F501
:101FA000BAECA8F096C5C5F597C5C6F598C5C7F5AE
:101FB00099C5C8F5C5C596F5C6C597F5C7C598F5C1
:101FC000C8C599F5AB0E05019A6FAA0E9B6FEA0E74
:101FD0009C6F400E9D6FBAECA8F096C5BFF597C5F3
:101FE000C0F598C5C1F599C5C2F54EEF91F0000E48
:101FF000BF6F000EC06F000EC16F000EC26F4EEFBC
:1020000091F0BFC5C3F5C0C5C4F5C451030AD8B427
:1020100024EF90F0070AD8B443EF90F0010AD8B447
:102020004AEF90F02D0AD8B451EF90F0030AD8B4DB
:1020300058EF90F06B0AD8B463EF90F0B40AD8B4BC
:102040006AEF90F0F7EF8FF0C351010AD8B4EEEFCA
:102050008CF0060AD8B44FEF8DF0110AD8B44FEFC8
:102060008DF0010AD8B44FEF8DF0DD0AD8B410EF2F
:102070008EF0220AD8B49CEF8EF0040AD8B4AFEFE9
:102080008DF0F7EF8FF0C351610AD8B43BEF8EF0BB
:10209000F7EF8FF0C3517D0AD8B4FDEF8EF0F7EF64
:1020A0008FF0C351130AD8B48FEF8FF0F7EF8FF092
:1020B000C3510C0AD8B485EF8CF01D0AD8B485EF53
:1020C0008CF0F7EF8FF0C351280AD8B477EF8FF078
:1020D000F7EF8FF0C351040AD8B43AEF8FF00B0A30
:1020E000D8B410EF8EF0F7EF8FF0000EBF6F000E38
:1020F000C06F000EC16F000EC26F4EEF91F0000E68
:10210000BF6F000EC06F000EC16F000EC26F4EEFAA
:1021100091F0BFC5C3F5C0C5C4F5C451010AD8B418
:10212000ACEF90F0020AD8B4B3EF90F00B0AD8B439
:10213000CEEF90F0040AD8B4D9EF90F01E0AD8B4CC
:10214000E0EF90F0040AD8B4E7EF90F00E0AD8B4AC
:10215000EEEF90F07FEF90F0C351C80AD8B475EF5E
:1021600090F07FEF90F0C351010AD8B475EF90F072
:10217000030AD8B475EF90F0010AD8B475EF90F067
:10218000070AD8B475EF90F0010AD8B475EF90F053
:10219000030AD8B475EF90F07FEF90F0C351020AB4
:1021A000D8B475EF90F0010AD8B475EF90F07FEFD6
:1021B00090F0C351820AD8B475EF90F07FEF90F0A1
:1021C000C351600AD8B475EF90F07FEF90F0C3511F
:1021D000020AD8B475EF90F07FEF90F0C351020A75
:1021E000D8B475EF90F07FEF90F0000EBF6F000E47
:1021F000C06F000EC16F000EC26F4EEF91F0000E67
:10220000BF6F000EC06F000EC16F000EC26F4EEFA9
:1022100091F0BFC5C3F5C0C5C4F5C451000AD8B418
:1022200018EF91F0030AD8B41FEF91F0FFEF90F090
:10223000C3516F0AD8B4F5EF90F0FFEF90F0C3519F
:10224000020AD8B4F5EF90F0FFEF90F0000EBF6FE8
:10225000000EC06F000EC16F000EC26F4EEF91F006
:102260000501C951C36FC46BC451000AD8B43BEF18
:1022700091F026EF91F0C351010AD8B423EF8CF00E
:10228000230AD8B401EF90F0E30AD8B409EF91F033
:102290001F0AD8B489EF90F026EF91F012000601E2
:1022A000E951EA11EB11EC11D8B459EF91F05BEF61
:1022B00091F062EF91F0E907000EEA5BEB5BEC5BFB
:1022C00084EF91F0D2EC06F00501605161116211CA
:1022D0006311D8B46EEF91F070EF91F084EF91F04C
:1022E000010E0601726FD2EC06F0FF0E05016025AB
:1022F000646FFF0E6121656FFF0E6221666FFF0E36
:102300006321676FE4EC06F0060164516511D8B4EF
:102310008CEF91F08EEF91F077EF97F0E1ECE6F033
:1023200077EF97F0000E05016C6F000E6D6F000ED9
:102330007FECF6F0010E4A6E000E1DEC08F0030E65
:102340000501616FB40E606F42EC07F0000E0501ED
:10235000606F110E616F000E626FDCEC07F0ADEF85
:1023600097F0CEAAB6EF91F0B9EF91F0010EBAEF67
:1023700091F0000E836FCEA6C0EF91F0C3EF91F005
:10238000010EC4EF91F0000E8315E8A0CAEF91F0A2
:10239000CCEF91F0CEEF91F087ECCFF052ECDCF087
:1023A000BE92BF9E000E05016C6F000E6D6F000E99
:1023B0007FECF6F0020E4A6EADEF97F028EC03F0DA
:1023C000020AD8A4E6EF91F0E8EF91F0ECEF91F07B
:1023D00049EC08F0EEEF91F04CEC08F028EC03F03B
:1023E000E806D8B4F6EF91F0F9EF91F0010EFAEFAC
:1023F00091F0000E0601836F28EC03F00009D8B4B9
:1024000004EF92F007EF92F0010E08EF92F0000E49
:1024100006018311E8A00FEF92F011EF92F013EF95
:1024200092F041ECEFF027ECF1F064C57CF665C565
:102430007DF666C57EF667C57FF60601809D809FA6
:10244000809388EC03F00009D8A429EF92F02EEFD6
:1024500092F00601836B832B30EF92F00601836BC1
:1024600080518319FE0B8319806F8051C30B2009A3
:10247000806FF70E816F070E826F560E6100A0F31A
:10248000E4FAE60E6100A0F3E5FA010E6100A0F3A4
:10249000E6FAE80E6100A0F3E0FA030E6100A0F393
:1024A000E1FA000E6100A0F3E2FA000E6100A0F371
:1024B000E3FA27ECF1F00501610090F5E7FA61001D
:1024C00094F5E8FA610098F5E9FA61009CF5EAFAFA
:1024D00088EC03F00009D8B470EF92F072EF92F03C
:1024E00079EF92F0000E06018C6F020E8B6F7EEF7B
:1024F00092F0000E06018C6F010E8B6F22EEEBF254
:102500008BC6DFF4C00E0501786F090E796FE6EC1B
:10251000EDF028EC03F00009D8A491EF92F093EFCE
:1025200092F0C5EF92F0DDEF92F0C00E0501656FFD
:10253000090E666FE60E676F070E686FBEECDCF083
:10254000C00E0501606F090E616FD50E626F070E38
:10255000636F1FECCEF0F4EF92F0C00E0501656FD3
:10256000090E666FE60E676F070E686FBEECDCF053
:10257000C00E0501656F090E666FD50E676F070EF9
:10258000686FBEECDCF0F4EF92F0C00E0501606FF6
:10259000090E616FE60E626F070E636F1FECCEF0DF
:1025A000C00E0501606F090E616FD50E626F070ED8
:1025B000636F1FECCEF0F4EF92F0C8EC02F006016E
:1025C000836F846B8451000AD8B4E9EF92F0C5EFB1
:1025D00092F08351000AD8B495EF92F0010AD8B472
:1025E000ADEF92F0C5EF92F0030E4A6EADEF97F0AB
:1025F000DBECF0F064C583F665C584F666C585F648
:1026000067C586F601ECF1F0050164510601835DB2
:102610000501686F6551060184590501696F6651AE
:102620000601855905016A6F675106018659050142
:102630006B6F640E6C6F000E6D6F000E6E6F000E90
:102640006F6F60ECE8F0050E2CEF93F00501D89069
:102650006B336A3369336833E82E26EF93F068C52D
:1026600074F569C575F56AC576F56BC577F5640EC1
:10267000786F000E796F000E7A6F000E7B6FDDECC5
:10268000E2F074C546F675C547F676C548F677C5D7
:1026900049F674EF93F0090E466F000E476F000E77
:1026A000486F000E496F040E426F000E436F000E1C
:1026B000446F000E456F74EF93F0C8EC02F0060112
:1026C000836F846B8451000AD8B469EF93F074EF80
:1026D00093F08351000AD8B4F8EF92F0010AD8B40D
:1026E0004BEF93F074EF93F0040E4A6EADEF97F05A
:1026F00028EC03F0E806D8B480EF93F083EF93F072
:10270000010E84EF93F0000E0601836F28EC03F0B6
:102710000009D8B48EEF93F091EF93F0010E92EF91
:1027200093F0000E06018311E8A099EF93F09BEF60
:1027300093F0C6EF94F093ECDDF00009D8B4A3EF6A
:1027400093F0A5EF93F063EF94F0750E0501766FAB
:10275000060E776F4AECD5F0E806D8A4B2EF93F0F6
:10276000B4EF93F063EF94F04DECF1F00601755186
:102770000501641913E106017651050165190EE1A1
:10278000060177510501661909E106017851050135
:102790006719D8A4CEEF93F0D0EF93F028EF94F020
:1027A000000E06018D6F000E8E6F000E8F6F000EF3
:1027B000906F20EE04F07A51D9267B51DA22DF5057
:1027C000836F0F0E831783C684F6856B866B876BCA
:1027D00086C687F685C686F684C685F6846B20EEA7
:1027E00005F07A51D9267B51DA22DF50886F885163
:1027F00084118D6F85518E6F86518F6F8751906FC9
:10280000D8908D358D6F8E358E6F8F358F6F90355B
:10281000906F28EC03F0E806D8A411EF94F013EFC2
:1028200094F063EF94F08DC697F58EC698F58FC639
:1028300099F590C69AF5E80E05019B6F030E9C6F03
:10284000000E9D6F000E9E6F71ECF7F063EF94F039
:1028500073ECF1F0060175510501641913E10601ED
:102860007651050165190EE10601775105016619DA
:1028700009E10601785105016719D8A442EF94F0E7
:1028800044EF94F063EF94F028EC03F00009D8A42F
:102890004CEF94F04EEF94F063EF94F0C00E05010E
:1028A000806F090E816F75C682F576C683F577C68F
:1028B00084F578C685F57AC686F57BC687F500EC83
:1028C000BAF063EF94F028EC03F00009D8A46BEFA2
:1028D00094F06DEF94F096EF94F00701F151F2113E
:1028E000F311F411D8B477EF94F079EF94F096EFF8
:1028F00094F0EDC760F5EEC761F5EFC762F5F0C77C
:1029000063F5EAECD6F060C597F561C598F562C548
:1029100099F563C59AF5E80E05019B6F030E9C6F50
:10292000000E9D6F000E9E6F71ECF7F0C8EC02F088
:10293000E806D8A49EEF94F0A0EF94F0BFEF94F0D7
:102940000701E051E111E211E311D8B4AAEF94F0CC
:10295000ACEF94F0BFEF94F0DCC760F5DDC761F534
:10296000DEC762F5DFC763F5EAECD6F09B0E050122
:1029700060256A6FFF0E61216B6F23EC07F0C00EBC
:102980000501E76F090EE86FF0ECB1F00601725136
:1029900071110009D8B4CFEF94F0D1EF94F0ADEFFE
:1029A00097F0C8EC02F00009D8A4D9EF94F0DBEF5F
:1029B00094F0E1EF95F0D2EC06F060C583F661C5C6
:1029C00084F662C585F663C586F6DBECF0F005019A
:1029D00064510601835D05016551060184590501B5
:1029E0006651060185590501675106018659D8A02F
:1029F000FCEF94F0FEEF94F002EF95F046EC08F057
:102A0000AFEF96F043EC08F0000E0601936F0F0E47
:102A100093650DEF95F00FEF95F011EF95F0AFEF97
:102A200096F093510501686F696B6A6B6B6B46C6D4
:102A30006CF547C66DF548C66EF549C66FF560EC96
:102A4000E8F068C583F669C584F66AC585F66BC586
:102A500086F601ECF1F00501645106018325876FCC
:102A60000501655106018421886F05016651060143
:102A70008521896F05016751060186218A6FD2EC95
:102A800006F0060187510501605D060188510501C8
:102A90006159060189510501625906018A510501F2
:102AA0006359D8A056EF95F058EF95F09CEF95F04C
:102AB00006019351836F846B5550835D8451800A66
:102AC000856F5650800A8559D8B069EF95F06CEF44
:102AD00095F0010E6DEF95F0000E866F876B88EC18
:102AE00002F00601886F88518617000E87178651FD
:102AF0008711D8B47EEF95F080EF95F085EF95F0D3
:102B0000040E5E6E93C655F5566A93515FECEDF078
:102B100005016C6F060193518CECEDF005016D6FB2
:102B200006019351B9ECEDF005016E6F060193516A
:102B3000EDECD0F0DDEF95F006019351836F846BDF
:102B4000555083190AE156508419D8B4AAEF95F06C
:102B5000ADEF95F0010EAEEF95F0000E856F866B30
:102B600088EC02F00601876F87518517000E8617E3
:102B700085518611D8B4BFEF95F0C1EF95F0D2EF33
:102B800095F083EC01F005016C6F83EC01F0050119
:102B90006D6F83EC01F005016E6F5550EDECD0F0D8
:102BA000DDEF95F0000E05016C6F000E6D6F000EED
:102BB0006E6F06019351EDECD0F00601932B07EFF9
:102BC00095F0C8EC02F0E806D8A4E9EF95F0EBEF39
:102BD00095F0AFEF96F0060167BFF1EF95F0F3EFD8
:102BE00095F04DEF96F0000E916F0F0E9165FBEF93
:102BF00095F0FDEF95F0FFEF95F0AFEF96F0915166
:102C00000501686F696B6A6B6B6B46C66CF547C6EE
:102C10006DF548C66EF549C66FF560ECE8F066C61E
:102C200083F667C684F6000E060184BFFF0E856F2B
:102C3000866F050168510601835D05016951060132
:102C4000845905016A510601855905016B51060138
:102C50008659D8A02EEF96F030EF96F03EEF96F022
:102C600083EC01F005016C6F000E6D6F000E6E6F4E
:102C700006019151EDECD0F049EF96F0000E050100
:102C80006C6F000E6D6F000E6E6F06019151EDECD2
:102C9000D0F00601912BF5EF95F0000E926F0F0E1C
:102CA000926555EF96F057EF96F059EF96F0AFEF2B
:102CB00096F066C672F567C673F594ECF3F00501FD
:102CC00072C583F673C584F6000E060184BFFF0E3D
:102CD000856F866F92510501686F696B6A6B6B6BCC
:102CE00042C66CF543C66DF544C66EF545C66FF534
:102CF00060ECE8F0050168510601835D050169514A
:102D00000601845905016A510601855905016B5177
:102D100006018659D8A08FEF96F091EF96F0A0EFBC
:102D200096F0000E05016C6F000E6D6F83EC01F0E4
:102D300005016E6F06019251EDECD0F0ABEF96F00D
:102D4000000E05016C6F000E6D6F000E6E6F0601B8
:102D50009251EDECD0F00601922B4FEF96F0000E61
:102D60000601716F000E726FADEF97F0CEB8BBEF3A
:102D700096F0BDEF96F0DAEF96F0DBEC06F0050189
:102D8000605106013E5D0501615106013F59050193
:102D90006251060140590501635106014159D8B0FD
:102DA000D4EF96F0D6EF96F0EAEF96F0060E4A6E64
:102DB000ADEF97F03E693F6940694169C8EC02F0A8
:102DC0000009D8B4E6EF96F0E8EF96F0EAEF96F057
:102DD000000E4A6E06013E290AE13F2908E140291A
:102DE00006E14129D8A4F7EF96F0F9EF96F0ADEFA0
:102DF00097F071ECA5F00009D8A401EF97F003EF6C
:102E000097F0ADEF97F0000E4A6E3AECD0F0ADEFD0
:102E100097F086ECBEF00009D8A411EF97F013EFFD
:102E200097F0ADEF97F003EF97F0000E05016C6F90
:102E300083EC01F005016D6F000E7FECF6F0DBEC2A
:102E400006F00501605106014A5D05016151060168
:102E50004B590501625106014C59050163510601A8
:102E60004D59D8B036EF97F038EF97F0ADEF97F0B7
:102E7000040E4A6E3AECD0F0000E05016C6F000EA5
:102E80006D6F000E7FECF6F0ADEF97F056BE4BEF96
:102E900097F04DEF97F04FEF97F0ADEF97F0D2EC42
:102EA00006F0050163516211611109E1650E605D73
:102EB000D8A05DEF97F05FEF97F063EF97F0000E0B
:102EC0004A6EADEF97F0BE82BF8ED2EC06F00501E0
:102ED00063516211611109E1650E605DD8A073EF65
:102EE00097F075EF97F0ADEF97F05FEF97F04A50DE
:102EF0000601836F846B8451000AD8B482EF97F087
:102F0000ADEF97F08351000AD8B492EF91F0010A27
:102F1000D8B4B1EF91F0030AD8B4DEEF91F0010A12
:102F2000D8B45DEF93F0070AD8B478EF93F0010AB4
:102F3000D8B4B6EF96F0030AD8B409EF97F0010AB7
:102F4000D8B446EF97F00F0AD8B415EF97F0010AFE
:102F5000D8B4ADEF97F0ADEF97F01200000E060178
:102F6000A46FD5C5A5F6D6C5A6F6D7C5A7F6D8C50C
:102F7000A8F6A8BFC0EF97F0BEEF97F0D4EF97F098
:102F8000010EA46FA5C660F5A6C661F5A7C662F5D9
:102F9000A8C663F54BECF4F060C5A5F661C5A6F6CE
:102FA00062C5A7F663C5A8F6000E0601AA6F000E5B
:102FB000A96F58C698F659C699F6A451D8B4E3EF4C
:102FC00097F0E5EF97F0F9EF97F0A451D8A4EBEF65
:102FD00097F0EDEF97F0F3EF97F0000E8A6F2B0E5E
:102FE000896FF7EF97F0000E8A6F2D0E896F89C6F3
:102FF000A4F6A5C660F5A6C661F5A7C662F5A8C683
:1030000063F5FAECD9F0050160056111D8A40BEF66
:1030100098F00DEF98F048EF98F00601A451D8B45D
:1030200014EF98F016EF98F01FEF98F0A4C660F830
:103030009807D8A09907000EAA6F010EA96F600E1D
:10304000A9250501606F080E0601AA210501616F1F
:10305000D60E626FFF0E636F08ECF3F00601FD0EF3
:103060009827FF0E9923D3C570F5D4C571F5600E6E
:103070000501726F080E736F98C674F599C675F5E1
:10308000FBECDDF070C5D3F571C5D4F532EF9DF0E2
:10309000A5C660F5A6C661F5A7C662F5A8C663F524
:1030A000FAECD9F0050160516111D8A45AEF98F0FB
:1030B0005CEF98F07FEF98F00601A451D8B463EF6D
:1030C00098F065EF98F06EEF98F0A4C660F8980756
:1030D000D8A09907000EAA6F010EA96F600EA9254E
:1030E0000501606F080E0601AA210501616FDA0E65
:1030F000626FFF0E636F08ECF3F02EEF98F0000E96
:103100000601AB6F000EAC6F800EAD6F3F0EAE6F61
:10311000000E936F000E926FA5C660F5A6C661F50E
:10312000A7C662F5A8C663F5000E0501646F000E20
:10313000656F000E666F000E676F87ECE2F00501A9
:10314000D8B0A5EF98F0A7EF98F0A1EF99F0B4EF01
:1031500098F094C6ABF695C6ACF696C6ADF697C693
:10316000AEF60601924B932BABC67DF5ACC67EF551
:10317000ADC67FF5AEC680F5000E0501816F000E6D
:10318000826F200E836F410E846F0FECB4F07DC50B
:1031900094F67EC595F67FC596F680C597F606012E
:1031A0009451A55D0501606F06019551A659050171
:1031B000616F06019651A7590501626F060197518B
:1031C000A8590501636FCBECE8F0050163BFF4EF8C
:1031D00098F063516211611109E1020E605DD8A09F
:1031E000F4EF98F0F6EF98F0A9EF98F094C696F502
:1031F00095C697F596C698F597C699F5A5C69AF51A
:10320000A6C69BF5A7C69CF5A8C69DF56EECD7F0A3
:103210000501D8A00EEF99F010EF99F0A9EF98F002
:103220000601AB51A55D0501606F0601AC51A659C1
:103230000501616F0601AD51A7590501626F0601D5
:10324000AE51A8590501636FCBECE8F0050163BFEF
:1032500037EF99F063516211611107E1020E605D71
:10326000D8B035EF99F037EF99F087EF99F0ABC60A
:10327000A5F6ACC6A6F6ADC6A7F6AEC6A8F6A1EFF3
:1032800099F0ABC6A6F5ACC6A7F5ADC6A8F5AEC617
:10329000A9F5000EAA6F000EAB6F200EAC6F410EA9
:1032A000AD6F32ECB8F0A6C5ABF6A7C5ACF6A8C5B5
:1032B000ADF6A9C5AEF606019207D8A09307AB51AB
:1032C000A55D0501606F0601AC51A6590501616F4E
:1032D0000601AD51A7590501626F0601AE51A8590B
:1032E0000501636FCBECE8F0050163BF85EF99F052
:1032F00063516211611107E1020E605DD8B083EF86
:1033000099F085EF99F087EF99F037EF99F0A5C61E
:1033100096F5A6C697F5A7C698F5A8C699F5ABC6C3
:103320009AF5ACC69BF5ADC69CF5AEC69DF56EECA8
:10333000D7F00501D8A09FEF99F0A1EF99F041EFE8
:1033400099F0D9C58CF68CC68DF606015BBFABEF44
:1033500099F0ADEF99F0B3EF99F05AC685F65BC6D8
:1033600086F6B7EF99F0000E866F060E856F85C65C
:1033700090F686C691F6904B912B660E8D19D8A4C7
:10338000C4EF99F0C6EF99F0E6EF99F093BFCDEF57
:1033900099F0CBEF99F0D9EF99F0000EAB6F000EDA
:1033A000AC6F800EAD6F3F0EAE6F000E936F000ED0
:1033B000926F670E8C19D8B4E0EF99F0E2EF99F0B4
:1033C000E6EF99F09251902793519123000EA36F4D
:1033D000000EA26FA5C69AF6A6C69BF6A7C69CF6D7
:1033E000A8C69DF6ABC694F6ACC695F6ADC696F6E5
:1033F000AEC697F678EF9AF09AC6A6F59BC6A7F5E3
:103400009CC6A8F59DC6A9F5ABC6AAF5ACC6ABF59A
:10341000ADC6ACF5AEC6ADF532ECB8F0A6C5BFF59D
:10342000A7C5C0F5A8C5C1F5A9C5C2F506ECC2F08F
:10343000BFC59EF6C0C59FF6C1C5A0F6C2C5A1F620
:103440009EC660F59FC661F5A0C662F5A1C663F58C
:10345000EAECD6F060C58EF661C58FF69AC6A6F581
:103460009BC6A7F59CC6A8F59DC6A9F59EC681F585
:103470009FC682F5A0C683F5A1C684F5ABC67DF5CF
:10348000ACC67EF5ADC67FF5AEC680F50FECB4F0E8
:103490007DC5AAF57EC5ABF57FC5ACF580C5ADF59C
:1034A00078ECF2F0A6C59AF6A7C59BF6A8C59CF6DF
:1034B000A9C59DF6ABC6A6F5ACC6A7F5ADC6A8F5E1
:1034C000AEC6A9F5000E0501AA6F000EAB6F200E67
:1034D000AC6F410EAD6F32ECB8F0A6C5ABF6A7C528
:1034E000ACF6A8C5ADF6A9C5AEF60601A24BA32B56
:1034F0009051A25DA351800A0501DA6F0601915136
:10350000800A0501DA59D8A088EF9AF08AEF9AF07C
:10351000FCEF99F0ABC67DF5ACC67EF5ADC67FF588
:10352000AEC680F5000E816F000E826FA00E836F15
:10353000400E846F0FECB4F07DC59EF67EC59FF6FD
:103540007FC5A0F680C5A1F69AC696F59BC697F5ED
:103550009CC698F59DC699F59EC69AF59FC69BF5A3
:10356000A0C69CF5A1C69DF56EECD7F00501D8B0BC
:10357000BCEF9AF0BEEF9AF0C9EF9AF0000E060188
:103580009E6F000E9F6F000EA06F000EA16FF3EFF5
:103590009AF09AC660F59BC661F59CC662F59DC619
:1035A00063F59EC664F59FC665F5A0C666F5A1C61F
:1035B00067F587ECE2F00501D8A0E1EF9AF0E3EFC0
:1035C0009AF0F3EF9AF006018EB1E9EF9AF0EBEF83
:1035D0009AF0F3EF9AF0000E9E6F000E9F6F000EB0
:1035E000A06F000EA16FA5C696F5A6C697F5A7C653
:1035F00098F5A8C699F59EC69AF59FC69BF5A0C6F4
:103600009CF5A1C69DF5BAECA8F096C59AF697C5AB
:103610009BF698C59CF699C59DF69AC696F59BC6ED
:1036200097F59CC698F59DC699F5000E0501816F2A
:10363000000E826F200E836F410E846F94C67DF55D
:1036400095C67EF596C67FF597C680F50FECB4F06B
:103650007DC59AF57EC59BF57FC59CF580C59DF51A
:103660006EECD7F00501D8A038EF9BF03AEF9BF055
:1036700064EF9BF00601924B932B94C67DF595C6A3
:103680007EF596C67FF597C680F5000E0501816F21
:10369000000E826F200E836F410E846F0FECB4F02A
:1036A0007DC594F67EC595F67FC596F680C597F6DE
:1036B000660E06018D19D8A460EF9BF062EF9BF0B7
:1036C00064EF9BF0904B912B94C6ABF695C6ACF68D
:1036D00096C6ADF697C6AEF692C683F693C684F646
:1036E000000E06018B6F000E886F000E876F000EB4
:1036F000A36F000EA26F64EF9CF09AC6A6F59BC65E
:10370000A7F59CC6A8F59DC6A9F5ABC6AAF5ACC69B
:10371000ABF5ADC6ACF5AEC6ADF532ECB8F0A6C5AE
:10372000BFF5A7C5C0F5A8C5C1F5A9C5C2F506EC8A
:10373000C2F0BFC59EF6C0C59FF6C1C5A0F6C2C502
:10374000A1F69EC660F59FC661F5A0C662F5A1C64A
:1037500063F5EAECD6F0050161BFBAEF9BF0615169
:1037600007E10A0E605DD8B0B8EF9BF0BAEF9BF0AE
:10377000CAEF9BF09EC660F59FC661F5A0C662F5D4
:10378000A1C663F5EAECD6F060C58EF661C58FF68A
:10379000CFEF9BF0000E06018F6F090E8E6F0601B2
:1037A0008B51D8A4D6EF9BF0D8EF9BF000EF9CF0A4
:1037B00084BFDFEF9BF0DDEF9BF000EF9CF0600E2D
:1037C000A925D96E080EAA21DA6E2E0EDF6EA94B3E
:1037D000AA2B9807D8A09907010E8B6F00EF9CF0D9
:1037E000600EA925D96E080EAA21DA6E300EDF6EA2
:1037F000A94BAA2B9807D8A099078707D8A08807B4
:1038000087518811D8A407EF9CF009EF9CF0F0EFE6
:103810009BF0600EA925D96E080EAA21DA6E8E5192
:10382000300FDF6EA94BAA2B9807D8A099079AC62C
:10383000A6F59BC6A7F59CC6A8F59DC6A9F59EC68C
:1038400081F59FC682F5A0C683F5A1C684F5ABC6F7
:103850007DF5ACC67EF5ADC67FF5AEC680F50FEC46
:10386000B4F07DC5AAF57EC5ABF57FC5ACF580C5C6
:10387000ADF578ECF2F0A6C59AF6A7C59BF6A8C5FB
:103880009CF6A9C59DF6ABC6A6F5ACC6A7F5ADC618
:10389000A8F5AEC6A9F5000E0501AA6F000EAB6F24
:1038A000200EAC6F410EAD6F32ECB8F0A6C5ABF692
:1038B000A7C5ACF6A8C5ADF6A9C5AEF60601830747
:1038C000D8A08407A24BA32B9051A25DA351800ADC
:1038D0000501DA6F06019151800A0501DA59D8B065
:1038E00074EF9CF076EF9CF085EF9CF00601AABF88
:1038F00083EF9CF0AA5109E14B0EA95DD8A083EF9C
:103900009CF085EF9CF07DEF9BF0000E0601A36F0D
:103910004F0EA26F600EA225D96E080EA321DA6E9B
:10392000000EDF6E600E0501DA6F080EDB6F060118
:10393000A9510501DA5F0601AA510501DB5B060109
:10394000A2510501DA25606F0601A3510501DB21B3
:10395000616F600E626F080E636FA9C664F5AAC638
:1039600065F595ECEFF00601A951A25DA96FAA518A
:10397000A359AA6FA451D8A4C0EF9CF0C3EF9CF048
:10398000010EC4EF9CF0000EA26FA36B6EA3CBEFF1
:103990009CF0CDEF9CF003EF9DF0DEEF9CF0060174
:1039A000A907D8A0AA07600EA925D96E080EAA21DA
:1039B000DA6E300EDF6E9807D8A099079851A25D95
:1039C000A351800A0501DA6F06019951800A0501A9
:1039D000DA59D8B0EEEF9CF0F0EF9CF003EF9DF0D9
:1039E0000601A951A25DA351800A0501DA6F060103
:1039F000AA51800A0501DA59D8A001EF9DF003EF22
:103A00009DF0CFEF9CF00601A451D8B40AEF9DF0D1
:103A10000CEF9DF017EF9DF0A907D8A0AA07600E44
:103A2000A925D96E080EAA21DA6EA4C6DFF4A25128
:103A3000985FA351995BD3C570F5D4C571F5600E3D
:103A4000A9250501726F080E0601AA210501736FF1
:103A500098C674F599C675F5FBECDDF070C5D3F525
:103A600071C5D4F51200DEC5D9F4DFC5DAF4DEC4C1
:103A7000F6F4DDC4F7F4000EF86E0800F550250AE0
:103A8000D8A445EF9DF047EF9DF0F1EFA1F0DEC522
:103A9000D9F4DFC5DAF4DE2A000EDD22000E0601BD
:103AA000596F000E586F58C66EF65A695B69000E62
:103AB0000501F16F000EF06F8BEF9DF006016E8334
:103AC000DEC5D9F4DFC5DAF4DE2A000EDD228BEF85
:103AD0009DF0000EF16F010EF06F8BEF9DF0DEC5D3
:103AE000D9F4DFC5DAF4DEC4F6F4DDC4F7F4000E71
:103AF000F86E0800F550E26FE36BE351000AD8B4AA
:103B000084EF9DF069EF9DF0E251300AD8B45EEF8A
:103B10009DF069EF9DF00501F051F111D8B493EFDC
:103B20009DF095EF9DF06FEF9DF0DEC5D9F4DFC5F8
:103B3000DAF4DEC4F6F4DDC4F7F4000EF86E080023
:103B4000F5502A0AD8A4A7EF9DF0A9EF9DF0D3EF76
:103B50009DF0DEC5D9F4DFC5DAF4DE2A000EDD22E1
:103B6000E0C5D9F4E1C5DAF4DFC4E2F5020EDE26E1
:103B7000DFC4E3F5000EDD22E2C5D9F4E3C5DAF4D3
:103B8000DEC458F6DDC459F6060159BFCCEF9DF0EE
:103B9000CAEF9DF009EF9EF06E81586D591FD8B0A5
:103BA000592B09EF9EF0DEC5D9F4DFC5DAF4DEC487
:103BB00066F5DDC467F501ECC6F066C558F667C565
:103BC00059F6EAEF9DF0DEC5D9F4DFC5DAF4DE2A56
:103BD000000EDD22DEC5D9F4DFC5DAF4DEC4F6F46A
:103BE000DDC4F7F4000EF86E0800F5C4E2F5D00E5F
:103BF0000501E225E36FE46BFF0EE423E45109E1E4
:103C00000A0EE35DD8A007EF9EF009EF9EF0E3EF08
:103C10009DF0DEC5D9F4DFC5DAF4DEC4FDF5DDC400
:103C2000FEF5FDC5F6F4FEC5F7F4000EF86E0800CB
:103C3000F5C4FCF528EF9EF0FD4BFE2B4EEF9EF0F9
:103C4000690EFC6F4EEF9EF0000EFC6F4EEF9EF083
:103C50000501FC51E26FE36BE351000AD8B433EF86
:103C60009EF024EF9EF0E251640AD8B420EF9EF05B
:103C70000D0AD8B420EF9EF0050AD8B41CEF9EF0D0
:103C8000020AD8B420EF9EF01B0AD8B420EF9EF0B1
:103C90000D0AD8B420EF9EF024EF9EF0FDC5F6F497
:103CA000FEC5F7F4000EF86E0800F550640AD8B4AB
:103CB0005CEF9EF05EEF9EF0CAEF9EF0FDC5F6F45D
:103CC000FEC5F7F4000EF86E0800F550690AD8A496
:103CD0006CEF9EF06EEF9EF009EF9FF0CAEF9EF042
:103CE000E0C5D9F4E1C5DAF4DFC4E2F5020EDE2660
:103CF000DFC4E3F5000EDD22E2C5D9F4E3C5DAF452
:103D0000DEC4F4F5DDC4F5F5000EF5BFFF0EF66F69
:103D1000F76FF86FF96FFA6FFB6FDFEF9EF0E0C59A
:103D2000D9F4E1C5DAF4DFC4E2F5040EDE26DFC41F
:103D3000E3F5000EDD22E2C5D9F4E3C5DAF4DEC412
:103D4000E4F5DEC4E5F5DEC4E6F5DEC4E7F5E4C57A
:103D5000E8F5E5C5E9F5E6C5EAF5E7C5EBF5EC6B91
:103D6000EBBFEC69ECC5EDF5ECC5EEF5ECC5EFF598
:103D7000E8C5F4F5E9C5F5F5EAC5F6F5EBC5F7F5DF
:103D8000ECC5F8F5EDC5F9F5EEC5FAF5EFC5FBF5AF
:103D9000DFEF9EF0FC51E26FE36BE351000AD8B411
:103DA000D4EF9EF0DFEF9EF0E251690AD8B470EFD5
:103DB0009EF0050AD8B48FEF9EF0DFEF9EF0010E63
:103DC000FD25E26F000EFE21E36FDEC5D9F4DFC5ED
:103DD000DAF4E2C5DEF4E3C5DDF4DCC57BF5DDC570
:103DE0007CF5F4C57DF5F5C57EF5F6C57FF5F7C51F
:103DF00080F5F8C581F5F9C582F5FAC583F5FBC5EF
:103E000084F51FECBDF07BC5DCF57CC5DDF50FEF5F
:103E1000A2F0FDC5F6F4FEC5F7F4000EF86E08003A
:103E2000F550780AD8B417EF9FF019EF9FF071EFB3
:103E30009FF0FDC5F6F4FEC5F7F4000EF86E08001D
:103E4000F550750AD8A427EF9FF029EF9FF0EAEF0D
:103E50009FF071EF9FF0E0C5D9F4E1C5DAF4DFC45B
:103E6000E2F5020EDE26DFC4E3F5000EDD22E2C538
:103E7000D9F4E3C5DAF4DEC4E4F5DDC4E5F5E4C560
:103E8000F4F5E5C5F5F5F66BF76BF86BF96BFA6BC6
:103E9000FB6B86EF9FF0E0C5D9F4E1C5DAF4DFC42F
:103EA000E2F5040EDE26DFC4E3F5000EDD22E2C5F6
:103EB000D9F4E3C5DAF4DEC4E4F5DEC4E5F5DEC426
:103EC000E6F5DEC4E7F5E451F46FE551F56FE65130
:103ED000F66FE751F76FF86BF96BFA6BFB6B86EFD8
:103EE0009FF0FC51E26FE36BE351000AD8B47BEF23
:103EF0009FF086EF9FF0E251690AD8B42BEF9FF054
:103F0000050AD8B44BEF9FF086EF9FF0010EFD2518
:103F1000E26F000EFE21E36FDEC5D9F4DFC5DAF4EF
:103F2000E2C5DEF4E3C5DDF4CEEF9FF0DCC57BF542
:103F3000DDC57CF5F4C57DF5F5C57EF5F6C57FF5E7
:103F4000F7C580F5F8C581F5F9C582F5FAC583F5A1
:103F5000FBC584F511ECC3F07BC5DCF57CC5DDF554
:103F60000FEFA2F0DCC57BF5DDC57CF5F4C57DF572
:103F7000F5C57EF5F6C57FF5F7C580F5F8C581F581
:103F8000F9C582F5FAC583F5FBC584F510ECC5F0DB
:103F90007BC5DCF57CC5DDF50FEFA2F0FDC5F6F4C1
:103FA000FEC5F7F4000EF86E0800F550E26FE36B03
:103FB000E351000AD8B4DFEF9FF0EAEF9FF0E2513F
:103FC000750AD8B496EF9FF00D0AD8B4B2EF9FF0FF
:103FD000EAEF9FF0FDC5F6F4FEC5F7F4000EF86EAB
:103FE0000800F5506E0AD8A4F8EF9FF0FAEF9FF0A2
:103FF0006EEFA0F045EFA0F0E0C5D9F4E1C5DAF42A
:10400000DFC4E2F5020EDE26DFC4E3F5000EDD229A
:10401000E2C5D9F4E3C5DAF4DEC4E4F5DDC4E5F5C0
:10402000E4C5D9F4E5C5DAF430C5DEF431C5DDF414
:104030005AEFA0F030C5E2F531C5E3F5000EE3BF5D
:10404000FF0EE46FE56FE0C5D9F4E1C5DAF4DFC433
:10405000E6F5020EDE26DFC4E7F5000EDD22E6C53A
:10406000D9F4E7C5DAF4DEC4E8F5DDC4E9F5E8C55E
:10407000D9F4E9C5DAF4E2C5DEF4E3C5DEF4E4C55B
:10408000DEF4E5C5DEF45AEFA0F0FC51E26FE36B1D
:10409000E351000AD8B44FEFA0F05AEFA0F0E2517C
:1040A000690AD8B4FCEF9FF0050AD8B41AEFA0F063
:1040B0005AEFA0F0010EFD25E26F000EFE21E36F26
:1040C000DEC5D9F4DFC5DAF4E2C5DEF4E3C5DDF41C
:1040D000000EDD6F000EDC6F0FEFA2F0DEC5D9F42D
:1040E000DFC5DAF4DEC4F6F4DDC4F7F4000EF86ED2
:1040F0000800F550730AD8B480EFA0F082EFA0F06A
:104100009EEFA0F0DEC5D9F4DFC5DAF4DEC460F5B9
:10411000DDC461F5DE0E626FFF0E636F000E656F2A
:10412000030E646F7AECDAF0050160516111D8A4D6
:104130009CEFA0F09EEFA0F0E4EFA0F0DEC5D9F474
:10414000DFC5DAF4DEC4F6F4DDC4F7F4000EF86E71
:104150000800F550730AD8B4B0EFA0F0B2EFA0F0A9
:10416000B8EFA0F0000EF36F030EF26FBCEFA0F0FB
:10417000000EF36F010EF26FDEC5D9F4DFC5DAF47D
:10418000F251DE26F351DD22DCC569F5DDC56AF5A5
:10419000E0C5D9F4E1C5DAF4DFC4E2F5020EDE26AB
:1041A000DFC4E3F5000EDD22E2C5D9F4E3C5DAF49D
:1041B000DEC46BF5DDC46CF53FECCAF069C5DCF517
:1041C0006AC5DDF50FEFA2F0DEC5D9F4DFC5DAF47C
:1041D000DEC4FDF5DDC4FEF5FDC5F6F4FEC5F7F45D
:1041E000000EF86E0800F5C4FCF503EFA1F0FD4BDE
:1041F000FE2B1CEFA1F06C0EFC6F1CEFA1F0000E6B
:10420000FC6F1CEFA1F0FC51E26FE36BE351000A7D
:10421000D8B40DEFA1F0FFEFA0F0E2514C0AD8B4F2
:10422000F7EFA0F02A0AD8B4FBEFA0F00A0AD8B43E
:10423000F7EFA0F0FFEFA0F0FDC5F6F4FEC5F7F430
:10424000000EF86E0800F550660AD8A42AEFA1F017
:104250002CEFA1F0BCEFA1F062EFA1F0E0C5D9F422
:10426000E1C5DAF4DFC4E2F5040EDE26DFC4E3F5CF
:10427000000EDD22E2C5D9F4E3C5DAF4DEC4F4F5BC
:10428000DEC4F5F5DEC4F6F5DEC4F7F577EFA1F090
:10429000E0C5D9F4E1C5DAF4DFC4E2F5040EDE26A8
:1042A000DFC4E3F5000EDD22E2C5D9F4E3C5DAF49C
:1042B000DEC4F4F5DEC4F5F5DEC4F6F5DEC4F7F5CC
:1042C00077EFA1F0FC51E26FE36BE351000AD8B441
:1042D0006CEFA1F077EFA1F0E2514C0AD8B448EFAF
:1042E000A1F0200AD8B42EEFA1F077EFA1F0010ED3
:1042F000FD25E26F000EFE21E36FDEC5D9F4DFC5B8
:10430000DAF4E2C5DEF4E3C5DDF4A4EFA1F0DCC528
:10431000D3F5DDC5D4F5F4C5D5F5F5C5D6F5F6C5A7
:10432000D7F5F7C5D8F5FDC5F6F4FEC5F7F4000ED0
:10433000F86E0800F5C4D9F5AEEC97F0D3C5DCF5FE
:10434000D4C5DDF50FEFA2F0FDC5F6F4FEC5F7F418
:10435000000EF86E0800F550E26FE36BE351000ABF
:10436000D8B4B5EFA1F0BCEFA1F0E251660AD8B421
:1043700087EFA1F0BCEFA1F0DEC5D9F4DFC5DAF418
:10438000DEC4F6F4DDC4F7F4000EF86E0800F55054
:10439000250AD8A4CEEFA1F0D0EFA1F0E8EFA1F06C
:1043A000DEC5D9F4DFC5DAF4DE2A000EDD22000E08
:1043B000616F250E606FDCC562F5DDC563F561ECEC
:1043C000DEF0000E0501DD6F010EDC6F0FEFA2F0D5
:1043D000DEC5D9F4DFC5DAF4DE2A000EDD2268EF8F
:1043E000A0F0DEC5D9F4DFC5DAF4DEC4F6F4DDC42E
:1043F000F7F4000EF86E0800F5500501606F616B70
:10440000DCC562F5DDC563F561ECDEF0DEC5D9F42F
:10441000DFC5DAF4DE2A000EDD22E1EFA1F01200A2
:10442000050120EE2CF17851D9267951DA22DF509E
:10443000D8A41DEFA2F01FEFA2F022EFA2F0030E0E
:1044400070EFA5F020EE01F07851D9267951DA22EB
:10445000000EDF6E78C56CF579C56DF5F1ECD7F01F
:10446000000E0501886FB6EFA2F0000E8B6F8B5126
:10447000230DF3C47AF5F4C47BF57A5178257C6F6B
:104480007B5179217D6F020E7C25D96E000E7D2136
:10449000DA6E8851020DF3C47FF5F4C480F57F51C4
:1044A0007825816F80517921826F2D0E8125E16EF3
:1044B000010E8221E26E00EE02F0E650E926E550A0
:1044C000EA22DE50EE18D8A468EFA2F06AEFA2F05C
:1044D0006CEFA2F0B5EFA2F0070E8B19D8A473EF22
:1044E000A2F075EFA2F0ACEFA2F08851020DF3C478
:1044F0007AF5F4C47BF57A5178257C6F7B5179216C
:104500007D6F2D0E7C25D96E010E7D21DA6E10EEA9
:1045100002F0DE50E126DD50E22278C5D9F479C5FB
:10452000DAF4DF507E6F7E51230DF3C47FF5F4C4BF
:1045300080F57F517825816F80517921826F020E3D
:104540008125D96E000E8221DA6EE7C4DFF478C5CA
:10455000D9F479C5DAF4DF2A8B2B070E8B65B3EF1C
:10456000A2F0B5EFA2F037EFA2F0882B20EE2CF1ED
:104570007851D9267951DA22DE50885DD8A0C3EF70
:10458000A2F0C5EFA2F035EFA2F0000E8F6F62EF40
:10459000A5F0010E896F000E8E6F000E8D6F000E5C
:1045A0008A6F35EFA3F08A51020DF3C47AF5F4C493
:1045B0007BF57A5178257C6F7B5179217D6F2D0EAB
:1045C0007C25D96E010E7D21DA6E10EE02F0DE50F0
:1045D000E126DD50E2228F51230DF3C47FF5F4C4B0
:1045E00080F57F517825816F80517921826F020E8D
:1045F0008125D96E000E8221DA6EE650DE18D8A42D
:1046000004EFA3F006EFA3F034EFA3F08A51020DFC
:10461000F3C47AF5F4C47BF57A5178257C6F7B512D
:1046200079217D6F2D0E7C25D96E010E7D21DA6EEC
:1046300010EE03F0DE50E126DD50E222E6C47EF506
:10464000E5C47FF57FC57EF57F6B7E517F11D8A4D1
:104650002CEFA3F030EFA3F0806B802B32EFA3F0B0
:104660000501806B802989278A2B20EE2CF1785157
:10467000D9267951DA22DE508A5DD8A042EFA3F024
:1046800044EFA3F0D3EFA2F0070E89614AEFA3F045
:104690004CEFA3F092EFA3F08F51230DF3C47AF502
:1046A000F4C47BF57A5178257C6F7B5179217D6F3D
:1046B0008E517C27000E7D23030E7C25D96E000EC3
:1046C0007D21DA6E89C5DFF48E2B8F51230DF3C463
:1046D0007AF5F4C47BF57A5178257C6F7B5179218A
:1046E0007D6F020E7C25D96E000E7D21DA6E8F5112
:1046F000230DF3C47EF5F4C47FF57E517825806FD9
:104700007F517921816F8E518027000E8123030E06
:104710008025E16E000E8121E26EDFC4E7F48E2B6E
:10472000F1EFA3F08F51230DF3C47AF5F4C47BF5B8
:104730007A5178257C6F7B5179217D6F8E517C2752
:10474000000E7D23030E7C25D96E000E7D21DA6ECE
:104750008D511009DF6E8E2B8F51230DF3C47AF526
:10476000F4C47BF57A5178257C6F7B5179217D6F7C
:104770008E517C27000E7D23030E7C25D96E000E02
:104780007D21DA6E89C5DFF48E2B8F51230DF3C4A2
:104790007AF5F4C47BF57A5178257C6F7B517921C9
:1047A0007D6F020E7C25D96E000E7D21DA6E8F5151
:1047B000230DF3C47EF5F4C47FF57E517825806F18
:1047C0007F517921816F8E518027000E8123030E46
:1047D0008025E16E000E8121E26EDFC4E7F48FEFE9
:1047E000A3F0000E8C6F52EFA5F08C51020DF3C4B4
:1047F0007AF5F4C47BF57A5178257C6F7B51792169
:104800007D6F2D0E7C25D96E010E7D21DA6E10EEA6
:1048100002F0DE50E126DD50E2228F51230DF3C479
:104820007FF5F4C480F57F517825816F805179211F
:10483000826F020E8125D96E000E8221DA6EE6505B
:10484000DE18D8A426EFA4F028EFA4F03DEFA5F0E1
:104850008C51020DF3C47AF5F4C47BF57A517825B6
:104860007C6F7B5179217D6F2D0E7C25D96E010ED9
:104870007D21DA6E10EE03F0DE50E126DD50E222FB
